:020000040800F2
:10000000D0350020010100082F200008F91C00084D
:100010002D20000889020008B72F0008000000000A
:10002000000000000000000000000000792500082A
:10003000BD03000800000000312000087B250008F7
:100040001B0100081B0100081B0100081B01000820
:100050001B0100081B0100081B0100081B01000810
:100060001B0100081B0100081B0100081B01000800
:10007000A1020008AD020008B9020008C50200088C
:10008000D1020008DD0200081B0100081B01000866
:100090001B0100081B0100081B0100081B010008D0
:1000A0001B0100081B0100081B0100081B010008C0
:1000B0001B010008E52500081B0100081B010008C2
:1000C0001B0100081B0100081B0100081B010008A0
:1000D0001B010008C52B0008152C00085D2E000828
:1000E0001B0100081B0100081B010008DFF80CD0F1
:1000F00000F07EF80048004759360008D03500204F
:100100000648804706480047FEE7FEE7FEE7FEE7B1
:10011000FEE7FEE7FEE7FEE7FEE7FEE7E325000871
:10012000ED000008202A04DB203A21FA02F0002129
:10013000704721FA02F3D040C2F1200291400843F7
:100140001946704740EA01039B0703D009E008C93C
:10015000121F08C0042AFAD203E011F8013B00F88C
:10016000013B521EF9D27047D2B201E000F8012BD8
:10017000491EFBD270470022F6E710B513460A4627
:1001800004461946FFF7F0FF204610BD2DE9F05F49
:100190000546002092469B468846064681464024F6
:1001A0001BE02846414647462246FFF7BBFF534621
:1001B0005A46C01A914110D311461846224600F003
:1001C00029F82D1A67EB01084F462246012000212D
:1001D00000F020F817EB00094E41201EA4F10104A5
:1001E000DFDC484631462A464346BDE8F09F000022
:1001F000064C074D06E0E06840F0010394E8070074
:1002000098471034AC42F6D3FFF774FF4C3800081F
:100210006C380008202A04DB203A00FA02F10020A2
:1002200070479140C2F1200320FA03F31943904034
:10023000704770B58C1810F8015B15F0070301D1F9
:1002400010F8013B2A1106D110F8012B03E010F839
:10025000016B01F8016B5B1EF9D12B0705D400235C
:10026000521E0DD401F8013BFAE710F8013BCB1AFE
:10027000921C03E013F8015B01F8015B521EF9D5F3
:10028000A142D8D3002070BDFEE710B50346007828
:10029000012202E09C5C6040521C8A42FADB10BDE5
:1002A000014800F021B90000800B0020014800F057
:1002B0001BB900003C0B0020014800F015B90000FC
:1002C000700A0020014800F00FB900002C0A00203D
:1002D000014800F009B90000B40A0020014800F00C
:1002E00003B90000F80A002030B590F8405001240E
:1002F000AC40C56B6C60046863604368102B036896
:1003000003D099600068C26030BD9A600068C16027
:1003100030BD00001FB51F4A9178491CC9B29170C9
:10032000814236D3002102F2FA7091700278521C99
:10033000D2B202703C2A20D301704278521CD2B251
:1003400042703C2A19D341708278521CD2B282701A
:10035000182A03D38170C178491CC170C1781F2944
:100360000BD90121C1700279521CD2B202710C2A40
:1003700003D90171C188491CC180C17804784378D0
:1003800082788DE81E000379C28803A10A4802F032
:10039000C5FE1FBD30000020253032642D253032CF
:1003A000642D2530326420253032642D25303264AE
:1003B0002D2530326400000032080020704772B6EC
:1003C000FEE70022AFF3008030B50E4B054601205A
:1003D0005C7A012C15D8587A00241C54587A03EB07
:1003E000800045605D7A03F108002A54587A421C67
:1003F0005A72303008703A2048702F208870CC70C4
:10040000002030BDC40B002010B590F82110002250
:10041000022905D00421816380F82020012010BD2D
:1004200001680B6823F00E030B6001680B6823F072
:1004300001030B6090F84030C46B012101FA03F313
:10044000636080F8211080F82020104610BD000065
:1004500010B590F821100024022903D004218163F3
:1004600001243DE001680A6822F00E020A6001687A
:100470000A6822F001020A601A4A0168914201D119
:10048000012121E0174A1432914201D110211BE0D1
:10049000144A2832914201D1891515E0114A3C32A3
:1004A000914201D189140FE00E4A5032914202D19B
:1004B0004FF4803108E00B4A6432914202D14FF48C
:1004C000801101E04FF08071064A083A5160012125
:1004D00080F82110002180F82010416B01B188477D
:1004E000204610BD080002402DE9F05FC16B0C688A
:1004F00001680B68D0F840C0042202FA0CF2494DA2
:10050000DFF824A1494E4A4FDFF828B1DFF828E18F
:1005100022422CD05A072AD50A68920603D40A68C8
:1005200022F004020A600168A94201D1042219E004
:10053000514501D1402215E0B14202D14FF4806211
:1005400010E0B94202D14FF480420BE0594502D18C
:100550004FF4802206E0714502D14FF4800201E0A1
:100560004FF080622F4908394A60C16A3BE04FF082
:10057000020808FA0CF818EA040F4FF000094FF0CF
:10058000010235D05FEA837832D50B689B0605D42B
:100590000B6823F00A030B6080F821200168A94250
:1005A00001D1022219E0514501D1202215E0B142CA
:1005B00002D14FF4007210E0B94202D14FF4005260
:1005C0000BE0594502D14FF4003206E0714502D1EB
:1005D0004FF4001201E04FF00072124908394A60EE
:1005E00080F82090816A00291AD0BDE8F05F0847A2
:1005F000082505FA0CF5254212D01B0710D50B680B
:1006000023F00E030B6090F84010C36B02FA01F167
:100610005960826380F8212080F82090016BE2E726
:10062000BDE8F09F080002401C000240300002407C
:1006300044000240580002406C00024030B528B32C
:1006400008C8134914221944B1FBF2F18900C163AF
:1006500010498163022141771A6843F6F0718A4399
:10066000D0E900142143D0E902452C432143046919
:1006700021434469214384692143114319600021C6
:100680004163012242770177084630BD012030BD29
:10069000F8FFFDBF0000024070B5044690F820004E
:1006A000002501280CD0012084F8200094F8216056
:1006B0000020012E06D084F820000225284670BDB7
:1006C000022070BD022684F82160A06320680668BD
:1006D00026F0010606602046FFF706FEE06A0028C5
:1006E0002068016802D041F00E0106E021F004010B
:1006F00001602068016841F00A010160206801681A
:1007000041F001010160D9E770B5044600F004F939
:100710000546601C02D004480078044400F0FCF850
:10072000401BA042FAD370BD200000202DE9F84FF5
:10073000DFF8B891002409F1040A0AF1040B2346FA
:100740000F270BF1040EC9E00125A5402A40AA425B
:100750007DD1674ED1F804C0ACEB0608B44532D069
:1007600014DCBCF1030F3AD009DCBCF1000F2AD035
:10077000BCF1010F1CD0BCF1020F31D11DE0BCF166
:10078000110F17D0BCF1120F2AD119E0B8F5881F4C
:1007900019D006DCB8F5803F15D0B8F5801F1FD101
:1007A00011E0B8F5001F0ED0B8F5041F18D10AE00B
:1007B000CB6815E0CB681B1D12E0CB6808330FE057
:1007C000CB680C330CE08B682BB1012B4FF0080386
:1007D00003D0456104E0042302E0056100E000234A
:1007E000FF2A01D8064601E000F104064FEA84051D
:1007F00001D9A5F12005D6F8008007FA05FC28EA02
:100800000C0803FA05F548EA0508C6F800804D68AB
:10081000ED0062D5374DAE6946F00106AE61AD69B7
:1008200024F0030605F001050095334D06EB050C99
:10083000DCF80850A607360F07FA06F825EA08057F
:10084000DFF8B880404503D14FF0000817E044E0DE
:10085000DFF8AC80404502D14FF001080FE0DFF82F
:10086000A480404502D14FF0020808E0DFF89880EC
:10087000404502D14FF0030801E04FF0040808FAA8
:1008800006F848EA0508CCF808804D68D9F80060F9
:10089000ED034D4601D5164300E096432E604D68AA
:1008A000DAF80060AD03554601D5164300E09643E3
:1008B0002E604D68DBF80060ED025D4601D5164301
:1008C00000E096432E604D68DEF80060AD0275468C
:1008D00001D5164300E096432E60641C0D682A463D
:1008E000E5407FF431AFBDE8F88F0000000401401F
:1008F00000001110001002400000014000080140FB
:10090000000C014000100140001401400AB10161D7
:1009100070470904FBE70000014880687047000049
:100920002000002070B5040011D021684CF6CC40A6
:100930000860216845F255500860D4E90001416023
:100940002168A0688860FFF7E7FF05460DE00120F9
:1009500070BD00BFFFF7E0FF401B272805D92068C6
:10096000C068800701D0032070BD2068C068800780
:10097000F0D121684AF6AA200860002070BD006806
:100980004AF6AA21016000207047000002488168F1
:10099000027811448160704720000020074810B59C
:1009A000016841F010010160032000F079F8002097
:1009B00000F006F800F024F8002010BD00200240EE
:1009C00070B50D4D04464FF47A712878B1FBF0F004
:1009D0000A490968B1FBF0F000F073FC48B9102C2B
:1009E00007D200222146501E00F03AF800206C6029
:1009F00070BD012070BD0000200000202C000020F0
:100A00000E4808B5816941F001018161816901F0F9
:100A100001010091C16941F08051C161C06900F0DC
:100A200080500090052000F03BF80548416821F017
:100A3000E06141F00071416008BD0000001002401B
:100A400000000140002809DB00F01F020121914055
:100A50004009800000F1E020C0F80011704700005C
:100A6000F0B40E4B1B680C46C3F30223C3F1070519
:100A7000042D00D90425191D072901D2002300E007
:100A8000DB1E012606FA05F1491E214099409E40D1
:100A9000761E16403143F0BC02F054BB0CED00E072
:100AA000064900F0070208684FF6FF03184040EAC5
:100AB0000220034A10430860704700000CED00E07C
:100AC0000000FA052DE9F0470F46050061D0434EBE
:100AD000306800F00700B84209D2306820F0070003
:100AE00038433060306800F00700B84251D12868C0
:100AF0003B4C810712D5400703D5606840F4E060A5
:100B000060602878000703D5606840F4605060603A
:100B10006068A96820F0F000084360602878C0078A
:100B200028D06868012810D02168022810D08907D1
:100B300000292EDA616821F0030101436160FFF7AB
:100B4000EBFE804641F288390DE021688903EFE72A
:100B50008901EDE7FFF7E0FEA0EB0801494502D966
:100B60000320BDE8F0876068696800F00C00B0EB16
:100B7000810FEFD1306800F00700B8420BD9306820
:100B800020F0070038433060306800F00700B842BA
:100B900001D00120E5E72878400705D56068E968BD
:100BA00020F4E060084360602878000706D560689C
:100BB000296920F4605040EAC100606000F038F814
:100BC0006168084AC1F30311515CC84006490860D6
:100BD00006480068FFF7F4FE0020C2E7002002404C
:100BE00000100240343800082C00002024000020AF
:100BF0000448054900684968044AC1F30221515C70
:100C0000C84070472C000020001002404438000803
:100C10000448054900684968044AC1F3C221515C8F
:100C2000C84070472C0000200010024044380008E3
:100C300012A185B00FC98DE80F0014A0144A0068F6
:100C400004905168134801F00C03042B10D0082BBA
:100C50000ED1C1F38343C9031DF803000AD55168BF
:100C600004AAC1F34041515C0A4A5043B0FBF1F081
:100C700005B0704708494843FAE70000020304053D
:100C8000060708090A0B0C0D0E0F101001020000D8
:100C90000010024000127A0000093D002DE9F84FD3
:100CA000040070D02078C04DC00749D06868C0F3F8
:100CB0008100012807D06868C0F38100022809D1AB
:100CC0006868C00306D52868800339D560680028A5
:100CD000E7D035E06068B0F5803F0BD010B1B0F5DB
:100CE000A02F11D0286820F480302860286820F4D4
:100CF000802002E0286840F480302860606890B16D
:100D0000FFF70AFE06460AE0286840F480202860C3
:100D1000F0E700BFFFF700FE801B642873D8286847
:100D20008003F7D50CE0FFF7F7FD064605E000BFAE
:100D3000FFF7F2FD801B6428F0D828688003F7D401
:100D400020789A4E80074FF001094FF0000839D5FE
:100D5000686810F00C0F07D06868C0F381000228A3
:100D600009D16868C00306D42868800714D52069B3
:100D7000012808D110E02069B0B1C6F80090FFF753
:100D8000CBFD074605E00AE1FFF7C6FDC01B0228C0
:100D9000C4D828688007F7D52868616920F0F80072
:100DA00040EAC10028600DE0C6F80080FFF7B4FDFE
:100DB000074604E0FFF7B0FDC01B022823D82868CF
:100DC0008007F7D4207800072CD57948A169D9B1DC
:100DD000C0F80090FFF7A0FD074604E0FFF79CFD78
:100DE000C01B02280FD8686A8007F7D571484FF4F6
:100DF000FA510068B0FBF1F0009000BF0098411E6E
:100E00000091FAD20EE080E0C0F80080FFF784FD88
:100E1000074604E0FFF780FDC01B022875D8686A0A
:100E20008007F7D42078400760D5E8690027C00024
:100E300008D4E86940F08050E861E869012700F0D3
:100E4000805000905C480168C90513D4016883464E
:100E500041F480710160FFF75FFD824606E000BF4C
:100E6000FFF75AFDA0EB0A0064284ED8DBF800001B
:100E7000C005F5D5E06801280AD008B1052813D0CF
:100E8000286A20F001002862286A20F0040002E0AD
:100E9000286A40F001002862E06841F2883B98B17E
:100EA000FFF73AFD82460BE0286A40F00400286212
:100EB000EEE700BFFFF730FDA0EB0A0159455AD815
:100EC000286A8007F6D50CE0FFF726FD824605E08C
:100ED000FFF722FDA0EB0A0159454CD8286A80078C
:100EE000F6D41FB1E86920F08050E861E06988B36A
:100EF0006968C1F38101022944D00228C6F86080E4
:100F000004D0FFF709FD044638E034E0FFF704FDA4
:100F1000074604E0FFF700FDC01B02282BD8286815
:100F20008001F7D4206AB0F5803F05D16868A168D8
:100F300020F4003008436860D4E908010843696878
:100F400021F4741108436860C6F86090FFF7E4FC70
:100F5000044606E025E000BFFFF7DEFC001B022888
:100F600009D828688001F7D51BE000BFFFF7D4FC43
:100F7000001B022802D90320BDE8F88F28688001F1
:100F8000F4D40EE00128F7D06868226A00F48031BA
:100F9000914204D1616A00F47010884201D00120AE
:100FA000EAE70020E8E700000010024000004242AB
:100FB000800442422C0000200070004070B5040004
:100FC00009D0606A002540B125616561A56294F889
:100FD000510040B10CE0012070BD6068B0F5827F27
:100FE000F4D0E561F2E784F85050204600F040F874
:100FF000022084F851002068016821F0400101605E
:10100000A088218900F4827001F404410843A18979
:1010100001F400610843217C01F002010843217DB5
:1010200001F001010843218B01F400710843217F85
:1010300001F03801084394F8201001F080010843C2
:10104000218D01F40051084321680860A069042142
:1010500001EA1040216848602068C16921F40061FC
:10106000C1616565012084F85100002070BD000059
:1010700030B585B000240094019402940394006874
:101080001449884223D11448816941F48051816117
:10109000816901F480510491816941F00401816109
:1010A00080690E4D00F004000490A0200090022002
:1010B00001900320039069462846FFF737FB402044
:1010C000CDE90004694628460294FFF72FFB05B0DE
:1010D00030BD000000300140001002400008014017
:1010E0002DE9F84F044690F8500000270A9E1D464F
:1010F00092468B464FF0010901280ED0012084F85A
:101100005000FFF709FC804694F8510061680128FF
:101110000CD0B1F5827F07D102E00220BDE8F88F44
:10112000A16809B9042801D00227C2E0BBF1000F71
:1011300027D0BAF1000F24D01DB394F85100042831
:1011400002D0052084F8510000206065C4F838A062
:10115000E587A587C4F830B0E586A586206460647D
:1011600020680168490603D4016841F0400101602C
:10117000E068B0F5006F606805D0E8B3012D46D097
:101180007FE0012795E008B1012D39D1206B21685E
:101190000088C860206B801C2063E08E401EE086C3
:1011A0002EE02068816889070FD5E18E69B1B9F119
:1011B000010F0AD1216B0988C160206B801C20635C
:1011C000E08E401EE0864FF0000920688168C90764
:1011D0000CD0E18F51B1C068A16B0880A06B801C5E
:1011E000A063E08F401EE0874FF00109FFF794FBFA
:1011F000A0EB0800B04200E009E001D3701C50D120
:10120000E08E0028CDD1E08F0028CAD13FE0206BCE
:10121000216800780873206B401C2063E08E401E1C
:10122000E0862EE02068816889070FD5E18E69B1DC
:10123000B9F1010F0AD1216B09780173206B401CB1
:101240002063E08E401EE0864FF000092068816830
:10125000C9070CD0E18F51B1C068A16B0870A06BB9
:10126000401CA063E08F401EE0874FF00109FFF7AC
:1012700053FBA0EB0800B04202D3701C01D010E079
:101280007EB1E08E0028CDD1E08F0028CAD1424641
:101290003146204601F0FEF828B101272020606584
:1012A00007E0032705E0A06818B92068C1688068D6
:1012B0000090012084F85100002084F85000384646
:1012C0002CE710B5401EB0F1807F01D3012010BD86
:1012D0004FF0E02460610F21601701F033FF002020
:1012E000A06107202061002010BD704770470000FA
:1012F00070B590F83C20012A26D0012480F83C40AB
:10130000022280F83D2003685A689D6822F070062A
:101310000A6832435A600D4B02689A4208D0B2F113
:10132000804F05D00A4B9A4202D00A4B9A4204D110
:10133000496825F080031943916080F83D40002101
:1013400080F83C10084670BD022070BD002C0140A2
:10135000000400400008004010B5040003D094F8D9
:101360003D0010B107E0012010BD002084F83C00D2
:10137000204600F01FF8022084F83D00211D20685F
:1013800001F036F9012084F8460084F83E0084F824
:101390003F0084F8400084F8410084F8420084F85B
:1013A000430084F8440084F8450084F83D000020A0
:1013B00010BD000008B500680B49884212D10B48E7
:1013C000C16941F00201C161C069032200F002005D
:1013D000009000211D20FFF743FBBDE808401D20C1
:1013E000FFF730BB08BD00000004004000100240C1
:1013F00090F83D10012901D001207047022180F8AA
:101400003D100168CA6842F00102CA6000680B49D9
:10141000884208D0B0F1804F05D00949884202D0F7
:101420000849884204D1816801F00701062903D0E8
:10143000016841F00101016000207047002C01406B
:10144000000400400008004070B5044690F83C00DD
:10145000012817D0012584F83C50022084F83D0073
:101460002068826822F0770222F47F428260086856
:10147000502830D00DDC20284DD005DC98B3102842
:101480003BD148E0022070BD302844D0402834D100
:1014900039E0602828D0702806D0B0F5805F2CD0C5
:1014A000B0F5005F29D10AE0CB68D1E901212068BD
:1014B00001F0D4F82068816841F0770109E0CB6839
:1014C000D1E90121206801F0C9F82068816841F460
:1014D0008041816011E0CA684968206801F0D0F855
:1014E0005021206807E016E0CA684968206801F0CA
:1014F000D8F86021206801F0BBF884F83D50002046
:1015000084F83C0070BDCA684968206801F0B8F8EA
:1015100040212068EFE7226801461046EBE770475C
:1015200070B50446006801694FF00005C94389079A
:1015300015D4C168C943890711D4E91E016101208E
:101540002077206880698007204602D0FFF7E7FFF8
:1015500004E000F098F8204600F096F8257720681F
:101560000169C943490717D4C168C943490713D45E
:101570006FF004010161022020772068806910F477
:10158000407F204602D0FFF7CAFF04E000F07BF85E
:10159000204600F079F8257720680169C9430907DA
:1015A00016D4C168C943090712D46FF0080101615C
:1015B000042020772068C0698007204602D0FFF70A
:1015C000AEFF04E000F05FF8204600F05DF82577FC
:1015D00020680169C943C90617D4C168C943C9064F
:1015E00013D46FF010010161082020772068C069D2
:1015F00010F4407F204602D0FFF791FF04E000F096
:1016000042F8204600F040F8257720680169C94378
:10161000C90708D1C168C943C90704D1891E01613E
:10162000204600F033F820680169C943090609D44F
:10163000C168C943090605D46FF0800101612046E5
:10164000FFF753FE20680169C943490609D4C16800
:10165000C943490605D46FF040010161204600F0FE
:1016600029F820680169C94389060BD4C168C943B8
:10167000890607D46FF0200101612046BDE8704063
:10168000FFF734BE70BD70477047000010B50068AA
:101690000649884209D16420FEF73CFE04480178DF
:1016A000BDE81040642000F029BB10BD00040040DC
:1016B000480000207047704710B504460068416933
:1016C00094F83D20C1F3C011212A0BD151B14169D9
:1016D00021F080014161606B08B1FEF795FE204664
:1016E00001F070F82068416994F83E20C1F3801140
:1016F000222A0BD151B1416921F040014161A06B17
:1017000008B1FEF781FE204601F044F8002010BD2C
:1017100070470000F8B5026804461068D168536944
:1017200010F00F0F4FF0000553D003F0010601F445
:10173000907737435FD0C20705D0CA0503D5226C26
:1017400042F001022264420705D5DA0703D0226C79
:1017500042F002022264820705D5DA0703D0226C28
:1017600042F004022264020707D501F0200232434E
:1017700003D0226C42F008022264226C002A34D08A
:10178000800604D5880602D5204601F024F820689A
:101790004069216CC0F38010090700D430B32046A3
:1017A00000F0F8FF2068416949061BD5416921F026
:1017B00040014161A06BA8B158494163A06BFEF79D
:1017C00047FE002811D0A06B416B01B0BDE8F0408E
:1017D000084783060FD58B060DD52046BDE8F84097
:1017E00000F0F9BF2046FFF793FFF8BD2046FFF752
:1017F0008FFF2564F8BD266B2023012E52D1C6062B
:1018000050D5CE064ED510685068009050694006FD
:101810002AD5A16B086840680004000CEAD0A68DA8
:101820008642E7D9E0858869202818D0D06820F45E
:101830008070D0602068416921F001014161206819
:10184000416921F04001416184F83E302563206800
:10185000C16821F01001C160A06BFEF7D5FDA08D1D
:10186000E18D401A81B219E0A08DE18D401A81B25C
:10187000E08D0028BED00029BCD0D06820F4907044
:10188000D0602068426922F00102426184F83E3053
:1018900025632068C26822F01002C2602046FFF76C
:1018A0000AFFF8BD05062BD50D0629D594F83D0095
:1018B0002128F6D1A068B0F5805F01D12069B0B1D0
:1018C000206A411C2162216800784860E08C401E3B
:1018D0000004000CE084E4D12068C16821F080019C
:1018E000C1602068C16841F04001C160F8BD206A54
:1018F0000088C0F308005060206A801C2062E5E781
:101900004006F3D54806F1D5D168204621F04001C4
:10191000D16084F83D3000F0EEF9F8BDC72600082C
:1019200070B5040004D094F83D00002510B106E025
:10193000012070BD84F83C50204600F023F824209C
:1019400084F83D002068C16821F40051C160204640
:1019500000F09CFF2068016921F49041016120683A
:10196000416921F02A0141612068C16841F40051B8
:10197000C1602564202084F83D0084F83E000020EA
:1019800070BD00002DE9F04786B000250095019557
:10199000029503950446D0F800C09648DFF85082BF
:1019A00002210322944B802786144FF4806A4FF063
:1019B0001009C4455BD1D0F818C04CF4804CC0F875
:1019C00018C0D0F818C00CF4804CCDF810C0D0F876
:1019D00018C04CF0040CC0F818C08069039200F0E5
:1019E000040004900802CDE90001694698461846B3
:1019F000FEF79CFECDF800A0AA4601956946404638
:101A00000295FEF793FEDFF8F8817C494046C0E975
:101A10000015C0E90257C8F81050C8F81450C8E9BA
:101A20000656FEF70BFE08B1FEF7C9FC744D73486D
:101A3000C4F8388044351438C8F82440C5E9000992
:101A4000C5E902A7C5F810A0C5F814A0C5E906A607
:101A50002846FEF7F3FD08B1FEF7B1FC65630222EC
:101A6000002125206C62FEF7FBFF252061E0DFF8F6
:101A70009481C44562D1D0F81CC04CF4003CC0F83D
:101A80001CC0D0F81CC00CF4003CCDF810C0D0F83D
:101A900018C04CF0040CC0F818C08069039200F024
:101AA000040004900420CDE90001694698461846D8
:101AB000FEF73CFE0820CDE90005AA4669464046EF
:101AC0000295FEF733FEDFF838814C4908F18808AB
:101AD00040461431C0E90015C0E90257C8F810505B
:101AE000C8F81450C8E90656FEF7A8FD08B1FEF77D
:101AF00066FC434D4148C4F83880CC352830C8F8DE
:101B00002440C5E90009C5E902A7C5F810A0C5F839
:101B100014A0C5E906A62846FEF790FD08B1FEF719
:101B20004EFC65630122002126206C62FEF798FFBF
:101B30002620FEF787FF06B0BDE8F087324B9C45B4
:101B4000F9D1C36943F48023C361C36903F48023DB
:101B50000493836943F0080383618069CDE900A1A0
:101B600000F00800CDE90320DFF8A0806946404678
:101B7000FEF7DCFD4FF40060CDE900056946404604
:101B80000295FEF7D3FDDFF888A01C49504628399E
:101B9000C0E90015C0E90257CAF81050CAF814503D
:101BA000CAE90656B846FEF749FD08B1FEF707FC3C
:101BB000174FC4F838A04437CAF82440C7E9025880
:101BC0000E483D613C387D61C7E90009C7E906560A
:101BD0003846FEF733FD08B1FEF7F1FB67630122DB
:101BE000002127207C62FEF73BFF2720A1E70000B1
:101BF0000038014000100240000801405800024037
:101C00002C0A00200044004000480040000C014025
:101C10003C0B002090F83E30202B0ED159B152B130
:101C200090F83C30012B08D0012380F83C30002391
:101C3000036300F087BE01207047022070477047A1
:101C4000704700002DE9F843044690F83D001F4618
:101C500016460D4620284CD1C5B1BEB194F83C00C3
:101C6000012846D0012084F83C004FF00008C4F859
:101C70004080212084F83D00FEF74EFEA684814678
:101C8000E684A068B0F5805F03D004E00120BDE8E1
:101C9000F883206928B12E465FF0000584F83C8067
:101CA0000EE00026FAE78021204600F083FEA0B96E
:101CB000AEB116F8010B21684860E08C401EE0844C
:101CC000E08C4B464FF0000200970028EBD14FF01C
:101CD0004001204600F06EFE30B10320D7E735F812
:101CE000020BC0F30800E6E7202084F83D00002046
:101CF000CDE70220CBE77047FEE7000070B5164C39
:101D00000026164BE27805468A4216D2A088401C6F
:101D100080B2A080B0EB950F01D2012203E0B0EBBE
:101D2000550F06D20022BDE8704002211846FEF78A
:101D3000EDBDA680521CE27070BD00220221184643
:101D4000FEF7E4FDA088401C80B2A080A842F3D337
:101D5000A680E67070BD0000300000200008014041
:101D6000014601A001F0CAB9257300001D4808B55D
:101D7000416941F0010141614069002200F0010028
:101D8000009011460C20FEF76BFE0C20FEF75AFE69
:101D9000002211460D20FEF763FE0D20FEF752FED5
:101DA000002211460E20FEF75BFE0E20FEF74AFED3
:101DB000002211460F20FEF753FE0F20FEF742FED1
:101DC000002211461020FEF74BFE1020FEF73AFECF
:101DD000002211461120FEF743FEBDE80840112005
:101DE000FEF730BE0010024010B504490448FEF76B
:101DF000E8FA0249491E087010BD000015000020D5
:101E000000000020F0B585B0002000900190029005
:101E100003902248816941F020018161816901F0CC
:101E200020010491816941F004018161816901F01F
:101E300004010491816941F0080181618069184EB3
:101E400000F008000490002212213046FEF75EFDEB
:101E5000144F00220B213846FEF758FD02250124BD
:101E6000CDE9005469463046CDE90245FEF75EFCF7
:101E70001020CDE900040320CDE902406946304638
:101E8000FEF754FC0B20CDE9000469463846CDE945
:101E90000245FEF74BFC05B0F0BD0000001002400B
:101EA00000080140000C0140094810B507490160D5
:101EB0000621416040F62F418160FEF733FD002886
:101EC00003D0BDE81040FEF77ABA10BD00300040E4
:101ED000B4080020104810B50E4901604FF482711B
:101EE000416000218160C1604FF400720161C0E96E
:101EF00005120822C0E90721416281620A21C162FC
:101F0000FFF75CF8002803D0BDE81040FEF757BA91
:101F100010BD000000300140C008002010B586B0A0
:101F200000241748009401940294039404941349E4
:101F3000059401604721C0E9011442F20F71C0E924
:101F400003148461FFF708FA08B1FEF738FA4FF47A
:101F50008050009069460A48FFF776FA08B1FEF70C
:101F60002EFA049404A906480594FFF7C1F9002845
:101F700001D0FEF724FA06B010BD000000040040B6
:101F8000180900200C4810B50A4901604FF4165199
:101F90004160002181600C22C160C0E904128161AE
:101FA000C161FFF7BDFC002803D0BDE81040FEF77B
:101FB00006BA10BD00380140600900200C4810B579
:101FC0000A4901604FF416514160002181600C22E2
:101FD000C160C0E904128161C161FFF7A1FC002862
:101FE00003D0BDE81040FEF7EAB910BD0044004040
:101FF000A40900200C4810B50A4901604FF416519D
:102000004160002181600C22C160C0E9041281613D
:10201000C161FFF785FC002803D0BDE81040FEF742
:10202000CEB910BD00480040E8090020FEE7FEE7F9
:102030007047000070B50F4D4FF4FA7405F2E45686
:102040000DA0FFF78DFE2046FEF75EFB09492346F3
:10205000122212390C48FFF7F5FD2046FEF754FB1B
:10206000224631460848FFF7D5FD28880028E7D0EA
:1020700070BD000048000020526561645F4C6F72C3
:10208000615F49440D0A0000A4090020044B20B1FF
:10209000002210211846FEF739BC0122F9E70000A2
:1020A0000008014070B5054601220021092000F01A
:1020B000B9F910F0FF0404D11021284600F078F897
:1020C00004460020FFF7E2FF0CB1012070BD0020A4
:1020D00070BD1FB56846FFF7E5FF10B1002004B0E2
:1020E00010BD9DF800100120B0EB911F09D19DF8A3
:1020F00008209DF8091000EB022008440004800924
:10210000EDE79DF805009DF80A1000F00F0000EBC8
:10211000D1109DF809109DF8072001F0030100EB94
:1021200041019DF80800800900EB82009DF806201F
:1021300002F0030200EB8220401CC91F8840CEE75A
:102140002DE9F0410646194815464078062800D08A
:1021500049024FF40077012D4FF001021AD01220EE
:1021600000F060F93946304600F022F86D1E044652
:1021700006F5007615F0FF0501D0002CF2D0012203
:1021800000210C2000F04EF90020FFF77FFF2046D1
:10219000BDE8F081112000F045F910F0FF04F3D103
:1021A0003946304600F004F80446EDE7AA0800205E
:1021B00070B505460C460120FFF768FFFF2001F0CF
:1021C00029FB06466420FEF79FFAFE2EF6D103E0B7
:1021D00001F020FB05F8010B641EA4B24FF0FF00D4
:1021E000F6D201F017FBFF2001F014FB002070BDB8
:1021F00070B50C460546FF2001F00CFBFF28FAD114
:10220000204601F007FBFD2C18D000244FF4007687
:10221000285D01F0FFFA641CA4B2B442F8D3FF2099
:1022200001F0F8FAFF2001F0F5FAFF2001F0F2FAD0
:1022300000F01F00052801D0022070BD002070BDF5
:1022400070B506461F4815460C464078062800D053
:102250004C02012D14D0012809D001220021372081
:1022600000F0E0F801222946172000F0DBF80122F7
:102270002146192000F0D6F810F0FF040BD01BE027
:1022800001222146182000F0CDF810F0FF0413D1F0
:10229000FE2130460DE0FC213046FFF7A9FF6D1E00
:1022A00006F5007615F0FF0501D00028F3D0FD21DA
:1022B0000020FFF79DFF04460020FFF7E7FE2046C1
:1022C00070BD0000AA0800202DE9FC410027DFF8BE
:1022D0004C81009738200197C8F81C003846FFF75A
:1022E000D5FE4F4D0024287801F094FA641CA4B266
:1022F0000A2CF8D300219522084600F093F8C0B2CA
:102300000128F7D16F7087224FF4D571082000F0B3
:1023100089F8C0B2012873D100246E46287801F0F4
:1023200079FA3055641CE4B2042CF7D39DF802000E
:102330004FF6FE74012803D19DF80300AA281FD090
:1023400001220021372000F06DF801220021292010
:1023500000F068F8C0B201283DD802206870012260
:102360000021372000F05EF801220021292000F032
:1023700059F810F0FF0F3BD0641EA4B2EFD237E043
:102380004FF0804701220021372000F04BF8012256
:102390003946292000F046F810F0FF0F02D0641EE5
:1023A000A4B2EFD2B4B1012200213A2000F03AF8F1
:1023B00080B90024FF2001F02DFA3055641CE4B2EE
:1023C000042CF7D39DF80000400601D5062000E05C
:1023D0000420687014E0012068700122002110467A
:1023E00000F020F810F0FF0F02D0641EA4B2F4D267
:1023F0002CB101225102102000F014F800B16F70CE
:102400000020FFF743FE0820C8F81C00687810B1D0
:102410000020BDE8FC810120FBE70000C00800208F
:10242000AA0800202DE9F041054617460C46002079
:10243000FFF72CFE1420FEF767F90120FFF726FEB8
:10244000134E307801F0E6F9FF28FAD145F040004C
:1024500001F0E0F9200E01F0DDF9C4F3074001F0CE
:10246000D9F9C4F3072001F0D5F9E0B201F0D2F9AF
:10247000384601F0CFF90C2D02D1307801F0CAF9BD
:10248000FF2001F0C7F90106FAD4BDE8F081000091
:10249000AA08002038B50B4600920446002280218D
:1024A00000F008F8002804D0606D40F0200060655E
:1024B000032038BD2DE9F8431E4691468846044660
:1024C000089DFEF729FA401B351AFEF725FA074644
:1024D00025480068C0F3CB30684338E0701C37D023
:1024E000FEF71AFAC01BA84203D215B1009860B3D8
:1024F0002CE02068416821F0E00141606068B0F59F
:10250000827F0BD1A068B0F5004F02D0B0F5806F8C
:1025100004D12068016821F040010160A06AB0F593
:10252000005F09D12068016821F400510160206832
:10253000016841F400510160012084F8510000203D
:1025400084F850000320BDE8F8830025401E009069
:102550002068816838EA010004D000214945BDD1D6
:102560000020F0E70121F9E72C0000200149C861B3
:1025700070470000C00800207047FEF707BA30B56A
:102580008FB028216846FDF7F6FD14210AA8FDF753
:10259000F2FD0920012100904FF4803000240491C5
:1025A0000691CDE901040225CDE907504FF4E01072
:1025B00009906846FEF772FB08B172B6FEE70F207D
:1025C000CDE90A054FF48060CDE90C4002210AA84C
:1025D0000E94FEF777FA002801D072B6FEE70FB02E
:1025E00030BD70470148FEF79BBF0000180900206E
:1025F000F0B50268164B174C174D4FF080479842C4
:1026000005D0B84203D0A04201D0A84203D122F0A5
:1026100070064A683243984205D0B84203D0A042BF
:1026200001D0A84203D122F44074CA6822434C6905
:1026300022F08002224302608A68C2620A688262D3
:10264000984201D10969016301214161F0BD000097
:10265000002C0140000400400008004010B58468D0
:1026600042EA032224F47F440A432243826010BDDD
:10267000826822F070020A4342F0070181607047CD
:1026800010B5036A046A24F001040462846924F02A
:10269000F00444EA021423F00A020A43846102624D
:1026A00010BD10B5036A23F0100303628369046A46
:1026B00023F4704343EA023224F0A00343EA0111F9
:1026C0008261016210BD10B5406A0021C185C184DC
:1026D000FFF71EF810BD70B5446A2068406994F891
:1026E0003D10C0F3C0100025212904D118B1E584A4
:1026F000204600F067F82068406994F83E10C0F367
:102700008010222904D118B1E585204600F042F856
:10271000206C40F0100020642046FEF7F9FF70BDE9
:1027200010B50146406A0968096889061BD4002172
:10273000C1850168CA6822F48072CA6001684A696A
:1027400022F001024A6101684A6922F040024A61AE
:10275000202180F83E10016B012904D10168CA686C
:1027600022F01002CA60016B012902D0FFF767FA5C
:1027700010BD818DFEF79FFF10BD10B5406A016B43
:10278000012902D0FFF75CFA10BD818D4908FEF7E0
:1027900092FF10BD0168CA6822F49072CA60016895
:1027A0004A6922F001024A61016B012904D10168E2
:1027B000CA6822F01002CA60202180F83E10002171
:1027C000016370470168CA6822F0C002CA60202114
:1027D00080F83D10704708B590F83E10222901D0CE
:1027E000022008BD82684FF480539A4201D10169EA
:1027F00021B1816A9A421BD04AB10AE00268816A1B
:102800005268C2F308020A80816A891C08E00269E2
:1028100072B10268526802F07F020A70816A491C34
:102820008162C18D491E0904090CC18503D019E0DC
:1028300002685268F1E70168CA6822F02002CA60A3
:102840000168CA6822F48072CA6001684A6922F08D
:1028500001024A61202180F83E10016B012903D05A
:10286000FFF7EDF9002008BD002101630168CA6887
:1028700022F01002CA6001680A68D20602D50A680E
:1028800049680091818DFEF716FFEBE770B50446AD
:1028900000680169E26821F4405111430161216936
:1028A000A0680843616908432168CA6841F20C6363
:1028B0009A430243CA6020684169A26921F44071C9
:1028C000114341611E492068884202D1FEF7A0F9F8
:1028D00001E0FEF78DF900EBC00101EB001260682A
:1028E00064218000B2FBF0F3B3FBF1F36FF0180644
:1028F0007343B2FBF0F5B2FBF0F605EB8305322330
:1029000003EB0515B5FBF1F5B6FBF1F605F0F005A7
:1029100005EB0615B2FBF0F6B2FBF0F0B0FBF1F000
:102920006FF01802504306EB800003EB0010B0FB81
:10293000F1F0216800F00F002844886070BD0000AD
:102940000038014038B5816282850025134604466F
:102950000564222084F83E00A26B13489062A26BAB
:102960001248D062A26B12481063A06B0A464563FE
:102970002168A06B091DFDF78FFE20680168416882
:10298000009184F83C50C16841F48071C1602068B6
:10299000416941F0010141612068416941F0400114
:1029A0004161002038BD0000212700087B27000876
:1029B000D72600082DE9F041984617460E460446F2
:1029C000069D1DE0681C1BD02DB1FDF7A5FFA0EBF7
:1029D0000800A84214D92068C16821F4D071C160F0
:1029E0002068416921F001014161202084F83D0007
:1029F00084F83E00002084F83C000320BDE8F0810C
:102A00002068006836EA000004D00020B842D9D01F
:102A10000020F3E70120F9E72DE9F041804601F1BC
:102A20000B0617460D46304600F0BEFE0446052054
:102A30002070002262700123A370A91DE170380A82
:102A400020716771A2710720E071237265722A46B6
:102A5000414604F10A00FDF775FB05F10A0081B259
:102A60002046FDF712FC6119B2B288724FF47A73F6
:102A700021460448FFF7E6F82046BDE8F04100F0A3
:102A8000C3BD0000A40900202DE9F04707464648D1
:102A90000C46002501884FF4FA794FF47A76012923
:102AA0003AD002297DD003297BD1642C71D980468C
:102AB000811CC82303223D48FFF7C4F84846FDF7B0
:102AC00023FE00BF05EBC50000EB051007EB8001FE
:102AD000334664223548FFF7B5F83046FDF714FE5B
:102AE000643C6D1CA4B2EDB2642CEBD205EBC500C6
:102AF00000EB051007EB8001334622462B48FFF719
:102B0000A1F83046FDF700FEC823032208F10501B5
:102B10002648FFF797F831E0642C4FF003022FD9D5
:102B200080460321801CFFF777FF4846FDF7ECFD48
:102B300005EBC50000EB051007EB800003226421C4
:102B4000FFF76AFF3046FDF7DFFD643C6D1CA4B261
:102B5000EDB2642CECD205EBC50000EB051007EBE1
:102B6000800003222146FFF757FF3046FDF7CCFDDA
:102B70000322114608F10500FFF74EFF484604E026
:102B800021463846F8E70CE003E0BDE8F047FDF7E2
:102B9000BBBD3346224639460448FFF753F830465A
:102BA000F3E7BDE8F087000048000020A4090020FA
:102BB0000A4601464FF4FA630148FFF743B80000A4
:102BC000E80900200F4808B50068016840680090D7
:102BD0000C48FEF771FD0C494FF4401048600B485B
:102BE00000684068C0F5FA7081B20948A0F8D817AB
:102BF00000F57C7000F06CF9BDE808400148FEF774
:102C000089BD000060090020000002402C0A00205D
:102C1000480000200F4808B500680168406800902F
:102C20000C48FEF749FD0C494FF4401048600B4832
:102C300000684068C0F5FA7081B20948A0F8DA1758
:102C400000F2E45000F00EF8BDE808400148FEF73D
:102C500061BD0000A409002000000240B40A002069
:102C6000480000202DE9F35F7A4D4A1E0098B5F820
:102C700000C00E46BCF1000F71D0294601274FF06D
:102C8000000801F5FE794FF4FA7B01F2E45AA1F154
:102C90001804BCF1010F10D0BCF1020F71D00A462C
:102CA000B2F8DC1702F5FE728B182146BCF1030F57
:102CB00009784CD0032E7AD0A7E0017805291ED1DF
:102CC000417800291BD18178822918D191B2FDF772
:102CD000DCFA00998A1912F8012C90420FD1CA79B6
:102CE000032A13D1087AAA2802D0EE2808D00DE0D2
:102CF000487AAA280AD1887AAA2807D12770A3E09F
:102D0000487AEE2802D1887AEE2870D0207810B167
:102D1000012808D098E0A5F8DC274846083180E073
:102D200085F8E17790E0B5F8DC37083103EB09006E
:102D300005F2DC75FDF706FA00992888C979084480
:102D400028807BE084F8008084F801807CE0032EFA
:102D500013D10278AA2A03D0EE2A08D00DE027E08A
:102D60004278AA2A09D18278AA2AC7D005E04278F7
:102D7000EE2A02D18278EE2A4BD019B1012905D072
:102D800062E02CE0A5F8DC67324648E001463246B6
:102D90001846FDF7D7F9B5F8DC073044A5F8DC078D
:102DA0006078401CC0B260700528CBD84CE018E0B9
:102DB0000178012913D14178002910D18178822925
:102DC0000DD191B2FDF761FA0099314411F8012C4F
:102DD000904204D111F8050D497808432880BDE8D8
:102DE000FC9F0278AA2A03D0EE2A08D00DE010E05A
:102DF0004278AA2A09D18278AA2AB6D005E0427878
:102E0000EE2A02D18278EE2A03D029B101290BD013
:102E10001AE084F8008083E73246A5F8DC670146B3
:102E20004846FDF78FF97BE7184632466946FDF7BD
:102E300089F9B5F8DC073044A5F8DC076078401C58
:102E4000C0B260700628B0D85A4651460248FEF714
:102E5000E1FEC4E748000020A409002038B511486D
:102E600000680168406800900E48FEF725FC0E4996
:102E70004FF4401048600D48006840680C4CC0F5A5
:102E8000FA7081B2A4F8D8170AA000F037F9B4F8A4
:102E9000D81704F57C7000F01BF8BDE838400148F5
:102EA000FEF738BCE8090020000002403C0B00207F
:102EB0004800002055415254315F52656365697680
:102EC000655F53697A65203A202564200D0A000069
:102ED00010B5064C0A46A4F8DE17014604F10800B6
:102EE000FDF730F9012084F8E00710BD480000200C
:102EF00010B5FFF7E9F9002809D03820FFF736FBB5
:102F0000FF2000F087FC0820FFF730FB012010BDF8
:102F100010B5144641B101291DD0022914D003294E
:102F200015D00424204610BD0120FFF7AFF814206F
:102F3000FDF7EAFBFF2000F06DFCFF28F7D100242D
:102F40002046FFF7A3F8EDE74FF4007000E00820FB
:102F500010800024E6E7FFF7BCF82060F9E770B5C1
:102F600014460D460BB148B901E0042070BDDAB239
:102F700021462846FFF7E4F80028F7D0012070BD6D
:102F8000002804D0012803D0022801D00120704776
:102F90000020704770B514460D460BB148B901E0EA
:102FA000042070BDDAB221462846FFF749F900280F
:102FB000F7D0012070BDFEE72DE9F041304C00252F
:102FC00004F2EA7094F8E1174FF4FA76804601298A
:102FD00027D1B4F8DA3702462AA1143004F2DA74A1
:102FE00000F09CF82F48FEF7BBFE61882E48FFF7E3
:102FF000DFFD638842462DA12A4800F08FF829485A
:10300000FEF7AEFEE5712580304865803146074603
:10301000A4F2DA74FDF7AFF8324639462C48FEF7D1
:10302000F9FD94F8E007012828D1B4F8D8374246D2
:1030300014A11C4804F5FB6400F070F81948FEF771
:103040008FFE0F48E1880830FFF71EFDE3884246F7
:1030500020A1144800F062F81248FEF781FE2572A4
:1030600025802448E58031460446FDF784F8324641
:103070002146BDE8F0412048FEF7CCBDBDE8F08117
:103080004800002025733A092055534152543220FC
:1030900072656365697665202025642062797465B0
:1030A000200D0A00460800204402002025733A093A
:1030B00020555341525433207472616E736D69749C
:1030C0002025642062797465200D0A002C060020FA
:1030D000A409002025733A09205553415254322047
:1030E0007472616E736D69742025642062797465F1
:1030F000200D0A0038040020600900200FB4054BA1
:1031000010B503A9044A029800F03CF810BC5DF821
:1031100014FB0000F13500081C0000200FB4084B20
:1031200010B504A902AA039800F02CF8044602A9DD
:10313000002000F058FA204610BC5DF814FB000097
:10314000E73500080907090E002804DB00F1E0203C
:1031500080F80014704700F00F0000F1E02080F8C4
:10316000141D704702E008C8121F08C1002AFAD1D6
:1031700070477047002001E001C1121F002AFBD1F7
:10318000704700002DE9FF4F8DB00F460546002621
:1031900006E025280BD0DDE90F1290476D1C761C48
:1031A00028780028F5D111B03046BDE8F08F002412
:1031B000A246A1460122EC4900E0044315F8013F74
:1031C000203B02FA03F00842F7D128782A2810D0D1
:1031D0006FF02F022878A0F13001092914D80AEBEA
:1031E0008A0102EB410144F0020400EB010A6D1C6C
:1031F000F0E701CF5FEA000A03D544F40054CAF1B6
:10320000000A44F002046D1C28782E2817D115F806
:10321000010F44F004042A280ED06FF02F02287802
:10322000A0F1300109290AD809EB890102EB41011B
:1032300000EB01096D1CF2E757F8049B6D1C287820
:103240006C280FD006DC4C2817D068280DD06A28CF
:1032500014D104E0742810D07A280FD10DE044F482
:1032600000140AE044F4801401E044F44014697846
:10327000814202D104F580146D1C6D1C2A786E2ADF
:103280001FD00CDC632A31D004DC002A8BD0582AF2
:1032900011D1A3E0642A68D0692A0CD165E0732AB1
:1032A0002ED004DC6F2A73D0702A04D19BE0752ADB
:1032B0006FD0782A6ED01046DDE90F129047761C49
:1032C00050E1C4F30250022806D0032809D0042894
:1032D00001CF09D0066045E101CFF117C0E90061D7
:1032E00040E101CF06803DE106703BE117F8040B99
:1032F0008DF8000000208DF80100EB46012003E06E
:1033000057F804BB4FF0FF3061074FF0000102D4C3
:103310000DE008F10101884649450FDA8045F8DBE8
:103320001BF808100029F4D108E008F101018846D3
:103330008142FADB1BF808100029F6D1DDE90F23E2
:10334000AAEB08008146214600F036F9304400EB34
:10335000080604E0DDE90F121BF8010B9047B8F1F5
:103360000108F7D221464846F7E00A21C4F3025388
:103370004FF0000B0891022B04D001CFC117032B93
:1033800009D00AE0FF1D27F00707F7E8020108E06F
:1033900032E01FE020E000B2C117042B01D140B29F
:1033A000C117031E71F1000307DA4FF0000CD0EBD8
:1033B0000C006CEB01012D2302E0230504D52B2327
:1033C0008DF82430012303E0E30701D02023F7E741
:1033D000984658E00A2110E010210EE010204FF02E
:1033E000000B08900CE010214FF0000B44F0040497
:1033F0004FF00809089103E008214FF0000B0891F5
:10340000C4F30253022B04D001CF0021032B06D0BA
:1034100006E0FF1D27F00707F7E8020103E080B28E
:10342000042B00D1C0B24FF0000823072BD5702A1F
:1034300007D0DDF820C08CF0100C5CEA0B0C05D036
:103440000EE040238DF82430012308E050EA010308
:1034500006D030238DF824308DF82520022398469D
:10346000DDF820C08CF0080C5CEA0B0C0BD150EAA4
:10347000010301D1630706D530238DF824304FF0C6
:103480000108A9F10109582A04D038A20B9208AA10
:103490000A920BE03AA2F9E75B46089AFCF776FE3F
:1034A0000B9B9B5C0A9A521E0A92137050EA01020F
:1034B000F2D10A98ADEB000000F1200B600702D5B5
:1034C00024F4803401E04FF00109D94502DDA9EB75
:1034D0000B0000E0002000EB0B0141440890AAEB38
:1034E000010AE00306D4DDE90F232146504600F02F
:1034F00063F806444FF0000908E009A911F8090033
:10350000DDE90F12904709F10109761CC145F4DB92
:10351000E0030CD5DDE90F232146504600F04CF8BE
:10352000064404E0DDE90F1230209047761C08992C
:10353000481E08900029F5DC08E00A980A990078EE
:10354000491C0A91DDE90F129047761CBBF100017E
:10355000ABF1010BF1DC21465046DDE90F2300F011
:1035600019F806446D1C1BE609280100303132337E
:1035700034353637383961626364656600000000AF
:103580003031323334353637383941424344454699
:10359000000000002DE9F041044600251E461746B4
:1035A000880404D405E039462020B0476D1C641E11
:1035B000F9D52846BDE8F0812DE9F0410446002503
:1035C0001E469046C80301D5302700E02027880416
:1035D00004D505E041463846B0476D1C641EF9D558
:1035E0002846BDE8F0810A68531C0B6010707047D4
:1035F00004490A685206FCD5024AC1B2121D116084
:10360000704700000038014010B5002821D0114B50
:103610000022001F196803E0814203D80A46496866
:103620000029F9D152B11368841A9C4204D1006870
:1036300018441060104602E0506000E0186039B194
:1036400002680B1A934203D10B681A44026049685E
:10365000416010BDAC080020FDF7A0F9FEF78FFF18
:10366000FEF7D0FBFEF782FBFEF758FCFEF78AFC64
:10367000FEF7A4FCFEF7BEFCFEF716FCFEF72AFCE4
:10368000FEF7B2FB4FF4FA742046FDF73DF82948E7
:10369000FDF7AEFE28A0FEF763FB2B480068C1686B
:1036A00041F01001C16029480068C16841F0100173
:1036B000C16027480068C16841F01001C16025A0C1
:1036C000FEF74EFB284922460D461F48FEF7A2FA98
:1036D000224629461E48FEF79DFA224623491B48EA
:1036E000FEF798FA012202212148FDF70FF9214C3B
:1036F000012211462046FDF709F901220221204648
:10370000FDF704F91CA0FEF72BFBFEF793FC1F4806
:103710001FA102882248FFF701FD2148FEF720FB88
:10372000FFF74AFC0520FCF7EFFF1E48FDF727F9DD
:10373000F6E700001809002053797374656D20695D
:103740006E69740D0A00000060090020A4090020C1
:10375000E8090020554152545F454E41424C455FB7
:103760004954200D0A000000380400202C060020D7
:1037700000080140000C0140554152545F526563FE
:10378000656976655F444D41200D0A0048000020C0
:103790004C6F72615F4944203D202564200D0A0072
:1037A00046080020B4080020F0B50B30154D20F07D
:1037B00007010024144A0FE003688B420BD38B42AD
:1037C00005D95E1A43184768C3E9006700E04368FB
:1037D000136002C004E0021D10680028ECD12046EE
:1037E000002802D1286808B10020F0BD064A074829
:1037F0001060074A121A22F00702C0E900240120D3
:103800002860D7E7B0080020AC080020D40B0020C7
:10381000D013002001B582B064200090012301AADA
:1038200002A90348FDF75CFC9DF804000EBD0000F2
:10383000C008002000000000000000000102030496
:103840000607080900000000010203046C380008A4
:1038500000000020B408000032020008B038000860
:10386000B40800201C2D00007431000813F12E1440
:1038700008812F1B085F041A95041A1104C1320134
:1038800082107B24F416B5020DA5A5130E0307FFC5
:10389000AAAAAAEEEEEE01FF01FF01FF01FF01FF60
:1038A00001FF01E41312080314E40702633092FFDE
:04000005080000ED02
:00000001FF
