:020000040800F2
:100000002811002001010008EB1700081D16000848
:10001000E9170008CB010008CD210008000000000E
:10002000000000000000000000000000311800087F
:100030005702000800000000ED1700083318000800
:100040001B0100081B0100081B0100081B01000820
:100050001B0100081B0100081B0100081B01000810
:100060001B0100081B0100081B0100081B01000800
:10007000E5010008F1010008FD010008090200087F
:1000800015020008210200081B0100081B010008DE
:100090001B0100081B0100081B0100081B010008D0
:1000A0001B0100081B0100081B0100081B010008C0
:1000B0001B0100081B0100081B0100081B010008B0
:1000C0001B0100081B0100081B0100081B010008A0
:1000D0001B010008D51E00089D1F0008C121000853
:1000E0001B0100081B0100081B010008DFF80CD0F1
:1000F00000F03CF8004800475D220008281100206D
:100100000648804706480047FEE7FEE7FEE7FEE7B1
:10011000FEE7FEE7FEE7FEE7FEE7FEE795180008CC
:10012000ED00000840EA01039B0703D009E008C97D
:10013000121F08C0042AFAD203E011F8013B00F8AC
:10014000013B521EF9D27047D2B201E000F8012BF8
:10015000491EFBD270470022F6E710B513460A4647
:1001600004461946FFF7F0FF204610BD064C074D28
:1001700006E0E06840F0010394E807009847103477
:10018000AC42F6D3FFF7B6FFCC230008EC230008FF
:1001900030B58C1810F8012B12F00F0301D110F8B4
:1001A000013B120906D110F8012B03E010F8015BA6
:1001B00001F8015B5B1EF9D101E001F8013B521E21
:1001C000FBD1A142E6D3002030BDFEE710B50346C7
:1001D0000078012202E09C5C6040521C8A42FADBFB
:1001E00010BD0000014800F0A9B80000E40A00209A
:1001F000014800F0A3B80000A00A0020014800F068
:100200009DB80000D4090020014800F097B8000014
:1002100090090020014800F091B80000180A002061
:10022000014800F08BB800005C0A002030B590F85F
:1002300040500124AC40C56B6C6004686360436847
:10024000102B036803D099600068C26030BD9A60CB
:100250000068C16030BD704772B6FEE710B590F817
:1002600021100022022905D00421816380F820207A
:10027000012010BD01680B6823F00E030B600168BC
:100280000B6823F001030B6090F84030C46B012130
:1002900001FA03F3636080F8211080F820201046F3
:1002A00010BD000010B590F821100024022903D0E1
:1002B0000421816301243DE001680A6822F00E02F6
:1002C0000A6001680A6822F001020A601A4A01689D
:1002D000914201D1012121E0174A1432914201D10A
:1002E00010211BE0144A2832914201D1891515E0F2
:1002F000114A3C32914201D189140FE00E4A50322A
:10030000914202D14FF4803108E00B4A64329142AD
:1003100002D14FF4801101E04FF08071064A083A93
:100320005160012180F82110002180F82010416BDC
:1003300001B18847204610BD080002402DE9F05F5A
:10034000C16B0C6801680B68D0F840C0042202FA47
:100350000CF2494DDFF824A1494E4A4FDFF828B18D
:10036000DFF828E122422CD05A072AD50A689206E3
:1003700003D40A6822F004020A600168A94201D18C
:10038000042219E0514501D1402215E0B14202D1C9
:100390004FF4806210E0B94202D14FF480420BE08A
:1003A000594502D14FF4802206E0714502D14FF445
:1003B000800201E04FF080622F4908394A60C16A2B
:1003C0003BE04FF0020808FA0CF818EA040F4FF06F
:1003D00000094FF0010235D05FEA837832D50B680F
:1003E0009B0605D40B6823F00A030B6080F82120DC
:1003F0000168A94201D1022219E0514501D1202210
:1004000015E0B14202D14FF4007210E0B94202D1BE
:100410004FF400520BE0594502D14FF4003206E090
:10042000714502D14FF4001201E04FF00072124901
:1004300008394A6080F82090816A00291AD0BDE806
:10044000F05F0847082505FA0CF5254212D01B0776
:1004500010D50B6823F00E030B6090F84010C36BAF
:1004600002FA01F15960826380F8212080F820901F
:10047000016BE2E7BDE8F09F080002401C0002406B
:100480003000024044000240580002406C0002402C
:1004900030B528B308C8134914221944B1FBF2F14E
:1004A0008900C16310498163022141771A6843F6CC
:1004B000F0718A43D0E900142143D0E902452C436E
:1004C0002143046921434469214384692143114341
:1004D000196000214163012242770177084630BD4F
:1004E000012030BDF8FFFDBF0000024070B504469A
:1004F00090F82000002501280CD0012084F820006D
:1005000094F821600020012E06D084F820000225F6
:10051000284670BD022070BD022684F82160A063C9
:100520002068066826F0010606602046FFF77EFE7A
:10053000E06A00282068016802D041F00E0106E060
:1005400021F0040101602068016841F00A010160A6
:100550002068016841F001010160D9E770B50446E7
:1005600000F0FEF80546601C02D004480078044400
:1005700000F0F6F8401BA042FAD370BD080000203E
:100580002DE9F84FDFF8B891002409F1040A0AF1C7
:10059000040B23460F270BF1040EC9E00125A540EB
:1005A0002A40AA427DD1674ED1F804C0ACEB0608C0
:1005B000B44532D014DCBCF1030F3AD009DCBCF1F5
:1005C000000F2AD0BCF1010F1CD0BCF1020F31D1B9
:1005D0001DE0BCF1110F17D0BCF1120F2AD119E0A8
:1005E000B8F5881F19D006DCB8F5803F15D0B8F5EE
:1005F000801F1FD111E0B8F5001F0ED0B8F5041F01
:1006000018D10AE0CB6815E0CB681B1D12E0CB685F
:1006100008330FE0CB680C330CE08B682BB1012B57
:100620004FF0080303D0456104E0042302E00561B4
:1006300000E00023FF2A01D8064601E000F104068D
:100640004FEA840501D9A5F12005D6F8008007FA04
:1006500005FC28EA0C0803FA05F548EA0508C6F87F
:1006600000804D68ED0062D5374DAE6946F0010659
:10067000AE61AD6924F0030605F001050095334D28
:1006800006EB050CDCF80850A607360F07FA06F84B
:1006900025EA0805DFF8B880404503D14FF000088F
:1006A00017E044E0DFF8AC80404502D14FF001088C
:1006B0000FE0DFF8A480404502D14FF0020808E0C7
:1006C000DFF89880404502D14FF0030801E04FF079
:1006D000040808FA06F848EA0508CCF808804D68CE
:1006E000D9F80060ED034D4601D5164300E096436E
:1006F0002E604D68DAF80060AD03554601D516430B
:1007000000E096432E604D68DBF80060ED025D4628
:1007100001D5164300E096432E604D68DEF8006078
:10072000AD02754601D5164300E096432E60641C69
:100730000D682A46E5407FF431AFBDE8F88F000030
:1007400000040140000011100010024000000140B0
:1007500000080140000C014000100140001401405D
:100760000148806870470000080000200248816846
:10077000027811448160704708000020074810B5D6
:10078000016841F010010160032000F075F80020BD
:1007900000F006F800F024F8002010BD0020024010
:1007A00070B50D4D04464FF47A712878B1FBF0F026
:1007B0000A490968B1FBF0F000F0ECFA48B9102CD6
:1007C00007D200222146501E00F036F800206C604F
:1007D00070BD012070BD0000080000201400002042
:1007E0000C4808B5816941F001018161816901F01E
:1007F00001010091C16941F08051C161C06900F0FF
:10080000805000900448416821F0E06141F000719F
:10081000416008BD0010024000000140002809DBD3
:1008200000F01F02012191404009800000F1E0200A
:10083000C0F8001170470000F0B40E4B1B680C4666
:10084000C3F30223C3F10705042D00D90425191DA4
:10085000072901D2002300E0DB1E012606FA05F17C
:10086000491E214099409E40761E16403143F0BCFF
:1008700001F0ADBC0CED00E0064900F0070208688D
:100880004FF6FF03184040EA0220034A1043086075
:10089000704700000CED00E00000FA052DE9F0477C
:1008A0000F46050061D0434E306800F00700B842A3
:1008B00009D2306820F0070038433060306800F01B
:1008C0000700B84251D128683B4C810712D5400738
:1008D00003D5606840F4E06060602878000703D5C5
:1008E000606840F4605060606068A96820F0F000C3
:1008F000084360602878C00728D06868012810D0B5
:100900002168022810D0890700292EDA616821F0B9
:10091000030101436160FFF723FF804641F28839FC
:100920000DE021688903EFE78901EDE7FFF718FF84
:10093000A0EB0801494502D90320BDE8F0876068B3
:10094000696800F00C00B0EB810FEFD1306800F067
:100950000700B8420BD9306820F0070038433060F8
:10096000306800F00700B84201D00120E5E72878A0
:10097000400705D56068E96820F4E06008436060DE
:100980002878000706D56068296920F4605040EA9D
:10099000C100606000F038F86168084AC1F30311D3
:1009A000515CC8400649086006480068FFF7F8FE39
:1009B0000020C2E70020024000100240B4230008DB
:1009C000140000200C000020044805490068496814
:1009D000044AC1F30221515CC84070471400002052
:1009E00000100240C4230008044805490068496813
:1009F000044AC1F3C221515CC84070471400002072
:100A000000100240C423000812A185B00FC98DE870
:100A10000F0014A0144A006804905168134801F0B4
:100A20000C03042B10D0082B0ED1C1F38343C90350
:100A30001DF803000AD5516804AAC1F34041515C76
:100A40000A4A5043B0FBF1F005B0704708494843EB
:100A5000FAE7000002030405060708090A0B0C0D5B
:100A60000E0F1010010200000010024000127A0068
:100A700000093D002DE9F84F040070D02078C04DEA
:100A8000C00749D06868C0F38100012807D06868B2
:100A9000C0F38100022809D16868C00306D5286820
:100AA000800339D560680028E7D035E06068B0F58C
:100AB000803F0BD010B1B0F5A02F11D0286820F4E2
:100AC00080302860286820F4802002E0286840F404
:100AD00080302860606890B1FFF742FE06460AE069
:100AE000286840F480202860F0E700BFFFF738FE58
:100AF000801B642873D828688003F7D50CE0FFF7C3
:100B00002FFE064605E000BFFFF72AFE801B642883
:100B1000F0D828688003F7D420789A4E80074FF0E9
:100B200001094FF0000839D5686810F00C0F07D0A4
:100B30006868C0F38100022809D16868C00306D440
:100B40002868800714D52069012808D110E02069A1
:100B5000B0B1C6F80090FFF703FE074605E00AE1D2
:100B6000FFF7FEFDC01B0228C4D828688007F7D510
:100B70002868616920F0F80040EAC10028600DE0B3
:100B8000C6F80080FFF7ECFD074604E0FFF7E8FD3C
:100B9000C01B022823D828688007F7D420780007D4
:100BA0002CD57948A169D9B1C0F80090FFF7D8FDDC
:100BB000074604E0FFF7D4FDC01B02280FD8686A7F
:100BC0008007F7D571484FF4FA510068B0FBF1F097
:100BD000009000BF0098411E0091FAD20EE080E024
:100BE000C0F80080FFF7BCFD074604E0FFF7B8FD42
:100BF000C01B022875D8686A8007F7D420784007A0
:100C000060D5E8690027C00008D4E86940F080504A
:100C1000E861E869012700F0805000905C480168B5
:100C2000C90513D40168834641F480710160FFF760
:100C300097FD824606E000BFFFF792FDA0EB0A0099
:100C400064284ED8DBF80000C005F5D5E06801281F
:100C50000AD008B1052813D0286A20F001002862C4
:100C6000286A20F0040002E0286A40F001002862AF
:100C7000E06841F2883B98B1FFF772FD82460BE0D5
:100C8000286A40F004002862EEE700BFFFF768FD25
:100C9000A0EB0A0159455AD8286A8007F6D50CE01E
:100CA000FFF75EFD824605E0FFF75AFDA0EB0A0163
:100CB00059454CD8286A8007F6D41FB1E86920F05E
:100CC0008050E861E06988B36968C1F38101022955
:100CD00044D00228C6F8608004D0FFF741FD0446E6
:100CE00038E034E0FFF73CFD074604E0FFF738FD4D
:100CF000C01B02282BD828688001F7D4206AB0F5E1
:100D0000803F05D16868A16820F40030084368601E
:100D1000D4E908010843696821F474110843686044
:100D2000C6F86090FFF71CFD044606E025E000BF12
:100D3000FFF716FD001B022809D828688001F7D5A7
:100D40001BE000BFFFF70CFD001B022802D90320A7
:100D5000BDE8F88F28688001F4D40EE00128F7D0B0
:100D60006868226A00F48031914204D1616A00F41B
:100D70007010884201D00120EAE70020E8E7000077
:100D80000010024000004242800442421400002051
:100D90000070004010B5401EB0F1807F01D30120EB
:100DA00010BD4FF0E02460610F21601701F00FFAD1
:100DB0000020A06107202061002010BD70B590F8D0
:100DC0003C20012A26D0012480F83C40022280F8F1
:100DD0003D2003685A689D6822F070060A68324315
:100DE0005A600D4B02689A4208D0B2F1804F05D08C
:100DF0000A4B9A4202D00A4B9A4204D1496825F024
:100E000080031943916080F83D40002180F83C1038
:100E1000084670BD022070BD002C01400004004057
:100E20000008004010B5040003D094F83D0010B154
:100E300007E0012010BD002084F83C00204600F0AF
:100E40001FF8022084F83D00211D206800F024FDD9
:100E5000012084F8460084F83E0084F83F0084F8BE
:100E6000400084F8410084F8420084F8430084F88C
:100E7000440084F8450084F83D00002010BD0000C7
:100E800008B500680649884208D10648C16941F0A2
:100E90000201C161C06900F00200009008BD0000BD
:100EA000000400400010024090F83D10012901D0DC
:100EB00001207047022180F83D100168CA6842F0A5
:100EC0000102CA6000680B49884208D0B0F1804F27
:100ED00005D00949884202D00849884204D1816876
:100EE00001F00701062903D0016841F0010101600A
:100EF00000207047002C0140000400400008004022
:100F000070B5044690F83C00012817D0012584F8FC
:100F10003C50022084F83D002068826822F077026D
:100F200022F47F4282600868502830D00DDC2028EF
:100F30004DD005DC98B310283BD148E0022070BDAD
:100F4000302844D0402834D139E0602828D0702897
:100F500006D0B0F5805F2CD0B0F5005F29D10AE053
:100F6000CB68D1E90121206800F0CCFC20688168C1
:100F700041F0770109E0CB68D1E90121206800F058
:100F8000C1FC2068816841F48041816011E0CA6839
:100F90004968206800F0C8FC5021206807E016E08E
:100FA000CA684968206800F0D0FC6021206800F021
:100FB000B3FC84F83D50002084F83C0070BDCA6842
:100FC0004968206800F0B0FC40212068EFE7226803
:100FD00001461046EBE7704710B5044600684169CA
:100FE00094F83D20C1F3C011212A0BD151B14169C0
:100FF00021F080014161606B08B1FFF72FF92046B5
:1010000000F034FD2068416994F83E20C1F380115E
:10101000222A0BD151B1416921F040014161A06BFD
:1010200008B1FFF71BF9204600F008FD002010BDB5
:1010300070470000F8B5026804461068D16853692B
:1010400010F00F0F4FF0000553D003F0010601F42C
:10105000907737435FD0C20705D0CA0503D5226C0D
:1010600042F001022264420705D5DA0703D0226C60
:1010700042F002022264820705D5DA0703D0226C0F
:1010800042F004022264020707D501F02002324335
:1010900003D0226C42F008022264226C002A34D071
:1010A000800604D5880602D5204600F0E8FC2068BA
:1010B0004069216CC0F38010090700D430B320468A
:1010C00000F0BCFC2068416949061BD5416921F04C
:1010D00040014161A06BA8B158494163A06BFFF783
:1010E000E1F8002811D0A06B416B01B0BDE8F040E1
:1010F000084783060FD58B060DD52046BDE8F8407E
:1011000000F0BDBC2046FFF793FFF8BD2046FFF777
:101110008FFF2564F8BD266B2023012E52D1C60611
:1011200050D5CE064ED510685068009050694006E4
:101130002AD5A16B086840680004000CEAD0A68D8F
:101140008642E7D9E0858869202818D0D06820F445
:101150008070D0602068416921F001014161206800
:10116000416921F04001416184F83E3025632068E7
:10117000C16821F01001C160A06BFFF76FF8A08D6E
:10118000E18D401A81B219E0A08DE18D401A81B243
:10119000E08D0028BED00029BCD0D06820F490702B
:1011A000D0602068426922F00102426184F83E303A
:1011B00025632068C26822F01002C2602046FFF753
:1011C0000AFFF8BD05062BD50D0629D594F83D007C
:1011D0002128F6D1A068B0F5805F01D12069B0B1B7
:1011E000206A411C2162216800784860E08C401E22
:1011F0000004000CE084E4D12068C16821F0800183
:10120000C1602068C16841F04001C160F8BD206A3A
:101210000088C0F308005060206A801C2062E5E767
:101220004006F3D54806F1D5D168204621F04001AB
:10123000D16084F83D3000F0F0F9F8BD6F19000876
:1012400070B5040004D094F83D00002510B106E00C
:10125000012070BD84F83C50204600F023F8242083
:1012600084F83D002068C16821F40051C160204627
:1012700000F060FC2068016921F490410161206860
:10128000416921F02A0141612068C16841F400519F
:10129000C1602564202084F83D0084F83E000020D1
:1012A00070BD00002DE9F04385B000250095019543
:1012B000029503950446DFF85C82D0F800C096489A
:1012C00002210322954B102780264FF48069C445E4
:1012D0005AD1D0F818C04CF4804CC0F818C0D0F8DF
:1012E00018C00CF4804CCDF810C0D0F818C04CF0E9
:1012F000040CC0F818C08069039200F00400049048
:101300000802CDE90001694698461846FFF738F90A
:10131000CDE90095694640460295FFF731F9DFF8BF
:1013200004827F494046B146C0E90015C0E9025633
:10133000C8F81050C8F81450C8F81850C8F81C5015
:10134000FFF7A6F808B1FEF787FF764E7448C4F899
:10135000388044361438C8F824403060C6E9017536
:10136000C6E903957561B5613046F561FFF790F800
:1013700008B1FEF771FF66630022114625207462F2
:10138000FFF75AFA252065E0DFF89C81C44566D155
:10139000D0F81CC04CF4003CC0F81CC0D0F81CC0F5
:1013A0000CF4003CCDF810C0D0F818C04CF0040C80
:1013B000C0F818C08069039200F004000490042073
:1013C000CDE90001694698461846FFF7D9F808208C
:1013D000CDE90005A946694640460295FFF7D0F8D9
:1013E000DFF840814E4908F1880840461431C0E9D1
:1013F0000015C0E90256C8F81050C8F81450C8F8D3
:101400001850C8F81C50FFF743F808B1FEF724FF46
:10141000444D4348C4F83880CC352830C8F82440BF
:10142000C5E90007C5E90296C5F81090C5F8149003
:10143000C5F818902846C5F81C90FFF729F808B1A0
:10144000FEF70AFF65630022114626206C62FFF753
:10145000F3F92620FFF7E2F905B0BDE8F083334B3E
:101460009C45F9D1C36943F48023C361C36903F484
:1014700080230493836943F0080383618069CDE985
:10148000009100F00800CDE90320DFF8A480694650
:101490004046FFF775F84FF40060CDE90005694656
:1014A00040460295FFF76CF8DFF888801C494046FB
:1014B0002839C0E90015C0E90256C8F81050C8F82C
:1014C0001450C8F81850B146C8F81C50FEF7E0FF99
:1014D00008B1FEF7C1FE174E1148C4F838804436F3
:1014E0003C38C8F824403060C6E90175C6E9039568
:1014F0007561B5613046F561FEF7CAFF08B1FEF7C8
:10150000ABFE66630022114627207462FFF794F950
:1015100027209FE7003801400010024000080140EA
:10152000580002409009002000440040004800405C
:10153000000C0140A00A002090F83E30202B0ED174
:1015400059B152B190F83C30012B08D0012380F8FA
:101550003C300023036300F049BB012070470220A8
:1015600070477047704700002DE9F843044690F833
:101570003D001F4616460D4620284CD1C5B1BEB1D0
:1015800094F83C00012846D0012084F83C004FF03C
:101590000008C4F84080212084F83D00FFF7E0F8FF
:1015A000A6848146E684A068B0F5805F03D004E09D
:1015B0000120BDE8F883206928B12E465FF00005C0
:1015C00084F83C800EE00026FAE78021204600F0F7
:1015D00045FBA0B9AEB116F8010B21684860E08C5C
:1015E000401EE084E08C4B464FF00002009700283C
:1015F000EBD14FF04001204600F030FB30B103202A
:10160000D7E735F8020BC0F30800E6E7202084F89E
:101610003D000020CDE70220CBE77047FEE7000049
:101620001D4808B5416941F001014161406900224E
:1016300000F00100009011460C20FFF7FDF80C208F
:10164000FFF7ECF8002211460D20FFF7F5F80D200A
:10165000FFF7E4F8002211460E20FFF7EDF80E2008
:10166000FFF7DCF8002211460F20FFF7E5F80F2006
:10167000FFF7D4F8002211461020FFF7DDF8102004
:10168000FFF7CCF8002211461120FFF7D5F8BDE88E
:1016900008401120FFF7C2B8001002400D4808B5FD
:1016A000816941F020018161816901F0200100918F
:1016B000816941F004018161816901F004010091B7
:1016C000816941F008018161806900F008000090A3
:1016D00008BD00000010024010B586B00024174875
:1016E00000940194029403940494134905940160B6
:1016F0004721C0E9011440F2E731C0E903148461D5
:10170000FFF790FB08B1FEF7A7FD4FF48050009063
:1017100069460A48FFF7F4FB08B1FEF79DFD049403
:1017200004A906480594FFF749FB002801D0FEF7FD
:1017300093FD06B010BD0000000400407C080020AE
:101740000C4810B50A4901604FF416514160002160
:1017500081600C22C160C0E904128161C161FFF7A0
:101760006FFD002803D0BDE81040FEF775BD10BD29
:1017700000380140C40800200C4810B50A49016037
:101780004FF416514160002181600C22C160C0E914
:1017900004128161C161FFF753FD002803D0BDE849
:1017A0001040FEF759BD10BD00440040080900205C
:1017B0000C4810B50A4901604FF4165141600021F0
:1017C00081600C22C160C0E904128161C161FFF730
:1017D00037FD002803D0BDE81040FEF73DBD10BD29
:1017E000004800404C090020FEE7FEE7704700007B
:1017F00070B50D4C4FF4FA7504F5C9662846FEF72E
:10180000ADFE09496423122212390848FFF7ACFEE5
:101810002846FEF7A3FE2A4631460448FFF78CFE11
:1018200020880028EAD070BD2C0000200809002084
:101830007047FEF79BBF30B58FB028216846FEF792
:101840008AFC14210AA8FEF786FC01210804CDE9D0
:1018500000100024029402250491CDE907504FF4B2
:10186000E01009906846FFF705F908B172B6FEE787
:101870000F20CDE90A054FF48060CDE90C4002212C
:101880000AA80E94FFF70AF8002801D072B6FEE706
:101890000FB030BD70470000F0B50268164B174C12
:1018A000174D4FF08047984205D0B84203D0A04270
:1018B00001D0A84203D122F070064A683243984210
:1018C00005D0B84203D0A04201D0A84203D122F4EF
:1018D0004074CA6822434C6922F0800222430260AD
:1018E0008A68C2620A688262984201D1096901630A
:1018F00001214161F0BD0000002C014000040040C6
:101900000008004010B5846842EA032224F47F44B2
:101910000A432243826010BD826822F070020A43AB
:1019200042F007018160704710B5036A046A24F031
:1019300001040462846924F0F00444EA021423F0F0
:101940000A020A438461026210BD10B5036A23F0E3
:10195000100303628369046A23F4704343EA02328A
:1019600024F0A00343EA01118261016210BD10B5A9
:10197000406A0021C185C184FFF75AFB10BD70B5D4
:10198000446A2068406994F83D10C0F3C0100025F7
:10199000212904D118B1E584204600F067F82068B9
:1019A000406994F83E10C0F38010222904D118B188
:1019B000E585204600F042F8206C40F010002064DD
:1019C0002046FFF735FB70BD10B50146406A096837
:1019D000096889061BD40021C1850168CA6822F400
:1019E0008072CA6001684A6922F001024A61016896
:1019F0004A6922F040024A61202180F83E10016BC2
:101A0000012904D10168CA6822F01002CA60016B82
:101A1000012902D0FFF7A5FD10BD818DFFF7DBFA8C
:101A200010BD10B5406A016B012902D0FFF79AFD85
:101A300010BD818D4908FFF7CEFA10BD0168CA6854
:101A400022F49072CA6001684A6922F001024A6178
:101A5000016B012904D10168CA6822F01002CA6032
:101A6000202180F83E100021016370470168CA6898
:101A700022F0C002CA60202180F83D10704708B5EE
:101A800090F83E10222901D0022008BD82684FF450
:101A900080539A4201D1016921B1816A9A421BD0D7
:101AA0004AB10AE00268816A5268C2F308020A80F9
:101AB000816A891C08E0026972B10268526802F00A
:101AC0007F020A70816A491C8162C18D491E090426
:101AD000090CC18503D019E002685268F1E701687A
:101AE000CA6822F02002CA600168CA6822F48072C3
:101AF000CA6001684A6922F001024A61202180F827
:101B00003E10016B012903D0FFF72BFD002008BD1B
:101B1000002101630168CA6822F01002CA600168EE
:101B20000A68D20602D50A6849680091818DFFF7DC
:101B300052FAEBE770B5044600680169E26821F4E7
:101B40004051114301612169A0680843616908435C
:101B50002168CA6841F20C639A430243CA60206854
:101B60004169A26921F44071114341611E49206815
:101B7000884202D1FEF738FF01E0FEF725FF00EBB7
:101B8000C00101EB0012606864218000B2FBF0F339
:101B9000B3FBF1F36FF018067343B2FBF0F5B2FB41
:101BA000F0F605EB8305322303EB0515B5FBF1F5E4
:101BB000B6FBF1F605F0F00505EB0615B2FBF0F605
:101BC000B2FBF0F0B0FBF1F06FF01802504306EBFF
:101BD000800003EB0010B0FBF1F0216800F00F0073
:101BE0002844886070BD00000038014038B581622B
:101BF00082850025134604460564222084F83E00B1
:101C0000A26B13489062A26B1248D062A26B12487A
:101C10001063A06B0A4645632168A06B091DFEF79F
:101C200065FC206801684168009184F83C50C168F7
:101C300041F48071C1602068416941F00101416156
:101C40002068416941F040014161002038BD000039
:101C5000C9190008231A00087F1900082DE9F0416E
:101C6000984617460E460446069D1DE0681C1BD08C
:101C70002DB1FEF775FDA0EB0800A84214D920682D
:101C8000C16821F4D071C1602068416921F001016F
:101C90004161202084F83D0084F83E00002084F853
:101CA0003C000320BDE8F0812068006836EA0000AF
:101CB00004D00020B842D9D00020F3E70120F9E792
:101CC00070B50A4C4FF4FA6304F51871B4F8402863
:101CD0000D46074804F50464FFF746FC21882846B2
:101CE000FEF739FA0020208070BD00002C00002093
:101CF000C40800202DE9F041804601F10B0617468B
:101D00000D46304600F020FB0446052020700022DE
:101D100062700123A370A91DE170380A20716771F8
:101D2000A2710720E071237265722A46414604F1D0
:101D30000A00FEF7F7F905F10A0081B22046FEF726
:101D400045FA6119B2B288724FF47A732146044899
:101D5000FFF70AFC2046BDE8F04100F057BA00004A
:101D6000080900202DE9F047584D002429462A880B
:101D700001F10800B1F842184FF4FA662746012A2B
:101D800011D0022A5FD0032A5DD14FF47A786429FA
:101D90007ED9C823A91C4E48FFF7E6FB4046FEF754
:101DA000DDFBB1466FE064294FF003024DD90321FA
:101DB000A81CFFF79FFF4FF4FA794846FEF7CEFBC9
:101DC000B04619E004EBC40000EB041005EB8006FC
:101DD0000836032264213046FFF78CFF4046FEF7A9
:101DE000BDFB30466421FEF7B6F9B5F84208643809
:101DF000641CA5F84208E4B2B5F842086428E1D2B0
:101E000081B204EBC40000EB041005EB8000032258
:101E10000830FFF76FFF4046FEF7A0FB0322114694
:101E2000681DFFF767FF4846FEF798FB04EBC40008
:101E300000EB041005EB8000B5F842180830FEF7FF
:101E40008AF9A5F84278BDE8F087FFF753FF36E03E
:101E500004EBC40000EB041005EB80060836434693
:101E6000642231461A48FFF77FFB4846FEF776FBAF
:101E700030466421FEF76FF9B5F842086438641CF7
:101E8000A5F84208E4B2B5F842086428E0D200E0C0
:101E900017E082B204EBC40000EB041005EB8001F4
:101EA000464643460A480831FFF75EFB4846FEF7C0
:101EB00055FBC8230322691D0548FFF755FB304633
:101EC000B2E70A4643460146F6E700002C00002030
:101ED0000809002038B5174800680168406800907C
:101EE0001448FFF779F814494FF44010486013483C
:101EF00000684068124CC0F5FA704FF4FA75A4F807
:101F00003C082B4603220F490F4804F63C04FFF718
:101F10002BFB0E492B4622880D460B48FFF724FB6E
:101F20002188284600F014F8BDE838400148FFF742
:101F300081B80000C4080020000002409009002081
:101F40002C000020000000204C090020800400200C
:101F50002DE9F041104E0C4607460025A6F8421820
:101F600007E064220830FEF7DDF8643C6D1CA4B283
:101F7000EDB205EBC50000EB051007EB8001642C0A
:101F800006EB8000EDD222460830FEF7CBF80120A8
:101F900086F84408BDE8F0812C00002038B51748C9
:101FA00000680168406800901448FFF715F814496C
:101FB0004FF440104860134800684068124CC0F568
:101FC000FA704FF4FA75A4F83E082B4603220F4925
:101FD0000F4804F63E04FFF7C7FA0E492B46228845
:101FE0000D460B48FFF7C0FA2188284600F014F888
:101FF000BDE838400148FFF71DB80000080900207F
:1020000000000240180A00202C00002003000020DD
:102010004C090020740600202DE9F347664E009815
:102020000C463288002A7ED0314601F5187C01F535
:10203000C969B1F84018A6F1140501EB0C0300279B
:1020400029784FF001084FF4FA7A012A09D0022AC0
:102050007DD0032A02783ED0AA2A79D0EE2A78D001
:102060008CE00278052A13D14278002A10D18278B8
:10207000822A0DD1027AAA2A02D0EE2A09D00EE0D5
:10208000427AAA2A0BD1827AAA2A08D185F800803E
:1020900077E0427AEE2A02D1827AEE2A78D000F1F5
:1020A000080411B1012908D06BE0C279A6F84028D4
:1020B000214673E086F8458863E0C27918462146D8
:1020C000FEF730F80099B6F84008C979084421E0D5
:1020D0002F706F7055E0AA2A02D0EE2A07D00CE0CC
:1020E0004278AA2A09D18278AA2ACFD005E042787C
:1020F000EE2A02D18278EE2A4AD011B1012905D008
:102100003FE02246A6F8404847E00CE00146224660
:1021100018464AE0A6F840086878401CC0B26870CB
:102120000628D5D82DE00178012918D14178002959
:1021300015D18178822912D1611E89B2FEF746F845
:102140000099214411F8012C904208D102E006E0E8
:1021500007E00DE011F8050D497808433080BDE82F
:10216000FC874278AA2A09D18278AA2A8ED005E073
:102170004278EE2A02D18278EE2A09D051B10129A3
:1021800010D0524649460D48FFF7D6F9E7E7FFE77A
:102190002F708FE7A6F84048224601466046FDF7BB
:1021A000C1FF87E7184622466946FDF7BBFFB6F830
:1021B00040082044AEE700002C0000200809002061
:1021C0000148FEF737BF00004C090020FEE7090771
:1021D000090E002804DB00F1E02080F800147047AD
:1021E00000F00F0000F1E02080F8141D704702E0BD
:1021F00008C8121F08C1002AFAD170477047002092
:1022000001E001C1121F002AFBD1704710B5002860
:1022100021D0114B0022001F196803E0814203D82E
:102220000A4649680029F9D152B11368841A9C42C0
:1022300004D1006818441060104602E0506000E0CD
:10224000186039B102680B1A934203D10B681A4423
:1022500002604968416010BD74080020FEF78EFAE4
:10226000FFF7E9FAFFF71AFAFFF7DAF9FFF734FA9E
:10227000FFF766FAFFF780FAFFF79AFA2B48006833
:10228000C16841F01001C16029480068C16841F08F
:102290001001C16027480068C16841F01001C160A9
:1022A0002548FEF701FE0220FEF758F923494FF4B6
:1022B000FA76324688461D48FFF73EF920493246F5
:1022C0000F461B48FFF738F9C820FEF747F9FFF71C
:1022D0008FFA1C4C002500BF94F8450801280ED148
:1022E000FFF7EEFC84F84558A4F83E5831463846CE
:1022F000FDF731FF324639460D48FFF71DF994F8D6
:10230000440801280ED1FFF72DFD84F84458A4F8A5
:102310003C5831464046FDF71EFF324641460348D1
:10232000FFF70AF90120FEF719F9D5E7C4080020E4
:10233000080900204C0900207C08002080040020AF
:10234000740600202C000020F0B50B30154D20F055
:1023500007010024144A0FE003688B420BD38B4221
:1023600005D95E1A43184768C3E9006700E043686F
:10237000136002C004E0021D10680028ECD1204662
:10238000002802D1286808B10020F0BD064A07489D
:102390001060074A121A22F00702C0E90024012047
:1023A0002860D7E778080020740800202C0B002054
:1023B000280D0020000000000000000001020304BE
:1023C000060708090000000001020304EC230008CE
:1023D000000000207C080000900100081C24000878
:1023E0007C080020AC080000FE21000837AAAAAA39
:1023F000BBBBBB420192104324F4C70100020DA5F0
:10240000A5320E07FFAAAAAAEEEEEE01FF01FF0118
:0C241000FF01FF01FF01FF01FF01590067
:04000005080000ED02
:00000001FF
