:020000040800F2
:10000000F03E0020010100082F310008ED26000815
:100010002D310008430200082340000800000000C2
:10002000000000000000000000000000653A000829
:10003000B70200080000000031310008673A0008EC
:100040001B0100081B0100081B0100087932000891
:100050001B010008333100081B0100081B010008C8
:100060001B0100081B0100081B0100081B01000800
:1000700045020008510200085D02000869020008FC
:1000800075020008810200081B0100081B0100081E
:100090001B0100081B0100081B0100081B010008D0
:1000A0001B0100081B0100081B0100081B010008C0
:1000B0001B010008ED3A00081B0100081B010008A5
:1000C0001B0100081B0100081B0100081B010008A0
:1000D0001B010008213F0008353F0008493F000888
:1000E0001B0100081B0100081B010008DFF80CD0F1
:1000F00000F06AF800480047555B0008F03E002019
:100100000648804706480047FEE7FEE7FEE7FEE7B1
:10011000FEE7FEE7FEE7FEE7FEE7FEE7EB3A000854
:10012000ED000008202A04DB203A21FA02F0002129
:10013000704721FA02F3D040C2F1200291400843F7
:100140001946704740EA01039B0703D009E008C93C
:10015000121F08C0042AFAD203E011F8013B00F88C
:10016000013B521EF9D27047D2B201E000F8012BD8
:10017000491EFBD270470022F6E710B513460A4627
:1001800004461946FFF7F0FF204610BD421C10F848
:10019000011B0029FBD1801A704730B50B46014680
:1001A00000202022012409E021FA02F59D4205D316
:1001B00003FA02F5491B04FA02F52844151EA2F1C0
:1001C0000102F1DC30BD0000064C074D06E0E0689E
:1001D00040F0010394E8070098471034AC42F6D38E
:1001E000FFF788FF7C6500089C65000870B58C18D7
:1001F00010F8015B15F0070301D110F8013B2A113B
:1002000006D110F8012B03E010F8016B01F8016B27
:100210005B1EF9D12B0705D40023521E0DD401F823
:10022000013BFAE710F8013BCB1A921C03E013F8EC
:10023000015B01F8015B521EF9D5A142D8D3002021
:1002400070BDFEE7014800F0AFBA000008080020CA
:10025000014800F0A9BA0000C4070020014800F0DE
:10026000A3BA0000F8060020014800F09DBA000083
:10027000B4060020014800F097BA00003C070020B7
:10028000014800F091BA00008007002030B590F8D6
:1002900040500124AC40C56B6C60046863604368E7
:1002A000102B036803D099600068C26030BD9A606B
:1002B0000068C16030BD704772B6FEE7002200F0F2
:1002C00001B8000030B50E4B054601205C7A012CC8
:1002D00015D8587A00241C54587A03EB80004560E6
:1002E0005D7A03F108002A54587A421C5A72303061
:1002F00008703A2048702F208870CC70002030BDE4
:10030000E014002006490020C8610648016941F058
:1003100004010161016941F0400101617047000081
:10032000A814002000200240064A0021D16106499D
:100330000A6942F002020A614861086940F040001F
:1003400008617047A814002000200240044B0022DE
:10035000DA61044A136943F00103136101807047B5
:10036000A81400200020024014480022C168CB06D7
:10037000134904D5CA6942F00202CA611022C36857
:100380005B0705D5CB6943F00103CB6142F0040262
:10039000C369DB0707D0CB6943F00403CB61C169B4
:1003A00021F00101C161A2F58071013901D0C26063
:1003B0007047C16921F00101C1617047002002400E
:1003C000A814002070B5054600F0C4FC0646114C88
:1003D00009E0681C07D025B100F0BCFC801BA842D6
:1003E00001D9032070BDE068C007F2D1E068800643
:1003F00001D52020E060E068C00605D4E069C007B0
:1004000002D1E068400703D5FFF7AEFF012070BDC1
:10041000002070BD002002400B4A10B5A2F8F41372
:100420000A46014608480930FFF78CFE07490120BB
:100430004FF4FA7281F8EE03054801F5FB7100688C
:10044000BDE8104002F0E0B808010020B81000201C
:100450001405002038B5104C2068C8B101680A683E
:10046000D243D20612D40A684968009101F01EFEF8
:100470002068806B00684068C0F5FA7081B2074858
:10048000A0F8EA1300F5FB70FFF7C6FF002038BDA7
:100490004FF0FF3038BD000014050020B8100020D8
:1004A000084882B0006801680A684A680092CA6811
:1004B00042F01002CA604FF4FA72034902B002F02F
:1004C000A3B8000014050020AE1200200A46014621
:1004D00002484FF4FA63006802F0AEB81405002039
:1004E0002DE9F047234C94F8EE03012840D1224A2D
:1004F000B4F8EA33914621A1284804F2EA3403F023
:100500002FFE264803F0D4F8254D05F10900B5F873
:10051000F413804605F57D7502F0D2FB16494FF4C1
:10052000FA761B394F1E33460322F86802F084F82E
:100530002A8833464146F86802F07EF82B884A46FE
:1005400018A1164803F00CFE144803F0B1F800207F
:100550002071208028801B4831460446FFF70BFE9F
:100560001948324621460068BDE8F04702F04CB811
:10057000BDE8F087B81000204000002025733A093C
:100580002055534152543220726563656976652067
:100590002025642062797465200D0A007C0000200B
:1005A0000801002025733A09205553415254322046
:1005B0007472616E736D697420256420627974654C
:1005C000200D0A00AE120020140500200B4810B5C3
:1005D000002101600A4981600221C160094900F0DF
:1005E00005FA002808D000F055FA07A003F0A8FD8E
:1005F000BDE81040FFF760BE10BD0000A81000204D
:1006000000F80008F0000020204572726F722E2E54
:100610002E310D0A0000000030B50022064B074CB9
:1006200006E020CB40F82250521C92B2A34201D2E5
:100630008A42F6D330BD000000F80008000001082F
:100640002DE9F0410E4680460024124D00F06CFA70
:10065000FFF7BCFF10A003F073FD164F0FE000BFC3
:1006600058F8242000232946022000F01DFA60B12A
:1006700011A003F065FDFFF71FFEBD4201D2B44299
:10068000EED3BDE8F04100F005BA641CA4B22D1D04
:10069000F3E7000000F8000820B2C1B3FDCDEAB3D3
:1006A000C9A3ACD7BCB1B8D0B4C8EB2E2E2E2E2E19
:1006B0002E0D0A0000000108204572726F722E2E66
:1006C0002E320D0A0000000010B590F82110002213
:1006D000022905D00421816380F82020012010BD6B
:1006E00001680B6823F00E030B6001680B6823F0B0
:1006F00001030B6090F84030C46B012101FA03F351
:10070000636080F8211080F82020104610BD0000A2
:1007100010B590F821100024022903D00421816330
:1007200001243DE001680A6822F00E020A600168B7
:100730000A6822F001020A601A4A0168914201D156
:10074000012121E0174A1432914201D110211BE00E
:10075000144A2832914201D1891515E0114A3C32E0
:10076000914201D189140FE00E4A5032914202D1D8
:100770004FF4803108E00B4A6432914202D14FF4C9
:10078000801101E04FF08071064A083A5160012162
:1007900080F82110002180F82010416B01B18847BA
:1007A000204610BD080002402DE9F05FC16B0C68C7
:1007B00001680B68D0F840C0042202FA0CF2494DDF
:1007C000DFF824A1494E4A4FDFF828B1DFF828E1CD
:1007D00022422CD05A072AD50A68920603D40A6806
:1007E00022F004020A600168A94201D1042219E042
:1007F000514501D1402215E0B14202D14FF480624F
:1008000010E0B94202D14FF480420BE0594502D1C9
:100810004FF4802206E0714502D14FF4800201E0DE
:100820004FF080622F4908394A60C16A3BE04FF0BF
:10083000020808FA0CF818EA040F4FF000094FF00C
:10084000010235D05FEA837832D50B689B0605D468
:100850000B6823F00A030B6080F821200168A9428D
:1008600001D1022219E0514501D1202215E0B14207
:1008700002D14FF4007210E0B94202D14FF400529D
:100880000BE0594502D14FF4003206E0714502D128
:100890004FF4001201E04FF00072124908394A602B
:1008A00080F82090816A00291AD0BDE8F05F0847DF
:1008B000082505FA0CF5254212D01B0710D50B6848
:1008C00023F00E030B6090F84010C36B02FA01F1A5
:1008D0005960826380F8212080F82090016BE2E764
:1008E000BDE8F09F080002401C00024030000240BA
:1008F00044000240580002406C00024030B528B36A
:1009000008C8134914221944B1FBF2F18900C163EC
:1009100010498163022141771A6843F6F0718A43D6
:10092000D0E900142143D0E902452C432143046956
:100930002143446921438469214311431960002103
:100940004163012242770177084630BD012030BD66
:10095000F8FFFDBF0000024070B5044690F820008B
:10096000002501280CD0012084F8200094F8216093
:100970000020012E06D084F820000225284670BDF4
:10098000022070BD022684F82160A06320680668FA
:1009900026F0010606602046FFF778FCE06A002892
:1009A0002068016802D041F00E0106E021F0040148
:1009B00001602068016841F00A0101602068016857
:1009C00041F001010160D9E770B5044600F0C2F9B9
:1009D0000546601C02D004480078044400F0BAF9CF
:1009E000401BA042FAD370BD180500202DE9F04746
:1009F000054626480F460126017E01290FD0012118
:100A0000814601762868DFF888804CF2503402284D
:100A100008D0A2462046FFF7D5FCA8B131E002205D
:100A2000BDE8F0872046FFF7CDFC08BB0120FFF7AB
:100A300069FC2046FFF7C6FCD8F81010064621F0E6
:100A40000401C8F810101CE04FF0FF303860AC68AB
:100A500011E02046FFF768FC5046FFF7B3FCD8F8DA
:100A60001010060021F00201C8F8101001D03C60FF
:100A700007E004F58064D5E9020100EB8120A04283
:100A8000E7D8002189F818103046C9E7A8140020DB
:100A9000002002400348016941F08001016100200B
:100AA00070470000002002402DE9F05F07461C4817
:100AB00088460024017E15461E46012909D00121E1
:100AC000814601764CF2503A5046FFF77BFC18B154
:100AD00022E00220BDE8F09F012F02D0022F00D0BB
:100AE0000427D346DFF83CA0220128463146FFF711
:100AF00019FB81B208EB4400FFF728FC5846FFF7CA
:100B000061FCDAF8102022F00102CAF8102018B9AE
:100B1000641CE4B2BC42E7D3002289F81820D9E76C
:100B2000A814002000200240064900200A6912068D
:100B300007D5054A4A60054A4A600969090600D591
:100B4000012070470020024023016745AB89EFCDAB
:100B50002DE9F84FDFF8B891002409F1040A0AF1F1
:100B6000040B23460F270BF1040EC9E00125A54015
:100B70002A40AA427DD1674ED1F804C0ACEB0608EA
:100B8000B44532D014DCBCF1030F3AD009DCBCF11F
:100B9000000F2AD0BCF1010F1CD0BCF1020F31D1E3
:100BA0001DE0BCF1110F17D0BCF1120F2AD119E0D2
:100BB000B8F5881F19D006DCB8F5803F15D0B8F518
:100BC000801F1FD111E0B8F5001F0ED0B8F5041F2B
:100BD00018D10AE0CB6815E0CB681B1D12E0CB688A
:100BE00008330FE0CB680C330CE08B682BB1012B82
:100BF0004FF0080303D0456104E0042302E00561DF
:100C000000E00023FF2A01D8064601E000F10406B7
:100C10004FEA840501D9A5F12005D6F8008007FA2E
:100C200005FC28EA0C0803FA05F548EA0508C6F8A9
:100C300000804D68ED0062D5374DAE6946F0010683
:100C4000AE61AD6924F0030605F001050095334D52
:100C500006EB050CDCF80850A607360F07FA06F875
:100C600025EA0805DFF8B880404503D14FF00008B9
:100C700017E044E0DFF8AC80404502D14FF00108B6
:100C80000FE0DFF8A480404502D14FF0020808E0F1
:100C9000DFF89880404502D14FF0030801E04FF0A3
:100CA000040808FA06F848EA0508CCF808804D68F8
:100CB000D9F80060ED034D4601D5164300E0964398
:100CC0002E604D68DAF80060AD03554601D5164335
:100CD00000E096432E604D68DBF80060ED025D4653
:100CE00001D5164300E096432E604D68DEF80060A3
:100CF000AD02754601D5164300E096432E60641C94
:100D00000D682A46E5407FF431AFBDE8F88F00005A
:100D100000040140000011100010024000000140DA
:100D200000080140000C0140001001400014014087
:100D30008068084000D001207047C26821EA0203A1
:100D40000A4043EA0241016170470AB101617047FC
:100D50000904FBE70148806870470000180500207F
:100D600002488168027811448160704718050020AC
:100D7000074810B5016841F010010160032000F040
:100D800081F8002000F006F800F024F8002010BDE3
:100D90000020024070B50D4D04464FF47A7128785A
:100DA000B1FBF0F00A490968B1FBF0F000F087FFF1
:100DB00048B9102C07D200222146501E00F042F8FC
:100DC00000206C6070BD012070BD0000180500207F
:100DD00020000020124808B5816941F001018161BD
:100DE000816901F001010091C16941F08051C16147
:100DF000C06900F080500090052000F043F8002208
:100E00001146052000F01EF8052000F00DF80548F9
:100E1000416821F0E06141F00071416008BD0000CF
:100E20000010024000000140002809DB00F01F0212
:100E3000012191404009800000F1E020C0F800113C
:100E400070470000F0B40E4B1B680C46C3F302233E
:100E5000C3F10705042D00D90425191D072901D266
:100E6000002300E0DB1E012606FA05F1491E2140A1
:100E700099409E40761E16403143F0BC03F084B981
:100E80000CED00E0064900F0070208684FF6FF038A
:100E9000184040EA0220034A1043086070470000EF
:100EA0000CED00E00000FA050149012008627047DE
:100EB00000000E4210B529A401461DCC86B08DE875
:100EC0001D002AA02A4C006804900020012923D08C
:100ED00002293AD010291DD161682268D20119D5A2
:100EE000C1F38342C9031DF8020009D5616804AA51
:100EF000C1F34041515C1F4AB2FBF1F1484301E0AC
:100F00001D4948436168490204D440005FF0030171
:100F1000B0FBF1F006B010BD226AC2F30121012935
:100F200003D1920701D5C803F4E7022905D1626A0B
:100F3000920702D549F64040ECE70329EAD121683F
:100F40008903E7D54FF22440E4E700F033F9616804
:100F5000C1F38131491C4900DAE7000002030405AE
:100F6000060708090A0B0C0D0E0F101001020000F5
:100F70000010024000127A0000093D002DE9F843FC
:100F800005460078354CC00754D0E0690026C00003
:100F900008D4E06940F08050E061E069012600F08B
:100FA000805000902E480168C90512D4016880461F
:100FB00041F480710160FFF7CDFE074605E000BFF8
:100FC000FFF7C8FEC01B642823D8D8F80000C0056E
:100FD000F6D5206A10F4407021D0A98801F4407140
:100FE00081421CD0206A1F49012220F440700A600F
:100FF00000220A602062C00711D0FFF7ABFE07464F
:1010000041F2883808E000BFFFF7A4FEC11B41454C
:1010100002D90320BDE8F883206A8007F4D5206A4E
:10102000696820F44070084320621EB1E06920F036
:101030008050E0612878800705D56068A96820F4B1
:101040004040084360602878C00605D56068E968BC
:1010500020F48000084360600020DBE700100240BD
:1010600000700040400442422DE9F0470F46050061
:1010700061D0434E306800F00700B84209D23068B2
:1010800020F0070038433060306800F00700B842B5
:1010900051D128683B4C810712D5400703D56068C1
:1010A00040F4E06060602878000703D5606840F491
:1010B000605060606068A96820F0F00008436060DC
:1010C0002878C00728D06868012810D02168022835
:1010D00010D0890700292EDA616821F0030101434D
:1010E0006160FFF737FE804641F288390DE02168E4
:1010F0008903EFE78901EDE7FFF72CFEA0EB08017C
:10110000494502D90320BDE8F0876068696800F0AE
:101110000C00B0EB810FEFD1306800F00700B8424F
:101120000BD9306820F0070038433060306800F099
:101130000700B84201D00120E5E72878400705D52F
:101140006068E96820F4E060084360602878000780
:1011500006D56068296920F4605040EAC1006060EB
:1011600000F038F86168084AC1F30311515CC840C7
:101170000649086006480068FFF70CFE0020C2E739
:101180000020024000100240E85F0008200000201C
:101190001C0500200448054900684968044AC1F359
:1011A0000221515CC840704720000020001002401E
:1011B000F85F00080448054900684968044AC1F31B
:1011C000C221515CC840704720000020001002403E
:1011D000F85F000812A185B00FC98DE80F0014A0B8
:1011E000144A006804905168134801F00C03042B62
:1011F00010D0082B0ED1C1F38343C9031DF803009F
:101200000AD5516804AAC1F34041515C0A4A5043CF
:10121000B0FBF1F005B0704708494843FAE7000019
:1012200002030405060708090A0B0C0D0E0F101027
:10123000010200000010024000127A0000093D0087
:101240002DE9F84F040070D02078C04DC00749D078
:101250006868C0F38100012807D06868C0F3810086
:10126000022809D16868C00306D52868800339D5EB
:1012700060680028E7D035E06068B0F5803F0BD0AB
:1012800010B1B0F5A02F11D0286820F4803028606C
:10129000286820F4802002E0286840F4803028602C
:1012A000606890B1FFF756FD06460AE0286840F4F2
:1012B00080202860F0E700BFFFF74CFD801B64280A
:1012C00073D828688003F7D50CE0FFF743FD064686
:1012D00005E000BFFFF73EFD801B6428F0D82868BA
:1012E0008003F7D420789A4E80074FF001094FF021
:1012F000000839D5686810F00C0F07D06868C0F393
:101300008100022809D16868C00306D428688007D4
:1013100014D52069012808D110E02069B0B1C6F8C1
:101320000090FFF717FD074605E00AE1FFF712FD01
:10133000C01B0228C4D828688007F7D528686169CF
:1013400020F0F80040EAC10028600DE0C6F80080F7
:10135000FFF700FD074604E0FFF7FCFCC01B022876
:1013600023D828688007F7D4207800072CD579483F
:10137000A169D9B1C0F80090FFF7ECFC074604E082
:10138000FFF7E8FCC01B02280FD8686A8007F7D572
:1013900071484FF4FA510068B0FBF1F0009000BFC3
:1013A0000098411E0091FAD20EE080E0C0F8008063
:1013B000FFF7D0FC074604E0FFF7CCFCC01B022877
:1013C00075D8686A8007F7D42078400760D5E86947
:1013D0000027C00008D4E86940F08050E861E8695F
:1013E000012700F0805000905C480168C90513D4C3
:1013F0000168834641F480710160FFF7ABFC8246CF
:1014000006E000BFFFF7A6FCA0EB0A0064284ED858
:10141000DBF80000C005F5D5E06801280AD008B166
:10142000052813D0286A20F001002862286A20F0DD
:10143000040002E0286A40F001002862E06841F2FE
:10144000883B98B1FFF786FC82460BE0286A40F0A3
:1014500004002862EEE700BFFFF77CFCA0EB0A0166
:1014600059455AD8286A8007F6D50CE0FFF772FC78
:10147000824605E0FFF76EFCA0EB0A0159454CD807
:10148000286A8007F6D41FB1E86920F08050E8612F
:10149000E06988B36968C1F38101022944D0022858
:1014A000C6F8608004D0FFF755FC044638E034E00D
:1014B000FFF750FC074604E0FFF74CFCC01B022876
:1014C0002BD828688001F7D4206AB0F5803F05D179
:1014D0006868A16820F4003008436860D4E9080116
:1014E0000843696821F4741108436860C6F8609085
:1014F000FFF730FC044606E025E000BFFFF72AFCBA
:10150000001B022809D828688001F7D51BE000BF1E
:10151000FFF720FC001B022802D90320BDE8F88F4A
:1015200028688001F4D40EE00128F7D06868226AA8
:1015300000F48031914204D1616A00F47010884255
:1015400001D00120EAE70020E8E700000010024097
:10155000000042428004424220000020007000400F
:101560001FB5044600220D4900F071F80B49002216
:101570000931204600F044F808488478437802781E
:10158000093081788DE81E00C278437804A10C30C0
:1015900002F5FA6202F0E4FD1FBD00002B000020FE
:1015A000253032642F253032642F253032642D25CA
:1015B0003032643A253032643A253032640000001B
:1015C000704710B5044600680168C90717D0416824
:1015D000C90714D040684007204607D5FFF7F0FF41
:1015E00021686FF004004860042002E0FFF7B8FFB4
:1015F000012060742068416821F00101416010BD44
:10160000F8B505004FF0000016460C46009006D0D5
:101610002CB100226946284600F019F808B10120D3
:10162000F8BD287B2070E87BE070697B6170A97B46
:10163000A17056B101F087FDE070607801F083FD84
:101640006070A07801F07FFDA0700020F8BD2DE94A
:10165000F04791460C465FEA00084AD084B3D8F8B8
:1016600000004068400744D4404601F012FE4FF4A9
:1016700061620546B0FBF2F1B0FBF2F302FB1350DE
:101680003C23B0FBF3F0B5FBF2F6607002FB1650A2
:10169000B0FBF3F203FB1200A070182931D318201D
:1016A000B1FBF0F7B1FBF0F200FB121020704046E6
:1016B00001F0E8FD411C04D0A84202D9461B02E01B
:1016C00017E04FF0FF36A7EB071000EB4000C0EB30
:1016D000001005EBC0152946404601F029FE40B92F
:1016E000701C01D0711900E03146404601F00CFE3B
:1016F00010B10120BDE8F0873946404601F02EFDCB
:1017000000E02170B9F1000F0BD0207801F01BFD33
:101710002070607801F017FD6070A07801F013FD73
:10172000A0700020E6E7000070B5040003D0607CE4
:10173000002610B105E0012070BD2674204600F09F
:1017400043F802206074204600F01AF9042578BBA3
:10175000204601F05AFD58BB2068416821F007017E
:101760004160A06820B11748016821F001010160C3
:101770001448001F0168A26821F4607111430160E0
:101780006068411C04D10120FFF794FB80B1401E2A
:1017900021688A6822F00F0242EA10428A602168BA
:1017A000CA6860F30F02CA60204601F049FD08B123
:1017B0006574C0E7E67301206073A0736074002055
:1017C00070BD0000306C004008B500680D498842CB
:1017D00017D1FFF769FB0C48C16941F00061C16195
:1017E000C0690A4900F000600090012008600146CD
:1017F00000220320FFF726FBBDE808400320FFF787
:1018000013BB08BD00280040001002403C044242C7
:101810002DE9F0410D4604003BD0C5B3207C0128E2
:101820003AD04FF0010884F8108002206074E87804
:1018300072B301F07FFCE073687801F07BFC6073A9
:10184000A87801F077FCA073C2B2617BE07B01F065
:1018500030FD20732870204601F01BFD4FF46161BC
:10186000B0FBF1F1002518292DD91822B1FBF2F1B6
:10187000A1EB011101EB4101C1EB011100EBC1161C
:101880003146204601F054FD0427C8B90BE000E0C2
:1018900004E00120BDE8F0810220FBE7E0736878F6
:1018A0006073A878CFE7204601F0ECFC411C0AD019
:1018B000B04208D206490144204601F025FD10B18E
:1018C00067742574E5E784F8118025740020E1E74A
:1018D000805101002DE9F0410D46040024D01DB3D4
:1018E000207C012823D04FF0010884F810800220CA
:1018F00060742878EAB101F01DFC4FF4616100FBCF
:1019000001F6687801F016FCC0EB001006EB8006CB
:10191000A87801F00FFC35182946204601F008FD93
:101920000026042710BB0FE00120BDE8F081022053
:10193000FBE74FF4616148436978C1EB011100EBAB
:101940008100A9784518E7E72068416821F0050182
:101950004160204601F096FC411C0AD0A84208D202
:1019600006490144204601F0CFFC10B1677426748B
:10197000DAE784F8118026740020D6E78051010050
:1019800070B504000AD02068416821F00801416068
:10199000FFF7E0F905464FF47A7608E0012070BDC4
:1019A000FFF7D8F9401BB04201D9032070BD206871
:1019B00040680007F4D5002070BD70B5040009D060
:1019C000606A002540B125616561A56294F8510007
:1019D00040B10CE0012070BD6068B0F5827FF4D0AA
:1019E000E561F2E784F85050204600F03FF802200D
:1019F00084F851002068016821F040010160A0884E
:101A0000218900F4827001F404410843A18901F4A2
:101A100000610843217C01F002010843217D01F0AF
:101A200001010843218B01F400710843217F01F07B
:101A30003801084394F8201001F080010843218DFB
:101A400001F40051084321680860A069042101EAFB
:101A50001040216848602068C16921F40061C161BB
:101A60006565012084F85100002070BD30B585B057
:101A7000002400940194029403940068144988425D
:101A800023D11448816941F480518161816901F455
:101A900080510491816941F00401816180690E4D9A
:101AA00000F004000490A020009002200190032088
:101AB000039069462846FFF74BF84020CDE9000423
:101AC000694628460294FFF743F805B030BD000090
:101AD0000030014000100240000801402DE9F84F9D
:101AE000044690F8500000270A9E1D4692468B46F9
:101AF0004FF0010901280ED0012084F85000FFF7B3
:101B000029F9804694F85100616801280CD0B1F59C
:101B1000827F07D102E00220BDE8F88FA16809B9F1
:101B2000042801D00227C2E0BBF1000F27D0BAF190
:101B3000000F24D01DB394F85100042802D00520D2
:101B400084F8510000206065C4F838A0E587A587B7
:101B5000C4F830B0E586A58620646064206801681A
:101B6000490603D4016841F040010160E068B0F526
:101B7000006F606805D0E8B3012D46D07FE00127F3
:101B800095E008B1012D39D1206B21680088C8602B
:101B9000206B801C2063E08E401EE0862EE02068D3
:101BA000816889070FD5E18E69B1B9F1010F0AD1BA
:101BB000216B0988C160206B801C2063E08E401E71
:101BC000E0864FF0000920688168C9070CD0E18FDA
:101BD00051B1C068A16B0880A06B801CA063E08F2E
:101BE000401EE0874FF00109FFF7B4F8A0EB0800B2
:101BF000B04200E009E001D3701C50D1E08E002813
:101C0000CDD1E08F0028CAD13FE0206B2168007859
:101C10000873206B401C2063E08E401EE0862EE09F
:101C20002068816889070FD5E18E69B1B9F1010F8C
:101C30000AD1216B09780173206B401C2063E08E70
:101C4000401EE0864FF0000920688168C9070CD06B
:101C5000E18F51B1C068A16B0870A06B401CA063FC
:101C6000E08F401EE0874FF00109FFF773F8A0EB0B
:101C70000800B04202D3701C01D010E07EB1E08EAB
:101C80000028CDD1E08F0028CAD1424631462046F7
:101C900001F062FE28B101272020606507E00327DC
:101CA00005E0A06818B92068C1688068009001202C
:101CB00084F85100002084F8500038462CE710B515
:101CC000401EB0F1807F01D3012010BD4FF0E02411
:101CD00060610F21601702F057FA0020A061072011
:101CE0002061002010BD70477047000070B590F86B
:101CF0003C20012A26D0012480F83C40022280F8B2
:101D00003D2003685A689D6822F070060A683243D5
:101D10005A600D4B02689A4208D0B2F1804F05D04C
:101D20000A4B9A4202D00A4B9A4204D1496825F0E4
:101D300080031943916080F83D40002180F83C10F9
:101D4000084670BD022070BD002C01400004004018
:101D50000008004010B5040003D094F83D0010B115
:101D600007E0012010BD002084F83C00204600F070
:101D70001FF8022084F83D00211D206801F0BCFE00
:101D8000012084F8460084F83E0084F83F0084F87F
:101D9000400084F8410084F8420084F8430084F84D
:101DA000440084F8450084F83D00002010BD000088
:101DB00008B500680B49884212D10B48C16941F04F
:101DC0000201C161C069032200F0020000900021FD
:101DD0001D20FFF737F8BDE808401D20FFF724B8A5
:101DE00008BD0000000400400010024090F83D10C3
:101DF000012901D001207047022180F83D100168BF
:101E0000CA6842F00102CA6000680B49884208D0E3
:101E1000B0F1804F05D00949884202D00849884274
:101E200004D1816801F00701062903D0016841F05F
:101E30000101016000207047002C014000040040B7
:101E40000008004070B5044690F83C00012817D007
:101E5000012584F83C50022084F83D002068826807
:101E600022F0770222F47F4282600868502830D046
:101E70000DDC20284DD005DC98B310283BD148E07C
:101E8000022070BD302844D0402834D139E0602889
:101E900028D0702806D0B0F5805F2CD0B0F5005F58
:101EA00029D10AE0CB68D1E90121206801F05AFE6E
:101EB0002068816841F0770109E0CB68D1E9012110
:101EC000206801F04FFE2068816841F48041816004
:101ED00011E0CA684968206801F056FE5021206868
:101EE00007E016E0CA684968206801F05EFE6021DC
:101EF000206801F041FE84F83D50002084F83C0049
:101F000070BDCA684968206801F03EFE4021206823
:101F1000EFE7226801461046EBE7704770B50446CC
:101F2000006801694FF00005C943890715D4C168ED
:101F3000C943890711D4E91E016101202077206877
:101F400080698007204602D0FFF7E7FF04E000F039
:101F500098F8204600F096F8257720680169C94373
:101F6000490717D4C168C943490713D46FF0040166
:101F70000161022020772068806910F4407F2046AC
:101F800002D0FFF7CAFF04E000F07BF8204600F023
:101F900079F8257720680169C943090716D4C16813
:101FA000C943090712D46FF00801016104202077AA
:101FB0002068C0698007204602D0FFF7AEFF04E02A
:101FC00000F05FF8204600F05DF825772068016991
:101FD000C943C90617D4C168C943C90613D46FF0F1
:101FE00010010161082020772068C06910F4407F4B
:101FF000204602D0FFF791FF04E000F042F82046AF
:1020000000F040F8257720680169C943C90708D165
:10201000C168C943C90704D1891E0161204600F087
:1020200033F820680169C943090609D4C168C94366
:10203000090605D46FF0800101612046FFF753FEC9
:1020400020680169C943490609D4C168C9434906E2
:1020500005D46FF040010161204600F025F82068AA
:102060000169C94389060BD4C168C943890607D4ED
:102070006FF0200101612046BDE87040FFF734BEDB
:1020800070BD70477047000010B500680549884270
:1020900006D1642000F062FBBDE8104000F09EBD58
:1020A00010BD0000000400407047704710B50446A2
:1020B0000068416994F83D20C1F3C011212A0BD179
:1020C00051B1416921F080014161606B08B1FEF7B7
:1020D000FBFA204601F0FAFD2068416994F83E20A1
:1020E000C1F38011222A0BD151B1416921F0400185
:1020F0004161A06B08B1FEF7E7FA204601F0CEFD82
:10210000002010BD70470000F8B502680446106852
:10211000D168536910F00F0F4FF0000553D003F052
:10212000010601F4907737435FD0C20705D0CA0596
:1021300003D5226C42F001022264420705D5DA077A
:1021400003D0226C42F002022264820705D5DA072E
:1021500003D0226C42F004022264020707D501F08A
:102160002002324303D0226C42F008022264226C27
:10217000002A34D0800604D5880602D5204601F016
:10218000AEFD20684069216CC0F38010090700D4BF
:1021900030B3204601F082FD2068416949061BD515
:1021A000416921F040014161A06BA8B158494163E8
:1021B000A06BFEF7ADFA002811D0A06B416B01B007
:1021C000BDE8F040084783060FD58B060DD52046A5
:1021D000BDE8F84001F083BD2046FFF793FFF8BD4E
:1021E0002046FFF78FFF2564F8BD266B2023012EC4
:1021F00052D1C60650D5CE064ED510685068009014
:10220000506940062AD5A16B086840680004000C9C
:10221000EAD0A68D8642E7D9E0858869202818D0C3
:10222000D06820F48070D0602068416921F00101FD
:1022300041612068416921F04001416184F83E30EC
:1022400025632068C16821F01001C160A06BFEF712
:102250003BFAA08DE18D401A81B219E0A08DE18D8D
:10226000401A81B2E08D0028BED00029BCD0D068D1
:1022700020F49070D0602068426922F0010242612F
:1022800084F83E3025632068C26822F01002C260E4
:102290002046FFF70AFFF8BD05062BD50D0629D508
:1022A00094F83D002128F6D1A068B0F5805F01D1F7
:1022B0002069B0B1206A411C216221680078486021
:1022C000E08C401E0004000CE084E4D12068C1686A
:1022D00021F08001C1602068C16841F04001C16007
:1022E000F8BD206A0088C0F308005060206A801C96
:1022F0002062E5E74006F3D54806F1D5D1682046CF
:1023000021F04001D16084F83D3000F0EEF9F8BDD5
:10231000CF3B000870B5040004D094F83D000025C0
:1023200010B106E0012070BD84F83C50204600F05A
:1023300023F8242084F83D002068C16821F400516E
:10234000C160204601F026FD2068016921F490411A
:1023500001612068416921F02A0141612068C1685A
:1023600041F40051C1602564202084F83D0084F8C8
:102370003E00002070BD00002DE9F04786B000252A
:1023800000950195029503950446D0F800C0964843
:10239000DFF8508202210322944B802786144FF4E9
:1023A000806A4FF01009C4455BD1D0F818C04CF4D6
:1023B000804CC0F818C0D0F818C00CF4804CCDF890
:1023C00010C0D0F818C04CF0040CC0F818C08069D8
:1023D000039200F0040004900802CDE90001694670
:1023E00098461846FEF7B4FBCDF800A0AA46019522
:1023F000694640460295FEF7ABFBDFF8F8817C4961
:102400004046C0E90015C0E90257C8F81050C8F8A6
:102410001450C8E90656FEF771FA08B1FDF74CFFF3
:10242000744D7348C4F8388044351438C8F82440D3
:10243000C5E90009C5E902A7C5F810A0C5F814A0B0
:10244000C5E906A62846FEF759FA08B1FDF734FF9C
:1024500065630222002125206C62FEF7F3FC252033
:1024600061E0DFF89481C44562D1D0F81CC04CF41F
:10247000003CC0F81CC0D0F81CC00CF4003CCDF8E7
:1024800010C0D0F818C04CF0040CC0F818C0806917
:10249000039200F0040004900420CDE90001694695
:1024A00098461846FEF754FB0820CDE90005AA46D9
:1024B000694640460295FEF74BFBDFF838814C49F0
:1024C00008F1880840461431C0E90015C0E90257F8
:1024D000C8F81050C8F81450C8E90656FEF70EFAAE
:1024E00008B1FDF7E9FE434D4148C4F83880CC35CA
:1024F0002830C8F82440C5E90009C5E902A7C5F895
:1025000010A0C5F814A0C5E906A62846FEF7F6F9FE
:1025100008B1FDF7D1FE65630122002126206C621F
:10252000FEF790FC2620FEF77FFC06B0BDE8F087A2
:10253000324B9C45F9D1C36943F48023C361C3691D
:1025400003F480230493836943F008038361806963
:10255000CDE900A100F00800CDE90320DFF8A0805C
:1025600069464046FEF7F4FA4FF40060CDE90005F5
:10257000694640460295FEF7EBFADFF888A01C4951
:1025800050462839C0E90015C0E90257CAF8105072
:10259000CAF81450CAE90656B846FEF7AFF908B1B2
:1025A000FDF78AFE174FC4F838A04437CAF8244014
:1025B000C7E902580E483D613C387D61C7E9000912
:1025C000C7E906563846FEF799F908B1FDF774FEDB
:1025D00067630122002127207C62FEF733FC27205D
:1025E000A1E700000038014000100240000801404F
:1025F00058000240B406002000440040004800405B
:10260000000C0140C407002090F83E30202B0ED172
:1026100059B152B190F83C30012B08D0012380F819
:102620003C300023036301F011BC012070470220FD
:1026300070477047704700002DE9F843044690F852
:102640003D001F4616460D4620284CD1C5B1BEB1EF
:1026500094F83C00012846D0012084F83C004FF05B
:102660000008C4F84080212084F83D00FEF772FB8A
:10267000A6848146E684A068B0F5805F03D004E0BC
:102680000120BDE8F883206928B12E465FF00005DF
:1026900084F83C800EE00026FAE78021204601F015
:1026A0000DFCA0B9AEB116F8010B21684860E08CB2
:1026B000401EE084E08C4B464FF00002009700285B
:1026C000EBD14FF04001204601F0F8FB30B1032080
:1026D000D7E735F8020BC0F30800E6E7202084F8BE
:1026E0003D000020CDE70220CBE77047FEE7000069
:1026F00070B5184E184C00253570E580A5806581B1
:10270000301DA58101894068FEF712FB50B1002100
:1027100021806288204691420DD029B10122327079
:10272000A18014E00121F3E703890BB1828100E06D
:10273000C28005810AE051B1028942B9C289521CA6
:1027400092B2C281642A02D901814181E58141802E
:1027500070BD0000E0000020981000202DE9F0413D
:10276000324CDFF8C0E000222188BEF800C00D46E0
:10277000491C2D4F89B2BCF1000F0DD076466388FD
:10278000B6799C4500D986B1BEF804E0A3EB0C0CE9
:10279000F44529DAAEB128E02180052D36D9228012
:1027A00002213846FEF7C9FA30E02180B1EB900FE4
:1027B00001D2012203E0B1EB500F11D2002202211D
:1027C0000AE02180B1EB900F01D2012203E0B1EBCE
:1027D000500F05D2002201213846FEF7B6FA15E067
:1027E00022805B1C638011E00EB1854201D3228000
:1027F0006280002202213846FEF7A7FA002201215A
:102800003846FEF7A2FA2088401C2080084801784C
:10281000084829B10022BDE8F0410221FEF795BA2F
:102820000122F8E708010020000C0140F40000201C
:1028300062000020000801402DE9F041244D95F888
:10284000F603012841D1234AB5F8F233904622A17C
:10285000294805F2F23501F083FC274800F028FFF3
:10286000264C4FF4FA763146A01CFDF72FFE304679
:10287000FEF7AAF81749334618390F1F0322F868E4
:10288000FFF7DAFEB4F8EC233346A11CF868FFF733
:10289000D3FEB4F8EC33424619A1174801F060FCAE
:1028A000154800F005FF002028712880A4F8EC03EB
:1028B0001B4831460446FDF75EFC1A483246214665
:1028C0000068BDE8F041FFF79FBEBDE8F081000061
:1028D000080100204000002025733A09205553418B
:1028E0005254322072656365697665202025642024
:1028F00062797465200D0A007C000020B810002069
:1029000025733A0920555341525433207472616E35
:10291000736D69742025642062797465200D0A0046
:10292000050300200401002010B5034600780122B1
:1029300002E09C5C6040521C8A42FADB10BD000041
:102940002DE9F04704460078DFF8EC904E1E67183A
:10295000A9F11005052851D16078002864D1A0782C
:10296000822861D1B1B22046FFF7DEFF17F8011CC3
:10297000884243D1E27900274FF00108032A14D19D
:10298000207AAA2802D0EE2809D00EE0607AAA2880
:102990000BD1A07AAA2808D185F800802CE0607AB3
:1029A000EE2802D1A07AEE2807D02B78234804F134
:1029B000080123B1012B0AD036E02F7004E0A0F803
:1029C000EC23801CFDF7BEFB89F8F6832CE006465D
:1029D000B0F8EC33194806F57B76801C1844FDF7F7
:1029E000B1FB3088E179084430806878401CC0B27F
:1029F0006870062818D92F706F7015E020780128AC
:102A000012D1607880B9A07882280DD1B1B2204669
:102A1000FFF78AFF17F8011C884205D117F8050D4A
:102A200079780843A9F80000E868BDE8F0474FF45A
:102A3000FA720349FFF7E8BD08010020B810002032
:102A400005030020F8B51A4CE068E8B101680A688F
:102A5000D243D20629D40A68002549680091FFF7BD
:102A600025FBE068806B0068406804F11006C0F543
:102A7000FA7082B20F48A6F8F22304F20D2490F8FF
:102A8000EE13012903D00BE04FF0FF30F8BD80F8C2
:102A9000EE5309484FF4FA7321460068FFF7CCFD66
:102AA000B6F8F2132046FFF74BFF0020F8BD0000F8
:102AB000F80000204C080020300000200C4808B529
:102AC000C06801680A684A680092CA6842F0100249
:102AD000CA604FF4FA720749FFF796FDC820FDF768
:102AE00073FF00F041F8BDE8084000F069B800004D
:102AF000F8000020050300202DE9F041804601F197
:102B00000B0617460D46304603F094F804460520A0
:102B10002070002262700123A370A91DE170380AA1
:102B200020716771A2710720E071237265722A46D5
:102B3000414604F10A00FDF705FB05F10A0081B2E8
:102B40002046FFF7F1FE6119B2B2887205484FF4D2
:102B50007A732146C068FFF76FFD2046BDE8F0415B
:102B600002F0B4BEF80000202DE9F041124F0A2512
:102B700007F110044FF4FA7604F2FD183046FDF721
:102B800023FF334612220D49F868FFF755FD324600
:102B90004146F868FFF738FD20886188884202D1F5
:102BA0006D1EADB2EAD22088608015B10020BDE86C
:102BB000F0810320FBE70000F80000200005002062
:102BC00008B501216846FDF727FDBDF80000024960
:102BD00040BA888008BD0000080100202DE9F041BE
:102BE000FFF786FD3349344D4FF00108488930B175
:102BF000A879421CAA71022801D985F806802E4CBA
:102C0000AA790026103C62B12C48012A0CD0022A75
:102C100005D18A8862B3E078401CE070A680BDE8E8
:102C2000F081A670E670FAE78A881AB1A078401C95
:102C3000A070F3E70A890AB1012202E0098811B104
:102C40000022022131E0012202210746FEF77DF831
:102C5000A088411CA180C828E1D9A07818B100F053
:102C600071F885F8F783AE710022A68002211BE07F
:102C70000A890AB1012202E0098811B1002201216A
:102C800013E0012211460746FEF75FF8A088411CB9
:102C9000A180C828C3D9E07810B1A88000F094F8CA
:102CA000AE710022A68001213846BDE8F041FEF752
:102CB0004CB800009810002008010020000C0140D2
:102CC0002DE9F0471E4C00250E46A28807464FF41A
:102CD000FA7864292DD90321A4F10A00FFF70CFF2B
:102CE0004046FDF771FE4FF47A7905EBC50000EB25
:102CF0000510A28807EB80006421FFF7FDFE48461F
:102D0000FDF762FE643E6D1CB6B2EDB2642EECD2ED
:102D100005EBC50000EB0510A28807EB80003146EB
:102D2000FFF7EAFE4846FDF74FFE0548A28803215B
:102D3000C01FFFF7E1FE4046BDE8F047FDF744BE87
:102D40000801002000B585B0002101228DF8002087
:102D50008DF801108DF802200D228DF80320A52298
:102D60008DF804208DF805206C228DF80620802235
:102D70008DF8072012228DF8082007228DF80920EF
:102D800017228DF80A208DF80C10020A8DF80D20FC
:102D90008DF80E0003208DF80B108DF80F008DF8C4
:102DA000101011216846FFF7BFFD8DF8110005488E
:102DB0004FF47A7312226946C068FFF73DFC05B0F4
:102DC00000BD0000F800002008B5010A8DF80010D1
:102DD0008DF8010001216846FDF732FC08BD0000B6
:102DE0001D4808B5416941F0010141614069002277
:102DF00000F00100009011460C20FEF723F80C2093
:102E0000FEF712F8002211460D20FEF71BF80D20E8
:102E1000FEF70AF8002211460E20FEF713F80E20E6
:102E2000FEF702F8002211460F20FEF70BF80F20E4
:102E3000FDF7FAFF002211461020FEF703F81020DC
:102E4000FDF7F2FF002211461120FDF7FBFFBDE860
:102E500008401120FDF7E8BF0010024010B50449FA
:102E60000448FDF72BFA0249491E087010BD000006
:102E700015000020000000202DE9F04186B000265A
:102E80002B480096019602960396816941F0200135
:102E90008161816901F020010491816941F004019F
:102EA0008161816901F004010491816941F00801A7
:102EB000816180691F4F00F00800049000221221F8
:102EC0003846FDF742FFDFF87080002203214046BC
:102ED000FDF73BFF012208214046FDF736FF0225A2
:102EE0000124CDE9005469463846CDE90245FDF795
:102EF0002FFE1020CDE900040320CDE902406946F1
:102F00003846FDF725FE0B20CDE900046946404612
:102F1000CDE90245FDF71CFE2002CDE90006694619
:102F200002944046FDF714FE06B0BDE8F0810000B3
:102F30000010024000080140000C01403EB5002492
:102F400022480194204900940160611EC0E90114E7
:102F5000FEF7EAFB08B1FDF7AFF91D48C16941F082
:102F60000061C161C16901F000610291C16941F074
:102F70008051C161C069052500F080500290102089
:102F80008DF804008DF805508DF80640012201A946
:102F90000E48FEF79FFC08B1FDF78EF98DF8005042
:102FA00008208DF8010019208DF8020022208DF8EC
:102FB0000300012269460548FEF72AFC002801D0DB
:102FC000FDF77AF93EBD00000028004034050020DE
:102FD00000100240104810B50E4901604FF4827194
:102FE000416000218160C1604FF400720161C0E95D
:102FF00005120822C0E90721416281620A21C162EB
:10300000FEF7DBFC002803D0BDE81040FDF754B903
:1030100010BD0000003001404805002010B586B00A
:1030200000241748009401940294039404941349D3
:10303000059401604721C0E9011442F20F71C0E913
:1030400003148461FEF786FE08B1FDF735F94FF4ED
:103050008050009069460A48FEF7F4FE08B1FDF77B
:103060002BF9049404A906480594FEF73FFE0028B6
:1030700001D0FDF721F906B010BD000000040040AA
:10308000A00500200C4810B50A4901604FF4165104
:103090004160002181600C22C160C0E9041281619D
:1030A000C161FFF737F9002803D0BDE81040FDF7F4
:1030B00003B910BD00380140E80500200C4810B5E8
:1030C0000A4901604FF416514160002181600C22D1
:1030D000C160C0E904128161C161FFF71BF90028DA
:1030E00003D0BDE81040FDF7E7B810BD0044004034
:1030F0002C0600200C4810B50A4901604FF4165107
:103100004160002181600C22C160C0E9041281612C
:10311000C161FFF7FFF8002803D0BDE81040FDF7BC
:10312000CBB810BD0048004070060020FEE7FEE767
:1031300070477047010901EB810100F00F0000EBBF
:103140004100C0B27047002102E00A38C0B2491CF9
:103150000A28FAD2090740EA116070472DE9F041C8
:1031600004460025C07B627BA37B42E0012A16D087
:10317000032A14D0052A12D0072A10D0082A0ED00C
:103180000A2A0CD00C2A0AD0042A10D0062A0ED003
:10319000092A0CD00B2A0AD0022A0DD028E01F2BB6
:1031A0000CD30C2A05D101221346401C20E01E2B13
:1031B00004D30123521C1BE01C2B02D203F1010398
:1031C00016E011D183B29E0710D16426B3FBF6F747
:1031D00006FB173636B94FF4C876B3FBF6F706FB95
:1031E00017331BB91D2303E01D2B01D1032201233B
:1031F0006D1C8D42BAD3D1B2E0736173DAB2A2739F
:1032000000F057F82073BDE8F08170B50446FDF773
:10321000A1FD05464FF47A7606E0FDF79BFD401BC5
:10322000B04201D9032070BD206840688006F4D503
:103230002068416841F010014160002070BD00002D
:1032400070B504460068416821F010014160FDF747
:1032500081FD05464FF47A7607E000BFFDF77AFD61
:10326000401BB04201D9032070BD20684068800631
:10327000F4D5002070BD00000148FEF7A2B900009F
:10328000340500200168086A496A89B241EA0040B1
:103290007047006881698AB2C1698BB2816989B25D
:1032A0008A4203D0C06961F31F40704743EA02407D
:1032B0007047F0B56424C1EBC1030927A5000726B8
:1032C00003EB01130329B3FBF7F100F5FA60114496
:1032D00001440AD2401EB0FBF4F201EB9001B0FBB6
:1032E000F5F0891A0844001D08E0B0FBF4F201EB88
:1032F0009001B0FBF5F0891A0844801CB0FBF6F190
:1033000006FB1100C0B2F0BD70B50D4606460024A4
:10331000FFF77BFF48B93168280C08623168A8B212
:1033200048623046FFF78CFF00B10124204670BD93
:1033300070B50D4606460024FFF767FF48B93168AF
:10334000280C88613168A8B2C8613046FFF778FF61
:1033500000B10124204670BD2DE9FF4100F00AFABA
:10336000012500262C4C002846D0A6702BA000BFBB
:1033700000F0E6FE01222DA12D4801F0BBFE002841
:103380003DD0A6702BA000BF00F0DAFE2E48877853
:10339000437802782D4881788DE88E004378C27892
:1033A0001D482BA1083002F5FA6200F0D9FE1A4937
:1033B000122208312F4801F0CBFE002822D02EA087
:1033C00000F0BEFEA6702B48D0F80C1201F050FDA4
:1033D000114B1E221B1D2D49264801F0EBFF070053
:1033E00015D02BA000F0ACFEA670224801F086FF9D
:1033F00004B03846BDE8F081A5702AA0B8E7A570F2
:103400002CA0C1E730A000F09BFEA570DBE733A045
:1034100000F096FEA570E8E760000020B3F5CABC96
:10342000BBAFCAA7B0DCA3A1200D0A00303A000050
:10343000680E0020CEC4BCFEB9D2D4D8CAA7B0DC76
:10344000A3A1200D0A0000002B0000203400002062
:10345000253032642D253032642D253032645F25CD
:103460003032642D253032642D253032642E74784C
:10347000740000003C0C0020CEC4BCFEB4B4BDA857
:10348000CAA7B0DCA3A1200D0A0000004000002064
:10349000CEC4BCFED0B4C8EBCAA7B0DCA3A1200D3B
:1034A0000A000000B3F5CABCBBAFB3C9B9A6A3A15B
:1034B000200D0A00CEC4BCFEB9D2D4D8B3C9B9A677
:1034C000A3A1200D0A000000CEC4BCFEB4B4BDA868
:1034D000B3C9B9A6A3A1200D0A000000CEC4BCFE4A
:1034E000D0B4C8EBB3C9B9A6A3A1200D0A0000004F
:1034F000044B20B1002210211846FDF726BC012202
:10350000F9E700000008014070B5054601220021DE
:10351000092000F0DDF910F0FF0404D11021284645
:1035200000F078F804460020FFF7E2FF0CB101201C
:1035300070BD002070BD1FB56846FFF7E5FF10B1F4
:10354000002004B010BD9DF800100120B0EB911FC9
:1035500009D19DF808209DF8091000EB02200844CD
:1035600000048009EDE79DF805009DF80A1000F0C1
:103570000F0000EBD1109DF809109DF8072001F015
:10358000030100EB41019DF80800800900EB820077
:103590009DF8062002F0030200EB8220401CC91FA8
:1035A0008840CEE72DE9F041064619481546407897
:1035B000062800D049024FF40077012D4FF0010298
:1035C0001AD0122000F084F93946304600F022F873
:1035D0006D1E044606F5007615F0FF0501D0002C9F
:1035E000F2D0012200210C2000F072F90020FFF738
:1035F0007FFF2046BDE8F081112000F069F910F04E
:10360000FF04F3D13946304600F004F80446EDE7F4
:103610006000002070B505460C460120FFF768FFEA
:10362000FF2002F01BFC06466420FDF7CDF9FE2EBC
:10363000F6D103E002F012FC05F8010B641EA4B2FF
:103640004FF0FF00F6D202F009FCFF2002F006FC6A
:10365000002070BD70B50D460646FF24FF2002F025
:10366000FDFBFF2802D0641EE4B2F7D2DCB128468D
:1036700002F0F4FBFD2D18D000244FF40075305DEE
:1036800002F0ECFB641CA4B2AC42F8D3FF2002F0C1
:10369000E5FBFF2002F0E2FBFF2002F0DFFB00F081
:1036A0001F00052801D0022070BD002070BD000061
:1036B00038B504460B48D0F80C1201F0D9FB20466F
:1036C000FCF764FD02466B462146064801F072FE97
:1036D000054928B100208870024801F00FFE38BD6E
:1036E0000120F8E73C0C00206000002070B5064681
:1036F0001F4815460C464078062800D04C02012D84
:1037000014D0012809D001220021372000F0E0F870
:1037100001222946172000F0DBF80122214619205A
:1037200000F0D6F810F0FF040BD01BE00122214678
:10373000182000F0CDF810F0FF0413D1FE21304620
:103740000DE0FC213046FFF785FF6D1E06F5007683
:1037500015F0FF0501D00028F3D0FD210020FFF770
:1037600079FF04460020FFF7C3FE204670BD00002D
:10377000600000202DE9FC41002700971426382026
:10378000019700F055F90020FFF7B2FE4F4D0024DD
:10379000287802F063FB641CA4B20A2CF8D3002141
:1037A0009522084600F094F8C0B2012802D0761E97
:1037B000B6B2F4D26F7087224FF4D571082000F0B2
:1037C00087F8C0B2012873D100246E46287802F031
:1037D00045FB3055641CE4B2042CF7D39DF802007D
:1037E0004FF6FE74012803D19DF80300AA281FD0CC
:1037F00001220021372000F06BF80122002129204E
:1038000000F066F8C0B201283DD80220687001229D
:103810000021372000F05CF801220021292000F06F
:1038200057F810F0FF0F3BD0641EA4B2EFD237E080
:103830004FF0804701220021372000F049F8012293
:103840003946292000F044F810F0FF0F02D0641E22
:10385000A4B2EFD2B4B1012200213A2000F038F82E
:1038600080B90024FF2002F0F9FA3055641CE4B25C
:10387000042CF7D39DF80000400601D5062000E097
:103880000420687014E001206870012200211046B5
:1038900000F01EF810F0FF0F02D0641EA4B2F4D2A4
:1038A0002CB101225102102000F012F800B16F700B
:1038B0000020FFF71DFE082000F0BAF8687810B16C
:1038C0000020BDE8FC810120FBE700006000002033
:1038D0002DE9F041064690460D464FF6F074002063
:1038E000FFF706FE1420FDF76FF80120FFF700FE3A
:1038F000184F387802F0B2FAFF2802D0641EA4B242
:10390000F7D224B3FF2446F0400002F0A7FA280EB5
:1039100002F0A4FAC5F3074002F0A0FAC5F30720AD
:1039200002F09CFAE8B202F099FA404602F096FAE8
:103930000C2E02D1387802F091FAFF2002F08EFAB4
:10394000010602D5641EA4B2F7D2002C00D10220D9
:10395000BDE8F0816000002038B50B4600920446B7
:103960000022802100F008F8002804D0606D40F0AB
:1039700020006065032038BD2DE9F8431E469146BE
:1039800088460446089DFDF7E5F9401B351AFDF70A
:10399000E1F9074625480068C0F3CB30684338E0BA
:1039A000701C37D0FDF7D6F9C01BA84203D215B161
:1039B000009860B32CE02068416821F0E00141608C
:1039C0006068B0F5827F0BD1A068B0F5004F02D0DF
:1039D000B0F5806F04D12068016821F040010160DA
:1039E000A06AB0F5005F09D12068016821F4005198
:1039F00001602068016841F400510160012084F8F1
:103A00005100002084F850000320BDE8F883002511
:103A1000401E00902068816838EA010004D000212F
:103A20004945BDD10020F0E70121F9E72000002041
:103A300010B50A4C21680A6822F040020A60084961
:103A40002160E0612046FDF7B8FF08B1FCF734FCC7
:103A50002068016841F04001016010BD4805002068
:103A6000003001407047FDF77BB970B594B0282154
:103A70006846FCF780FB14210AA8FCF77CFB0025B4
:103A80000F950920012410950090119512954FF47F
:103A9000803004940694CDE901050226CDE9076043
:103AA0004FF4E01009906846FDF7CAFB08B172B602
:103AB000FEE70F20CDE90A064FF48060CDE90C50F7
:103AC00002210AA80E95FDF7CFFA08B172B6FEE7FB
:103AD0004FF40070CDE90F400FA8FDF74FFA002812
:103AE00001D072B6FEE714B070BD70470148FEF712
:103AF00015BA0000A0050020F0B50268164B174C5F
:103B0000174D4FF08047984205D0B84203D0A042ED
:103B100001D0A84203D122F070064A68324398428D
:103B200005D0B84203D0A04201D0A84203D122F46C
:103B30004074CA6822434C6922F08002224302602A
:103B40008A68C2620A688262984201D10969016387
:103B500001214161F0BD0000002C01400004004043
:103B60000008004010B5846842EA032224F47F4430
:103B70000A432243826010BD826822F070020A4329
:103B800042F007018160704710B5036A046A24F0AF
:103B900001040462846924F0F00444EA021423F06E
:103BA0000A020A438461026210BD10B5036A23F061
:103BB000100303628369046A23F4704343EA023208
:103BC00024F0A00343EA01118261016210BD10B527
:103BD000406A0021C185C184FEF794FA10BD70B51A
:103BE000446A2068406994F83D10C0F3C010002575
:103BF000212904D118B1E584204600F067F8206837
:103C0000406994F83E10C0F38010222904D118B105
:103C1000E585204600F042F8206C40F0100020645A
:103C20002046FEF76FFA70BD10B50146406A09687C
:103C3000096889061BD40021C1850168CA6822F47D
:103C40008072CA6001684A6922F001024A61016813
:103C50004A6922F040024A61202180F83E10016B3F
:103C6000012904D10168CA6822F01002CA60016B00
:103C7000012902D0FEF7DDFC10BD818DFEF715FA9B
:103C800010BD10B5406A016B012902D0FEF7D2FCCD
:103C900010BD818D4908FEF708FA10BD0168CA6899
:103CA00022F49072CA6001684A6922F001024A61F6
:103CB000016B012904D10168CA6822F01002CA60B0
:103CC000202180F83E100021016370470168CA6816
:103CD00022F0C002CA60202180F83D10704708B56C
:103CE00090F83E10222901D0022008BD82684FF4CE
:103CF00080539A4201D1016921B1816A9A421BD055
:103D00004AB10AE00268816A5268C2F308020A8076
:103D1000816A891C08E0026972B10268526802F087
:103D20007F020A70816A491C8162C18D491E0904A3
:103D3000090CC18503D019E002685268F1E70168F7
:103D4000CA6822F02002CA600168CA6822F4807240
:103D5000CA6001684A6922F001024A61202180F8A4
:103D60003E10016B012903D0FEF763FC002008BD63
:103D7000002101630168CA6822F01002CA6001686C
:103D80000A68D20602D50A6849680091818DFEF75B
:103D90008CF9EBE770B5044600680169E26821F42C
:103DA0004051114301612169A068084361690843DA
:103DB0002168CA6841F20C639A430243CA602068D2
:103DC0004169A26921F44071114341611E49206893
:103DD000884202D1FDF7EEF901E0FDF7DBF900EBD7
:103DE000C00101EB0012606864218000B2FBF0F3B7
:103DF000B3FBF1F36FF018067343B2FBF0F5B2FBBF
:103E0000F0F605EB8305322303EB0515B5FBF1F561
:103E1000B6FBF1F605F0F00505EB0615B2FBF0F682
:103E2000B2FBF0F0B0FBF1F06FF01802504306EB7C
:103E3000800003EB0010B0FBF1F0216800F00F00F0
:103E40002844886070BD00000038014038B58162A8
:103E500082850025134604460564222084F83E002E
:103E6000A26B13489062A26B1248D062A26B1248F8
:103E70001063A06B0A4645632168A06B091DFCF71F
:103E80006BFD206801684168009184F83C50C1686E
:103E900041F48071C1602068416941F001014161D4
:103EA0002068416941F040014161002038BD0000B7
:103EB000293C0008833C0008DF3B00082DE9F04165
:103EC000984617460E460446069D1DE0681C1BD00A
:103ED0002DB1FCF73FFFA0EB0800A84214D92068E1
:103EE000C16821F4D071C1602068416921F00101ED
:103EF0004161202084F83D0084F83E00002084F8D1
:103F00003C000320BDE8F0812068006836EA00002C
:103F100004D00020B842D9D00020F3E70120F9E70F
:103F200010B500F0C1F8BDE810400148FEF7ECB84C
:103F3000E805002010B5FEF785FDBDE810400148FA
:103F4000FEF7E2B82C06002010B5FCF783FABDE8B6
:103F500010400148FEF7D8B87006002010B5FFF7F2
:103F600009FC002809D03820FFF762FDFF2001F08E
:103F700075FF0820FFF75CFD012010BD10B5144649
:103F800041B101291DD0022914D0032915D00424E0
:103F9000204610BD0120FFF7ABFA1420FCF714FDFA
:103FA000FF2001F05BFFFF28F7D100242046FFF738
:103FB0009FFAEDE74FF4007000E008201080002425
:103FC000E6E7FFF7B8FA2060F9E770B514460D464A
:103FD0000BB148B901E0042070BDDAB22146284691
:103FE000FFF7E0FA0028F7D0012070BD002804D0C8
:103FF000012803D0022801D001207047002070471B
:1040000070B514460D460BB148B901E0042070BDEF
:10401000DAB221462846FFF769FB0028F7D00120D5
:1040200070BDFEE770B5FCF75BFAFEF705FC0F48C4
:104030000025007840B90E4C2078411C2170C8281A
:1040400002D9FFF789F925700A4890F8F71301297A
:104050000BD180F8F753FEF787FD20B106A0BDE82D
:10406000704000F06DB80AA0F9E770BD6200002052
:1040700024000020080100204C6F72612049442078
:10408000BBF1C8A1CAA7B0DCA3A1200D0A000000A3
:104090004C6F726120494420BBF1C8A1B3C9B9A6D5
:1040A000A3A1200D0A000000F8B5174CE06838B352
:1040B00001680A68D243D20620D40A684968009190
:1040C000FDF7F4FFE068806B006840680F4DC0F5B5
:1040D000FA7082B20E48A5F8EA234FF4FA7605F595
:1040E000FB7133460F460068FEF7A6FA012085F8FB
:1040F000EE0332463946E068FEF786FA0020F8BD46
:104100004FF0FF30F8BD0000240000204C080020D4
:1041100004010020084882B0C06801680A684A6843
:104120000092CA6842F01002CA604FF4FA72034962
:1041300002B0FEF769BA000024000020420A002005
:104140000FB4054B10B503A9044A029800F03CF8DF
:1041500010BC5DF814FB0000B55800081C000020DE
:104160000FB4084B10B504A902AA039800F02CF86C
:10417000044602A9002000F0C8F9204610BC5DF8F2
:1041800014FB00000B4500080907090E002804DB9A
:1041900000F1E02080F80014704700F00F0000F1FB
:1041A000E02080F8141D704702E008C8121F08C103
:1041B000002AFAD170477047002001E001C1121FA8
:1041C000002AFBD1704700002DE9FF4F8BB08846D5
:1041D0000546002606E025280BD0DDE90D129047A4
:1041E0006D1C761C28780028F5D10FB03046BDE84C
:1041F000F08F0024A146A2460122AE4900E004430C
:1042000015F8013F203B02FA03F00842F7D1287865
:104210002A2810D06FF02F022878A0F13001092948
:1042200015D809EB890102EB410144F0020400EBCF
:1042300001096D1CF0E758F8041B5FEA010903D57A
:1042400044F40054C9F1000944F002046D1C2878BC
:104250002E2817D115F8010F44F004042A280ED097
:104260006FF02F022878A0F1300109290AD80AEB53
:104270008A0102EB410100EB010A6D1CF2E758F8DC
:1042800004AB6D1C28786C280FD006DC4C2817D0A6
:1042900068280DD06A2814D104E0742810D07A2838
:1042A0000FD10DE044F400140AE044F4801401E05E
:1042B00044F440146978814202D104F580146D1CE5
:1042C0006D1C2878692865D006DC00288DD063280D
:1042D00027D0642806D15DE06E2808D073282AD044
:1042E000752877D0DDE90D129047761CE0E0C4F325
:1042F0000250022809D003280DD0D8F80010042855
:104300000DD00E6008F10408D2E0D8F80010F217C2
:10431000C1E90062F6E7D8F800100E80F2E70E70EF
:10432000F0E718F8041B8DF8001000208DF801004C
:10433000EB46012003E058F804BB4FF0FF30610763
:104340004FF0000701D40AE07F1C57450DDA874281
:10435000FADB1BF807100029F6D106E07F1C874224
:10436000FCDB1BF807100029F8D1DDE90D23A9EBD0
:1043700007008146214600F0B1F83044C61904E038
:10438000DDE90D121BF8010B90477F1EF8D2214684
:10439000484688E058F8040BC4F302514FF00A0B6A
:1043A000032900D100B2042900D140B2002802DA6A
:1043B00040422D2102E0210505D52B218DF8241046
:1043C000012104E006E0E10710D02021F6E708AF64
:1043D000089113E058F8040BC4F302514FF00A0B94
:1043E000032900D180B2042900D1C0B20021EEE738
:1043F0005946FBF7D2FE303107F8011D0028F7D1EE
:10440000ADEB070000F1200B600702D524F48034E7
:1044100001E04FF0010ADA4502DDAAEB0B0000E0F3
:104420000020824600EB0B0108980144A9EB010033
:104430000A90E00306D4DDE90D2321460A9800F036
:104440004DF806444FF0000908E009A911F80900E9
:10445000DDE90D12904709F10109761C089989459B
:10446000F3DBE0030CD5DDE90D2321460A9800F0CB
:1044700035F8064404E0DDE90D1230209047761C43
:10448000BAF10001AAF1010AF5DC05E0DDE90D123F
:1044900017F8010B9047761CBBF10001ABF1010B43
:1044A000F4DC0A982146DDE90D2300F005F8064406
:1044B0006D1C97E6092801002DE9F041044600250E
:1044C0001E461746880404D405E039462020B0472C
:1044D0006D1C641EF9D52846BDE8F0812DE9F04138
:1044E000044600251E469046C80301D5302700E04B
:1044F0002027880404D505E041463846B0476D1CA6
:10450000641EF9D52846BDE8F0810A68531C0B608B
:104510001070704710B50446002084F80402401E55
:10452000C4F82C02204601F0CBFB08B1032010BDDB
:10453000B4F8FE01A0F52A41553901D0022010BD82
:1045400094F83600B4F8371040EA01210848B0EB7F
:10455000012F08D094F85210B4F8532041EA0221F8
:10456000B0EB012F01D1002010BD012010BD0000D3
:104570000046415400E0401C02780AB18A42FAD158
:10458000D0B27047F0B50022184B144602EB420639
:1045900053F8265085B1D0F80072BD420DD103EB1F
:1045A0008605D0F808626F68B74206D12D89B0F849
:1045B0000662B54204D000E00124521C022AE5D371
:1045C000022A01D079B904E05CB9022909D012208D
:1045D000F0BD02EB420003EB80004089B0F5807F24
:1045E00001D00020F0BD1020F0BD0000C814002054
:1045F00030B50021064A0C4601EB410352F8235026
:10460000854201D142F82340491C0229F4D330BD30
:10461000C8140020D0F82422D0F80002490A90F8EB
:104620000202B1FBF0F0121D02CA19B1884203D395
:10463000401AF8E700207047116808447047D0F826
:104640001422891E921E8A4201D800207047D0F899
:10465000282290F8020201FB002070472DE9F0416A
:104660000F00054606D001F099F902280BD201206F
:10467000BDE8F081D5F80C621EB1D5F81402B04245
:1046800008D8012606E0411CF2D0D5F81412814268
:10469000EED83E463446D5F81402641CA04202D837
:1046A0000224022E0AD32146284601F077F938B1B8
:1046B000411CDDD00128DBD0B442ECD10020D7E78B
:1046C0006FF070422146284601F015FB30B957B112
:1046D00022463946284601F00EFB20B1012812D0AF
:1046E00001242046C4E7C5F80C42D5F81002411C4D
:1046F000F7D0401EC5F8100295F8050240F0010001
:1047000085F80502EDE74FF0FF34EAE72DE9F84FB1
:10471000884682460D6800E06D1C28782F28FBD063
:104720005C28F9D00024DAF820722646A85D761CB1
:10473000202817D32F2815D05C2813D0FF2C32D275
:10474000012100F023FF5FEA00092CD0B9F1800FAE
:1047500004D2014668A0FFF70DFF20BB27F8149094
:10476000641CE3E7AA19C8F80020202801D2042518
:1047700017E0002515E000BF07EB440030F8020CFD
:1047800020280DD02E280BD06CB1002027F8140063
:104790000B222021DAF8180201F08BFA002606E03D
:1047A000641E002CE8D10620BDE8F88F761C37F88F
:1047B00016002028FAD02E28F8D01EB145F00305A7
:1047C00000E0641E2CB107EB440030F8020C2E28E8
:1047D000F7D1002081464FF0080B009037F8160003
:1047E00006F101065FEA000824D0B8F1200F04D0DA
:1047F000B8F12E0F04D1A64202D045F00305EDE733
:104800000098584501D2A6421AD1BBF10B0F0FD028
:10481000A64201D045F003050CD84FF008000090E7
:104820004FEA896026464FF00B0B4FEA1069D5E737
:1048300045F00305DAF818020178E52938D039E0A7
:104840004046B8F1800F10D3002100F09FFE5FEAD0
:10485000000805D02B4901EB080010F8800C8046B9
:1048600045F00205B8F1000F04D0014626A0FFF77D
:1048700081FE20B14FF05F0845F003050FE0A8F17D
:104880004100192802D849F0020908E0A8F16100A6
:10489000192804D8413049F001091FFA80F8DAF8E4
:1048A0001822009902F801800098401C009095E7BA
:1048B00005210170BBF1080F03D14FEA89604FEA6F
:1048C0001069C9F38100032803D06FEA0901890741
:1048D00001D145F00205A90709D409F00301012916
:1048E00001D145F01005012801D145F00805DAF89D
:1048F0001802C572002057E7222A3A3C3E3F7C7FCF
:1049000000000000006000082B2C3B3D5B5D0000B8
:104910002DE9FC5F0546002100F014FA00286ED155
:10492000FF204FF6FF7A00908146A5F824A200BF31
:10493000D5F81012D5F8000201F0C2F906000ED128
:10494000D5F81442207848B1E17AE52801F03F011A
:1049500070D00A0704D50F296CD107E0042674E053
:104960000F2903D0B9F1000F4DD052E0D5F8201235
:1049700091B3420608D5627B009220F04000B5F862
:1049800006228146A5F82422484534D1627B00984E
:10499000824230D101912078A04620F04000401E94
:1049A00000EB80010027DFF8A8B001EBC00601246E
:1049B0001BF8071001EB0800008874B100F002FE3C
:1049C0000446FF2E17D2019830F81600761C00F02E
:1049D000F9FDA0420FD102E030E050450BD17F1C21
:1049E0000D2FE5D398F80000400609D544B1019891
:1049F00030F8160020B1FF2000F0FF091EE025E08E
:104A0000A9F10100F8E7204601F040FA0099884238
:104A10001BD0D5F81802C17AC9070BD10A2101E0D1
:104A2000491E06D314F8012B10F8013BD21AF7D017
:104A300000E052B14FF0FF09A5F824A2002128465A
:104A400000F008F806003FF473AF3046BDE8FC9F65
:104A5000806000082DE9F041B0F806620446761C3B
:104A600030040F46000C37D0D4F8100298B3310749
:104A700073D1401CC4F81002D4F80C12D4F8000210
:104A800031B190F80222521E12EA161F05D064E0DE
:104A9000B0F80802B0421FD95FE000F07FFF054682
:104AA00001281ED9681C3AD0D4F80002D0F814129C
:104AB000A94249D87FB1D4F80C12FFF7CFFD050009
:104AC0000DD0012D0DD0681C29D0D4F8000201F0C2
:104AD00045FA20BB07E0FFE70420BDE8F08107208E
:104AE000FBE70220F9E74FF400720021D4F800023E
:104AF00001F0DFF82946D4F80002FFF7A0FDD4F852
:104B0000001200274FF00108C1F82C0211E000BF8D
:104B100080F80482D4F8000201F020FA08B10120E4
:104B2000DBE7D4F80002D0F82C12491C7F1CC0F837
:104B30002C12D4F8000290F80212B942E8D8D0F84A
:104B40002C12C91BC0F82C12C4F80C522946D4F8F8
:104B50000002FFF774FDC4F81002A4F80662D4F84E
:104B6000000206F00F0100EB4110C4F8140200200F
:104B7000B3E700002DE9FF5FD0F818720446D0F8C3
:104B800020620C223946684601F08AF89DF80B0035
:104B9000C0071AD00020F8720125C4F820022B4665
:104BA00032466946384600F0B9FE2046FFF7B0FEAF
:104BB00010B96D1C642DF2D3642D0CD004280BD1D8
:104BC0009DF80B00F872C4F820629DF80B00800776
:104BD0000FD5002004E0072004B0BDE8F09F401C82
:104BE00036F810100029FAD10D211930B0FBF1F67A
:104BF00000E001260021204600F0A4F8A0B900271B
:104C0000D4F81012D4F8000201F05AF860B9D4F8C0
:104C100014020078E5280AD048B100270121204677
:104C2000FFF718FF0028EBD0042812D012E07F1CF9
:104C30003046B742F2D1461E5FEA060A5FD0B4F8AA
:104C400006122046A1EB0A0100F07CF8050003D013
:104C500074E00720054671E0D4F8180201F016F957
:104C6000CDF80C00D4F81012D4F8000201F028F8A6
:104C7000050063D1D4F81412D4F820920398487335
:104C80000F20C8720020087388760AF0FF0BC876E0
:104C9000ABF1010000EB800202EBC00500234FF6F0
:104CA000FF7E274E4A1C01E0604503D039F815000D
:104CB000F4466D1CF75CC85516F80380070A08F81F
:104CC000027000B960465B1C0D2BEDD3704502D01D
:104CD00039F8150008B94BF0400B81F800B0D4F852
:104CE0000012012081F8040200212046FFF7B2FEE5
:104CF000050023D1AAF101005FEA000AB2D1D4F87D
:104D00001012D4F8000200F0DBFF050016D1D4F831
:104D100014022022002104F5007400F0CAFFD4E937
:104D200005010B2200F0BCFFA0696169C07A00F0A8
:104D3000180008732168012081F8040228464BE717
:104D40008060000870B5A0F80612D0F808320D4651
:104D50000446012B40D0D4F80002D0F81412994236
:104D60003AD933B990F80012032906D1D0F8243289
:104D70001BB190F80202060114E0B0F80812A94233
:104D80002AD9D0F8240214E000F008FE0346401CA3
:104D900020D0022B20D3D4F80002D0F8140298427D
:104DA0001AD9AD1BD4F80002B5421946ECD2FFF770
:104DB00046FCC4F80C3278B100EB1510C4F81002B0
:104DC000D4F8000205F00F0100EB4110C4F8140202
:104DD000002070BD012070BD022070BD084910B5D3
:104DE0000B5C002253B901220A540A1801EB80001F
:104DF000127A40680168104688470246104610BD86
:104E0000E014002030B4054C231804EB80001B7A1A
:104E1000406804691846A44630BC6047E01400208E
:104E200030B4054D2C1805EB8000247A4068856865
:104E30002046AC4630BC6047E0140020044A1118FC
:104E400002EB8000097A406842680846104700007B
:104E5000E014002030B4054D2C1805EB8000247AB6
:104E60004068C5682046AC4630BC6047E01400206E
:104E70002DE9FC5F0D46044601F0A0F85FEA000949
:104E800073D194F8070200286FD1D4F824020127C7
:104E90004FF0020A002869D0691C33D0D4F80C0204
:104EA000A84200D20546C4F80852002D5CD0204626
:104EB000691EFFF7AFFB0146C4F81402D4F80002E4
:104EC000FFF7BDFB00287CD0D4F800126D1E91F8CE
:104ED0000222521E02EA55221518B4F80802C00533
:104EE000E4D0D4F81822AA42E0D094F80602400692
:104EF00046D591F8010201232146FFF7ABFF0028B8
:104F000074D137E002C80091D4F81012834602250C
:104F100009B30026AD1C01918846761CD4F8000226
:104F200000F03CFD014601284BD9481C5ED008F139
:104F300001008142F0D00098854206D8CBF800608D
:104F40000BF10400019A04C08346D4F80002D0F8A3
:104F500014028842DDD8D4F8240205600098854206
:104F600005D80021CBF80010C2E09DE016E04FF01C
:104F70001109BDE094F8060220F0400084F8060212
:104F8000D4F8000201232A4690F801022146FFF7D7
:104F900047FF00282AD1C4F81852A9E0D4F80C021F
:104FA000A84204D294F80612890700D405464FF0AF
:104FB0000008D4F80802C4F808824DB3D4F80022DF
:104FC00000E06EE092F802124E0280B1691E401EAF
:104FD000B1FBF6F1B0FBF6F3994208D3711E88439A
:104FE000C4F808022D1AD4F8141210E06EE0D4F8B8
:104FF000101251B900211046FFF730FB014601287D
:105000004FD0481C62D0C4F81012C4F8141211BB5F
:1050100031E000BF94F806028007D4F8000205D5FD
:10502000FFF71CFB010004D1354616E000F0B6FC8A
:105030000146481C4AD0012933D9D4F80002D0F8DF
:10504000140288422DD9C4F81412D4F80802AD1BFA
:105050003044C4F80802B542DCD8D4F80802284429
:10506000C4F80802E80506D0D4F80002FFF7E7FA12
:10507000B8B100EB5528B4F80802C0052CD0D4F81C
:105080001822424528D094F80602400614D5D4F8D8
:1050900000020123214690F80102FFF7DBFEA8B9C8
:1050A00004E084F807A20220BDE8FC9F94F8060201
:1050B00020F0400084F80602D4F8000201234246A2
:1050C00090F801022146FFF7ABFE18B184F8077291
:1050D0000120E9E7C4F81882D4E98201884207D99F
:1050E000C4F80C0294F8060240F0200084F806028E
:1050F0004846D9E72DE9F74181B0904602980090E3
:10510000684600F0AEFC040003D50B2004B0BDE8F7
:10511000F0810E4E002756F8245025B12846FFF79F
:1051200067FA85F800720198002801D080F80072B3
:1051300046F8240002D0B8F1010F01D00020E5E7C5
:10514000002202A901A800F04FFADFE7280500209D
:105150002DE9F747ADF2344D06000FD04FF00008AF
:1051600002F01F0727F001020DF5876180A8C6F83D
:10517000008200F039FA040005D0B8E009200DF5EE
:10518000886DBDE8F0870DF5856086908AA88890C7
:105190006846DDF8381400F053FB859D04000BD100
:1051A0001DB1780803D0012102E0062404E00021AB
:1051B0006846FFF7E7F9044617F01C0F5FD04FF081
:1051C000010AD4B1042C13D100204B4902E0401C49
:1051D000022805D200EB400251F82220002AF6D125
:1051E000022804D06846FFF7C5FC044600E01224FC
:1051F000859D47F0080754B179E0E87A10F0110F67
:1052000001D0072473E0780701D508246FE0380740
:1052100043D500F024FCA873010AE973010C29743A
:10522000000E687485F80B8085F81C8085F81D8059
:1052300085F81E8085F81F802946809800F080FC44
:1052400081460021284600F019FE8099B9F1000F2F
:1052500081F804A21FD080984946D0F82CA200F013
:10526000C6FD040043D18099A9F10100C1F80C02E8
:105270005146809800F024FD04000AD037E0B4BB0A
:10528000E87AC10601D5042431E0B90701D5C00789
:10529000B7D1380701D547F020078098D0F82C0205
:1052A000C6E98705780801D0012100E000216846A1
:1052B00000F0F6FBC6F82802D8B186F8067286F828
:1052C00007824746294606F50076809800F038FCAC
:1052D0003061287FD5F81D1040EA0120C6E9027030
:1052E000B761776280983060B0F80602B0802046DF
:1052F00045E70224FBE70000C814002070B504460F
:1053000000F05CFE002811D194F806128A060DD533
:10531000480612D5D4F800020123214690F8010274
:10532000D4F81822FFF796FD08B1012070BD94F85B
:10533000060220F0400084F80602D4F81C12D4F8CB
:10534000000200F0BDFC0028F0D1D4F82052E87A29
:1053500040F02000E87294F80C022877B4F80C02B0
:10536000000A6877D4F80C02000CA877D4F80C0275
:10537000000EE877D4F81012284604F5007400F007
:105380007DFD00F06CFBA875010AE975010C29761A
:10539000000E68760020A874E874A07920F0200040
:1053A000A0712168012081F804022068BDE87040E6
:1053B00000F079BD2DE9F84F884600219946154641
:1053C0000446196000F0FAFD002808D194F807029D
:1053D000002804D194F80602800702D40720BDE813
:1053E000F88FD4F80802012741194FF0020A8142D0
:1053F0007BD3B9E0D4F80812C80577D1D4F80022DD
:1054000092F80202401E00EA512010F0FF061ED161
:1054100031B1D4F8240240B12046FFF7FBF809E08F
:10542000D4F8100240B9002101E0D4F8141210465B
:10543000FFF714F9002858D001283DD0411C6CD04A
:10544000C4F81402D4F8101209B9C4F8100294F880
:105450000602400610D5D4F800020123214690F838
:105460000102D4F81822FFF7F5FCE8BB94F8060215
:1054700020F0400084F80602D4F81412D4F8000298
:10548000FFF7DDF8C0B130440090680A5FEA000B16
:1054900030D0D4F8000206EB0B0290F802128A42D8
:1054A00001D9A1EB060B90F801025B464146009A38
:1054B000FFF7D0FCC0B903E084F807A202208EE712
:1054C000D4F818120098081A58450CD208EB40215D
:1054D0004FF40072204600F0E3FB94F8060220F03F
:1054E000400084F8060202E017E040E01CE04FEACA
:1054F0004B262DE0D4F818120098814211D0D4E93F
:10550000820188420DD2D4F800020123214690F88E
:105510000102009AFFF784FC18B184F80772012099
:105520005DE70098C4F81802B4F80802C0F3080058
:10553000C0F50076AE4200D92E46204432464146A0
:1055400000F0AEFB94F8060240F0400084F806023A
:10555000D4F80802B0443044C4F80802D9F8000076
:105560008119AD1BC9F80010002D7FF443AFD4E9B9
:105570008201884201D9C4F80C0294F8060240F076
:10558000200084F80602002029E70000802804D3C8
:105590000B4A51B1FF2801D90020704702EB4000AF
:1055A000A0F58050B0F8000F704732F811308342F8
:1055B00003D0491C89B28029F7D38031C8B2704723
:1055C000BA6000080021064B00E0491C33F81120A6
:1055D000002A04D08242F8D1024830F81100704706
:1055E000BA6100089A6300082DE9FF474FF00009EF
:1055F0000746C0F800901646084600F032FA05004B
:1056000003D50B2004B0BDE8F0878A4850F8254048
:10561000A4B13C6094F8000228B194F80102FFF7AD
:105620000DFCC1070CD084F80092E8B284F80102A6
:10563000FFF7D4FBC10708D00320E3E70C20E1E724
:105640000EB1400704D40020DCE71EB1400701D5AD
:105650000A20D7E7002529462046FEF75BFF0128F0
:1056600023D100204FEA0D0704EB001191F8C2216D
:1056700001F5DF712AB10A7AD1F8091042EA012155
:1056800000E0002147F82010401C0428ECD300263D
:1056900057F826502DB129462046FEF73BFF08B9A2
:1056A00009E00220761C042EF2D3032801D0E0BBCF
:1056B00001E00120A6E7B4F80B00B0F5007F60D14F
:1056C000E28A2AB994F82400D4F8251040EA01228D
:1056D000C4F81822217C84F80312012901D0022980
:1056E0004FD1607B514384F80202F0B1431E18424F
:1056F00047D1B4F81130A4F808321E0741D1B4F8EC
:1057000013602EB994F82060D4F8217046EA072679
:10571000B4F80EC0BCF1000F33D00CEB010707EB5F
:105720001317BE422DD3F61B00E02AE0B6FBF0F0C3
:1057300038B3012640F6F678404500D302264FF6EE
:10574000F678404500D30326801C2F44C4F8287205
:10575000AC44C4F81402C4E9875C032E13D083B1AF
:105760006144C4F82412022E19D000F0010100EBAC
:10577000400001EB500000BF00F2FF10B2EB502FD1
:105780000FD20D203EE7002BFBD194F82C10D4F85B
:105790002D30800041EA0321C4F82412ECE74000D8
:1057A000EAE74FF0FF30C4F81002C4F80C02802082
:1057B00084F80502032E30D1208E01282DD12046F9
:1057C000691C00F07DFA40BB84F80592B4F8FE0134
:1057D000A0F52A41553920D12078D4F8011040EAAB
:1057E00001201549884218D194F8E401D4F8E51154
:1057F00040EA0120114988420FD194F8E801D4F819
:10580000E91140EA0120C4F8100294F8EC01D4F840
:10581000ED1140EA0120C4F80C02064984F8006248
:10582000091F0888401C0880A4F806022046FEF7DD
:10583000DFFE08E728050020525261417272416183
:1058400073B50446019801782F2901D05C2901D154
:10585000401C01900025C4F80852019800782028C7
:1058600006D200212046FFF76DFAC4F814527CBD21
:1058700001A92046FEF74AFF0028F8D12046FFF78D
:1058800047F8D4F81812C97A28B10428EFD149078B
:10589000EDD405207CBD4907FCD4D4F81412C87A95
:1058A000C006F6D5D4F8000200F04AF9C4F80802A0
:1058B000DEE7000004490A685206FCD5024AC1B27C
:1058C000121D1160704700000038014010B500281B
:1058D00021D0114B0022001F196803E0814203D838
:1058E0000A4649680029F9D152B11368841A9C42CA
:1058F00004D1006818441060104602E0506000E0D7
:10590000186039B102680B1A934203D10B681A442C
:1059100002604968416010BD2C0500207CB5164628
:105920001C4605460B2200F0BBF9052C11D91A4A7A
:105930000CE00021B61C2346044663F35F044008D4
:10594000E30300D55440491C1029F4D330880028C3
:10595000EFD107214FEA0D0204F00F003030392853
:1059600000D9C01D5054491E2409F5D17E20505441
:10597000002000E0401C884202D22B5C202BF9D191
:10598000082902D2535C491C00E020232B54401C00
:105990000828F5D37CBD0000211001002DE9F0415D
:1059A0000D46044602290DD3D4F81402A84209D9A1
:1059B00094F800024FF0FF36012807D002282AD0C1
:1059C000032836D001263046BDE8F081D4F8200205
:1059D00005EB550700EB5721204600F071F9002830
:1059E000F1D1C7F308007F1C14F80080D4F820021E
:1059F00000EB5721204600F063F90028E3D1C7F3FC
:105A00000800215C48EA0120E90701D00609DAE72D
:105A1000C0F30B06D7E7D4F8200200EB152120468F
:105A200000F04EF90028CED1E8B204EB4000068821
:105A3000C9E7D4F8200200EBD511204600F040F968
:105A40000028C0D140F2FF1000EA85002044017810
:105A5000D0F8010041EA002020F07046B3E70020B2
:105A6000704710B504464FF0FF302268002A13D06B
:105A7000114600E0491C0B78202B0ED33A2BF9D1AC
:105A800012F8013B303B0A2B06D28A4204D1002B8C
:105A900002D1491C1846216010BD002010BD000035
:105AA000F0B50346254AD3F80042002000EB40053C
:105AB00052F82560A6420BD102EB8505D3F80862A7
:105AC0006F68B74204D12D89B3F80662B54202D09F
:105AD000401C0228EAD302281AD1002002E0401C10
