:020000040800F2
:10000000D0370020010100089F1D0008051B0008D3
:100010009D1D0008130200083F2D0008000000008D
:100020000000000000000000000000009122000815
:100030009F02000800000000A11D00089322000894
:100040001B0100081B0100081B0100081B01000820
:100050001B0100081B0100081B0100081B01000810
:100060001B0100081B0100081B0100081B01000800
:100070002D0200083902000845020008510200085C
:100080005D020008690200081B0100081B0100084E
:100090001B0100081B0100081B0100081B010008D0
:1000A0001B0100081B0100081B0100081B010008C0
:1000B0001B010008FD2200081B0100081B010008AD
:1000C0001B0100081B0100081B0100081B010008A0
:1000D0001B0100084529000871290008B92B0008F8
:1000E0001B0100081B0100081B010008DFF80CD0F1
:1000F00000F052F80048004799450008D03700202A
:100100000648804706480047FEE7FEE7FEE7FEE7B1
:10011000FEE7FEE7FEE7FEE7FEE7FEE7FB2200085C
:10012000ED00000840EA01039B0703D009E008C97D
:10013000121F08C0042AFAD203E011F8013B00F8AC
:10014000013B521EF9D27047D2B201E000F8012BF8
:10015000491EFBD270470022F6E710B513460A4647
:1001600004461946FFF7F0FF204610BD30B50B4698
:10017000014600202022012409E021FA02F59D42D7
:1001800005D303FA02F5491B04FA02F52844151EAB
:10019000A2F10102F1DC30BD064C074D06E0E0683B
:1001A00040F0010394E8070098471034AC42F6D3BE
:1001B000FFF7A0FF2C5200084C52000870B58C18B5
:1001C00010F8015B15F0070301D110F8013B2A116B
:1001D00006D110F8012B03E010F8016B01F8016B58
:1001E0005B1EF9D12B0705D40023521E0DD401F854
:1001F000013BFAE710F8013BCB1A921C03E013F81D
:10020000015B01F8015B521EF9D5A142D8D3002051
:1002100070BDFEE710B503460078012202E09C5C49
:100220006040521C8A42FADB10BD0000014800F019
:10023000CDB80000680B0020014800F0C7B80000EE
:10024000240B0020014800F0C1B80000580A00202B
:10025000014800F0BBB80000140A0020014800F07B
:10026000B5B800009C0A0020014800F0AFB80000BB
:10027000E00A002030B590F840500124AC40C56B36
:100280006C60046863604368102B036803D0996056
:100290000068C26030BD9A600068C16030BD7047C0
:1002A00072B6FEE7002200F001B8000030B50E4B38
:1002B000054601205C7A012C15D8587A00241C547C
:1002C000587A03EB800045605D7A03F108002A54F8
:1002D000587A421C5A72303008703A2048702F20E9
:1002E0008870CC70002030BDC40D002010B590F88F
:1002F00021100022022905D00421816380F82020EA
:10030000012010BD01680B6823F00E030B6001682B
:100310000B6823F001030B6090F84030C46B01219F
:1003200001FA03F3636080F8211080F82020104662
:1003300010BD000010B590F821100024022903D050
:100340000421816301243DE001680A6822F00E0265
:100350000A6001680A6822F001020A601A4A01680C
:10036000914201D1012121E0174A1432914201D179
:1003700010211BE0144A2832914201D1891515E061
:10038000114A3C32914201D189140FE00E4A503299
:10039000914202D14FF4803108E00B4A643291421D
:1003A00002D14FF4801101E04FF08071064A083A03
:1003B0005160012180F82110002180F82010416B4C
:1003C00001B18847204610BD080002402DE9F05FCA
:1003D000C16B0C6801680B68D0F840C0042202FAB7
:1003E0000CF2494DDFF824A1494E4A4FDFF828B1FD
:1003F000DFF828E122422CD05A072AD50A68920653
:1004000003D40A6822F004020A600168A94201D1FB
:10041000042219E0514501D1402215E0B14202D138
:100420004FF4806210E0B94202D14FF480420BE0F9
:10043000594502D14FF4802206E0714502D14FF4B4
:10044000800201E04FF080622F4908394A60C16A9A
:100450003BE04FF0020808FA0CF818EA040F4FF0DE
:1004600000094FF0010235D05FEA837832D50B687E
:100470009B0605D40B6823F00A030B6080F821204B
:100480000168A94201D1022219E0514501D120227F
:1004900015E0B14202D14FF4007210E0B94202D12E
:1004A0004FF400520BE0594502D14FF4003206E000
:1004B000714502D14FF4001201E04FF00072124971
:1004C00008394A6080F82090816A00291AD0BDE876
:1004D000F05F0847082505FA0CF5254212D01B07E6
:1004E00010D50B6823F00E030B6090F84010C36B1F
:1004F00002FA01F15960826380F8212080F820908F
:10050000016BE2E7BDE8F09F080002401C000240DA
:100510003000024044000240580002406C0002409B
:1005200030B528B308C8134914221944B1FBF2F1BD
:100530008900C16310498163022141771A6843F63B
:10054000F0718A43D0E900142143D0E902452C43DD
:1005500021430469214344692143846921431143B0
:10056000196000214163012242770177084630BDBE
:10057000012030BDF8FFFDBF0000024070B5044609
:1005800090F82000002501280CD0012084F82000DC
:1005900094F821600020012E06D084F82000022566
:1005A000284670BD022070BD022684F82160A06339
:1005B0002068066826F0010606602046FFF75AFE0E
:1005C000E06A00282068016802D041F00E0106E0D0
:1005D00021F0040101602068016841F00A01016016
:1005E0002068016841F001010160D9E770B5044657
:1005F00000F00CF90546601C02D004480078044461
:1006000000F004F9401BA042FAD370BD2C0000207A
:100610002DE9F84FDFF8B891002409F1040A0AF136
:10062000040B23460F270BF1040EC9E00125A5405A
:100630002A40AA427DD1674ED1F804C0ACEB06082F
:10064000B44532D014DCBCF1030F3AD009DCBCF164
:10065000000F2AD0BCF1010F1CD0BCF1020F31D128
:100660001DE0BCF1110F17D0BCF1120F2AD119E017
:10067000B8F5881F19D006DCB8F5803F15D0B8F55D
:10068000801F1FD111E0B8F5001F0ED0B8F5041F70
:1006900018D10AE0CB6815E0CB681B1D12E0CB68CF
:1006A00008330FE0CB680C330CE08B682BB1012BC7
:1006B0004FF0080303D0456104E0042302E0056124
:1006C00000E00023FF2A01D8064601E000F10406FD
:1006D0004FEA840501D9A5F12005D6F8008007FA74
:1006E00005FC28EA0C0803FA05F548EA0508C6F8EF
:1006F00000804D68ED0062D5374DAE6946F00106C9
:10070000AE61AD6924F0030605F001050095334D97
:1007100006EB050CDCF80850A607360F07FA06F8BA
:1007200025EA0805DFF8B880404503D14FF00008FE
:1007300017E044E0DFF8AC80404502D14FF00108FB
:100740000FE0DFF8A480404502D14FF0020808E036
:10075000DFF89880404502D14FF0030801E04FF0E8
:10076000040808FA06F848EA0508CCF808804D683D
:10077000D9F80060ED034D4601D5164300E09643DD
:100780002E604D68DAF80060AD03554601D516437A
:1007900000E096432E604D68DBF80060ED025D4698
:1007A00001D5164300E096432E604D68DEF80060E8
:1007B000AD02754601D5164300E096432E60641CD9
:1007C0000D682A46E5407FF431AFBDE8F88F0000A0
:1007D0000004014000001110001002400000014020
:1007E00000080140000C01400010014000140140CD
:1007F000C26821EA02030A4043EA024101617047EC
:100800000AB1016170470904FBE7000001488068F4
:10081000704700002C0000200248816802781144D3
:10082000816070472C000020074810B5016841F036
:1008300010010160032000F079F8002000F006F8B4
:1008400000F024F8002010BD0020024070B50D4DCE
:1008500004464FF47A712878B1FBF0F00A49096830
:10086000B1FBF0F000F073FC48B9102C07D2002265
:100870002146501E00F03AF800206C6070BD012047
:1008800070BD00002C000020380000200E4808B584
:10089000816941F001018161816901F001010091EB
:1008A000C16941F08051C161C06900F08050009081
:1008B000052000F03BF80548416821F0E06141F077
:1008C0000071416008BD00000010024000000140BE
:1008D000002809DB00F01F0201219140400980003F
:1008E00000F1E020C0F8001170470000F0B40E4B9A
:1008F0001B680C46C3F30223C3F10705042D00D97E
:100900000425191D072901D2002300E0DB1E012662
:1009100006FA05F1491E214099409E40761E164078
:100920003143F0BC02F01CBA0CED00E0064900F0C7
:10093000070208684FF6FF03184040EA0220034A06
:1009400010430860704700000CED00E00000FA055D
:100950002DE9F0470F46050061D0434E306800F0A6
:100960000700B84209D2306820F0070038433060F1
:10097000306800F00700B84251D128683B4C81072D
:1009800012D5400703D5606840F4E06060602878C5
:10099000000703D5606840F4605060606068A96833
:1009A00020F0F000084360602878C00728D068680D
:1009B000012810D02168022810D0890700292EDADA
:1009C000616821F0030101436160FFF71FFF80466A
:1009D00041F288390DE021688903EFE78901EDE7ED
:1009E000FFF714FFA0EB0801494502D90320BDE839
:1009F000F0876068696800F00C00B0EB810FEFD100
:100A0000306800F00700B8420BD9306820F00700CA
:100A100038433060306800F00700B84201D0012050
:100A2000E5E72878400705D56068E96820F4E060CC
:100A3000084360602878000706D56068296920F4BB
:100A4000605040EAC100606000F038F86168084A10
:100A5000C1F30311515CC8400649086006480068AC
:100A6000FFF7F4FE0020C2E7002002400010024021
:100A7000344C0008380000203000002004480549AC
:100A800000684968044AC1F30221515CC8407047BC
:100A90003800002000100240444C0008044805497A
:100AA00000684968044AC1F3C221515CC8407047DC
:100AB0003800002000100240444C000812A185B00C
:100AC0000FC98DE80F0014A0144A00680490516803
:100AD000134801F00C03042B10D0082B0ED1C1F3E6
:100AE0008343C9031DF803000AD5516804AAC1F362
:100AF0004041515C0A4A5043B0FBF1F005B07047E9
:100B000008494843FAE700000203040506070809FC
:100B10000A0B0C0D0E0F1010010200000010024015
:100B200000127A0000093D002DE9F84F040070D052
:100B30002078C04DC00749D06868C0F38100012803
:100B400007D06868C0F38100022809D16868C00333
:100B500006D52868800339D560680028E7D035E0DD
:100B60006068B0F5803F0BD010B1B0F5A02F11D068
:100B7000286820F480302860286820F4802002E073
:100B8000286840F480302860606890B1FFF73EFE2E
:100B900006460AE0286840F480202860F0E700BF9D
:100BA000FFF734FE801B642873D828688003F7D5CC
:100BB0000CE0FFF72BFE064605E000BFFFF726FE20
:100BC000801B6428F0D828688003F7D420789A4ED8
:100BD00080074FF001094FF0000839D5686810F020
:100BE0000C0F07D06868C0F38100022809D168683B
:100BF000C00306D42868800714D52069012808D1CD
:100C000010E02069B0B1C6F80090FFF7FFFD07467D
:100C100005E00AE1FFF7FAFDC01B0228C4D82868E6
:100C20008007F7D52868616920F0F80040EAC10024
:100C300028600DE0C6F80080FFF7E8FD074604E0F5
:100C4000FFF7E4FDC01B022823D828688007F7D4EB
:100C5000207800072CD57948A169D9B1C0F8009057
:100C6000FFF7D4FD074604E0FFF7D0FDC01B0228C4
:100C70000FD8686A8007F7D571484FF4FA510068B9
:100C8000B0FBF1F0009000BF0098411E0091FAD235
:100C90000EE080E0C0F80080FFF7B8FD074604E0F2
:100CA000FFF7B4FDC01B022875D8686A8007F7D427
:100CB0002078400760D5E8690027C00008D4E869BB
:100CC00040F08050E861E869012700F08050009012
:100CD0005C480168C90513D40168834641F48071FA
:100CE0000160FFF793FD824606E000BFFFF78EFD2F
:100CF000A0EB0A0064284ED8DBF80000C005F5D54B
:100D0000E06801280AD008B1052813D0286A20F02D
:100D100001002862286A20F0040002E0286A40F0FE
:100D200001002862E06841F2883B98B1FFF76EFD50
:100D300082460BE0286A40F004002862EEE700BF1C
:100D4000FFF764FDA0EB0A0159455AD8286A8007CD
:100D5000F6D50CE0FFF75AFD824605E0FFF756FD99
:100D6000A0EB0A0159454CD8286A8007F6D41FB178
:100D7000E86920F08050E861E06988B36968C1F3F0
:100D80008101022944D00228C6F8608004D0FFF710
:100D90003DFD044638E034E0FFF738FD074604E047
:100DA000FFF734FDC01B02282BD828688001F7D438
:100DB000206AB0F5803F05D16868A16820F4003052
:100DC00008436860D4E908010843696821F4741194
:100DD00008436860C6F86090FFF718FD044606E017
:100DE00025E000BFFFF712FD001B022809D8286884
:100DF0008001F7D51BE000BFFFF708FD001B0228AC
:100E000002D90320BDE8F88F28688001F4D40EE0F1
:100E10000128F7D06868226A00F48031914204D139
:100E2000616A00F47010884201D00120EAE70020D6
:100E3000E8E7000000100240000042428004424205
:100E4000380000200070004070B5040009D0606ACE
:100E5000002540B125616561A56294F8510040B15B
:100E60000CE0012070BD6068B0F5827FF4D0E561D0
:100E7000F2E784F85050204600F040F8022084F851
:100E800051002068016821F040010160A08821899B
:100E900000F4827001F404410843A18901F4006167
:100EA0000843217C01F002010843217D01F001018A
:100EB0000843218B01F400710843217F01F03801C0
:100EC000084394F8201001F080010843218D01F4BB
:100ED0000051084321680860A069042101EA10401C
:100EE000216848602068C16921F40061C1616565BD
:100EF000012084F85100002070BD000030B585B09D
:100F000000240094019402940394006814498842D8
:100F100023D11448816941F480518161816901F4D0
:100F200080510491816941F00401816180690E4D15
:100F300000F004000490A020009002200190032003
:100F4000039069462846FFF763FB4020CDE9000483
:100F5000694628460294FFF75BFB05B030BD0000F0
:100F60000030014000100240000801402DE9F84F18
:100F7000044690F8500000270A9E1D4692468B4674
:100F80004FF0010901280ED0012084F85000FFF72E
:100F90003DFC804694F85100616801280CD0B1F501
:100FA000827F07D102E00220BDE8F88FA16809B96D
:100FB000042801D00227C2E0BBF1000F27D0BAF10C
:100FC000000F24D01DB394F85100042802D005204E
:100FD00084F8510000206065C4F838A0E587A58733
:100FE000C4F830B0E586A586206460642068016896
:100FF000490603D4016841F040010160E068B0F5A2
:10100000006F606805D0E8B3012D46D07FE001276E
:1010100095E008B1012D39D1206B21680088C860A6
:10102000206B801C2063E08E401EE0862EE020684E
:10103000816889070FD5E18E69B1B9F1010F0AD135
:10104000216B0988C160206B801C2063E08E401EEC
:10105000E0864FF0000920688168C9070CD0E18F55
:1010600051B1C068A16B0880A06B801CA063E08FA9
:10107000401EE0874FF00109FFF7C8FBA0EB080016
:10108000B04200E009E001D3701C50D1E08E00288E
:10109000CDD1E08F0028CAD13FE0206B21680078D5
:1010A0000873206B401C2063E08E401EE0862EE01B
:1010B0002068816889070FD5E18E69B1B9F1010F08
:1010C0000AD1216B09780173206B401C2063E08EEC
:1010D000401EE0864FF0000920688168C9070CD0E7
:1010E000E18F51B1C068A16B0870A06B401CA06378
:1010F000E08F401EE0874FF00109FFF787FBA0EB70
:101100000800B04202D3701C01D010E07EB1E08E26
:101110000028CDD1E08F0028CAD142463146204672
:1011200001F044F828B101272020606507E003277B
:1011300005E0A06818B92068C168806800900120A7
:1011400084F85100002084F8500038462CE710B590
:10115000401EB0F1807F01D3012010BD4FF0E0248C
:1011600060610F21601701F0FBFD0020A0610720E6
:101170002061002010BD70477047000070B590F8E6
:101180003C20012A26D0012480F83C40022280F82D
:101190003D2003685A689D6822F070060A68324351
:1011A0005A600D4B02689A4208D0B2F1804F05D0C8
:1011B0000A4B9A4202D00A4B9A4204D1496825F060
:1011C00080031943916080F83D40002180F83C1075
:1011D000084670BD022070BD002C01400004004094
:1011E0000008004010B5040003D094F83D0010B191
:1011F00007E0012010BD002084F83C00204600F0EC
:101200001FF8022084F83D00211D206801F07CF8C1
:10121000012084F8460084F83E0084F83F0084F8FA
:10122000400084F8410084F8420084F8430084F8C8
:10123000440084F8450084F83D00002010BD000003
:1012400008B500680B49884212D10B48C16941F0CA
:101250000201C161C069032200F002000090002178
:101260001D20FFF743FBBDE808401D20FFF730BB02
:1012700008BD0000000400400010024070B50446A4
:1012800090F83C00012817D0012584F83C5002203A
:1012900084F83D002068826822F0770222F47F42C1
:1012A00082600868502830D00DDC20284DD005DC45
:1012B00098B310283BD148E0022070BD302844D0BC
:1012C000402834D139E0602828D0702806D0B0F505
:1012D000805F2CD0B0F5005F29D10AE0CB68D1E95E
:1012E0000121206801F046F82068816841F077010B
:1012F00009E0CB68D1E90121206801F03BF82068C2
:10130000816841F48041816011E0CA6849682068C1
:1013100001F042F85021206807E016E0CA684968E9
:10132000206801F04AF86021206801F02DF884F867
:101330003D50002084F83C0070BDCA6849682068B0
:1013400001F02AF840212068EFE7226801461046A4
:10135000EBE7704770B50446006801694FF000057F
:10136000C943890715D4C168C943890711D4E91E47
:10137000016101202077206880698007204602D023
:10138000FFF7E7FF04E000F098F8204600F096F839
:10139000257720680169C943490717D4C168C94343
:1013A000490713D46FF004010161022020772068FF
:1013B000806910F4407F204602D0FFF7CAFF04E0A6
:1013C00000F07BF8204600F079F825772068016965
:1013D000C943090716D4C168C943090712D46FF07D
:1013E00008010161042020772068C0698007204639
:1013F00002D0FFF7AEFF04E000F05FF8204600F0F7
:101400005DF8257720680169C943C90617D4C1680A
:10141000C943C90613D46FF0100101610820207779
:101420002068C06910F4407F204602D0FFF791FF8A
:1014300004E000F042F8204600F040F825772068EC
:101440000169C943C90708D1C168C943C90704D1A3
:10145000891E0161204600F032F820680169C94305
:10146000090609D4C168C943090605D46FF0800193
:1014700001612046FFF77FFE20680169C9434906E4
:1014800009D4C168C943490605D46FF04001016120
:10149000204600F015F820680169C94389060BD47D
:1014A000C168C943890607D46FF020010161204655
:1014B000BDE87040FFF760BE70BD70477047704771
:1014C0007047704710B504460068416994F83D20A4
:1014D000C1F3C011212A0BD151B1416921F0800122
:1014E0004161606B08B1FEF701FF204600F0F6FF96
:1014F0002068416994F83E20C1F38011222A0BD163
:1015000051B1416921F040014161A06B08B1FEF782
:10151000EDFE204600F0CAFF002010BD704700001D
:10152000F8B5026804461068D168536910F00F0FCF
:101530004FF0000553D003F0010601F490773743D4
:101540005FD0C20705D0CA0503D5226C42F0010264
:101550002264420705D5DA0703D0226C42F002026A
:101560002264820705D5DA0703D0226C42F0040218
:101570002264020707D501F02002324303D0226C17
:1015800042F008022264226C002A34D0800604D57E
:10159000880602D5204600F0AAFF20684069216C29
:1015A000C0F38010090700D430B3204600F07EFF5E
:1015B0002068416949061BD5416921F0400141611C
:1015C000A06BA8B158494163A06BFEF7B3FE002899
:1015D00011D0A06B416B01B0BDE8F0400847830615
:1015E0000FD58B060DD52046BDE8F84000F07FBF33
:1015F0002046FFF793FFF8BD2046FFF78FFF2564D5
:10160000F8BD266B2023012E52D1C60650D5CE063A
:101610004ED5106850680090506940062AD5A16BDD
:10162000086840680004000CEAD0A68D8642E7D91D
:10163000E0858869202818D0D06820F48070D060B8
:101640002068416921F0010141612068416921F070
:101650004001416184F83E3025632068C16821F073
:101660001001C160A06BFEF741FEA08DE18D401A14
:1016700081B219E0A08DE18D401A81B2E08D002881
:10168000BED00029BCD0D06820F49070D060206813
:10169000426922F00102426184F83E3025632068ED
:1016A000C26822F01002C2602046FFF70AFFF8BDB0
:1016B00005062BD50D0629D594F83D002128F6D135
:1016C000A068B0F5805F01D12069B0B1206A411CEB
:1016D0002162216800784860E08C401E0004000C04
:1016E000E084E4D12068C16821F08001C1602068F5
:1016F000C16841F04001C160F8BD206A0088C0F3B4
:1017000008005060206A801C2062E5E74006F3D59F
:101710004806F1D5D168204621F04001D16084F817
:101720003D3000F0EEF9F8BDDF23000870B504008D
:1017300004D094F83D00002510B106E0012070BDF2
:1017400084F83C50204600F023F8242084F83D0023
:101750002068C16821F40051C160204600F022FFDA
:101760002068016921F4904101612068416921F0FC
:101770002A0141612068C16841F40051C1602564BB
:10178000202084F83D0084F83E00002070BD000059
:101790002DE9F04786B00025009501950295039547
:1017A0000446D0F800C09648DFF850820221032298
:1017B000944B802786144FF4806A4FF01009C4457B
:1017C0005BD1D0F818C04CF4804CC0F818C0D0F8E9
:1017D00018C00CF4804CCDF810C0D0F818C04CF0F4
:1017E000040CC0F818C08069039200F00400049053
:1017F0000802CDE90001694698461846FEF708FF41
:10180000CDF800A0AA460195694640460295FEF72C
:10181000FFFEDFF8F8817C494046C0E90015C0E9C9
:101820000257C8F81050C8F81450C8E90656FEF719
:1018300077FE08B1FEF734FD744D7348C4F8388064
:1018400044351438C8F82440C5E90009C5E902A7A1
:10185000C5F810A0C5F814A0C5E906A62846FEF7ED
:101860005FFE08B1FEF71CFD656302220021252002
:101870006C62FFF73BF8252061E0DFF89481C445F6
:1018800062D1D0F81CC04CF4003CC0F81CC0D0F8A9
:101890001CC00CF4003CCDF810C0D0F818C04CF0BF
:1018A000040CC0F818C08069039200F00400049092
:1018B0000420CDE90001694698461846FEF7A8FEC7
:1018C0000820CDE90005AA46694640460295FEF784
:1018D0009FFEDFF838814C4908F1880840461431F2
:1018E000C0E90015C0E90257C8F81050C8F81450F4
:1018F000C8E90656FEF714FE08B1FEF7D1FC434DC9
:101900004148C4F83880CC352830C8F82440C5E9AF
:101910000009C5E902A7C5F810A0C5F814A0C5E9DB
:1019200006A62846FEF7FCFD08B1FEF7B9FC656384
:101930000122002126206C62FEF7D8FF2620FEF748
:10194000C7FF06B0BDE8F087324B9C45F9D1C369AB
:1019500043F48023C361C36903F480230493836940
:1019600043F0080383618069CDE900A100F008001D
:10197000CDE90320DFF8A08069464046FEF748FE27
:101980004FF40060CDE90005694640460295FEF738
:101990003FFEDFF888A01C4950462839C0E90015F1
:1019A000C0E90257CAF81050CAF81450CAE90656DE
:1019B000B846FEF7B5FD08B1FEF772FC174FC4F844
:1019C00038A04437CAF82440C7E902580E483D61A0
:1019D0003C387D61C7E90009C7E906563846FEF77D
:1019E0009FFD08B1FEF75CFC676301220021272000
:1019F0007C62FEF77BFF2720A1E700000038014052
:101A0000001002400008014058000240140A002063
:101A10000044004000480040000C0140240B00201E
:101A200090F83E30202B0ED159B152B190F83C3095
:101A3000012B08D0012380F83C300023036300F021
:101A40000DBE0120704702207047704770470000AC
:101A50002DE9F843044690F83D001F4616460D4612
:101A600020284CD1C5B1BEB194F83C00012846D025
:101A7000012084F83C004FF00008C4F84080212089
:101A800084F83D00FEF7C2FEA6848146E684A06885
:101A9000B0F5805F03D004E00120BDE8F883206941
:101AA00028B12E465FF0000584F83C800EE0002649
:101AB000FAE78021204600F009FEA0B9AEB116F881
:101AC000010B21684860E08C401EE084E08C4B46AE
:101AD0004FF0000200970028EBD14FF04001204664
:101AE00000F0F4FD30B10320D7E735F8020BC0F366
:101AF0000800E6E7202084F83D000020CDE7022022
:101B0000CBE77047FEE700001D4808B5416941F08A
:101B1000010141614069002200F00100009011467E
:101B20000C20FEF7E3FE0C20FEF7D2FE0022114649
:101B30000D20FEF7DBFE0D20FEF7CAFE0022114647
:101B40000E20FEF7D3FE0E20FEF7C2FE0022114645
:101B50000F20FEF7CBFE0F20FEF7BAFE0022114643
:101B60001020FEF7C3FE1020FEF7B2FE0022114641
:101B70001120FEF7BBFEBDE808401120FEF7A8BE0D
:101B80000010024010B504490448FEF78BFB0249DF
:101B9000491E087010BD0000210000200C0000202C
:101BA000F0B585B00020009001900290039022488B
:101BB000816941F020018161816901F02001049176
:101BC000816941F004018161816901F0040104919E
:101BD000816941F0080181618069184E00F00800B8
:101BE0000490002212213046FEF70AFE144F002214
:101BF0000B213846FEF704FE02250124CDE90054EE
:101C000069463046CDE90245FEF702FD1020CDE9D8
:101C100000040320CDE9024069463046FEF7F8FC97
:101C20000B20CDE9000469463846CDE90245FEF7B0
:101C3000EFFC05B0F0BD00000010024000080140BC
:101C4000000C0140104810B50E4901604FF482713C
:101C5000416000218160C1604FF400720161C0E900
:101C600005120822C0E90721416281620A21C1628E
:101C7000FFF7EAF8002803D0BDE81040FEF710BBDC
:101C800010BD000000300140A808002010B586B04B
:101C90000024174800940194029403940494134977
:101CA000059401604721C0E9011440F2E731C0E921
:101CB00003148461FFF796FA08B1FEF7F1FA4FF4C6
:101CC0008050009069460A48FFF7D8FA08B1FEF73D
:101CD000E7FA049404A906480594FFF74FFA002890
:101CE00001D0FEF7DDFA06B010BD00000004004090
:101CF000000900200C4810B50A4901604FF4165144
:101D00004160002181600C22C160C0E90412816140
:101D1000C161FFF70BFD002803D0BDE81040FEF7BE
:101D2000BFBA10BD00380140480900200C4810B56A
:101D30000A4901604FF416514160002181600C2274
:101D4000C160C0E904128161C161FFF7EFFC0028A6
:101D500003D0BDE81040FEF7A3BA10BD0044004018
:101D60008C0900200C4810B50A4901604FF4165147
:101D70004160002181600C22C160C0E904128161D0
:101D8000C161FFF7D3FC002803D0BDE81040FEF787
:101D900087BA10BD00480040D0090020FEE7FEE7EA
:101DA00070470000044B20B1002210211846FEF7B6
:101DB00027BD0122F9E700000008014070B5054683
:101DC00001220021092000F0B9F910F0FF0404D12C
:101DD0001021284600F078F804460020FFF7E2FFC3
:101DE0000CB1012070BD002070BD1FB56846FFF723
:101DF000E5FF10B1002004B010BD9DF800100120D7
:101E0000B0EB911F09D19DF808209DF8091000EB57
:101E10000220084400048009EDE79DF805009DF8C4
:101E20000A1000F00F0000EBD1109DF809109DF88A
:101E3000072001F0030100EB41019DF80800800933
:101E400000EB82009DF8062002F0030200EB8220E6
:101E5000401CC91F8840CEE72DE9F04106461948CD
:101E600015464078062800D049024FF40077012D2E
:101E70004FF001021AD0122000F060F939463046C6
:101E800000F022F86D1E044606F5007615F0FF05F9
:101E900001D0002CF2D0012200210C2000F04EF9DC
:101EA0000020FFF77FFF2046BDE8F081112000F001
:101EB00045F910F0FF04F3D13946304600F004F83C
:101EC0000446EDE79608002070B505460C46012053
:101ED000FFF768FFFF2002F0E7FD06466420FEF7EB
:101EE00085FBFE2EF6D103E002F0DEFD05F8010BC6
:101EF000641EA4B24FF0FF00F6D202F0D5FDFF2021
:101F000002F0D2FD002070BD70B50C460546FF20E2
:101F100002F0CAFDFF28FAD1204602F0C5FDFD2CD3
:101F200018D000244FF40076285D02F0BDFD641C3B
:101F3000A4B2B442F8D3FF2002F0B6FDFF2002F0B5
:101F4000B3FDFF2002F0B0FD00F01F00052801D016
:101F5000022070BD002070BD70B506461F481546B2
:101F60000C464078062800D04C02012D14D00128E0
:101F700009D001220021372000F0E0F80122294693
:101F8000172000F0DBF801222146192000F0D6F8D6
:101F900010F0FF040BD01BE001222146182000F0B6
:101FA000CDF810F0FF0413D1FE2130460DE0FC21E6
:101FB0003046FFF7A9FF6D1E06F5007615F0FF0508
:101FC00001D00028F3D0FD210020FFF79DFF04463B
:101FD0000020FFF7E7FE204670BD000096080020B5
:101FE0002DE9FC410027DFF84C810097382001974C
:101FF000C8F81C003846FFF7D5FE4F4D002428785E
:1020000002F052FD641CA4B20A2CF8D300219522E0
:10201000084600F093F8C0B20128F7D16F7087220C
:102020004FF4D571082000F089F8C0B2012873D1AF
:1020300000246E46287802F037FD3055641CE4B267
:10204000042CF7D39DF802004FF6FE74012803D14B
:102050009DF80300AA281FD001220021372000F09C
:102060006DF801220021292000F068F8C0B2012893
:102070003DD80220687001220021372000F05EF870
:1020800001220021292000F059F810F0FF0F3BD069
:10209000641EA4B2EFD237E04FF080470122002146
:1020A000372000F04BF801223946292000F046F88D
:1020B00010F0FF0F02D0641EA4B2EFD2B4B101221F
:1020C00000213A2000F03AF880B90024FF2002F005
:1020D000EBFC3055641CE4B2042CF7D39DF80000EF
:1020E000400601D5062000E00420687014E00120BD
:1020F000687001220021104600F020F810F0FF0F58
:1021000002D0641EA4B2F4D22CB1012251021020DC
:1021100000F014F800B16F700020FFF743FE0020BC
:10212000C8F81C00687810B10020BDE8FC810120CF
:10213000FBE70000A8080020960800202DE9F041E8
:10214000054617460C460020FFF72CFE1420FEF72C
:102150004DFA0120FFF726FE134E307802F0A4FC62
:10216000FF28FAD145F0400002F09EFC200E02F05C
:102170009BFCC4F3074002F097FCC4F3072002F075
:1021800093FCE0B202F090FC384602F08DFC0C2D7E
:1021900002D1307802F088FCFF2002F085FC0106B5
:1021A000FAD4BDE8F08100009608002038B50B464F
:1021B000009204460022802100F008F8002804D094
:1021C000606D40F020006065032038BD2DE9F843C4
:1021D0001E46914688460446089DFEF717FB401BA5
:1021E000351AFEF713FB074625480068C0F3CB30CD
:1021F000684338E0701C37D0FEF708FBC01BA842CC
:1022000003D215B1009860B32CE02068416821F03A
:10221000E00141606068B0F5827F0BD1A068B0F545
:10222000004F02D0B0F5806F04D12068016821F022
:1022300040010160A06AB0F5005F09D12068016823
:1022400021F4005101602068016841F400510160EF
:10225000012084F85100002084F850000320BDE8DC
:10226000F8830025401E00902068816838EA01004C
:1022700004D000214945BDD10020F0E70121F9E754
:10228000380000200149C86170470000A8080020FC
:102290007047FEF7C1BA30B58FB028216846FDF708
:1022A0005AFF14210AA8FDF756FF092001210090CA
:1022B0004FF48030002404910691CDE901040225F9
:1022C000CDE907504FF4E01009906846FEF72CFC6A
:1022D00008B172B6FEE70F20CDE90A054FF4806021
:1022E000CDE90C4002210AA80E94FEF731FB00282C
:1022F00001D072B6FEE70FB030BD70470148FFF75E
:1023000029B8000000090020F0B50268164B174CF0
:10231000174D4FF08047984205D0B84203D0A042F5
:1023200001D0A84203D122F070064A683243984295
:1023300005D0B84203D0A04201D0A84203D122F474
:102340004074CA6822434C6922F080022243026032
:102350008A68C2620A688262984201D1096901638F
:1023600001214161F0BD0000002C0140000400404B
:102370000008004010B5846842EA032224F47F4438
:102380000A432243826010BD826822F070020A4331
:1023900042F007018160704710B5036A046A24F0B7
:1023A00001040462846924F0F00444EA021423F076
:1023B0000A020A438461026210BD10B5036A23F069
:1023C000100303628369046A23F4704343EA023210
:1023D00024F0A00343EA01118261016210BD10B52F
:1023E000406A0021C185C184FFF798F810BD70B51F
:1023F000446A2068406994F83D10C0F3C01000257D
:10240000212904D118B1E584204600F067F820683E
:10241000406994F83E10C0F38010222904D118B10D
:10242000E585204600F042F8206C40F01000206462
:102430002046FFF773F870BD10B50146406A096881
:10244000096889061BD40021C1850168CA6822F485
:102450008072CA6001684A6922F001024A6101681B
:102460004A6922F040024A61202180F83E10016B47
:10247000012904D10168CA6822F01002CA60016B08
:10248000012902D0FFF7E1FA10BD818DFFF719F89D
:1024900010BD10B5406A016B012902D0FFF7D6FAD2
:1024A00010BD818D4908FFF70CF810BD0168CA689E
:1024B00022F49072CA6001684A6922F001024A61FE
:1024C000016B012904D10168CA6822F01002CA60B8
:1024D000202180F83E100021016370470168CA681E
:1024E00022F0C002CA60202180F83D10704708B574
:1024F00090F83E10222901D0022008BD82684FF4D6
:1025000080539A4201D1016921B1816A9A421BD05C
:102510004AB10AE00268816A5268C2F308020A807E
:10252000816A891C08E0026972B10268526802F08F
:102530007F020A70816A491C8162C18D491E0904AB
:10254000090CC18503D019E002685268F1E70168FF
:10255000CA6822F02002CA600168CA6822F4807248
:10256000CA6001684A6922F001024A61202180F8AC
:102570003E10016B012903D0FFF767FA002008BD68
:10258000002101630168CA6822F01002CA60016874
:102590000A68D20602D50A6849680091818DFEF763
:1025A00090FFEBE770B5044600680169E26821F42A
:1025B0004051114301612169A068084361690843E2
:1025C0002168CA6841F20C639A430243CA602068DA
:1025D0004169A26921F44071114341611E4920689B
:1025E000884202D1FEF75AFA01E0FEF747FA00EB03
:1025F000C00101EB0012606864218000B2FBF0F3BF
:10260000B3FBF1F36FF018067343B2FBF0F5B2FBC6
:10261000F0F605EB8305322303EB0515B5FBF1F569
:10262000B6FBF1F605F0F00505EB0615B2FBF0F68A
:10263000B2FBF0F0B0FBF1F06FF01802504306EB84
:10264000800003EB0010B0FBF1F0216800F00F00F8
:102650002844886070BD00000038014038B58162B0
:1026600082850025134604460564222084F83E0036
:10267000A26B13489062A26B1248D062A26B124800
:102680001063A06B0A4645632168A06B091DFDF726
:1026900075FF206801684168009184F83C50C1686A
:1026A00041F48071C1602068416941F001014161DC
:1026B0002068416941F040014161002038BD0000BF
:1026C0003924000893240008EF2300082DE9F04185
:1026D000984617460E460446069D1DE0681C1BD012
:1026E0002DB1FEF793F8A0EB0800A84214D920689A
:1026F000C16821F4D071C1602068416921F00101F5
:102700004161202084F83D0084F83E00002084F8D8
:102710003C000320BDE8F0812068006836EA000034
:1027200004D00020B842D9D00020F3E70120F9E717
:102730002DE9F041804601F10B0617460D46304663
:1027400002F09EF8044605202070002262700123EA
:10275000A370A91DE170380A20716771A27107206A
:10276000E071237265722A46414604F10A00FDF7C2
:10277000D9FC05F10A0081B22046FDF74BFD611935
:10278000B2B288724FF47A7321460448FFF760F9B9
:102790002046BDE8F04101F0BBBD00008C090020DF
:1027A0002DE9F041594D4FF4FA7729462A8801F175
:1027B000080000247E00B1F84218012A0FD0022A36
:1027C0007ED0032A7CD164297BD9C823A91C504818
:1027D000FFF73EF9B8463846FDF708FF6DE064297B
:1027E0004FF0030249D90321A81CFFF7A1FFB84607
:1027F0003846FDF7FBFE19E004EBC40000EB0410C3
:1028000005EB80070837032264213846FFF790FF65
:102810003046FDF7EBFE38466421FDF79CFCB5F829
:1028200042086438641CA5F84208E4B2B5F84208CE
:102830006428E1D281B204EBC40000EB041005EB84
:10284000800003220830FFF773FF3046FDF7CEFE0D
:1028500003221146681DFFF76BFF4AE0FDF7C6FE35
:1028600004EBC40000EB041005EB8000B5F842183F
:10287000BDE8F0410830FDF76EBCFFF759FF384660
:10288000ECE700BF04EBC40000EB041005EB80078D
:1028900008373346642239461D48FFF7D9F83046D9
:1028A000FDF7A4FE38466421FDF755FCB5F8420853
:1028B0006438641CA5F84208E4B2B5F8420801E0A7
:1028C00021E018E06428DDD282B204EBC40000EB02
:1028D000041005EB800133460D480831FFF7B8F8C6
:1028E0003046FDF783FEC8230322691D0848FFF721
:1028F000AFF84046B2E70A46014633460448FFF7C0
:10290000A7F83046AAE7BDE8F0810000500000209B
:102910008C09002070B5094C4FF4FA6304F5187166
:10292000B4F840280D460648FFF792F8B4F840186E
:102930002846BDE87040FDF70EBC000050000020A6
:10294000D0090020084808B5006801684068009078
:102950000548FEF7B7FD05494FF440104860BDE853
:1029600008400148FEF7DCBD480900200000024095
:102970000F4808B500680168406800900C48FEF7F1
:10298000A1FD0C494FF4401048600B4800684068B6
:10299000C0F5FA7081B20948A0F83E1800F5C96088
:1029A00000F00EF8BDE808400148FEF7B9BD000090
:1029B0008C090020000002409C0A002050000020EA
:1029C0002DE9F35F7A4D4A1E0098B5F800C00E4617
:1029D000BCF1000F71D0294601274FF0000801F526
:1029E00018794FF4FA7B01F5C96AA1F11404BCF11E
:1029F000010F10D0BCF1020F71D00A46B2F8401896
:102A000002F518728B182146BCF1030F09784CD0DF
:102A1000032E7AD0A7E0017805291ED1417800293C
:102A20001BD18178822918D191B2FDF7F3FB00996F
:102A30008A1912F8012C90420FD1CA79032A13D1B6
:102A4000087AAA2802D0EE2808D00DE0487AAA28F1
:102A50000AD1887AAA2807D12770A3E0487AEE28FD
:102A600002D1887AEE2870D0207810B1012808D0E1
:102A700098E0A5F840284846083180E085F8457878
:102A800090E0B5F84038083103EB090005F504651E
:102A9000FDF748FB00992888C979084428807BE025
:102AA00084F8008084F801807CE0032E13D1027842
:102AB000AA2A03D0EE2A08D00DE027E04278AA2AFD
:102AC00009D18278AA2AC7D005E04278EE2A02D13D
:102AD0008278EE2A4BD019B1012905D062E02CE0B2
:102AE000A5F84068324648E0014632461846FDF7F0
:102AF00019FBB5F840083044A5F840086078401C40
:102B0000C0B260700528CBD84CE018E001780129EC
:102B100013D14178002910D1817882290DD191B249
:102B2000FDF778FB0099314411F8012C904204D153
:102B300011F8050D497808432880BDE8FC9F02780C
:102B4000AA2A03D0EE2A08D00DE010E04278AA2A83
:102B500009D18278AA2AB6D005E04278EE2A02D1BD
:102B60008278EE2A03D029B101290BD01AE084F82B
:102B7000008083E73246A5F8406801464846FDF7E5
:102B8000D1FA7BE7184632466946FDF7CBFAB5F82D
:102B900040083044A5F840086078401CC0B260701E
:102BA0000628B0D85A4651460248FEF739FFC4E716
:102BB000500000208C09002038B5114800680168D9
:102BC000406800900E48FEF77DFC0E494FF440101F
:102BD00048600D48006840680C4CC0F5FA7081B23E
:102BE000A4F83C180AA000F0ABF8B4F83C1804F2C2
:102BF000544000F01BF8BDE838400148FEF790BC97
:102C0000D009002000000240240B002050000020CA
:102C100055415254315F526563656976655F53690A
:102C20007A65203A202564200D0A00002DE9F04144
:102C3000104E0C4607460025A6F8421807E064220D
:102C40000830FDF76FFA643C6D1CA4B2EDB205EBE1
:102C5000C50000EB051007EB8001642C06EB80003B
:102C6000EDD222460830FDF75DFA012086F84408CF
:102C7000BDE8F0815000002010B5FFF7B1F9002841
:102C800009D03820FFF7FEFAFF2001F00DFF0020E9
:102C9000FFF7F8FA012010BD10B5144641B1012923
:102CA0001DD0022914D0032915D00424204610BDBC
:102CB0000120FFF777F81420FDF798FCFF2001F0C2
:102CC000F3FEFF28F7D100242046FFF76BF8EDE76D
:102CD0004FF4007000E0082010800024E6E7FFF7C2
:102CE00084F82060F9E770B514460D460BB148B979
:102CF00001E0042070BDDAB221462846FFF7ACF8A7
:102D00000028F7D0012070BD002804D0012803D08E
:102D1000022801D0012070470020704770B514468A
:102D20000D460BB148B901E0042070BDDAB221466E
:102D30002846FFF711F90028F7D0012070BDFEE703
:102D40000FB4054B10B503A9044A029800F028F807
:102D500010BC5DF814FB0000F942000828000020B8
:102D60000907090E002804DB00F1E02080F80014B8
:102D7000704700F00F0000F1E02080F8141D70474C
:102D800002E008C8121F08C1002AFAD17047704734
:102D9000002001E001C1121F002AFBD17047000092
:102DA0002DE9FF4F89B09B460446002506E0252803
:102DB0000BD05A460B999047641C6D1C2078002854
:102DC000F5D10DB02846BDE8F08F0027B8460122A6
:102DD000474900E0074314F8013F203B02FA03F0A3
:102DE0000842F7D120782E2819D114F8010F47F0A6
:102DF00004072A280ED06FF02F022078A0F13001AE
:102E000009290CD808EB880102EB410100EB01080D
:102E1000641CF2E70A98641C50F8048B0A9020782E
:102E20000028CED0642808D0692806D075281ED086
:102E30005A460B9990476D1C58E00A994FF00A09C1
:102E400001C90A91002802DA40422D2102E0390529
:102E500004D52B218DF82010012103E0F90704D0BF
:102E60002021F7E78A4608AE0DE00021FAE70A992B
:102E70004FF00A0901C90A91F7E74946FDF776F9CB
:102E8000303106F8011D0028F7D1ADEB060000F146
:102E90002009780701D44FF00108C84502DDA8EBEE
:102EA000090000E000208046002706E008A85A46F6
:102EB000C05D0B9990476D1C7F1C5745F6DB04E005
:102EC00030205A460B9990476D1CB8F10001A8F1CB
:102ED0000108F5DC05E016F8010B5A460B999047FE
:102EE0006D1CB9F10001A9F10109F4DC641C65E76E
:102EF0000928010010B50446002084F80402401E91
:102F0000C4F82C02204601F001FD08B1032010BDD9
:102F1000B4F8FE01A0F52A41553901D0022010BDB8
:102F200094F83600B4F8371040EA01210848B0EBB5
:102F3000012F08D094F85210B4F8532041EA02212E
:102F4000B0EB012F01D1002010BD012010BD000009
:102F50000046415400E0401C02780AB18A42FAD18E
:102F6000D0B27047F0B50022184B144602EB42066F
:102F700053F8265085B1D0F80072BD420DD103EB55
:102F80008605D0F808626F68B74206D12D89B0F87F
:102F90000662B54204D000E00124521C022AE5D3A7
:102FA000022A01D079B904E05CB9022909D01220C3
:102FB000F0BD02EB420003EB80004089B0F5807F5A
:102FC00001D00020F0BD1020F0BD0000AC0B0020AF
:102FD00030B50021064A0C4601EB410352F823505C
:102FE000854201D142F82340491C0229F4D330BD67
:102FF000AC0B0020D0F82422D0F80002490A90F847
:103000000202B1FBF0F0121D02CA19B1884203D3CB
:10301000401AF8E700207047116808447047D0F85C
:103020001422891E921E8A4201D800207047D0F8CF
:10303000282290F8020201FB002070472DE9F041A0
:103040000F00054606D001F0CBF902280BD2012073
:10305000BDE8F081D5F80C621EB1D5F81402B0427B
:1030600008D8012606E0411CF2D0D5F8141281429E
:10307000EED83E463446D5F81402641CA04202D86D
:103080000224022E0AD32146284601F0A9F938B1BC
:10309000411CDDD00128DBD0B442ECD10020D7E7C1
:1030A0006FF070422146284601F04BFC30B957B111
:1030B00022463946284601F044FC20B1012812D0AE
:1030C00001242046C4E7C5F80C42D5F81002411C83
:1030D000F7D0401EC5F8100295F8050240F0010037
:1030E00085F80502EDE74FF0FF34EAE72DE9F84FE8
:1030F000884682460D6800E06D1C28782F28FBD09A
:103100005C28F9D00024DAF820722646A85D761CE7
:10311000202817D32F2815D05C2813D0FF2C32D2AB
:10312000012100F055FF5FEA00092CD0B9F1800FB2
:1031300004D2014668A0FFF70DFF20BB27F81490CA
:10314000641CE3E7AA19C8F80020202801D204254E
:1031500017E0002515E000BF07EB440030F8020C33
:1031600020280DD02E280BD06CB1002027F8140099
:103170000B222021DAF8180201F0C1FB002606E03C
:10318000641E002CE8D10620BDE8F88F761C37F8C5
:1031900016002028FAD02E28F8D01EB145F00305DD
:1031A00000E0641E2CB107EB440030F8020C2E281E
:1031B000F7D1002081464FF0080B009037F8160039
:1031C00006F101065FEA000824D0B8F1200F04D010
:1031D000B8F12E0F04D1A64202D045F00305EDE769
:1031E0000098584501D2A6421AD1BBF10B0F0FD05F
:1031F000A64201D045F003050CD84FF0080000901E
:103200004FEA896026464FF00B0B4FEA1069D5E76D
:1032100045F00305DAF818020178E52938D039E0DD
:103220004046B8F1800F10D3002100F0D1FE5FEAD4
:10323000000805D02B4901EB080010F8800C8046EF
:1032400045F00205B8F1000F04D0014626A0FFF7B3
:1032500081FE20B14FF05F0845F003050FE0A8F1B3
:103260004100192802D849F0020908E0A8F16100DC
:10327000192804D8413049F001091FFA80F8DAF81A
:103280001822009902F801800098401C009095E7F0
:1032900005210170BBF1080F03D14FEA89604FEAA5
:1032A0001069C9F38100032803D06FEA0901890777
:1032B00001D145F00205A90709D409F0030101294C
:1032C00001D145F01005012801D145F00805DAF8D3
:1032D0001802C572002057E7222A3A3C3E3F7C7F05
:1032E000000000004C4C00082B2C3B3D5B5D0000B7
:1032F000401E022815D20C4B00EB400203EB82016A
:103300004889B0F5807F05D008B1401E80B2488161
:1033100010B104E00020FAE7002043F8220000206A
:103320007047022070470000AC0B00202DE9FC5FC5
:103330000546002100F014FA00286ED1FF204FF658
:10334000FF7A00908146A5F824A200BFD5F810129C
:10335000D5F8000201F0DAFA06000ED1D5F81442D1
:10336000207848B1E17AE52801F03F0170D00A07E2
:1033700004D50F296CD107E0042674E00F2903D08F
:10338000B9F1000F4DD052E0D5F8201291B34206AA
:1033900008D5627B009220F04000B5F806228146F5
:1033A000A5F82422484534D1627B0098824230D16E
:1033B00001912078A04620F04000401E00EB8001E3
:1033C0000027DFF8A8B001EBC00601241BF80710A6
:1033D00001EB0800008874B100F016FE0446FF2ED1
:1033E00017D2019830F81600761C00F00DFEA042AE
:1033F0000FD102E030E050450BD17F1C0D2FE5D3FB
:1034000098F80000400609D544B1019830F816003C
:1034100020B1FF2000F0FF091EE025E0A9F1010026
:10342000F8E7204601F058FB009988421BD0D5F8F8
:103430001802C17AC9070BD10A2101E0491E06D33F
:1034400014F8012B10F8013BD21AF7D000E052B16A
:103450004FF0FF09A5F824A20021284600F008F843
:1034600006003FF473AF3046BDE8FC9FCC4C00082B
:103470002DE9F041B0F806620446761C30040F4690
:10348000000C37D0D4F8100298B3310773D1401C28
:10349000C4F81002D4F80C12D4F8000231B190F83C
:1034A0000222521E12EA161F05D064E0B0F808028C
:1034B000B0421FD95FE000F093FF054601281ED9F6
:1034C000681C3AD0D4F80002D0F81412A94249D8A6
:1034D0007FB1D4F80C12FFF7B1FD05000DD0012D1E
:1034E0000DD0681C29D0D4F8000201F05DFB20BB90
:1034F00007E0FFE70420BDE8F0810720FBE702209A
:10350000F9E74FF400720021D4F8000201F0F7F956
:103510002946D4F80002FFF782FDD4F800120027F4
:103520004FF00108C1F82C0211E000BF80F80482BE
:10353000D4F8000201F038FB08B10120DBE7D4F831
:103540000002D0F82C12491C7F1CC0F82C12D4F8B1
:10355000000290F80212B942E8D8D0F82C12C91B28
:10356000C0F82C12C4F80C522946D4F80002FFF718
:1035700056FDC4F81002A4F80662D4F8000206F062
:103580000F0100EB4110C4F814020020B3E7000063
:103590002DE9FF5FD0F818720446D0F820620C22A3
:1035A0003946684601F0A2F99DF80B00C0071AD011
:1035B0000020F8720125C4F820022B4632466946E5
:1035C000384600F0CDFE2046FFF7B0FE10B96D1C66
:1035D000642DF2D3642D0CD004280BD19DF80B0080
:1035E000F872C4F820629DF80B0080070FD5002008
:1035F00004E0072004B0BDE8F09F401C36F810102E
:103600000029FAD10D211930B0FBF1F600E00126B6
:103610000021204600F0A4F8A0B90027D4F8101229
:10362000D4F8000201F072F960B9D4F814020078FD
:10363000E5280AD048B1002701212046FFF718FFEE
:103640000028EBD0042812D012E07F1C3046B7428D
:10365000F2D1461E5FEA060A5FD0B4F80612204691
:10366000A1EB0A0100F07CF8050003D074E007200C
:10367000054671E0D4F8180201F02EFACDF80C00DE
:10368000D4F81012D4F8000201F040F9050063D11B
:10369000D4F81412D4F82092039848730F20C872FB
:1036A0000020087388760AF0FF0BC876ABF10100A2
:1036B00000EB800202EBC00500234FF6FF7E274E91
:1036C0004A1C01E0604503D039F81500F4466D1C32
:1036D000F75CC85516F80380070A08F8027000B9AD
:1036E00060465B1C0D2BEDD3704502D039F81500F8
:1036F00008B94BF0400B81F800B0D4F8001201205B
:1037000081F8040200212046FFF7B2FE050023D114
:10371000AAF101005FEA000AB2D1D4F81012D4F87D
:10372000000201F0F3F8050016D1D4F814022022AB
:10373000002104F5007401F0E2F8D4E905010B2240
:1037400001F0D4F8A0696169C07A00F0180008732C
:103750002168012081F8040228464BE7CC4C000880
:1037600070B5A0F80612D0F808320D460446012BB9
:1037700040D0D4F80002D0F8141299423AD933B9A3
:1037800090F80012032906D1D0F824321BB190F82A
:103790000202060114E0B0F80812A9422AD9D0F8B2
:1037A000240214E000F01CFE0346401C20D0022B33
:1037B00020D3D4F80002D0F8140298421AD9AD1BD5
:1037C000D4F80002B5421946ECD2FFF728FCC4F841
:1037D0000C3278B100EB1510C4F81002D4F80002D6
:1037E00005F00F0100EB4110C4F81402002070BD79
:1037F000012070BD022070BD084910B50B5C00228D
:1038000053B901220A540A1801EB8000127A406869
:103810000168104688470246104610BDC40D0020BE
:1038200030B4054C231804EB80001B7A406804690F
:103830001846A44630BC6047C40D002030B4054D86
:103840002C1805EB8000247A406885682046AC4639
:1038500030BC6047C40D0020044A111802EB800000
:10386000097A40684268084610470000C40D0020ED
:1038700030B4054D2C1805EB8000247A4068C568EB
:103880002046AC4630BC6047C40D002010B504464D
:1038900000F056FA00280DD1204601F0B5F90028B5
:1038A00008D1D4F82802FFF723FD002802D1002117
:1038B000C4F8001210BD00002DE9FC5F0D4604465F
:1038C00001F0A2F95FEA000973D194F80702002819
:1038D0006FD1D4F8240201274FF0020A002869D0E2
:1038E000691C33D0D4F80C02A84200D20546C4F8B3
:1038F0000852002D5CD02046691EFFF77BFB014675
:10390000C4F81402D4F80002FFF789FB00287CD029
:10391000D4F800126D1E91F80222521E02EA5522BE
:103920001518B4F80802C005E4D0D4F81822AA4249
:10393000E0D094F80602400646D591F80102012332
:103940002146FFF795FF002874D137E002C80091A7
:10395000D4F810128346022509B30026AD1C01914C
:103960008846761CD4F8000200F03AFD0146012892
:103970004BD9481C5ED008F101008142F0D000987C
:10398000854206D8CBF800600BF10400019A04C010
:103990008346D4F80002D0F814028842DDD8D4F867
:1039A000240205600098854205D80021CBF800105C
:1039B000C2E09DE016E04FF01109BDE094F8060268
:1039C00020F0400084F80602D4F8000201232A46C1
:1039D00090F801022146FFF731FF00282AD1C4F8F0
:1039E0001852A9E0D4F80C02A84204D294F80612A6
:1039F000890700D405464FF00008D4F80802C4F83F
:103A000008824DB3D4F8002200E06EE092F8021272
:103A10004E0280B1691E401EB1FBF6F1B0FBF6F319
:103A2000994208D3711E8843C4F808022D1AD4F8AD
:103A3000141210E06EE0D4F8101251B900211046B3
:103A4000FFF7FCFA014601284FD0481C62D0C4F8A9
:103A50001012C4F8141211BB31E000BF94F8060232
:103A60008007D4F8000205D5FFF7E8FA010004D179
:103A7000354616E000F0B4FC0146481C4AD0012946
:103A800033D9D4F80002D0F8140288422DD9C4F8F2
:103A90001412D4F80802AD1B3044C4F80802B54231
:103AA000DCD8D4F808022844C4F80802E80506D097
:103AB000D4F80002FFF7B3FAB8B100EB5528B4F818
:103AC0000802C0052CD0D4F81822424528D094F81A
:103AD0000602400614D5D4F800020123214690F8CE
:103AE0000102FFF7C5FEA8B904E084F807A202208E
:103AF000BDE8FC9F94F8060220F0400084F806021E
:103B0000D4F800020123424690F801022146FFF753
:103B100095FE18B184F807720120E9E7C4F818820D
:103B2000D4E98201884207D9C4F80C0294F806024D
:103B300040F0200084F806024846D9E72DE9F74115
:103B400081B0904602980090684600F0ACFC0400FA
:103B500003D50B2004B0BDE8F0810E4E002756F8C7
:103B6000245025B12846FFF733FA85F800720198F2
:103B7000002801D080F8007246F8240002D0B8F185
:103B8000010F01D00020E5E7002202A901A800F002
:103B90004DFADFE79C0800202DE9F747ADF50D7DD4
:103BA00006000ED04FF0000802F01F0727F00102B8
:103BB0008EA980A8C6F8008200F038FA040005D06B
:103BC000B7E009200DF5107DBDE8F0878AA8869042
:103BD0005A48889068468E9900F054FB859D0400F1
:103BE0000BD11DB1780803D0012102E0062404E0C6
:103BF00000216846FFF7B6F9044617F01C0F60D0A5
:103C00004FF0010ADCB1042C14D14C4900201839C2
:103C100002E0401C022805D200EB400251F82220AD
:103C2000002AF6D1022804D06846FFF7B1FC04460A
:103C300000E01224859D47F0080754B179E0E87A46
:103C400010F0110F01D0072473E0780701D5082484
:103C50006FE0380743D500F024FCA873010AE9732C
:103C6000010C2974000E687485F80B8085F81C809F
:103C700085F81D8085F81E8085F81F80294680986C
:103C800000F080FC81460021284600F01DFF80994D
:103C9000B9F1000F81F804A21FD080984946D0F8EE
:103CA0002CA200F0CAFE040043D18099A9F10100C2
:103CB000C1F80C025146809800F028FE04000AD09A
:103CC00037E0B4BBE87AC10601D5042431E0B90776
:103CD00001D5C007B7D1380701D547F02007809834
:103CE000D0F82C02C6E98705780801D0012100E050
:103CF0000021684600F0F6FBC6F82802D8B186F825
:103D0000067286F807824746294606F500768098AF
:103D100000F038FC3061287FD5F81D1040EA012002
:103D2000C6E90270B761776280983060B0F8060229
:103D3000B080204646E70224FBE70000C40B0020C9
:103D400070B5044600F060FF002811D194F8061207
:103D50008A060DD5480612D5D4F800020123214663
:103D600090F80102D4F81822FFF782FD08B1012073
:103D700070BD94F8060220F0400084F80602D4F8E2
:103D80001C12D4F8000200F0C1FD0028F0D1D4F8D4
:103D90002052E87A40F02000E87294F80C0228776C
:103DA000B4F80C02000A6877D4F80C02000CA8776B
:103DB000D4F80C02000EE877D4F81012284604F567
:103DC000007400F081FE00F06CFBA875010AE97533
:103DD000010C2976000E68760020A874E874A0799A
:103DE00020F02000A0712168012081F804022068E1
:103DF000BDE8704000F07DBE2DE9F84F88460021F7
:103E0000994615460446196000F0FEFE002808D1C8
:103E100094F80702002804D194F80602800702D41F
:103E20000720BDE8F88FD4F80802012741194FF0A8
:103E3000020A81427BD3B9E0D4F80812C80577D1D1
:103E4000D4F8002292F80202401E00EA512010F03D
:103E5000FF061ED131B1D4F8240240B12046FFF74D
:103E6000C9F809E0D4F8100240B9002101E0D4F803
:103E700014121046FFF7E2F8002858D001283DD070
:103E8000411C6CD0C4F81402D4F8101209B9C4F85B
:103E9000100294F80602400610D5D4F8000201235F
:103EA000214690F80102D4F81822FFF7E1FCE8BBA4
:103EB00094F8060220F0400084F80602D4F81412A8
:103EC000D4F80002FFF7ABF8C0B130440090680AA4
:103ED0005FEA000B30D0D4F8000206EB0B0290F83A
:103EE00002128A4201D9A1EB060B90F801025B464F
:103EF0004146009AFFF7BCFCC0B903E084F807A272
:103F000002208EE7D4F818120098081A58450CD2EF
:103F100008EB40214FF40072204600F0E7FC94F8D3
:103F2000060220F0400084F8060202E017E040E0BC
:103F30001CE04FEA4B262DE0D4F81812009881427D
:103F400011D0D4E9820188420DD2D4F800020123B5
:103F5000214690F80102009AFFF770FC18B184F82E
:103F6000077201205DE70098C4F81802B4F808024F
:103F7000C0F30800C0F50076AE4200D92E462044BA
:103F80003246414600F0B2FC94F8060240F0400090
:103F900084F80602D4F80802B0443044C4F8080299
:103FA000D9F800008119AD1BC9F80010002D7FF46D
:103FB00043AFD4E98201884201D9C4F80C0294F8D5
:103FC000060240F0200084F80602002029E70000E5
:103FD000802804D30B4A51B1FF2801D90020704733
:103FE00002EB4000A0F58050B0F8000F704732F8A7
:103FF0001130834203D0491C89B28029F7D3803124
:10400000C8B27047064D00080021064B00E0491C6D
:1040100033F81120002A04D08242F8D1024830F847
:1040200011007047064E0008E64F00082DE9FF47D3
:104030004FF000090746C0F800901646084600F009
:1040400032FA050003D50B2004B0BDE8F0878A489A
:1040500050F82540A4B13C6094F8000228B194F8CF
:104060000102FFF7F9FBC1070CD084F80092E8B217
:1040700084F80102FFF7C0FBC10708D00320E3E783
:104080000C20E1E70EB1400704D40020DCE71EB1AC
:10409000400701D50A20D7E7002529462046FEF72C
:1040A00029FF012823D100204FEA0D0704EB00115E
:1040B00091F8C22101F5DF712AB10A7AD1F809100D
:1040C00042EA012100E0002147F82010401C0428AA
:1040D000ECD3002657F826502DB129462046FEF78E
:1040E00009FF08B909E00220761C042EF2D3032848
:1040F00001D0E0BB01E00120A6E7B4F80B00B0F569
:10410000007F60D1E28A2AB994F82400D4F82510FF
:1041100040EA0122C4F81822217C84F80312012904
:1041200001D002294FD1607B514384F80202F0B1E3
:10413000431E184247D1B4F81130A4F808321E07C4
:1041400041D1B4F813602EB994F82060D4F82170EE
:1041500046EA0726B4F80EC0BCF1000F33D00CEBD2
:10416000010707EB1317BE422DD3F61B00E02AE030
:10417000B6FBF0F038B3012640F6F678404500D3A0
:1041800002264FF6F678404500D30326801C2F44C4
:10419000C4F82872AC44C4F81402C4E9875C032E46
:1041A00013D083B16144C4F82412022E19D000F058
:1041B000010100EB400001EB500000BF00F2FF10D6
:1041C000B2EB502F0FD20D203EE7002BFBD194F81D
:1041D0002C10D4F82D30800041EA0321C4F82412B9
:1041E000ECE74000EAE74FF0FF30C4F81002C4F8F3
:1041F0000C02802084F80502032E30D1208E012885
:104200002DD12046691C00F081FB40BB84F805924B
:10421000B4F8FE01A0F52A41553920D12078D4F810
:10422000011040EA01201549884218D194F8E401B0
:10423000D4F8E51140EA0120114988420FD194F8E1
:10424000E801D4F8E91140EA0120C4F8100294F81A
:10425000EC01D4F8ED1140EA0120C4F80C02064943
:1042600084F80062091F0888401C0880A4F8060230
:104270002046FEF7ADFE08E79C080020525261413F
:104280007272416173B50446019801782F2901D0FB
:104290005C2901D1401C01900025C4F80852019806
:1042A0000078202806D200212046FFF759FAC4F8EA
:1042B00014527CBD01A92046FEF718FF0028F8D152
:1042C0002046FFF733F8D4F81812C97A28B1042829
:1042D000EFD14907EDD405207CBD4907FCD4D4F8C3
:1042E0001412C87AC006F6D5D4F8000200F04AF9D4
:1042F000C4F80802DEE7000004490A685206FCD54B
:10430000024AC1B2121D116070470000003801401E
:1043100010B5002821D0114B0022001F196803E0BE
:10432000814203D80A4649680029F9D152B113687D
:10433000841A9C4204D1006818441060104602E0C0
:10434000506000E0186039B102680B1A934203D143
:104350000B681A4402604968416010BDA008002043
:104360007CB516461C4605460B2200F0BFFA052C0C
:1043700011D91A4A0CE00021B61C2346044663F307
:104380005F044008E30300D55440491C1029F4D3CE
:1043900030880028EFD107214FEA0D0204F00F000A
:1043A0003030392800D9C01D5054491E2409F5D198
:1043B0007E205054002000E0401C884202D22B5C3A
:1043C000202BF9D1082902D2535C491C00E020239C
:1043D0002B54401C0828F5D37CBD0000211001009F
:1043E0002DE9F0410D46044602290DD3D4F81402FC
:1043F000A84209D994F800024FF0FF36012807D0EF
:1044000002282AD0032836D001263046BDE8F081A4
:10441000D4F8200205EB550700EB5721204600F0A9
:1044200075FA0028F1D1C7F308007F1C14F800804A
:10443000D4F8200200EB5721204600F067FA00284C
:10444000E3D1C7F30800215C48EA0120E90701D065
:104450000609DAE7C0F30B06D7E7D4F8200200EB31
:104460001521204600F052FA0028CED1E8B204EB24
:1044700040000688C9E7D4F8200200EBD511204699
:1044800000F044FA0028C0D140F2FF1000EA850095
:1044900020440178D0F8010041EA002020F0704665
:1044A000B3E70020704710B504464FF0FF30226894
:1044B000002A13D0114600E0491C0B78202B0ED3A4
:1044C0003A2BF9D112F8013B303B0A2B06D28A4233
:1044D00004D1002B02D1491C1846216010BD0020D8
:1044E00010BD0000F0B50346254AD3F80042002075
:1044F00000EB400552F82560A6420BD102EB850582
:10450000D3F808626F68B74204D12D89B3F8066208
:10451000B54202D0401C0228EAD302281AD100205A
:1045200002E0401C022805D200EB400552F825505D
:10453000002DF6D1022815D000EB400542F82540A9
:1045400002EB8504D3F808626660B3F80632238173
:1045500000236381002900EB400102EB81014989BE
:1045600002D019B10020F0BD491C01E04FF4807168
:1045700000EB400302EB8302401C5181F0BD0000C0
:10458000AC0B00200246488B92F80022032A02D18D
:10459000898A40EA01407047ADF58C6DFCF744F91B
:1045A000FDF779FEFDF7FCFAFDF7AEFAFDF76EFBBD
:1045B000FDF7A0FBFDF7BAFBFDF7D4FBFDF742FBCF
:1045C000FDF7E0FA6948FEF7BBFB69480068C1687F
:1045D00041F01001C16067480068C16841F01001F6
:1045E000C16065480068C16841F01001C16063A006
:1045F000FEF7A6FB66494FF4FA752A4689465E48DF
:10460000FDF70EFA63492A4688465A48FDF708FA2C
:10461000614F012202213846FCF7F2F85F4C01227B
:1046200011462046FCF7ECF8012202212046FCF757
:10463000E7F85BA0FEF784FBC820FBF7D7FF5D4CD3
:104640005DA02188FEF77CFB012210213846FCF793
:10465000D7F8FDF7C5FC012849D05BA0FEF770FB39
:1046600001225EA18BA8FFF769FA064601465CA00D
:10467000FEF766FB0D2E3CD0002E3CD05AA000BFAA
:10468000FEF75EFB12225C496846FFF785FA0DF2E1
:104690005C43082259A16846FFF7AEFB6846FFF766
:1046A000F5F8012254496846FFF776FA839886B2F6
:1046B0006846FFF7EBF812224F496846FFF76CFA9D
:1046C000322E03D931466846FFF7F6F85FF0000650
:1046D0000DF25C4309224BA16846FFF78DFB28468B
:1046E000FBF784FF94F84508012806D01BE048A09A
:1046F000B4E74CA0C4E750A0C2E7FEF70BF9B4F84A
:10470000401851A0FEF71CFB84F84568A4F83E68E9
:10471000A4F8406829464046FBF71DFD2A4641465D
:104720001448FDF77DF994F84408012815D1FEF7E7
:1047300037F8B4F842184BA0FEF702FB84F844683F
:10474000A4F83C68A4F8426829464846FBF703FDF4
:104750002A4649460848FDF763F902213846FCF726
:1047600047F80520FBF742FFB2E70000C8510008F8
:10477000480900208C090020D009002055415254DE
:104780005F454E41424C455F4954200D0A000000F0
:10479000A40400209806002000080140000C0140FD
:1047A000554152545F526563656976655F444D417A
:1047B000200D0A00500000204C6F72615F494420B8
:1047C0003D202564200D0A005344BFA8B3F5CABCA0
:1047D000BBAFB3C9B9A6A3A1200D0A00303A0000AF
:1047E0002564200D0A000000B9D2D4D8CAA7B0DCD5
:1047F00021200D0A00000000000000205344207416
:1048000065737400534474657374202000000000C5
:104810005344BFA8B3F5CABCBBAFCAA7B0DC2120C4
:104820000D0A0000C3BBD3D0CEC4BCFECFB5CDB300
:1048300021200D0A00000000B9D2D4D8B3C9B9A60E
:1048400021200D0A0000000055415254315F54727E
:10485000616E736D69745F53697A65203A202564CF
:10486000200D0A0055415254325F5472616E736DCF
:1048700069745F53697A65203A202564200D0A0027
:10488000F0B50B30154D20F007010024144A0FE05D
:1048900003688B420BD38B4205D95E1A43184768D5
:1048A000C3E9006700E04368136002C004E0021D32
:1048B00010680028ECD12046002802D1286808B1F1
:1048C0000020F0BD064A07481060074A121A22F07D
:1048D0000702C0E9002401202860D7E7A4080020CF
:1048E000A0080020D40D0020D015002004E000BF57
:1048F00011F8013B00F8013B521EF9D27047C9B2D2
:1049000001E000F8011B521EFBD2704770B505464E
:10491000D0F82C020C460026A04210D0284600F009
:1049200043F906000BD195F80102012322462946DE
:10493000FEF784FF08B1741E0126C5F82C423046EC
:1049400070BD2DE9F04717460D460446022903D3F2
:10495000D4F81402A84202D80220BDE8F08794F8E7
:10496000001207F0FF084FF00109012920D00229A9
:1049700050D00329F0D1D4F8200200EBD511204605
:10498000FFF7C4FF0028E8D140F2FF1101EA8501DA
:104990000A194FF07043D2F8011003EA012139439C
:1049A00011700B0A53700B0C9370090ED17041E01B
:1049B000D4F8200205EB550600EB56212046FFF700
:1049C000A5FF0028C9D1C6F30800761C2044E907DA
:1049D00003D0017868F31F1100E03946017084F8B4
:1049E0000492D4F8200200EB56212046FFF78EFFF8
:1049F0000028B2D1C6F308012144EA0702D0C7F368
:104A0000071205E00A78C7F3032302F0F0021A4305
:104A10000A700FE0D4F8200200EB15212046FFF7C2
:104A200075FF002899D1E9B204EB41013A0A81F8F7
:104A300000804A7084F804928FE72DE9F0410F4618
:104A40000646022917D3D6F81402B84213D9002516
:104A500023E039463046FFF7C3FC040021D0012C87
:104A600009D0601C09D0002239463046FFF769FFA3
:104A7000050016D103E0022513E0012511E0D6F868
:104A80001002411C08D0401CC6F8100296F805021E
:104A900040F0010086F805022746D6F81402B84215
:104AA000D7D82846BDE8F08101B582B064200090D7
:104AB000012301AA02A90348FCF758FA9DF8040053
:104AC0000EBD0000A808002081760A0AC2760A0CF2
:104AD0000275090E41757047014600200B224308FC
:104AE00003EBC01011F8013B521E1844C0B2F6D1BE
:104AF000704770B5044600F057F8050052D194F89D
:104B00000002032846D194F80502012842D142024E
:104B100000212046FFF7F3FE552084F8FE01AA206D
:104B200084F8FF015220207060706120A070412144
:104B3000E170722284F8E42184F8E52184F8E6111A
:104B400084F8E701D4F8100284F8E801010A84F837
:104B5000E911010C84F8EA11000E84F8EB01D4F895
:104B60000C0284F8EC01010A84F8ED11010C84F8C0
:104B7000EE11000E84F8EF01D4F81C220123521C20
:104B8000C4F82C2294F801022146FEF771FE0020A1
:104B900084F80502002294F801021146FEF740FE57
:104BA00000B10125284670BD2DE9F041044690F87A
:104BB0000402002728B3D4F82C5294F801020123F0
:104BC0002A462146FEF754FE08B1012719E00020CD
:104BD00084F80402D4F82002D4F81812281A884263
:104BE0000FD294F803620AE0D4F8180201230544B6
:104BF00094F801022A462146FEF73AFE761E022E5E
:104C0000F2D23846BDE8F08110B588B1D0F8001274
:104C100071B191F800225AB1B1F80622B0F804023D
:104C2000824205D191F80102FEF716FEC00700D0BE
:104C3000092010BD00000000000000000102030474
:104C4000060708090000000001020304809A90B6DC
:104C50008EB78F80D2D3D4D8D7DE8E8F909292E247
:104C600099E3EAEB59999A9D9C9D9E9FB5D6E0E900
:104C7000A5A5A6A7A8A9AAABAC21AEAFB0B1B2B307
:104C8000B4B5B6B7B8B9BABBBCBDBEBFC0C1C2C36C
:104C9000C4C5C7C7C8C9CACBCCCDCECFD0D1D2D35B
:104CA000D4D5D6D7D8D9DADBDCDDDEDFE0E1E2E34C
:104CB000E5E5E6E7E7E9EAEBEDEDEEEFF0F1F2F33B
:104CC000F4F5F6F7F8F9FAFBFCFDFEFF0103050722
:104CD000090E10121416181C1E0000040002000118
:104CE00080004000200010000800040002000000C6
:104CF000008000400020001000080040002000104C
:104D0000000800040002C700FC00E900E200E40023
:104D1000E000E500E700EA00EB00E800EF00EE004D
:104D2000EC00C400C500C900E600C600F400F600AF
:104D3000F200FB00F900FF00D600DC00F800A30041
:104D4000D800D7009201E100ED00F300FA00F10075
:104D5000D100AA00BA00BF00AE00AC00BD00BC008C
:104D6000A100AB00BB0091259225932502252425A7
:104D7000C100C200C000A9006325512557255D254B
:104D8000A200A5001025142534252C251C2500255E
:104D90003C25E300C3005A25542569256625602576
:104DA00050256C25A400F000D000CA00CB00C8003C
:104DB0003101CD00CE00CF0018250C258825842593
:104DC000A600CC008025D300DF00D400D200F5007F
:104DD000D500B500FE00DE00DA00DB00D900FD00E2
:104DE000DD00AF00B400AD00B1001720BE00B6007A
:104DF000A700F700B800B000A800B700B900B300E2
:104E0000B200A025A000610062006300640065009C
:104E100066006700680069006A006B006C006D0046
:104E20006E006F00700071007200730074007500F6
:104E300076007700780079007A00A100A200A30034
:104E4000A500AC00AF00E000E100E200E300E400F8
:104E5000E500E600E700E800E900EA00EB00EC000E
:104E6000ED00EE00EF00F000F100F200F300F400BE
:104E7000F500F600F800F900FA00FB00FC00FD0068
:104E8000FE00FF00010103010501070109010B01FB
:104E90000D010F01110113011501170119011B016A
:104EA0001D011F01210123012501270129012B01DA
:104EB0002D012F0131013301350137013A013C0148
:104EC0003E01400142014401460148014B014D01B0
:104ED0004F01510153015501570159015B015D011A
:104EE0005F01610163016501670169016B016D018A
:104EF0006F0171017301750177017A017C017E01F7
:104F00009201B103B203B303B403B503B603B7030D
:104F1000B803B903BA03BB03BC03BD03BE03BF039D
:104F2000C003C103C303C403C503C603C703C80347
:104F3000C903CA0330043104320433043404350491
:104F400036043704380439043A043B043C043D0475
:104F50003E043F0440044104420443044404450425
:104F600046044704480449044A044B044C044D04D5
:104F70004E044F045104520453045404550456047F
:104F80005704580459045A045B045C045E045F042B
:104F9000702171217221732174217521762177216D
:104FA000782179217A217B217C217D217E217F211D
:104FB00041FF42FF43FF44FF45FF46FF47FF48FFD5
:104FC00049FF4AFF4BFF4CFF4DFF4EFF4FFF50FF85
:104FD00051FF52FF53FF54FF55FF56FF57FF58FF35
:104FE00059FF5AFF000041004200430044004500C1
:104FF00046004700480049004A004B004C004D0065
:105000004E004F0050005100520053005400550014
:1050100056005700580059005A002100E0FFE1FFF8
:10502000E5FFE2FFE3FFC000C100C200C300C4000F
:10503000C500C600C700C800C900CA00CB00CC002C
:10504000CD00CE00CF00D000D100D200D300D400DC
:10505000D500D600D800D900DA00DB00DC00DD0086
:10506000DE007801000102010401060108010A01C5
:105070000C010E01100112011401160118011A0190
:105080001C011E01200122012401260128012A0100
:105090002C012E01300132013401360139013B016E
:1050A0003D013F0141014301450147014A014C01D6
:1050B0004E01500152015401560158015A015C0140
:1050C0005E01600162016401660168016A016C01B0
:1050D0006E01700172017401760179017B017D011D
:1050E000910191039203930394039503960397030D
:1050F000980399039A039B039C039D039E039F03BC
:10510000A003A103A303A403A503A603A703A80365
:10511000A903AA03100411041204130414041504AF
:1051200016041704180419041A041B041C041D0493
:105130001E041F0420042104220423042404250443
:1051400026042704280429042A042B042C042D04F3
:105150002E042F04010402040304040405040604BD
:105160000704080409040A040B040C040E040F04C9
:10517000602161216221632164216521662167210B
:10518000682169216A216B216C216D216E216F21BB
:1051900021FF22FF23FF24FF25FF26FF27FF28FFF3
:1051A00029FF2AFF2BFF2CFF2DFF2EFF2FFF30FFA3
:1051B00031FF32FF33FF34FF35FF36FF37FF38FF53
:1051C00039FF3AFF0000000053797374656D206960
:1051D0006E69742D2D2D2D2D2D2D2D2D2D2D2D2D3B
:1051E0002D2D2D2D2D2D2D2D2D2D2D2D2D2D2D2DEF
:1051F0002D2D2D2D2D2D2D2D2D2D2D2D2D2D2D2DDF
:105200002D2D2D2D2D2D2D2D2D2D2D2D2D2D2D2DCE
:105210002D2D2D2D2D2D2D2D2D2D2D2D2D2D2D2DBE
:105220002D2D2D2D2D200D0A000000004C520008C0
:1052300000000020A8080000BC01000894520008EB
:10524000A8080020282F0000902D0008200B303ADD
:105250004C6F67372E74787413792C1408092D1B42
:1052600008E7081A1D081A9908C1320182103B2468
:10527000F412B5020DA5A5220E07FFAAAAAAEEEE0A
:10528000EE01FF01FF01FF01FF01FF01FF01FF012F
:04529000460211FFC2
:04000005080000ED02
:00000001FF
