:020000040800F2
:1000000038110020010100080B1A0008111800081F
:10001000091A0008CB0100080124000800000000B4
:10002000000000000000000000000000511A00085D
:1000300057020008000000000D1A0008531A0008BB
:100040001B0100081B0100081B0100081B01000820
:100050001B0100081B0100081B0100081B01000810
:100060001B0100081B0100081B0100081B01000800
:10007000E5010008F1010008FD010008090200087F
:1000800015020008210200081B0100081B010008DE
:100090001B0100081B0100081B0100081B010008D0
:1000A0001B0100081B0100081B0100081B010008C0
:1000B0001B010008BD1A00081B0100081B010008F5
:1000C0001B0100081B0100081B0100081B010008A0
:1000D0001B01000809210008D1210008F5230008B0
:1000E0001B0100081B0100081B010008DFF80CD0F1
:1000F00000F03CF800480047912400083811002027
:100100000648804706480047FEE7FEE7FEE7FEE7B1
:10011000FEE7FEE7FEE7FEE7FEE7FEE7BB1A0008A4
:10012000ED00000840EA01039B0703D009E008C97D
:10013000121F08C0042AFAD203E011F8013B00F8AC
:10014000013B521EF9D27047D2B201E000F8012BF8
:10015000491EFBD270470022F6E710B513460A4647
:1001600004461946FFF7F0FF204610BD064C074D28
:1001700006E0E06840F0010394E807009847103477
:10018000AC42F6D3FFF7B6FF1C2600083C26000859
:1001900030B58C1810F8012B12F00F0301D110F8B4
:1001A000013B120906D110F8012B03E010F8015BA6
:1001B00001F8015B5B1EF9D101E001F8013B521E21
:1001C000FBD1A142E6D3002030BDFEE710B50346C7
:1001D0000078012202E09C5C6040521C8A42FADBFB
:1001E00010BD0000014800F0A9B80000F00A00208E
:1001F000014800F0A3B80000AC0A0020014800F05C
:100200009DB80000E0090020014800F097B8000008
:100210009C090020014800F091B80000240A002049
:10022000014800F08BB80000680A002030B590F853
:1002300040500124AC40C56B6C6004686360436847
:10024000102B036803D099600068C26030BD9A60CB
:100250000068C16030BD704772B6FEE710B590F817
:1002600021100022022905D00421816380F820207A
:10027000012010BD01680B6823F00E030B600168BC
:100280000B6823F001030B6090F84030C46B012130
:1002900001FA03F3636080F8211080F820201046F3
:1002A00010BD000010B590F821100024022903D0E1
:1002B0000421816301243DE001680A6822F00E02F6
:1002C0000A6001680A6822F001020A601A4A01689D
:1002D000914201D1012121E0174A1432914201D10A
:1002E00010211BE0144A2832914201D1891515E0F2
:1002F000114A3C32914201D189140FE00E4A50322A
:10030000914202D14FF4803108E00B4A64329142AD
:1003100002D14FF4801101E04FF08071064A083A93
:100320005160012180F82110002180F82010416BDC
:1003300001B18847204610BD080002402DE9F05F5A
:10034000C16B0C6801680B68D0F840C0042202FA47
:100350000CF2494DDFF824A1494E4A4FDFF828B18D
:10036000DFF828E122422CD05A072AD50A689206E3
:1003700003D40A6822F004020A600168A94201D18C
:10038000042219E0514501D1402215E0B14202D1C9
:100390004FF4806210E0B94202D14FF480420BE08A
:1003A000594502D14FF4802206E0714502D14FF445
:1003B000800201E04FF080622F4908394A60C16A2B
:1003C0003BE04FF0020808FA0CF818EA040F4FF06F
:1003D00000094FF0010235D05FEA837832D50B680F
:1003E0009B0605D40B6823F00A030B6080F82120DC
:1003F0000168A94201D1022219E0514501D1202210
:1004000015E0B14202D14FF4007210E0B94202D1BE
:100410004FF400520BE0594502D14FF4003206E090
:10042000714502D14FF4001201E04FF00072124901
:1004300008394A6080F82090816A00291AD0BDE806
:10044000F05F0847082505FA0CF5254212D01B0776
:1004500010D50B6823F00E030B6090F84010C36BAF
:1004600002FA01F15960826380F8212080F820901F
:10047000016BE2E7BDE8F09F080002401C0002406B
:100480003000024044000240580002406C0002402C
:1004900030B528B308C8134914221944B1FBF2F14E
:1004A0008900C16310498163022141771A6843F6CC
:1004B000F0718A43D0E900142143D0E902452C436E
:1004C0002143046921434469214384692143114341
:1004D000196000214163012242770177084630BD4F
:1004E000012030BDF8FFFDBF0000024070B504469A
:1004F00090F82000002501280CD0012084F820006D
:1005000094F821600020012E06D084F820000225F6
:10051000284670BD022070BD022684F82160A063C9
:100520002068066826F0010606602046FFF77EFE7A
:10053000E06A00282068016802D041F00E0106E060
:1005400021F0040101602068016841F00A010160A6
:100550002068016841F001010160D9E770B50446E7
:1005600000F0FEF80546601C02D004480078044400
:1005700000F0F6F8401BA042FAD370BD080000203E
:100580002DE9F84FDFF8B891002409F1040A0AF1C7
:10059000040B23460F270BF1040EC9E00125A540EB
:1005A0002A40AA427DD1674ED1F804C0ACEB0608C0
:1005B000B44532D014DCBCF1030F3AD009DCBCF1F5
:1005C000000F2AD0BCF1010F1CD0BCF1020F31D1B9
:1005D0001DE0BCF1110F17D0BCF1120F2AD119E0A8
:1005E000B8F5881F19D006DCB8F5803F15D0B8F5EE
:1005F000801F1FD111E0B8F5001F0ED0B8F5041F01
:1006000018D10AE0CB6815E0CB681B1D12E0CB685F
:1006100008330FE0CB680C330CE08B682BB1012B57
:100620004FF0080303D0456104E0042302E00561B4
:1006300000E00023FF2A01D8064601E000F104068D
:100640004FEA840501D9A5F12005D6F8008007FA04
:1006500005FC28EA0C0803FA05F548EA0508C6F87F
:1006600000804D68ED0062D5374DAE6946F0010659
:10067000AE61AD6924F0030605F001050095334D28
:1006800006EB050CDCF80850A607360F07FA06F84B
:1006900025EA0805DFF8B880404503D14FF000088F
:1006A00017E044E0DFF8AC80404502D14FF001088C
:1006B0000FE0DFF8A480404502D14FF0020808E0C7
:1006C000DFF89880404502D14FF0030801E04FF079
:1006D000040808FA06F848EA0508CCF808804D68CE
:1006E000D9F80060ED034D4601D5164300E096436E
:1006F0002E604D68DAF80060AD03554601D516430B
:1007000000E096432E604D68DBF80060ED025D4628
:1007100001D5164300E096432E604D68DEF8006078
:10072000AD02754601D5164300E096432E60641C69
:100730000D682A46E5407FF431AFBDE8F88F000030
:1007400000040140000011100010024000000140B0
:1007500000080140000C014000100140001401405D
:1007600001488068704700000800002070B5040050
:1007700011D021684CF6CC400860216845F25550F4
:100780000860D4E9000141602168A0688860FFF733
:10079000E7FF05460DE0012070BD00BFFFF7E0FF59
:1007A000401B272805D92068C068800701D0032096
:1007B00070BD2068C0688007F0D121684AF6AA2081
:1007C0000860002070BD00684AF6AA210160002080
:1007D00070470000024881680278114481607047C8
:1007E00008000020074810B5016841F010010160C1
:1007F000032000F079F8002000F006F800F024F85B
:10080000002010BD0020024070B50D4D04464FF48D
:100810007A712878B1FBF0F00A490968B1FBF0F071
:1008200000F0F0FA48B9102C07D200222146501EE1
:1008300000F03AF800206C6070BD012070BD00002F
:1008400008000020140000200E4808B5816941F01E
:1008500001018161816901F001010091C16941F0EB
:100860008051C161C06900F080500090052000F007
:100870003BF80548416821F0E06141F000714160BA
:1008800008BD00000010024000000140002809DB04
:1008900000F01F02012191404009800000F1E0209A
:1008A000C0F8001170470000F0B40E4B1B680C46F6
:1008B000C3F30223C3F10705042D00D90425191D34
:1008C000072901D2002300E0DB1E012606FA05F10C
:1008D000491E214099409E40761E16403143F0BC8F
:1008E00001F08FBD0CED00E0064900F0070208683A
:1008F0004FF6FF03184040EA0220034A1043086005
:10090000704700000CED00E00000FA052DE9F0470B
:100910000F46050061D0434E306800F00700B84232
:1009200009D2306820F0070038433060306800F0AA
:100930000700B84251D128683B4C810712D54007C7
:1009400003D5606840F4E06060602878000703D554
:10095000606840F4605060606068A96820F0F00052
:10096000084360602878C00728D06868012810D044
:100970002168022810D0890700292EDA616821F049
:10098000030101436160FFF7EBFE804641F28839C5
:100990000DE021688903EFE78901EDE7FFF7E0FE4D
:1009A000A0EB0801494502D90320BDE8F087606843
:1009B000696800F00C00B0EB810FEFD1306800F0F7
:1009C0000700B8420BD9306820F007003843306088
:1009D000306800F00700B84201D00120E5E7287830
:1009E000400705D56068E96820F4E060084360606E
:1009F0002878000706D56068296920F4605040EA2D
:100A0000C100606000F038F86168084AC1F3031162
:100A1000515CC8400649086006480068FFF7F4FECC
:100A20000020C2E700200240001002400426000817
:100A3000140000200C0000200448054900684968A3
:100A4000044AC1F30221515CC840704714000020E1
:100A5000001002401426000804480549006849684F
:100A6000044AC1F3C221515CC84070471400002001
:100A7000001002401426000812A185B00FC98DE8AD
:100A80000F0014A0144A006804905168134801F044
:100A90000C03042B10D0082B0ED1C1F38343C903E0
:100AA0001DF803000AD5516804AAC1F34041515C06
:100AB0000A4A5043B0FBF1F005B07047084948437B
:100AC000FAE7000002030405060708090A0B0C0DEB
:100AD0000E0F1010010200000010024000127A00F8
:100AE00000093D002DE9F84F040070D02078C04D7A
:100AF000C00749D06868C0F38100012807D0686842
:100B0000C0F38100022809D16868C00306D52868AF
:100B1000800339D560680028E7D035E06068B0F51B
:100B2000803F0BD010B1B0F5A02F11D0286820F471
:100B300080302860286820F4802002E0286840F493
:100B400080302860606890B1FFF70AFE06460AE030
:100B5000286840F480202860F0E700BFFFF700FE1F
:100B6000801B642873D828688003F7D50CE0FFF752
:100B7000F7FD064605E000BFFFF7F2FD801B642885
:100B8000F0D828688003F7D420789A4E80074FF079
:100B900001094FF0000839D5686810F00C0F07D034
:100BA0006868C0F38100022809D16868C00306D4D0
:100BB0002868800714D52069012808D110E0206931
:100BC000B0B1C6F80090FFF7CBFD074605E00AE19B
:100BD000FFF7C6FDC01B0228C4D828688007F7D5D8
:100BE0002868616920F0F80040EAC10028600DE043
:100BF000C6F80080FFF7B4FD074604E0FFF7B0FD3C
:100C0000C01B022823D828688007F7D42078000763
:100C10002CD57948A169D9B1C0F80090FFF7A0FDA3
:100C2000074604E0FFF79CFDC01B02280FD8686A46
:100C30008007F7D571484FF4FA510068B0FBF1F026
:100C4000009000BF0098411E0091FAD20EE080E0B3
:100C5000C0F80080FFF784FD074604E0FFF780FD41
:100C6000C01B022875D8686A8007F7D4207840072F
:100C700060D5E8690027C00008D4E86940F08050DA
:100C8000E861E869012700F0805000905C48016845
:100C9000C90513D40168834641F480710160FFF7F0
:100CA0005FFD824606E000BFFFF75AFDA0EB0A0099
:100CB00064284ED8DBF80000C005F5D5E0680128AF
:100CC0000AD008B1052813D0286A20F00100286254
:100CD000286A20F0040002E0286A40F0010028623F
:100CE000E06841F2883B98B1FFF73AFD82460BE09D
:100CF000286A40F004002862EEE700BFFFF730FDED
:100D0000A0EB0A0159455AD8286A8007F6D50CE0AD
:100D1000FFF726FD824605E0FFF722FDA0EB0A0162
:100D200059454CD8286A8007F6D41FB1E86920F0ED
:100D30008050E861E06988B36968C1F381010229E4
:100D400044D00228C6F8608004D0FFF709FD0446AD
:100D500038E034E0FFF704FD074604E0FFF700FD4C
:100D6000C01B02282BD828688001F7D4206AB0F570
:100D7000803F05D16868A16820F4003008436860AE
:100D8000D4E908010843696821F4741108436860D4
:100D9000C6F86090FFF7E4FC044606E025E000BFDB
:100DA000FFF7DEFC001B022809D828688001F7D570
:100DB0001BE000BFFFF7D4FC001B022802D9032070
:100DC000BDE8F88F28688001F4D40EE00128F7D040
:100DD0006868226A00F48031914204D1616A00F4AB
:100DE0007010884201D00120EAE70020E8E7000007
:100DF00000100240000042428004424214000020E1
:100E00000070004010B5401EB0F1807F01D301207A
:100E100010BD4FF0E02460610F21601701F0F1FA7E
:100E20000020A06107202061002010BD704770479E
:100E300070B590F83C20012A26D0012480F83C406F
:100E4000022280F83D2003685A689D6822F07006EF
:100E50000A6832435A600D4B02689A4208D0B2F1D8
:100E6000804F05D00A4B9A4202D00A4B9A4204D1D5
:100E7000496825F080031943916080F83D400021C6
:100E800080F83C10084670BD022070BD002C014067
:100E9000000400400008004010B5040003D094F89E
:100EA0003D0010B107E0012010BD002084F83C0097
:100EB000204600F01FF8022084F83D00211D206824
:100EC00000F002FE012084F8460084F83E0084F819
:100ED0003F0084F8400084F8410084F8420084F820
:100EE000430084F8440084F8450084F83D00002065
:100EF00010BD000008B500680B49884212D10B48AC
:100F0000C16941F00201C161C069032200F0020021
:100F1000009000211D20FFF7C7FCBDE808401D2000
:100F2000FFF7B4BC08BD0000000400400010024000
:100F300090F83D10012901D001207047022180F86E
:100F40003D100168CA6842F00102CA6000680B499E
:100F5000884208D0B0F1804F05D00949884202D0BC
:100F60000849884204D1816801F00701062903D0AD
:100F7000016841F00101016000207047002C014030
:100F8000000400400008004070B5044690F83C00A2
:100F9000012817D0012584F83C50022084F83D0038
:100FA0002068826822F0770222F47F42826008681B
:100FB000502830D00DDC20284DD005DC98B3102807
:100FC0003BD148E0022070BD302844D0402834D1C5
:100FD00039E0602828D0702806D0B0F5805F2CD08A
:100FE000B0F5005F29D10AE0CB68D1E90121206882
:100FF00000F0A0FD2068816841F0770109E0CB682E
:10100000D1E90121206800F095FD2068816841F454
:101010008041816011E0CA684968206800F09CFD49
:101020005021206807E016E0CA684968206800F08F
:10103000A4FD6021206800F087FD84F83D50002069
:1010400084F83C0070BDCA684968206800F084FDDF
:1010500040212068EFE7226801461046EBE7704721
:1010600070B50446006801694FF00005C94389075F
:1010700015D4C168C943890711D4E91E0161012053
:101080002077206880698007204602D0FFF7E7FFBD
:1010900004E000F098F8204600F096F825772068E4
:1010A0000169C943490717D4C168C943490713D423
:1010B0006FF004010161022020772068806910F43C
:1010C000407F204602D0FFF7CAFF04E000F07BF823
:1010D000204600F079F8257720680169C94309079F
:1010E00016D4C168C943090712D46FF00801016121
:1010F000042020772068C0698007204602D0FFF7CF
:10110000AEFF04E000F05FF8204600F05DF82577C0
:1011100020680169C943C90617D4C168C943C90613
:1011200013D46FF010010161082020772068C06996
:1011300010F4407F204602D0FFF791FF04E000F05A
:1011400042F8204600F040F8257720680169C9433D
:10115000C90708D1C168C943C90704D1891E016103
:10116000204600F032F820680169C943090609D415
:10117000C168C943090605D46FF0800101612046AA
:10118000FFF754FE20680169C943490609D4C168C4
:10119000C943490605D46FF040010161204600F0C3
:1011A00015F820680169C94389060BD4C168C94391
:1011B000890607D46FF0200101612046BDE8704028
:1011C000FFF735BE70BD7047704770477047704776
:1011D00010B504460068416994F83D20C1F3C01180
:1011E000212A0BD151B1416921F080014161606B2D
:1011F00008B1FFF733F8204600F050FD2068416940
:1012000094F83E20C1F38011222A0BD151B14169DB
:1012100021F040014161A06B08B1FFF71FF82046A3
:1012200000F024FD002010BD70470000F8B50268F2
:1012300004461068D168536910F00F0F4FF0000595
:1012400053D003F0010601F4907737435FD0C20713
:1012500005D0CA0503D5226C42F001022264420780
:1012600005D5DA0703D0226C42F00202226482071D
:1012700005D5DA0703D0226C42F00402226402078B
:1012800007D501F02002324303D0226C42F008025D
:101290002264226C002A34D0800604D5880602D548
:1012A000204600F004FD20684069216CC0F38010E6
:1012B000090700D430B3204600F0D8FC206841690B
:1012C00049061BD5416921F040014161A06BA8B1DD
:1012D00058494163A06BFEF7E5FF002811D0A06BD1
:1012E000416B01B0BDE8F040084783060FD58B067F
:1012F0000DD52046BDE8F84000F0D9BC2046FFF7E8
:1013000093FFF8BD2046FFF78FFF2564F8BD266BDD
:101310002023012E52D1C60650D5CE064ED51068D8
:1013200050680090506940062AD5A16B0868406853
:101330000004000CEAD0A68D8642E7D9E0858869D2
:10134000202818D0D06820F48070D06020684169CF
:1013500021F0010141612068416921F040014161B2
:1013600084F83E3025632068C16821F01001C16017
:10137000A06BFEF773FFA08DE18D401A81B219E0DA
:10138000A08DE18D401A81B2E08D0028BED00029E9
:10139000BCD0D06820F49070D0602068426922F000
:1013A0000102426184F83E3025632068C26822F061
:1013B0001002C2602046FFF70AFFF8BD05062BD5D4
:1013C0000D0629D594F83D002128F6D1A068B0F586
:1013D000805F01D12069B0B1206A411C216221687F
:1013E00000784860E08C401E0004000CE084E4D1EA
:1013F0002068C16821F08001C1602068C16841F0A7
:101400004001C160F8BD206A0088C0F30800506048
:10141000206A801C2062E5E74006F3D54806F1D536
:10142000D168204621F04001D16084F83D3000F0C1
:10143000EEF9F8BD9F1B000870B5040004D094F8C5
:101440003D00002510B106E0012070BD84F83C503D
:10145000204600F023F8242084F83D002068C1686D
:1014600021F40051C160204600F07CFC2068016935
:1014700021F4904101612068416921F02A01416114
:101480002068C16841F40051C1602564202084F8BF
:101490003D0084F83E00002070BD00002DE9F047BB
:1014A00086B0002500950195029503950446D0F875
:1014B00000C09648DFF8508202210322944B802717
:1014C00086144FF4806A4FF01009C4455BD1D0F800
:1014D00018C04CF4804CC0F818C0D0F818C00CF4F8
:1014E000804CCDF810C0D0F818C04CF0040CC0F8F7
:1014F00018C08069039200F0040004900802CDE94E
:101500000001694698461846FFF73AF8CDF800A062
:10151000AA460195694640460295FFF731F8DFF883
:10152000F8817C494046C0E90015C0E90257C8F877
:101530001050C8F81450C8E90656FEF7A9FF08B1C4
:10154000FEF78AFE744D7348C4F838804435143869
:10155000C8F82440C5E90009C5E902A7C5F810A0EC
:10156000C5F814A0C5E906A62846FEF791FF08B104
:10157000FEF772FE65630222002125206C62FFF7F0
:1015800093F9252061E0DFF89481C44562D1D0F859
:101590001CC04CF4003CC0F81CC0D0F81CC00CF4BB
:1015A000003CCDF810C0D0F818C04CF0040CC0F8C6
:1015B00018C08069039200F0040004900420CDE973
:1015C0000001694698461846FEF7DAFF0820CDE983
:1015D0000005AA46694640460295FEF7D1FFDFF8AE
:1015E00038814C4908F1880840461431C0E900159B
:1015F000C0E90257C8F81050C8F81450C8E9065698
:10160000FEF746FF08B1FEF727FE434D4148C4F8F8
:101610003880CC352830C8F82440C5E90009C5E930
:1016200002A7C5F810A0C5F814A0C5E906A628466B
:10163000FEF72EFF08B1FEF70FFE656301220021C1
:1016400026206C62FFF730F92620FFF71FF906B05D
:10165000BDE8F087324B9C45F9D1C36943F4802340
:10166000C361C36903F480230493836943F00803CF
:1016700083618069CDE900A100F00800CDE9032075
:10168000DFF8A08069464046FEF77AFF4FF400601D
:10169000CDE90005694640460295FEF771FFDFF887
:1016A00088A01C4950462839C0E90015C0E90257F6
:1016B000CAF81050CAF81450CAE90656B846FEF7E0
:1016C000E7FE08B1FEF7C8FD174FC4F838A044374D
:1016D000CAF82440C7E902580E483D613C387D6194
:1016E000C7E90009C7E906563846FEF7D1FE08B13A
:1016F000FEF7B2FD67630122002127207C62FFF71D
:10170000D3F82720A1E70000003801400010024074
:1017100000080140580002409C090020004400409D
:1017200000480040000C0140AC0A002090F83E3018
:10173000202B0ED159B152B190F83C30012B08D07A
:10174000012380F83C300023036300F067BB0120D5
:101750007047022070477047704700002DE9F8433A
:10176000044690F83D001F4616460D4620284CD1F1
:10177000C5B1BEB194F83C00012846D0012084F8E0
:101780003C004FF00008C4F84080212084F83D0060
:10179000FEF7E6FFA6848146E684A068B0F5805F88
:1017A00003D004E00120BDE8F883206928B12E466B
:1017B0005FF0000584F83C800EE00026FAE7802107
:1017C000204600F063FBA0B9AEB116F8010B21680A
:1017D0004860E08C401EE084E08C4B464FF00002F5
:1017E00000970028EBD14FF04001204600F04EFB5F
:1017F00030B10320D7E735F8020BC0F30800E6E765
:10180000202084F83D000020CDE70220CBE7704780
:10181000FEE700001D4808B5416941F00101416142
:101820004069002200F00100009011460C20FFF7F3
:101830003BF80C20FFF72AF8002211460D20FFF795
:1018400033F80D20FFF722F8002211460E20FFF793
:101850002BF80E20FFF71AF8002211460F20FFF791
:1018600023F80F20FFF712F8002211461020FFF78F
:101870001BF81020FFF70AF8002211461120FFF78D
:1018800013F8BDE808401120FFF700B8001002402F
:101890000D4808B5816941F020018161816901F03D
:1018A00020010091816941F004018161816901F0A9
:1018B00004010091816941F008018161806900F0B3
:1018C0000800009008BD000000100240094810B553
:1018D000074901600621416040F62F418160FEF713
:1018E00045FF002803D0BDE81040FEF7B5BC10BD91
:1018F000003000407C08002010B586B00024174856
:101900000094019402940394049413490594016093
:101910004721C0E9011440F2E731C0E903148461B2
:10192000FFF7BAFA08B1FEF797FC4FF48050009029
:1019300069460A48FFF728FB08B1FEF78DFC0494BE
:1019400004A906480594FFF773FA002801D0FEF7B2
:1019500083FC06B010BD0000000400408808002091
:101960000C4810B50A4901604FF41651416000213E
:1019700081600C22C160C0E904128161C161FFF77E
:101980005BFD002803D0BDE81040FEF765BC10BD2C
:1019900000380140D00800200C4810B50A49016009
:1019A0004FF416514160002181600C22C160C0E9F2
:1019B00004128161C161FFF73FFD002803D0BDE83B
:1019C0001040FEF749BC10BD00440040140900203F
:1019D0000C4810B50A4901604FF4165141600021CE
:1019E00081600C22C160C0E904128161C161FFF70E
:1019F00023FD002803D0BDE81040FEF72DBC10BD2C
:101A00000048004058090020FEE7FEE7704700004C
:101A100070B50D4C4FF4FA7504F5C9662846FEF70B
:101A20009DFD09496423122212390848FFF796FEEA
:101A30002846FEF793FD2A4631460448FFF776FE16
:101A400020880028EAD070BD2C0000201409002056
:101A50007047FEF7BFBE30B58FB028216846FEF74D
:101A60007AFB14210AA8FEF776FB092001210090D9
:101A70004FF48030002404910691CDE90104022541
:101A8000CDE907504FF4E01009906846FFF72AF8B7
:101A900008B172B6FEE70F20CDE90A054FF4806069
:101AA000CDE90C4002210AA80E94FEF72FFF002872
:101AB00001D072B6FEE70FB030BD70470148FFF7A6
:101AC000CFBA000088080020F0B50268164B174C0A
:101AD000174D4FF08047984205D0B84203D0A0423E
:101AE00001D0A84203D122F070064A6832439842DE
:101AF00005D0B84203D0A04201D0A84203D122F4BD
:101B00004074CA6822434C6922F08002224302607A
:101B10008A68C2620A688262984201D109690163D7
:101B200001214161F0BD0000002C01400004004093
:101B30000008004010B5846842EA032224F47F4480
:101B40000A432243826010BD826822F070020A4379
:101B500042F007018160704710B5036A046A24F0FF
:101B600001040462846924F0F00444EA021423F0BE
:101B70000A020A438461026210BD10B5036A23F0B1
:101B8000100303628369046A23F4704343EA023258
:101B900024F0A00343EA01118261016210BD10B577
:101BA000406A0021C185C184FFF73EFB10BD70B5BE
:101BB000446A2068406994F83D10C0F3C0100025C5
:101BC000212904D118B1E584204600F067F8206887
:101BD000406994F83E10C0F38010222904D118B156
:101BE000E585204600F042F8206C40F010002064AB
:101BF0002046FFF719FB70BD10B50146406A096821
:101C0000096889061BD40021C1850168CA6822F4CD
:101C10008072CA6001684A6922F001024A61016863
:101C20004A6922F040024A61202180F83E10016B8F
:101C3000012904D10168CA6822F01002CA60016B50
:101C4000012902D0FFF787FD10BD818DFFF7BFFA94
:101C500010BD10B5406A016B012902D0FFF77CFD71
:101C600010BD818D4908FFF7B2FA10BD0168CA683E
:101C700022F49072CA6001684A6922F001024A6146
:101C8000016B012904D10168CA6822F01002CA6000
:101C9000202180F83E100021016370470168CA6866
:101CA00022F0C002CA60202180F83D10704708B5BC
:101CB00090F83E10222901D0022008BD82684FF41E
:101CC00080539A4201D1016921B1816A9A421BD0A5
:101CD0004AB10AE00268816A5268C2F308020A80C7
:101CE000816A891C08E0026972B10268526802F0D8
:101CF0007F020A70816A491C8162C18D491E0904F4
:101D0000090CC18503D019E002685268F1E7016847
:101D1000CA6822F02002CA600168CA6822F4807290
:101D2000CA6001684A6922F001024A61202180F8F4
:101D30003E10016B012903D0FFF70DFD002008BD07
:101D4000002101630168CA6822F01002CA600168BC
:101D50000A68D20602D50A6849680091818DFFF7AA
:101D600036FAEBE770B5044600680169E26821F4D1
:101D70004051114301612169A0680843616908432A
:101D80002168CA6841F20C639A430243CA60206822
:101D90004169A26921F44071114341611E492068E3
:101DA000884202D1FEF758FE01E0FEF745FE00EB47
:101DB000C00101EB0012606864218000B2FBF0F307
:101DC000B3FBF1F36FF018067343B2FBF0F5B2FB0F
:101DD000F0F605EB8305322303EB0515B5FBF1F5B2
:101DE000B6FBF1F605F0F00505EB0615B2FBF0F6D3
:101DF000B2FBF0F0B0FBF1F06FF01802504306EBCD
:101E0000800003EB0010B0FBF1F0216800F00F0040
:101E10002844886070BD00000038014038B58162F8
:101E200082850025134604460564222084F83E007E
:101E3000A26B13489062A26B1248D062A26B124848
:101E40001063A06B0A4645632168A06B091DFEF76D
:101E50004DFB206801684168009184F83C50C168DE
:101E600041F48071C1602068416941F00101416124
:101E70002068416941F040014161002038BD000007
:101E8000F91B0008531C0008AF1B00082DE9F041A6
:101E9000984617460E460446069D1DE0681C1BD05A
:101EA0002DB1FEF75DFCA0EB0800A84214D9206814
:101EB000C16821F4D071C1602068416921F001013D
:101EC0004161202084F83D0084F83E00002084F821
:101ED0003C000320BDE8F0812068006836EA00007D
:101EE00004D00020B842D9D00020F3E70120F9E760
:101EF00070B50A4C4FF4FA6304F51871B4F8402831
:101F00000D46074804F50464FFF728FC218828469D
:101F1000FEF721F90020208070BD00002C00002079
:101F2000D00800202DE9F041804601F10B0617464C
:101F30000D46304600F030FB04460520207000229C
:101F400062700123A370A91DE170380A20716771C6
:101F5000A2710720E071237265722A46414604F19E
:101F60000A00FEF7DFF805F10A0081B22046FEF70D
:101F70002DF96119B2B288724FF47A732146044880
:101F8000FFF7ECFB2046BDE8F04100F059BA000035
:101F9000140900202DE9F047594D002429462A88CC
:101FA00001F108004FF47A767700B1F84218A046A4
:101FB000012A0FD0022A5CD0032A5AD164297DD984
:101FC000C823A91C4F48FFF7C9FB3046FEF7C6FAE5
:101FD000B1466EE064294FF003024CD90321A81CDE
:101FE000FFF7A0FF3046FEF7B9FA19E004EBC40092
:101FF00000EB041005EB800608360322642130460E
:10200000FFF790FF3846FEF7A9FA30466421FEF745
:10201000A2F8B5F842086438641CA5F84208E4B296
:10202000B5F842086428E1D281B204EBC40000EBA9
:10203000041005EB800003220830FFF773FF3846D9
:10204000FEF78CFA03221146681DFFF76BFF4FF471
:10205000FA7000BFFEF782FA04EBC40000EB041034
:1020600005EB8000B5F842180830FEF774F8A5F8C3
:102070004288BDE8F087FFF755FF3EE004EBC4005F
:1020800000EB041005EB800608364B46642231460F
:102090001C48FFF763FB3846FEF760FA30466421C0
:1020A000FEF759F8B5F842086438641CA5F84208F0
:1020B000E4B2B5F842086428E0D200E017E082B24A
:1020C00004EBC40000EB041005EB80014E464B46C8
:1020D0000C480831FFF742FB3846FEF73FFAC823A9
:1020E0000322691D0748FFF739FB3046B2E70A466D
:1020F000014633460348FFF731FB3846AAE70000A4
:102100002C0000201409002038B517480068016829
:10211000406800901448FFF75BF814494FF44010F2
:102120004860134800684068124CC0F5FA704FF4DC
:10213000FA75A4F83C082B4603220F490F4804F611
:102140003C04FFF70BFB0E492B4622880D460B483B
:10215000FFF704FB2188284600F014F8BDE838405A
:102160000148FFF763B80000D008002000000240DB
:102170009C0900202C0000200000002058090020AD
:10218000800400202DE9F041104E0C460746002542
:10219000A6F8421807E064220830FDF7C3FF643C4C
:1021A0006D1CA4B2EDB205EBC50000EB051007EB0A
:1021B0008001642C06EB8000EDD222460830FDF74A
:1021C000B1FF012086F84408BDE8F0812C00002012
:1021D00038B5174800680168406800901448FEF759
:1021E000F7FF14494FF440104860134800684068F6
:1021F000124CC0F5FA704FF4FA75A4F83E082B465D
:1022000003220F490F4804F63E04FFF7A7FA0E49D0
:102210002B4622880D460B48FFF7A0FA2188284656
:1022200000F014F8BDE838400148FEF7FFBF000099
:102230001409002000000240240A00202C00002085
:102240000300002058090020740600202DE9F34700
:10225000664E00980C463288002A7ED0314601F541
:10226000187C01F5C969B1F84018A6F1140501EB15
:102270000C03002729784FF001084FF4FA7A012A5D
:1022800009D0022A7DD0032A02783ED0AA2A79D02A
:10229000EE2A78D08CE00278052A13D14278002A01
:1022A00010D18278822A0DD1027AAA2A02D0EE2A8F
:1022B00009D00EE0427AAA2A0BD1827AAA2A08D142
:1022C00085F8008077E0427AEE2A02D1827AEE2AFF
:1022D00078D000F1080411B1012908D06BE0C2796F
:1022E000A6F84028214673E086F8458863E0C27965
:1022F00018462146FDF716FF0099B6F84008C9793F
:10230000084421E02F706F7055E0AA2A02D0EE2A0F
:1023100007D00CE04278AA2A09D18278AA2ACFD025
:1023200005E04278EE2A02D18278EE2A4AD011B135
:10233000012905D03FE02246A6F8404847E00CE0DE
:102340000146224618464AE0A6F840086878401C34
:10235000C0B268700628D5D82DE00178012918D1BF
:102360004178002915D18178822912D1611E89B264
:10237000FDF72CFF0099214411F8012C904208D15F
:1023800002E006E007E00DE011F8050D497808438A
:102390003080BDE8FC874278AA2A09D18278AA2A2F
:1023A0008ED005E04278EE2A02D18278EE2A09D05A
:1023B00051B1012910D0524649460D48FFF7B6F9F0
:1023C000E7E7FFE72F708FE7A6F84048224601466F
:1023D0006046FDF7A7FE87E7184622466946FDF7E7
:1023E000A1FEB6F840082044AEE700002C00002013
:1023F000140900200148FEF719BF00005809002009
:10240000FEE70907090E002804DB00F1E02080F850
:102410000014704700F00F0000F1E02080F8141D58
:10242000704702E008C8121F08C1002AFAD170479D
:102430007047002001E001C1121F002AFBD1704744
:1024400010B5002821D0114B0022001F196803E0AD
:10245000814203D80A4649680029F9D152B113686C
:10246000841A9C4204D1006818441060104602E0AF
:10247000506000E0186039B102680B1A934203D132
:102480000B681A4402604968416010BD740800205E
:10249000FEF7A8F9FFF7DFFAFFF7FAF9FFF7BAF945
:1024A000FFF72AFAFFF75CFAFFF776FAFFF790FAE0
:1024B000FFF70CFA30480068C16841F01001C160B4
:1024C0002E480068C16841F01001C1602C480068C6
:1024D000C16841F01001C1602A48FEF729FD4FF4A0
:1024E000FA6329499E10324688462548FFF736F997
:1024F0000220FEF733F8324641461F48FFF716F92F
:10250000224932460F461D48FFF710F9C820FEF752
:1025100025F8FFF77DFA1E4C002500BF94F845080A
:1025200001280ED1FFF7E4FC84F84558A4F83E5882
:1025300031463846FDF70FFE324639460F48FFF761
:10254000F5F894F8440801280ED1FFF723FD84F82C
:102550004458A4F83C5831464046FDF7FCFD32464D
:1025600041460548FFF7E2F80520FDF7F7FF094867
:10257000FEF729F9D2E70000D00800201409002056
:1025800058090020880800208004002074060020DC
:102590002C0000207C080020F0B50B30154D20F0F9
:1025A00007010024144A0FE003688B420BD38B42CF
:1025B00005D95E1A43184768C3E9006700E043681D
:1025C000136002C004E0021D10680028ECD1204610
:1025D000002802D1286808B10020F0BD064A07484B
:1025E0001060074A121A22F00702C0E900240120F5
:1025F0002860D7E778080020740800203C0B0020F2
:10260000380D00200000000000000000010203045B
:102610000607080900000000010203043C26000828
:10262000000000207C080000900100086C260008D3
:102630007C080020BC0800003224000837AAAAAA9F
:10264000BBBBBB420192104324F4C70100020DA59D
:10265000A5320E07FFAAAAAAEEEEEE01FF01FF01C6
:0C266000FF01FF01FF01FF01FF01590015
:04000005080000ED02
:00000001FF
