:020000040800F2
:10000000C83E002001010008372A0008A125000889
:10001000352A000895020008973D000800000000FE
:10002000000000000000000000000000F1330008A4
:100030001F03000800000000392A0008D934000816
:100040001B0100081B0100081B010008812B000890
:100050001B0100083B2A00081B0100081B010008C7
:100060001B0100081B0100081B0100081B01000800
:10007000AD020008B9020008C5020008D10200085C
:10008000DD020008E90200081B0100081B0100084E
:100090001B0100081B0100081B0100081B010008D0
:1000A0001B0100081B0100081B0100081B010008C0
:1000B0001B010008613500081B0100081B01000836
:1000C0001B0100081B0100081B0100081B010008A0
:1000D0001B0100089D3A0008FD3A0008693C000831
:1000E0001B0100081B0100081B010008DFF80CD0F1
:1000F00000F084F8004800473D5B0008C83E00203F
:100100000648804706480047FEE7FEE7FEE7FEE7B1
:10011000FEE7FEE7FEE7FEE7FEE7FEE75D350008E7
:10012000ED000008202A04DB203A21FA02F0002129
:10013000704721FA02F3D040C2F1200291400843F7
:100140001946704740EA01039B0703D009E008C93C
:10015000121F08C0042AFAD203E011F8013B00F88C
:10016000013B521EF9D27047D2B201E000F8012BD8
:10017000491EFBD270470022F6E710B513460A4627
:1001800004461946FFF7F0FF204610BD421C10F848
:10019000011B0029FBD1801A70472DE9F05F05464D
:1001A000002092469B4688460646814640241BE036
:1001B0002846414647462246FFF7B4FF53465A4673
:1001C000C01A914110D311461846224600F028F873
:1001D0002D1A67EB01084F4622460120002100F04E
:1001E0001FF817EB00094E41201EA4F10104DFDCCB
:1001F000484631462A464346BDE8F09F064C074D27
:1002000006E0E06840F0010394E8070098471034E6
:10021000AC42F6D3FFF76EFF546600087466000820
:10022000202A04DB203A00FA02F1002070479140B6
:10023000C2F1200320FA03F319439040704770B5D0
:100240008C1810F8015B15F0070301D110F8013B81
:100250002A1106D110F8012B03E010F8016B01F808
:10026000016B5B1EF9D12B0705D40023521E0DD460
:1002700001F8013BFAE710F8013BCB1A921C03E0AE
:1002800013F8015B01F8015B521EF9D5A142D8D3E6
:10029000002070BDFEE710B503460078012202E0A1
:1002A0009C5C6040521C8A42FADB10BD014800F0A1
:1002B000D5B90000C00F0020014800F0CFB9000000
:1002C0007C0F0020014800F0C9B90000B00E0020EA
:1002D000014800F0C3B900006C0E0020014800F096
:1002E000BDB90000F40E0020014800F0B7B90000CD
:1002F000380F002030B590F840500124AC40C56B59
:100300006C60046863604368102B036803D09960D5
:100310000068C26030BD9A600068C16030BD70473F
:1003200072B6FEE7002200F001B8000030B50E4BB7
:10033000054601205C7A012C15D8587A00241C54FB
:10034000587A03EB800045605D7A03F108002A5477
:10035000587A421C5A72303008703A2048702F2068
:100360008870CC70002030BDBC14002006490020ED
:10037000C8610648016941F004010161016941F069
:100380004001016170470000081000200020024079
:10039000064A0021D16106490A6942F002020A6157
:1003A0004861086940F0400008617047081000206B
:1003B00000200240044B0022DA61044A136943F032
:1003C00001031361018070470810002000200240E3
:1003D00014480022C168CB06134904D5CA6942F00B
:1003E0000202CA611022C3685B0705D5CB6943F0DE
:1003F0000103CB6142F00402C369DB0707D0CB697C
:1004000043F00403CB61C16921F00101C161A2F590
:100410008071013901D0C2607047C16921F00101CA
:10042000C1617047002002400810002070B50546E9
:1004300000F0EAFB0646114C09E0681C07D025B124
:1004400000F0E2FB801BA84201D9032070BDE068E8
:10045000C007F2D1E068800601D52020E060E068A6
:10046000C00605D4E069C00702D1E068400703D5A3
:10047000FFF7AEFF012070BD002070BD00200240DC
:100480000B4810B5002101600A4981600221C1605A
:10049000094900F005FA002808D000F055FA07A035
:1004A00003F0B2FDBDE81040FFF73ABF10BD0000F9
:1004B0009414002000F80008D80C00202045727227
:1004C0006F722E2E2E310D0A0000000030B5002272
:1004D000064B074C06E020CB40F82250521C92B24B
:1004E000A34201D28A42F6D330BD000000F80008D2
:1004F000000001082DE9F0410E4680460024124D0F
:1005000000F06CFAFFF7BCFF10A003F07DFD164F62
:100510000FE000BF58F8242000232946022000F0F5
:100520001DFA60B111A003F06FFDFFF7F9FEBD42A7
:1005300001D2B442EED3BDE8F04100F005BA641C2C
:10054000A4B22D1DF3E7000000F8000820B2C1B3EB
:10055000FDCDEAB3C9A3ACD7BCB1B8D0B4C8EB2EBB
:100560002E2E2E2E2E0D0A0000000108204572723C
:100570006F722E2E2E320D0A0000000010B590F87A
:1005800021100022022905D00421816380F8202057
:10059000012010BD01680B6823F00E030B60016899
:1005A0000B6823F001030B6090F84030C46B01210D
:1005B00001FA03F3636080F8211080F820201046D0
:1005C00010BD000010B590F821100024022903D0BE
:1005D0000421816301243DE001680A6822F00E02D3
:1005E0000A6001680A6822F001020A601A4A01687A
:1005F000914201D1012121E0174A1432914201D1E7
:1006000010211BE0144A2832914201D1891515E0CE
:10061000114A3C32914201D189140FE00E4A503206
:10062000914202D14FF4803108E00B4A643291428A
:1006300002D14FF4801101E04FF08071064A083A70
:100640005160012180F82110002180F82010416BB9
:1006500001B18847204610BD080002402DE9F05F37
:10066000C16B0C6801680B68D0F840C0042202FA24
:100670000CF2494DDFF824A1494E4A4FDFF828B16A
:10068000DFF828E122422CD05A072AD50A689206C0
:1006900003D40A6822F004020A600168A94201D169
:1006A000042219E0514501D1402215E0B14202D1A6
:1006B0004FF4806210E0B94202D14FF480420BE067
:1006C000594502D14FF4802206E0714502D14FF422
:1006D000800201E04FF080622F4908394A60C16A08
:1006E0003BE04FF0020808FA0CF818EA040F4FF04C
:1006F00000094FF0010235D05FEA837832D50B68EC
:100700009B0605D40B6823F00A030B6080F82120B8
:100710000168A94201D1022219E0514501D12022EC
:1007200015E0B14202D14FF4007210E0B94202D19B
:100730004FF400520BE0594502D14FF4003206E06D
:10074000714502D14FF4001201E04FF000721249DE
:1007500008394A6080F82090816A00291AD0BDE8E3
:10076000F05F0847082505FA0CF5254212D01B0753
:1007700010D50B6823F00E030B6090F84010C36B8C
:1007800002FA01F15960826380F8212080F82090FC
:10079000016BE2E7BDE8F09F080002401C00024048
:1007A0003000024044000240580002406C00024009
:1007B00030B528B308C8134914221944B1FBF2F12B
:1007C0008900C16310498163022141771A6843F6A9
:1007D000F0718A43D0E900142143D0E902452C434B
:1007E000214304692143446921438469214311431E
:1007F000196000214163012242770177084630BD2C
:10080000012030BDF8FFFDBF0000024070B5044676
:1008100090F82000002501280CD0012084F8200049
:1008200094F821600020012E06D084F820000225D3
:10083000284670BD022070BD022684F82160A063A6
:100840002068066826F0010606602046FFF752FD84
:10085000E06A00282068016802D041F00E0106E03D
:1008600021F0040101602068016841F00A01016083
:100870002068016841F001010160D9E770B50446C4
:1008800000F0C2F90546601C02D004480078044418
:1008900000F0BAF9401BA042FAD370BD200000203E
:1008A0002DE9F047054626480F460126017E01291D
:1008B0000FD00121814601762868DFF888804CF24C
:1008C0005034022808D0A2462046FFF7AFFDA8B159
:1008D00031E00220BDE8F0872046FFF7A7FD08BB06
:1008E0000120FFF743FD2046FFF7A0FDD8F81010C8
:1008F000064621F00401C8F810101CE04FF0FF304C
:100900003860AC6811E02046FFF742FD5046FFF723
:100910008DFDD8F81010060021F00201C8F8101063
:1009200001D03C6007E004F58064D5E9020100EBEA
:100930008120A042E7D8002189F818103046C9E785
:1009400008100020002002400348016941F08001A6
:100950000161002070470000002002402DE9F05F97
:1009600007461C4888460024017E15461E4601297C
:1009700009D00121814601764CF2503A5046FFF7EA
:1009800055FD18B122E00220BDE8F09F012F02D0F2
:10099000022F00D00427D346DFF83CA022012846CE
:1009A0003146FFF7BFFB81B208EB4400FFF702FDC1
:1009B0005846FFF73BFDDAF8102022F00102CAF892
:1009C000102018B9641CE4B2BC42E7D3002289F8B5
:1009D0001820D9E708100020002002400649002016
:1009E0000A69120607D5054A4A60054A4A6009693C
:1009F000090600D501207047002002402301674509
:100A0000AB89EFCD2DE9F84FDFF8B891002409F15B
:100A1000040A0AF1040B23460F270BF1040EC9E068
:100A20000125A5402A40AA427DD1674ED1F804C0D5
:100A3000ACEB0608B44532D014DCBCF1030F3AD05D
:100A400009DCBCF1000F2AD0BCF1010F1CD0BCF1B5
:100A5000020F31D11DE0BCF1110F17D0BCF1120F04
:100A60002AD119E0B8F5881F19D006DCB8F5803F07
:100A700015D0B8F5801F1FD111E0B8F5001F0ED0BA
:100A8000B8F5041F18D10AE0CB6815E0CB681B1D30
:100A900012E0CB6808330FE0CB680C330CE08B68B6
:100AA0002BB1012B4FF0080303D0456104E0042370
:100AB00002E0056100E00023FF2A01D8064601E0BC
:100AC00000F104064FEA840501D9A5F12005D6F806
:100AD000008007FA05FC28EA0C0803FA05F548EA45
:100AE0000508C6F800804D68ED0062D5374DAE6947
:100AF00046F00106AE61AD6924F0030605F001057C
:100B00000095334D06EB050CDCF80850A607360FB0
:100B100007FA06F825EA0805DFF8B880404503D152
:100B20004FF0000817E044E0DFF8AC80404502D108
:100B30004FF001080FE0DFF8A480404502D14FF0EC
:100B4000020808E0DFF89880404502D14FF0030822
:100B500001E04FF0040808FA06F848EA0508CCF866
:100B600008804D68D9F80060ED034D4601D5164365
:100B700000E096432E604D68DAF80060AD035546FC
:100B800001D5164300E096432E604D68DBF8006007
:100B9000ED025D4601D5164300E096432E604D6898
:100BA000DEF80060AD02754601D5164300E09643BD
:100BB0002E60641C0D682A46E5407FF431AFBDE825
:100BC000F88F0000000401400000111000100240E6
:100BD0000000014000080140000C014000100140ED
:100BE000001401408068084000D001207047C268AE
:100BF00021EA02030A4043EA0241016170470AB157
:100C0000016170470904FBE70148806870470000F4
:100C100020000020024881680278114481607047FA
:100C200020000020074810B5016841F01001016064
:100C3000032000F081F8002000F006F800F024F80E
:100C4000002010BD0020024070B50D4D04464FF449
:100C50007A712878B1FBF0F00A490968B1FBF0F02D
:100C600000F087FF48B9102C07D200222146501E01
:100C700000F042F800206C6070BD012070BD0000E3
:100C8000200000202C000020124808B5816941F0A6
:100C900001018161816901F001010091C16941F0A7
:100CA0008051C161C06900F080500090052000F0C3
:100CB00043F800221146052000F01EF8052000F040
:100CC0000DF80548416821F0E06141F00071416094
:100CD00008BD00000010024000000140002809DBB0
:100CE00000F01F02012191404009800000F1E02046
:100CF000C0F8001170470000F0B40E4B1B680C46A2
:100D0000C3F30223C3F10705042D00D90425191DDF
:100D1000072901D2002300E0DB1E012606FA05F1B7
:100D2000491E214099409E40761E16403143F0BC3A
:100D300003F08EB90CED00E0064900F007020868E8
:100D40004FF6FF03184040EA0220034A10430860B0
:100D5000704700000CED00E00000FA050149012099
:100D60000862704700000E4210B529A401461DCC50
:100D700086B08DE81D002AA02A4C0068049000204F
:100D8000012923D002293AD010291DD16168226897
:100D9000D20119D5C1F38342C9031DF8020009D558
:100DA000616804AAC1F34041515C1F4AB2FBF1F1F2
:100DB000484301E01D4948436168490204D44000AA
:100DC0005FF00301B0FBF1F006B010BD226AC2F380
:100DD0000121012903D1920701D5C803F4E70229B3
:100DE00005D1626A920702D549F64040ECE7032933
:100DF000EAD121688903E7D54FF22440E4E700F007
:100E000033F96168C1F38131491C4900DAE7000018
:100E100002030405060708090A0B0C0D0E0F10103B
:100E2000010200000010024000127A0000093D009B
:100E30002DE9F84305460078354CC00754D0E069E9
:100E40000026C00008D4E06940F08050E061E0690D
:100E5000012600F0805000902E480168C90512D488
:100E60000168804641F480710160FFF7CDFE0746BE
:100E700005E000BFFFF7C8FEC01B642823D8D8F8E0
:100E80000000C005F6D5206A10F4407021D0A98872
:100E900001F4407181421CD0206A1F49012220F4D4
:100EA00040700A6000220A602062C00711D0FFF77C
:100EB000ABFE074641F2883808E000BFFFF7A4FE0A
:100EC000C11B414502D90320BDE8F883206A800791
:100ED000F4D5206A696820F44070084320621EB18E
:100EE000E06920F08050E0612878800705D56068CF
:100EF000A96820F44040084360602878C00605D502
:100F00006068E96820F48000084360600020DBE747
:100F10000010024000700040400442422DE9F047BA
:100F20000F46050061D0434E306800F00700B8421C
:100F300009D2306820F0070038433060306800F094
:100F40000700B84251D128683B4C810712D54007B1
:100F500003D5606840F4E06060602878000703D53E
:100F6000606840F4605060606068A96820F0F0003C
:100F7000084360602878C00728D06868012810D02E
:100F80002168022810D0890700292EDA616821F033
:100F9000030101436160FFF737FE804641F2883963
:100FA0000DE021688903EFE78901EDE7FFF72CFEEB
:100FB000A0EB0801494502D90320BDE8F08760682D
:100FC000696800F00C00B0EB810FEFD1306800F0E1
:100FD0000700B8420BD9306820F007003843306072
:100FE000306800F00700B84201D00120E5E728781A
:100FF000400705D56068E96820F4E0600843606058
:101000002878000706D56068296920F4605040EA16
:10101000C100606000F038F86168084AC1F303114C
:10102000515CC8400649086006480068FFF70CFE9E
:101030000020C2E70020024000100240C06000080B
:101040002C0000202400002004480549006849685D
:10105000044AC1F30221515CC84070472C000020B3
:1010600000100240D0600008044805490068496843
:10107000044AC1F3C221515CC84070472C000020D3
:1010800000100240D060000812A185B00FC98DE8A1
:101090000F0014A0144A006804905168134801F02E
:1010A0000C03042B10D0082B0ED1C1F38343C903CA
:1010B0001DF803000AD5516804AAC1F34041515CF0
:1010C0000A4A5043B0FBF1F005B070470849484365
:1010D000FAE7000002030405060708090A0B0C0DD5
:1010E0000E0F1010010200000010024000127A00E2
:1010F00000093D002DE9F84F040070D02078C04D64
:10110000C00749D06868C0F38100012807D068682B
:10111000C0F38100022809D16868C00306D5286899
:10112000800339D560680028E7D035E06068B0F505
:10113000803F0BD010B1B0F5A02F11D0286820F45B
:1011400080302860286820F4802002E0286840F47D
:1011500080302860606890B1FFF756FD06460AE0CF
:10116000286840F480202860F0E700BFFFF74CFDBE
:10117000801B642873D828688003F7D50CE0FFF73C
:1011800043FD064605E000BFFFF73EFD801B6428D7
:10119000F0D828688003F7D420789A4E80074FF063
:1011A00001094FF0000839D5686810F00C0F07D01E
:1011B0006868C0F38100022809D16868C00306D4BA
:1011C0002868800714D52069012808D110E020691B
:1011D000B0B1C6F80090FFF717FD074605E00AE139
:1011E000FFF712FDC01B0228C4D828688007F7D576
:1011F0002868616920F0F80040EAC10028600DE02D
:10120000C6F80080FFF700FD074604E0FFF7FCFC8E
:10121000C01B022823D828688007F7D4207800074D
:101220002CD57948A169D9B1C0F80090FFF7ECFC42
:10123000074604E0FFF7E8FCC01B02280FD8686AE5
:101240008007F7D571484FF4FA510068B0FBF1F010
:10125000009000BF0098411E0091FAD20EE080E09D
:10126000C0F80080FFF7D0FC074604E0FFF7CCFC95
:10127000C01B022875D8686A8007F7D42078400719
:1012800060D5E8690027C00008D4E86940F08050C4
:10129000E861E869012700F0805000905C4801682F
:1012A000C90513D40168834641F480710160FFF7DA
:1012B000ABFC824606E000BFFFF7A6FCA0EB0A00ED
:1012C00064284ED8DBF80000C005F5D5E068012899
:1012D0000AD008B1052813D0286A20F0010028623E
:1012E000286A20F0040002E0286A40F00100286229
:1012F000E06841F2883B98B1FFF786FC82460BE03C
:10130000286A40F004002862EEE700BFFFF77CFC8B
:10131000A0EB0A0159455AD8286A8007F6D50CE097
:10132000FFF772FC824605E0FFF76EFCA0EB0A01B6
:1013300059454CD8286A8007F6D41FB1E86920F0D7
:101340008050E861E06988B36968C1F381010229CE
:1013500044D00228C6F8608004D0FFF755FC04464C
:1013600038E034E0FFF750FC074604E0FFF74CFCA0
:10137000C01B02282BD828688001F7D4206AB0F55A
:10138000803F05D16868A16820F400300843686098
:10139000D4E908010843696821F4741108436860BE
:1013A000C6F86090FFF730FC044606E025E000BF79
:1013B000FFF72AFC001B022809D828688001F7D50E
:1013C0001BE000BFFFF720FC001B022802D903200E
:1013D000BDE8F88F28688001F4D40EE00128F7D02A
:1013E0006868226A00F48031914204D1616A00F495
:1013F0007010884201D00120EAE70020E8E70000F1
:101400000010024000004242800442422C000020B2
:10141000007000401FB5044600220D4900F071F82D
:101420000B490022C91C204600F044F80848847883
:1014300043780278C01C81788DE81E00C27843781A
:1014400004A100F6FD3002F5FA6202F0EDFD1FBDC9
:101450003A000020253032642F253032642F2530A9
:1014600032642D253032643A253032643A253032E8
:1014700064000000704710B5044600680168C907A1
:1014800017D04168C90714D040684007204607D5E7
:10149000FFF7F0FF21686FF004004860042002E0CD
:1014A000FFF7B8FF012060742068416821F0010156
:1014B000416010BDF8B505004FF0000016460C461F
:1014C000009006D02CB100226946284600F019F899
:1014D00008B10120F8BD287B2070E87BE070697BB3
:1014E0006170A97BA17056B101F0B1FAE07060782B
:1014F00001F0ADFA6070A07801F0A9FAA0700020A8
:10150000F8BD2DE9F04791460C465FEA00084AD045
:1015100084B3D8F800004068400744D4404601F046
:101520003CFB4FF461620546B0FBF2F1B0FBF2F315
:1015300002FB13503C23B0FBF3F0B5FBF2F66070F6
:1015400002FB1650B0FBF3F203FB1200A070182947
:1015500031D31820B1FBF0F7B1FBF0F200FB121011
:101560002070404601F012FB411C04D0A84202D971
:10157000461B02E017E04FF0FF36A7EB071000EB29
:101580004000C0EB001005EBC0152946404601F0B5
:1015900053FB40B9701C01D0711900E03146404640
:1015A00001F036FB10B10120BDE8F0873946404616
:1015B00001F058FA00E02170B9F1000F0BD020784B
:1015C00001F045FA2070607801F041FA6070A0786F
:1015D00001F03DFAA0700020E6E7000070B50400BD
:1015E00003D0607C002610B105E0012070BD267498
:1015F000204600F043F802206074204600F01AF9FB
:10160000042578BB204601F084FA58BB2068416865
:1016100021F007014160A06820B11748016821F05E
:10162000010101601448001F0168A26821F4607183
:10163000114301606068411C04D10120FFF794FB55
:1016400080B1401E21688A6822F00F0242EA1042EF
:101650008A602168CA6860F30F02CA60204601F000
:1016600073FA08B16574C0E7E67301206073A07374
:101670006074002070BD0000306C004008B5006848
:101680000D49884217D1FFF769FB0C48C16941F049
:101690000061C161C0690A4900F00060009001204A
:1016A0000860014600220320FFF726FBBDE8084042
:1016B0000320FFF713BB08BD0028004000100240C4
:1016C0003C0442422DE9F0410D4604003BD0C5B335
:1016D000207C01283AD04FF0010884F810800220C5
:1016E0006074E87872B301F0A9F9E073687801F0EA
:1016F000A5F96073A87801F0A1F9A073C2B2617B6B
:10170000E07B01F05AFA20732870204601F045FA78
:101710004FF46161B0FBF1F1002518292DD9182291
:10172000B1FBF2F1A1EB011101EB4101C1EB0111A0
:1017300000EBC1163146204601F07EFA0427C8B9F5
:101740000BE000E004E00120BDE8F0810220FBE7AF
:10175000E07368786073A878CFE7204601F016FA46
:10176000411C0AD0B04208D206490144204601F08B
:101770004FFA10B167742574E5E784F81180257479
:101780000020E1E7805101002DE9F0410D46040001
:1017900024D01DB3207C012823D04FF0010884F809
:1017A0001080022060742878EAB101F047F94FF404
:1017B000616100FB01F6687801F040F9C0EB0010B0
:1017C00006EB8006A87801F039F93518294620463D
:1017D00001F032FA0026042710BB0FE00120BDE81B
:1017E000F0810220FBE74FF4616148436978C1EB67
:1017F000011100EB8100A9784518E7E720684168EE
:1018000021F005014160204601F0C0F9411C0AD0D9
:10181000A84208D206490144204601F0F9F910B166
:1018200067742674DAE784F8118026740020D6E7FE
:101830008051010070B504000AD02068416821F091
:1018400008014160FFF7E0F905464FF47A7608E0B9
:10185000012070BDFFF7D8F9401BB04201D9032029
:1018600070BD206840680007F4D5002070BD70B5D9
:10187000040009D0606A002540B125616561A56258
:1018800094F8510040B10CE0012070BD6068B0F5E3
:10189000827FF4D0E561F2E784F85050204600F0F2
:1018A0003FF8022084F851002068016821F04001CF
:1018B0000160A088218900F4827001F4044108438A
:1018C000A18901F400610843217C01F00201084371
:1018D000217D01F001010843218B01F400710843CF
:1018E000217F01F03801084394F8201001F08001B5
:1018F0000843218D01F40051084321680860A06964
:10190000042101EA1040216848602068C16921F47F
:101910000061C1616565012084F85100002070BD3F
:1019200030B585B0002400940194029403940068BB
:101930001449884223D11448816941F4805181615E
:10194000816901F480510491816941F00401816150
:1019500080690E4D00F004000490A0200090022049
:1019600001900320039069462846FFF74BF840207A
:10197000CDE90004694628460294FFF743F805B014
:1019800030BD00000030014000100240000801405E
:101990002DE9F84F044690F8500000270A9E1D4696
:1019A00092468B464FF0010901280ED0012084F8A1
:1019B0005000FFF729F9804694F85100616801282A
:1019C0000CD0B1F5827F07D102E00220BDE8F88F8C
:1019D000A16809B9042801D00227C2E0BBF1000FB9
:1019E00027D0BAF1000F24D01DB394F85100042879
:1019F00002D0052084F8510000206065C4F838A0AA
:101A0000E587A587C4F830B0E586A58620646064C4
:101A100020680168490603D4016841F04001016073
:101A2000E068B0F5006F606805D0E8B3012D46D0DE
:101A30007FE0012795E008B1012D39D1206B2168A5
:101A40000088C860206B801C2063E08E401EE0860A
:101A50002EE02068816889070FD5E18E69B1B9F160
:101A6000010F0AD1216B0988C160206B801C2063A3
:101A7000E08E401EE0864FF0000920688168C907AB
:101A80000CD0E18F51B1C068A16B0880A06B801CA5
:101A9000A063E08F401EE0874FF00109FFF7B4F824
:101AA000A0EB0800B04200E009E001D3701C50D167
:101AB000E08E0028CDD1E08F0028CAD13FE0206B16
:101AC000216800780873206B401C2063E08E401E64
:101AD000E0862EE02068816889070FD5E18E69B124
:101AE000B9F1010F0AD1216B09780173206B401CF9
:101AF0002063E08E401EE0864FF000092068816878
:101B0000C9070CD0E18F51B1C068A16B0870A06B00
:101B1000401CA063E08F401EE0874FF00109FFF7F3
:101B200073F8A0EB0800B04202D3701C01D010E0A3
:101B30007EB1E08E0028CDD1E08F0028CAD1424688
:101B40003146204601F0CEFB28B1012720206065F8
:101B500007E0032705E0A06818B92068C16880681D
:101B60000090012084F85100002084F8500038468D
:101B70002CE710B5401EB0F1807F01D3012010BDCD
:101B80004FF0E02460610F21601702F061FA00203D
:101B9000A06107202061002010BD70477047000041
:101BA00070B590F83C20012A26D0012480F83C40F2
:101BB000022280F83D2003685A689D6822F0700672
:101BC0000A6832435A600D4B02689A4208D0B2F15B
:101BD000804F05D00A4B9A4202D00A4B9A4204D158
:101BE000496825F080031943916080F83D40002149
:101BF00080F83C10084670BD022070BD002C0140EA
:101C0000000400400008004010B5040003D094F820
:101C10003D0010B107E0012010BD002084F83C0019
:101C2000204600F01FF8022084F83D00211D2068A6
:101C300001F09CFC012084F8460084F83E0084F802
:101C40003F0084F8400084F8410084F8420084F8A2
:101C5000430084F8440084F8450084F83D000020E7
:101C600010BD000008B500680B49884212D10B482E
:101C7000C16941F00201C161C069032200F00200A4
:101C8000009000211D20FFF737F8BDE808401D2017
:101C9000FFF724B808BD0000000400400010024017
:101CA00090F83D10012901D001207047022180F8F1
:101CB0003D100168CA6842F00102CA6000680B4921
:101CC000884208D0B0F1804F05D00949884202D03F
:101CD0000849884204D1816801F00701062903D030
:101CE000016841F00101016000207047002C0140B3
:101CF000000400400008004070B5044690F83C0025
:101D0000012817D0012584F83C50022084F83D00BA
:101D10002068826822F0770222F47F42826008689D
:101D2000502830D00DDC20284DD005DC98B3102889
:101D30003BD148E0022070BD302844D0402834D147
:101D400039E0602828D0702806D0B0F5805F2CD00C
:101D5000B0F5005F29D10AE0CB68D1E90121206804
:101D600001F03AFC2068816841F0770109E0CB6816
:101D7000D1E90121206801F02FFC2068816841F43D
:101D80008041816011E0CA684968206801F036FC32
:101D90005021206807E016E0CA684968206801F011
:101DA0003EFC6021206801F021FC84F83D500020B9
:101DB00084F83C0070BDCA684968206801F01EFCC8
:101DC00040212068EFE7226801461046EBE77047A4
:101DD00070B50446006801694FF00005C9438907E2
:101DE00015D4C168C943890711D4E91E01610120D6
:101DF0002077206880698007204602D0FFF7E7FF40
:101E000004E000F098F8204600F096F82577206866
:101E10000169C943490717D4C168C943490713D4A5
:101E20006FF004010161022020772068806910F4BE
:101E3000407F204602D0FFF7CAFF04E000F07BF8A5
:101E4000204600F079F8257720680169C943090721
:101E500016D4C168C943090712D46FF008010161A3
:101E6000042020772068C0698007204602D0FFF751
:101E7000AEFF04E000F05FF8204600F05DF8257743
:101E800020680169C943C90617D4C168C943C90696
:101E900013D46FF010010161082020772068C06919
:101EA00010F4407F204602D0FFF791FF04E000F0DD
:101EB00042F8204600F040F8257720680169C943C0
:101EC000C90708D1C168C943C90704D1891E016186
:101ED000204600F033F820680169C943090609D497
:101EE000C168C943090605D46FF08001016120462D
:101EF000FFF753FE20680169C943490609D4C16848
:101F0000C943490605D46FF040010161204600F045
:101F100025F820680169C94389060BD4C168C94303
:101F2000890607D46FF0200101612046BDE87040AA
:101F3000FFF734BE70BD70477047000010B50068F1
:101F40000549884206D1642000F062FBBDE81040DC
:101F500001F050BA10BD0000000400407047704707
:101F600010B504460068416994F83D20C1F3C011E2
:101F7000212A0BD151B1416921F080014161606B8F
:101F800008B1FEF7FBFA204601F0DAFB2068416950
:101F900094F83E20C1F38011222A0BD151B141693E
:101FA00021F040014161A06B08B1FEF7E7FA20463D
:101FB00001F0AEFB002010BD70470000F8B50268CC
:101FC00004461068D168536910F00F0F4FF00005F8
:101FD00053D003F0010601F4907737435FD0C20776
:101FE00005D0CA0503D5226C42F0010222644207E3
:101FF00005D5DA0703D0226C42F002022264820780
:1020000005D5DA0703D0226C42F0040222640207ED
:1020100007D501F02002324303D0226C42F00802BF
:102020002264226C002A34D0800604D5880602D5AA
:10203000204601F08EFB20684069216CC0F38010BF
:10204000090700D430B3204601F062FB20684169E3
:1020500049061BD5416921F040014161A06BA8B13F
:1020600058494163A06BFEF7ADFA002811D0A06B70
:10207000416B01B0BDE8F040084783060FD58B06E1
:102080000DD52046BDE8F84001F063BB2046FFF7C0
:1020900093FFF8BD2046FFF78FFF2564F8BD266B40
:1020A0002023012E52D1C60650D5CE064ED510683B
:1020B00050680090506940062AD5A16B08684068B6
:1020C0000004000CEAD0A68D8642E7D9E085886935
:1020D000202818D0D06820F48070D0602068416932
:1020E00021F0010141612068416921F04001416115
:1020F00084F83E3025632068C16821F01001C1607A
:10210000A06BFEF73BFAA08DE18D401A81B219E079
:10211000A08DE18D401A81B2E08D0028BED000294B
:10212000BCD0D06820F49070D0602068426922F062
:102130000102426184F83E3025632068C26822F0C3
:102140001002C2602046FFF70AFFF8BD05062BD536
:102150000D0629D594F83D002128F6D1A068B0F5E8
:10216000805F01D12069B0B1206A411C21622168E1
:1021700000784860E08C401E0004000CE084E4D14C
:102180002068C16821F08001C1602068C16841F009
:102190004001C160F8BD206A0088C0F308005060AB
:1021A000206A801C2062E5E74006F3D54806F1D599
:1021B000D168204621F04001D16084F83D3000F024
:1021C000EEF9F8BD4336000870B5040004D094F869
:1021D0003D00002510B106E0012070BD84F83C50A0
:1021E000204600F023F8242084F83D002068C168D0
:1021F00021F40051C160204601F006FB206801690E
:1022000021F4904101612068416921F02A01416176
:102210002068C16841F40051C1602564202084F821
:102220003D0084F83E00002070BD00002DE9F0471D
:1022300086B0002500950195029503950446D0F8D7
:1022400000C09648DFF8508202210322944B802779
:1022500086144FF4806A4FF01009C4455BD1D0F862
:1022600018C04CF4804CC0F818C0D0F818C00CF45A
:10227000804CCDF810C0D0F818C04CF0040CC0F859
:1022800018C08069039200F0040004900802CDE9B0
:102290000001694698461846FEF7B4FBCDF800A049
:1022A000AA460195694640460295FEF7ABFBDFF86A
:1022B000F8817C494046C0E90015C0E90257C8F8DA
:1022C0001050C8F81450C8E90656FEF771FA08B164
:1022D000FEF726F8744D7348C4F838804435143836
:1022E000C8F82440C5E90009C5E902A7C5F810A04F
:1022F000C5F814A0C5E906A62846FEF759FA08B1A4
:10230000FEF70EF865630222002125206C62FEF7BD
:10231000F3FC252061E0DFF89481C44562D1D0F858
:102320001CC04CF4003CC0F81CC0D0F81CC00CF41D
:10233000003CCDF810C0D0F818C04CF0040CC0F828
:1023400018C08069039200F0040004900420CDE9D5
:102350000001694698461846FEF754FB0820CDE96F
:102360000005AA46694640460295FEF74BFBDFF89A
:1023700038814C4908F1880840461431C0E90015FD
:10238000C0E90257C8F81050C8F81450C8E90656FA
:10239000FEF70EFA08B1FDF7C3FF434D4148C4F8FC
:1023A0003880CC352830C8F82440C5E90009C5E993
:1023B00002A7C5F810A0C5F814A0C5E906A62846CE
:1023C000FEF7F6F908B1FDF7ABFF656301220021C6
:1023D00026206C62FEF790FC2620FEF77FFC06B0FC
:1023E000BDE8F087324B9C45F9D1C36943F48023A3
:1023F000C361C36903F480230493836943F0080332
:1024000083618069CDE900A100F00800CDE90320D7
:10241000DFF8A08069464046FEF7F4FA4FF400600A
:10242000CDE90005694640460295FEF7EBFADFF874
:1024300088A01C4950462839C0E90015C0E9025758
:10244000CAF81050CAF81450CAE90656B846FEF742
:10245000AFF908B1FDF764FF174FC4F838A044374F
:10246000CAF82440C7E902580E483D613C387D61F6
:10247000C7E90009C7E906563846FEF799F908B1D9
:10248000FDF74EFF67630122002127207C62FEF7E3
:1024900033FC2720A1E70000003801400010024073
:1024A00000080140580002406C0E0020004400402B
:1024B00000480040000C01407C0F002090F83E30A6
:1024C000202B0ED159B152B190F83C30012B08D0DD
:1024D000012380F83C300023036301F0F1B90120AF
:1024E0007047022070477047704700002DE9F8439D
:1024F000044690F83D001F4616460D4620284CD154
:10250000C5B1BEB194F83C00012846D0012084F842
:102510003C004FF00008C4F84080212084F83D00C2
:10252000FEF772FBA6848146E684A068B0F5805F62
:1025300003D004E00120BDE8F883206928B12E46CD
:102540005FF0000584F83C800EE00026FAE7802169
:10255000204601F0EDF9A0B9AEB116F8010B2168E3
:102560004860E08C401EE084E08C4B464FF0000257
:1025700000970028EBD14FF04001204601F0D8F938
:1025800030B10320D7E735F8020BC0F30800E6E7C7
:10259000202084F83D000020CDE70220CBE77047E3
:1025A000FEE7000070B5184E184C00253570E58028
:1025B000A5806581301DA58101894068FEF712FB69
:1025C00050B1002121806288204691420DD029B16E
:1025D00001223270A18014E00121F3E703890BB1DD
:1025E000828100E0C28005810AE051B1028942B9CE
:1025F000C289521C92B2C281642A02D901814181EE
:10260000E581418070BD0000C80C002084140020CA
:102610002DE9F041304D314E00212F88A5F12A04DB
:1026200067B12B46E278DB79974200D98BB1B5F8D8
:1026300004C0D71B674531DAD3B130E0E088421CD3
:10264000E28005283DD9E18002213046FEF7CFFA2D
:1026500037E0E3885B1C9BB2E380B3EB900F01D2C1
:10266000012203E0B3EB500F14D2002202210DE04F
:10267000E3885B1C9BB2E380B3EB900F01D2012295
:1026800003E0B3EB500F05D2002201213046FEF7E4
:10269000B6FA16E0E180521CE27012E013B1E28853
:1026A000824201D3E180E170002202213046FEF730
:1026B000A6FA002201213046FEF7A1FAE088401C6C
:1026C000E080A979064829B10022BDE8F041022145
:1026D000FEF795BA0122F8E75A000020000C0140ED
:1026E0000008014000F0AABC1D4808B5416941F04E
:1026F000010141614069002200F001000090114693
:102700000C20FEF7F9FA0C20FEF7E8FA0022114639
:102710000D20FEF7F1FA0D20FEF7E0FA0022114637
:102720000E20FEF7E9FA0E20FEF7D8FA0022114635
:102730000F20FEF7E1FA0F20FEF7D0FA0022114633
:102740001020FEF7D9FA1020FEF7C8FA0022114631
:102750001120FEF7D1FABDE808401120FEF7BEBAFD
:102760000010024010B504490448FDF7DBFD0249A2
:10277000491E087010BD0000150000200000002058
:102780002DE9F04186B000262B480096019602966E
:102790000396816941F020018161816901F0200186
:1027A0000491816941F004018161816901F00401B2
:1027B0000491816941F00801816180691F4F00F037
:1027C00008000490002212213846FEF718FADFF8BC
:1027D0007080002203214046FEF711FA01220821F1
:1027E0004046FEF70CFA02250124CDE90054694663
:1027F0003846CDE90245FEF705F91020CDE9000481
:102800000320CDE9024069463846FEF7FBF80B206D
:10281000CDE9000469464046CDE90245FEF7F2F8ED
:102820002002CDE90006694602944046FEF7EAF828
:1028300006B0BDE8F0810000001002400008014031
:10284000000C01403EB50024224801942049009428
:102850000160611EC0E90114FEF7C0FE08B1FDF77A
:102860005FFD1D48C16941F00061C161C16901F0AE
:1028700000610291C16941F08051C161C0690525C3
:1028800000F08050029010208DF804008DF8055063
:102890008DF80640012201A90E48FEF775FF08B128
:1028A000FDF73EFD8DF8005008208DF8010019203D
:1028B0008DF8020022208DF80300012269460548A8
:1028C000FEF700FF002801D0FDF72AFD3EBD000005
:1028D00000280040EC0C002000100240104810B509
:1028E0000E4901604FF48271416000218160C16036
:1028F0004FF400720161C0E905120822C0E9072106
:10290000416281620A21C162FEF7B1FF002803D053
:10291000BDE81040FDF704BD10BD000000300140CF
:10292000000D002010B586B00024174800940194D3
:102930000294039404941349059401604721C0E96B
:10294000011442F20F71C0E903148461FFF75CF9CE
:1029500008B1FDF7E5FC4FF48050009069460A4845
:10296000FFF7CAF908B1FDF7DBFC049404A9064897
:102970000594FFF715F9002801D0FDF7D1FC06B04A
:1029800010BD000000040040580D00200C4810B598
:102990000A4901604FF416514160002181600C2208
:1029A000C160C0E904128161C161FFF70DFC00281C
:1029B00003D0BDE81040FDF7B3BC10BD00380140A6
:1029C000A00D00200C4810B50A4901604FF41651C3
:1029D0004160002181600C22C160C0E90412816164
:1029E000C161FFF7F1FB002803D0BDE81040FDF7FF
:1029F00097BC10BD00440040E40D00200C4810B509
:102A00000A4901604FF416514160002181600C2297
:102A1000C160C0E904128161C161FFF7D5FB0028E4
:102A200003D0BDE81040FDF77BBC10BD004800405E
:102A3000280E0020FEE7FEE770477047010901EB12
:102A4000810100F00F0000EB4100C0B2704700218F
:102A500002E00A38C0B2491C0A28FAD2090740EA43
:102A6000116070472DE9F04104460025C07B627B70
:102A7000A37B42E0012A16D0032A14D0052A12D0E3
:102A8000072A10D0082A0ED00A2A0CD00C2A0AD005
:102A9000042A10D0062A0ED0092A0CD00B2A0AD0FC
:102AA000022A0DD028E01F2B0CD30C2A05D10122BD
:102AB0001346401C20E01E2B04D30123521C1BE0B4
:102AC0001C2B02D203F1010316E011D183B29E0741
:102AD00010D16426B3FBF6F706FB173636B94FF470
:102AE000C876B3FBF6F706FB17331BB91D2303E0CB
:102AF0001D2B01D1032201236D1C8D42BAD3D1B20B
:102B0000E0736173DAB2A27300F057F82073BDE886
:102B1000F08170B50446FEF777F805464FF47A76F3
:102B200006E0FEF771F8401BB04201D9032070BDEA
:102B3000206840688006F4D52068416841F01001A3
:102B40004160002070BD000070B504460068416817
:102B500021F010014160FEF757F805464FF47A76F0
:102B600007E000BFFEF750F8401BB04201D9032038
:102B700070BD206840688006F4D5002070BD00005C
:102B80000148FEF778BC0000EC0C00200168086AE0
:102B9000496A89B241EA00407047006881698AB297
:102BA000C1698BB2816989B28A4203D0C06961F37D
:102BB0001F40704743EA02407047F0B56424C1EB00
:102BC000C1030927A500072603EB01130329B3FB63
:102BD000F7F100F5FA60114401440AD2401EB0FB3F
:102BE000F4F201EB9001B0FBF5F0891A0844001DE6
:102BF00008E0B0FBF4F201EB9001B0FBF5F0891AAC
:102C00000844801CB0FBF6F106FB1100C0B2F0BD19
:102C100070B50D4606460024FFF77BFF48B93168C2
:102C2000280C08623168A8B248623046FFF78CFF72
:102C300000B10124204670BD70B50D460646002443
:102C4000FFF767FF48B93168280C88613168A8B27E
:102C5000C8613046FFF778FF00B10124204670BDFF
:102C600008B501216846FDF731FCBDF800000249B6
:102C700040BA888008BD00005A0000202DE9F041CC
:102C8000134C0A254FF4FA7604F5FC6711A000F006
:102C9000D5F93046FDF7F2FD0D49334612221239BF
:102CA0001048FFF723FC324639460E48FFF706FC72
:102CB00020886188884202D16D1EADB2E6D220889C
:102CC000608015B10020BDE8F0810320FBE7000023
:102CD0005A000020526561645F4C6F72615F494425
:102CE0000D0A0000E40D00202DE9FF4100F008FA74
:102CF000012500262D4C002847D0A6712CA000BF2E
:102D000001F082F901222EA12E4802F0E7F90028F5
:102D10003ED0A6712CA000BF01F076F923482038E0
:102D2000877843780278C01C81788DE88E00C2785D
:102D300043782AA100F6114002F5FA6201F074F915
:102D400012222F492F4802F0F7F9002823D02EA095
:102D500001F05AF9A6712B48D0F80C1202F07CF859
:102D6000124B1422163B03F6F631264802F016FBEE
:102D7000070015D029A001F047F9A671214802F0FB
:102D8000B1FA04B03846BDE8F081A57128A0B7E7D4
:102D9000A5712BA0C0E72FA001F036F9A571DAE7E5
:102DA00031A001F031F9A571E8E700005A000020D8
:102DB000B3F5CABCBBAFCAA7B0DCA3A1200D0A0003
:102DC000303A000054120020CEC4BCFEB9D2D4D890
:102DD000CAA7B0DCA3A1200D0A0000002530326490
:102DE0002D253032642D253032645F253032642D3C
:102DF000253032642D253032642E74787400000042
:102E00004E0C002028100020CEC4BCFEB4B4BDA8D7
:102E1000CAA7B0DCA3A1200D0A000000CEC4BCFEEE
:102E2000D0B4C8EBCAA7B0DCA3A1200D0A000000F3
:102E3000B3F5CABCBBAFB3C9B9A6A3A1200D0A00A4
:102E4000CEC4BCFEB9D2D4D8B3C9B9A6A3A1200DB3
:102E50000A000000CEC4BCFEB4B4BDA8B3C9B9A674
:102E6000A3A1200D0A000000CEC4BCFED0B4C8EB64
:102E7000B3C9B9A6A3A1200D0A000000044B20B1DC
:102E8000002210211846FDF7BABE0122F9E7000022
:102E90000008014070B5054601220021092000F01C
:102EA000DDF910F0FF0404D11021284600F078F875
:102EB00004460020FFF7E2FF0CB1012070BD0020A6
:102EC00070BD1FB56846FFF7E5FF10B1002004B0E4
:102ED00010BD9DF800100120B0EB911F09D19DF8A5
:102EE00008209DF8091000EB022008440004800926
:102EF000EDE79DF805009DF80A1000F00F0000EBCB
:102F0000D1109DF809109DF8072001F0030100EB96
:102F100041019DF80800800900EB82009DF8062021
:102F200002F0030200EB8220401CC91F8840CEE75C
:102F30002DE9F0410646194815464078062800D08C
:102F400049024FF40077012D4FF001021AD01220F0
:102F500000F084F93946304600F022F86D1E044630
:102F600006F5007615F0FF0501D0002CF2D0012205
:102F700000210C2000F072F90020FFF77FFF2046AF
:102F8000BDE8F081112000F069F910F0FF04F3D1E1
:102F90003946304600F004F80446EDE7C60C002040
:102FA00070B505460C460120FFF768FFFF2002F0D0
:102FB000C1FF06466420FDF761FCFE2EF6D103E05A
:102FC00002F0B8FF05F8010B641EA4B24FF0FF0039
:102FD000F6D202F0AFFFFF2002F0ACFF002070BD80
:102FE00070B50D460646FF24FF2002F0A3FFFF2820
:102FF00002D0641EE4B2F7D2DCB1284602F09AFF98
:10300000FD2D18D000244FF40075305D02F092FFC2
:10301000641CA4B2AC42F8D3FF2002F08BFFFF2067
:1030200002F088FFFF2002F085FF00F01F00052856
:1030300001D0022070BD002070BD000038B50446EC
:103040000B48D0F80C1201F007FF2046FDF79EF860
:1030500002466B462146064802F0A0F9054928B110
:1030600000208871024802F03DF938BD0120F8E7E0
:10307000281000205A00002070B506461F4815464B
:103080000C464078062800D04C02012D14D00128AF
:1030900009D001220021372000F0E0F80122294662
:1030A000172000F0DBF801222146192000F0D6F8A5
:1030B00010F0FF040BD01BE001222146182000F085
:1030C000CDF810F0FF0413D1FE2130460DE0FC21B5
:1030D0003046FFF785FF6D1E06F5007615F0FF05FB
:1030E00001D00028F3D0FD210020FFF779FF04462E
:1030F0000020FFF7C3FE204670BD0000C60C002074
:103100002DE9FC410027009714263820019700F094
:1031100055F90020FFF7B2FE4F4D0024287802F049
:1031200009FF641CA4B20A2CF8D30021952208469A
:1031300000F094F8C0B2012802D0761EB6B2F4D2E4
:103140006F7087224FF4D571082000F087F8C0B265
:10315000012873D100246E46287802F0EBFE30552A
:10316000641CE4B2042CF7D39DF802004FF6FE7401
:10317000012803D19DF80300AA281FD001220021B5
:10318000372000F06BF801220021292000F066F8BA
:10319000C0B201283DD802206870012200213720EA
:1031A00000F05CF801220021292000F057F810F00F
:1031B000FF0F3BD0641EA4B2EFD237E04FF0804740
:1031C00001220021372000F049F801223946292048
:1031D00000F044F810F0FF0F02D0641EA4B2EFD24A
:1031E000B4B1012200213A2000F038F880B900245F
:1031F000FF2002F09FFE3055641CE4B2042CF7D38C
:103200009DF80000400601D5062000E0042068700B
:1032100014E00120687001220021104600F01EF821
:1032200010F0FF0F02D0641EA4B2F4D22CB1012220
:103230005102102000F012F800B16F700020FFF76B
:103240001DFE082000F0BAF8687810B10020BDE833
:10325000FC810120FBE70000C60C00202DE9F041B5
:10326000064690460D464FF6F0740020FFF706FE26
:103270001420FDF703FB0120FFF700FE184F3878FC
:1032800002F058FEFF2802D0641EA4B2F7D224B385
:10329000FF2446F0400002F04DFE280E02F04AFEE8
:1032A000C5F3074002F046FEC5F3072002F042FED8
:1032B000E8B202F03FFE404602F03CFE0C2E02D186
:1032C000387802F037FEFF2002F034FE010602D506
:1032D000641EA4B2F7D2002C00D10220BDE8F08118
:1032E000C60C002038B50B4600920446002280210F
:1032F00000F008F8002804D0606D40F02000606500
:10330000032038BD2DE9F8431E4691468846044601
:10331000089DFDF779FC401B351AFDF775FC074643
:1033200025480068C0F3CB30684338E0701C37D0C4
:10333000FDF76AFCC01BA84203D215B1009860B328
:103340002CE02068416821F0E00141606068B0F540
:10335000827F0BD1A068B0F5004F02D0B0F5806F2E
:1033600004D12068016821F040010160A06AB0F535
:10337000005F09D12068016821F4005101602068D4
:10338000016841F400510160012084F851000020DF
:1033900084F850000320BDE8F8830025401E00900B
:1033A0002068816838EA010004D000214945BDD178
:1033B0000020F0E70121F9E72C00002010B50A4CAD
:1033C00021680A6822F040020A6008492160E06131
:1033D0002046FEF74CFA08B1FCF7A2FF206801680E
:1033E00041F04001016010BD000D0020003001409F
:1033F000704700002DE9F041FFF7D4F83349344D10
:103400004FF00108488930B1E879421CEA7102287E
:1034100001D985F807802E4CEA7900262A3C62B152
:103420002C48012A0CD0022A05D18A8862B360791F
:10343000401C60712681BDE8F08126716671FAE753
:103440008A881AB12079401C2071F3E70A890AB1F1
:10345000012202E0098811B10022022131E001229B
:1034600002210746FDF7CBFB2089411C2181C8289A
:10347000E1D9207918B100F087FD85F8D78BEE717E
:103480000022268102211BE00A890AB1012202E002
:10349000098811B10022012113E0012211460746DB
:1034A000FDF7ADFB2089411C2181C828C3D9607973
:1034B00010B1A88000F05CFDEE7100222681012190
:1034C0003846BDE8F041FDF79ABB000084140020A7
:1034D0005A000020000C0140FDF79CBB70B594B071
:1034E00028216846FCF747FE14210AA8FCF743FE92
:1034F00000250F9509200124109500901195129533
:103500004FF4803004940694CDE901050226CDE9FC
:1035100007604FF4E01009906846FDF7EBFD08B135
:1035200072B6FEE70F20CDE90A064FF48060CDE9C0
:103530000C5002210AA80E95FDF7F0FC08B172B6F6
:10354000FEE74FF40070CDE90F400FA8FDF770FCC7
:10355000002801D072B6FEE714B070BD70470000BD
:103560000148FEF735BC0000580D0020F0B5026898
:10357000164B174C174D4FF08047984205D0B84274
:1035800003D0A04201D0A84203D122F070064A68BD
:103590003243984205D0B84203D0A04201D0A8429D
:1035A00003D122F44074CA6822434C6922F080029D
:1035B000224302608A68C2620A688262984201D12C
:1035C0000969016301214161F0BD0000002C014047
:1035D000000400400008004010B5846842EA03225D
:1035E00024F47F440A432243826010BD826822F0A3
:1035F00070020A4342F007018160704710B5036A08
:10360000046A24F001040462846924F0F00444EAAA
:10361000021423F00A020A438461026210BD10B54D
:10362000036A23F0100303628369046A23F470437E
:1036300043EA023224F0A00343EA011182610162ED
:1036400010BD10B5406A0021C185C184FEF7B4FCED
:1036500010BD70B5446A2068406994F83D10C0F30D
:10366000C0100025212904D118B1E584204600F0BE
:1036700067F82068406994F83E10C0F38010222952
:1036800004D118B1E585204600F042F8206C40F0E6
:10369000100020642046FEF78FFC70BD10B5014677
:1036A000406A0968096889061BD40021C185016840
:1036B000CA6822F48072CA6001684A6922F0010275
:1036C0004A6101684A6922F040024A61202180F87B
:1036D0003E10016B012904D10168CA6822F0100272
:1036E000CA60016B012902D0FEF7FDFE10BD818D7D
:1036F000FEF735FC10BD10B5406A016B012902D000
:10370000FEF7F2FE10BD818D4908FEF728FC10BDC2
:103710000168CA6822F49072CA6001684A6922F09E
:1037200001024A61016B012904D10168CA6822F0D3
:103730001002CA60202180F83E100021016370470A
:103740000168CA6822F0C002CA60202180F83D10DA
:10375000704708B590F83E10222901D0022008BD1C
:1037600082684FF480539A4201D1016921B1816A84
:103770009A421BD04AB10AE00268816A5268C2F3D9
:1037800008020A80816A891C08E0026972B1026835
:10379000526802F07F020A70816A491C8162C18D01
:1037A000491E0904090CC18503D019E0026852685A
:1037B000F1E70168CA6822F02002CA600168CA689D
:1037C00022F48072CA6001684A6922F001024A61EB
:1037D000202180F83E10016B012903D0FEF783FE03
:1037E000002008BD002101630168CA6822F01002B0
:1037F000CA6001680A68D20602D50A684968009161
:10380000818DFEF7ACFBEBE770B5044600680169FB
:10381000E26821F44051114301612169A068084325
:10382000616908432168CA6841F20C639A43024304
:10383000CA6020684169A26921F440711143416165
:103840001E492068884202D1FDF70EFC01E0FDF719
:10385000FBFB00EBC00101EB0012606864218000FB
:10386000B2FBF0F3B3FBF1F36FF018067343B2FB56
:10387000F0F5B2FBF0F605EB8305322303EB0515FB
:10388000B5FBF1F5B6FBF1F605F0F00505EB061515
:10389000B2FBF0F6B2FBF0F0B0FBF1F06FF0180203
:1038A000504306EB800003EB0010B0FBF1F0216801
:1038B00000F00F002844886070BD0000003801400F
:1038C00038B58162828500251346044605642220AE
:1038D00084F83E00A26B13489062A26B1248D0623B
:1038E000A26B12481063A06B0A4645632168A06B67
:1038F000091DFCF78BFF206801684168009184F87E
:103900003C50C16841F48071C1602068416941F058
:10391000010141612068416941F04001416100209D
:1039200038BD00009D360008F73600085336000801
:103930002DE9F041984617460E460446069D1DE0C7
:10394000681C1BD02DB1FDF75FF9A0EB0800A84261
:1039500014D92068C16821F4D071C1602068416920
:1039600021F001014161202084F83D0084F83E00EF
:10397000002084F83C000320BDE8F0812068006846
:1039800036EA000004D00020B842D9D00020F3E786
:103990000120F9E72DE9F041804601F10B061746B9
:1039A0000D46304602F0B2F9044605202070002290
:1039B00062700123A370A91DE170380A207167713C
:1039C000A2710720E071237265722A46414604F114
:1039D0000A00FCF7B7FB05F10A0081B22046FCF7AC
:1039E0005AFC6119B2B288724FF47A7321460448C6
:1039F000FEF77CFD2046BDE8F04101F05BBF000012
:103A0000E40D00202DE9F0471E4C00250E46A2884B
:103A100007464FF4FA7864292DD9032104F10A00EE
:103A2000FFF7B8FF4046FCF729FF4FF47A7905EB22
:103A3000C50000EB0510A28807EB80006421FFF7AA
:103A4000A9FF4846FCF71AFF643E6D1CB6B2EDB202
:103A5000642EECD205EBC50000EB0510A28807EB45
:103A600080003146FFF796FF4846FCF707FF054800
:103A7000A28803210D30FFF78DFF4046BDE8F047D7
:103A8000FCF7FCBE5A0000200A4601464FF4FA63D8
:103A90000148FEF72BBD0000280E0020F8B51348A2
:103AA00000680168406800901048FEF759FA104815
:103AB000006840680F4CC0F5FA7082B24FF4FA7596
:103AC00004F6D411A4F8CC2B2B460E460A48FEF778
:103AD0000DFD012084F8D60B2A4631460348FEF737
:103AE000EDFCBDE8F8400148FEF768BAA00D0020E3
:103AF0006C0E00205A000020E40D0020F8B5154897
:103B0000002600680168406800901248FEF728FA15
:103B1000114800684068114CC0F5FA7082B2A4F8F0
:103B2000CA2B94F8D60B04F5FC65012807D184F85C
:103B3000D66B4FF4FA7329460948FEF7D7FCB4F860
:103B4000CA1B284600F00EF8BDE8F8400148FEF711
:103B500035BA0000E40D0020F40E00205A000020C9
:103B6000A00D00202DE9F041044600783A4E4D1E8C
:103B70006718052853D16078002865D1A07882287D
:103B800062D1A9B22046FCF786FB17F8011C8842D7
:103B900045D1E27900270125A6F12A03032A14D191
:103BA000207AAA2802D0EE2809D00EE0607AAA284E
:103BB0000BD1A07AAA2808D11D705F7044E0607A0A
:103BC000EE2802D1A07AEE280CD093F800C023484A
:103BD00004F10801BCF1000F06D01D46BCF1010F35
:103BE00009D031E01F7003E0A6F8CE2BFCF7AAFA4B
:103BF00086F8D55B28E0B6F8CE3B06F6CE361844FC
:103C0000FCF7A0FA3088E179084430806878401CDD
:103C1000C0B26870062817D92F706F7014E0207832
:103C2000012811D1607878B9A07882280CD1A9B286
:103C30002046FCF730FB17F8011C884204D117F826
:103C4000050D797808433080BDE8F0414FF4FA72F1
:103C500003490448FEF732BC5A00002052040020F9
:103C60003A080020E40D002038B50E4800680168CD
:103C7000406800900B48FEF773F90B4800684068F5
:103C80000A4CC0F5FA7081B2A4F8C81B04F2EC50DB
:103C900000F00EF801202072BDE838400148FEF720
:103CA0008DB90000280E00207C0F00205A00002053
:103CB00010B5064C0A46A4F8D01B014604F5017065
:103CC000FCF740FA012084F8D40B10BD5A00002004
:103CD00010B5FFF715FA002809D03820FFF76EFB62
:103CE000FF2002F027F90820FFF768FB012010BD34
:103CF00010B5144641B101291DD0022914D0032961
:103D000015D00424204610BD0120FFF7B7F8142079
:103D1000FCF7B4FDFF2002F00DF9FF28F7D10024D5
:103D20002046FFF7ABF8EDE74FF4007000E0082005
:103D300010800024E6E7FFF7C4F82060F9E770B5CB
:103D400014460D460BB148B901E0042070BDDAB24B
:103D500021462846FFF7ECF80028F7D0012070BD77
:103D6000002804D0012803D0022801D00120704788
:103D70000020704770B514460D460BB148B901E0FC
:103D8000042070BDDAB221462846FFF775F90028F5
:103D9000F7D0012070BDFEE72DE9F041474C00252A
:103DA00004F53E6094F8D51B4FF4FA76804601295D
:103DB00038D1B4F8CA3B024641A1283004F6CA34CF
:103DC00000F032F94648FFF739F94648A18807461E
:103DD000FFF75AFE3046FCF751FD384933460322BF
:103DE0000A314148FEF782FBA288334639463E48F5
:103DF000FEF77CFBA38842463CA1394800F014F949
:103E00003748FFF71BF9E57225804048A580314609
:103E10000746A4F6CA34FCF7AEF9324639463C48A8
:103E2000FEF74CFB94F8D40B012835D1B4F8C83B0D
:103E3000424623A12A4804F6C83400F0F5F8284881
:103E4000FFF7FCF8334821890746FFF7DBFD1B49E4
:103E5000334603220D312448FEF748FB22893346BE
:103E600039462148FEF742FB238942462AA11C48D5
:103E700000F0DAF81A48FFF7E1F8257325802E489C
:103E8000258131460746A4F6C834FCF774F932465A
:103E900039462A48FEF712FB94F8D70B01280BD1BC
:103EA00084F8D75BFEF7EAFE20B125A0BDE8F0411B
:103EB00000F0AAB828A0F9E7BDE8F0815A00002078
:103EC00025733A0920555341525432207265636577
:103ED000697665202025642062797465200D0A00CA
:103EE000620C002052040020A00D002025733A0926
:103EF00020555341525433207472616E736D69744E
:103F00002025642062797465200D0A003A0800209B
:103F1000E40D00205E02002025733A09205553412C
:103F2000525432207472616E736D6974202564205E
:103F300062797465200D0A0046060020280E0020D4
:103F40004C6F726120494420BBF1C8A1CAA7B0DC04
:103F5000A3A1200D0A0000004C6F7261204944208B
:103F6000BBF1C8A1B3C9B9A6A3A1200D0A000000E6
:103F700008B5010A8DF800108DF80100012168468E
:103F8000FCF7B8FA08BD000000B585B00021012299
:103F90008DF800208DF801108DF802200D228DF88B
:103FA0000320A5228DF804208DF805206C228DF8C1
:103FB000062080228DF8072012228DF80820072283
:103FC0008DF8092017228DF80A208DF80C10020AAE
:103FD0008DF80D208DF80E0003208DF80B108DF854
:103FE0000F008DF8101011216846FCF754F98DF878
:103FF00011004FF47A73122269460248FEF776FAEE
:1040000005B000BDE40D00200FB4054B10B503A9A9
:10401000044A029800F03CF810BC5DF814FB000064
:104020009D5800081C0000200FB4084B10B504A9CF
:1040300002AA039800F02CF8044602A9002000F020
:1040400058FA204610BC5DF814FB0000F344000849
:104050000907090E002804DB00F1E02080F80014B5
:10406000704700F00F0000F1E02080F8141D704749
:1040700002E008C8121F08C1002AFAD17047704731
:10408000002001E001C1121F002AFBD1704700008F
:104090002DE9FF4F8DB00F460546002606E0252886
:1040A0000BD0DDE90F1290476D1C761C2878002894
:1040B000F5D111B03046BDE8F08F0024A246A146EC
:1040C0000122EC4900E0044315F8013F203B02FACD
:1040D00003F00842F7D128782A2810D06FF02F0279
:1040E0002878A0F13001092914D80AEB8A0102EBE3
:1040F000410144F0020400EB010A6D1CF0E701CF1E
:104100005FEA000A03D544F40054CAF1000A44F0FF
:1041100002046D1C28782E2817D115F8010F44F0E1
:1041200004042A280ED06FF02F022878A0F1300165
:1041300009290AD809EB890102EB410100EB0109C9
:104140006D1CF2E757F8049B6D1C28786C280FD083
:1041500006DC4C2817D068280DD06A2814D104E05A
:10416000742810D07A280FD10DE044F400140AE02E
:1041700044F4801401E044F440146978814202D18F
:1041800004F580146D1C6D1C2A786E2A1FD00CDC7F
:10419000632A31D004DC002A8BD0582A11D1A3E045
:1041A000642A68D0692A0CD165E0732A2ED004DC19
:1041B0006F2A73D0702A04D19BE0752A6FD0782AB9
:1041C0006ED01046DDE90F129047761C50E1C4F323
:1041D0000250022806D0032809D0042801CF09D0B4
:1041E000066045E101CFF117C0E9006140E101CF70
:1041F00006803DE106703BE117F8040B8DF80000E6
:1042000000208DF80100EB46012003E057F804BBC5
:104210004FF0FF3061074FF0000102D40DE008F1CC
:104220000101884649450FDA8045F8DB1BF8081084
:104230000029F4D108E008F1010188468142FADB47
:104240001BF808100029F6D1DDE90F23AAEB0800BE
:104250008146214600F036F9304400EB080604E0C0
:10426000DDE90F121BF8010B9047B8F10108F7D2F6
:1042700021464846F7E00A21C4F302534FF0000BF1
:104280000891022B04D001CFC117032B09D00AE0FB
:10429000FF1D27F00707F7E8020108E032E01FE002
:1042A00020E000B2C117042B01D140B2C117031E98
:1042B00071F1000307DA4FF0000CD0EB0C006CEB4F
:1042C00001012D2302E0230504D52B238DF8243092
:1042D000012303E0E30701D02023F7E7984658E0E5
:1042E0000A2110E010210EE010204FF0000B089082
:1042F0000CE010214FF0000B44F004044FF00809CB
:10430000089103E008214FF0000B0891C4F3025319
:10431000022B04D001CF0021032B06D006E0FF1DA5
:1043200027F00707F7E8020103E080B2042B00D171
:10433000C0B24FF0000823072BD5702A07D0DDF854
:1043400020C08CF0100C5CEA0B0C05D00EE0402372
:104350008DF82430012308E050EA010306D0302311
:104360008DF824308DF8252002239846DDF820C0F2
:104370008CF0080C5CEA0B0C0BD150EA010301D164
:10438000630706D530238DF824304FF00108A9F1DA
:104390000109582A04D038A20B9208AA0A920BE00D
:1043A0003AA2F9E75B46089AFBF7F7FE0B9B9B5C8A
:1043B0000A9A521E0A92137050EA0102F2D10A9828
:1043C000ADEB000000F1200B600702D524F480342F
:1043D00001E04FF00109D94502DDA9EB0B0000E037
:1043E000002000EB0B0141440890AAEB010AE00316
:1043F00006D4DDE90F232146504600F063F8064459
:104400004FF0000908E009A911F80900DDE90F12D1
:10441000904709F10109761CC145F4DBE0030CD596
:10442000DDE90F232146504600F04CF8064404E035
:10443000DDE90F1230209047761C0899481E08903D
:104440000029F5DC08E00A980A990078491C0A91CD
:10445000DDE90F129047761CBBF10001ABF1010BB7
:10446000F1DC21465046DDE90F2300F019F806443F
:104470006D1C1BE6092801003031323334353637E4
:1044800038396162636465660000000030313233A0
:104490003435363738394142434445460000000040
:1044A0002DE9F041044600251E461746880404D431
:1044B00005E039462020B0476D1C641EF9D528461A
:1044C000BDE8F0812DE9F041044600251E469046E6
:1044D000C80301D5302700E02027880404D505E073
:1044E00041463846B0476D1C641EF9D52846BDE8E4
:1044F000F0810A68531C0B601070704710B50446B9
:10450000002084F80402401EC4F82C02204601F06A
:1045100043FC08B1032010BDB4F8FE01A0F52A4108
:10452000553901D0022010BD94F83600B4F8371088
:1045300040EA01210848B0EB012F08D094F852104E
:10454000B4F8532041EA0221B0EB012F01D1002041
:1045500010BD012010BD00000046415400E0401C89
:1045600002780AB18A42FAD1D0B27047F0B500227F
:10457000184B144602EB420653F8265085B1D0F88A
:104580000072BD420DD103EB8605D0F808626F685A
:10459000B74206D12D89B0F80662B54204D000E0DA
:1045A0000124521C022AE5D3022A01D079B904E081
:1045B0005CB9022909D01220F0BD02EB420003EBE6
:1045C00080004089B0F5807F01D00020F0BD102030
:1045D000F0BD0000A414002030B50021064A0C46AE
:1045E00001EB410352F82350854201D142F82340A8
:1045F000491C0229F4D330BDA4140020D0F8242291
:10460000D0F80002490A90F80202B1FBF0F0121D46
:1046100002CA19B1884203D3401AF8E70020704754
:10462000116808447047D0F81422891E921E8A42ED
:1046300001D800207047D0F8282290F8020201FB30
:10464000002070472DE9F0410F00054606D001F02B
:1046500099F902280BD20120BDE8F081D5F80C624F
:104660001EB1D5F81402B04208D8012606E0411C5C
:10467000F2D0D5F814128142EED83E463446D5F831
:104680001402641CA04202D80224022E0AD321463E
:10469000284601F077F938B1411CDDD00128DBD084
:1046A000B442ECD10020D7E76FF070422146284693
:1046B00001F08DFB30B957B122463946284601F04A
:1046C00086FB20B1012812D001242046C4E7C5F89A
:1046D0000C42D5F81002411CF7D0401EC5F810025C
:1046E00095F8050240F0010085F80502EDE74FF06E
:1046F000FF34EAE72DE9F84F884682460D6800E06E
:104700006D1C28782F28FBD05C28F9D00024DAF81B
:1047100020722646A85D761C202817D32F2815D096
:104720005C2813D0FF2C32D2012100F023FF5FEA76
:1047300000092CD0B9F1800F04D2014668A0FFF720
:104740000DFF20BB27F81490641CE3E7AA19C8F8F2
:104750000020202801D2042517E0002515E000BF25
:1047600007EB440030F8020C20280DD02E280BD087
:104770006CB1002027F814000B222021DAF818026F
:1047800001F003FB002606E0641E002CE8D10620A1
:10479000BDE8F88F761C37F816002028FAD02E28AE
:1047A000F8D01EB145F0030500E0641E2CB107EB04
:1047B000440030F8020C2E28F7D1002081464FF03B
:1047C000080B009037F8160006F101065FEA0008B2
:1047D00024D0B8F1200F04D0B8F12E0F04D1A64296
:1047E00002D045F00305EDE70098584501D2A642F6
:1047F0001AD1BBF10B0F0FD0A64201D045F0030533
:104800000CD84FF0080000904FEA896026464FF020
:104810000B0B4FEA1069D5E745F00305DAF81802EB
:104820000178E52938D039E04046B8F1800F10D33F
:10483000002100F09FFE5FEA000805D02B4901EB44
:10484000080010F8800C804645F00205B8F1000F12
:1048500004D0014626A0FFF781FE20B14FF05F088B
:1048600045F003050FE0A8F14100192802D849F0EE
:10487000020908E0A8F16100192804D8413049F084
:1048800001091FFA80F8DAF81822009902F801806D
:104890000098401C009095E705210170BBF1080FBE
:1048A00003D14FEA89604FEA1069C9F381000328F8
:1048B00003D06FEA0901890701D145F00205A90774
:1048C00009D409F00301012901D145F0100501289F
:1048D00001D145F00805DAF81802C572002057E743
:1048E000222A3A3C3E3F7C7F00000000D86000084E
:1048F0002B2C3B3D5B5D00002DE9FC5F0546002154
:1049000000F014FA00286ED1FF204FF6FF7A0090D5
:104910008146A5F824A200BFD5F81012D5F80002F0
:1049200001F03AFA06000ED1D5F81442207848B1C9
:10493000E17AE52801F03F0170D00A0704D50F297C
:104940006CD107E0042674E00F2903D0B9F1000F01
:104950004DD052E0D5F8201291B3420608D5627BC3
:10496000009220F04000B5F806228146A5F82422E6
:10497000484534D1627B0098824230D10191207841
:10498000A04620F04000401E00EB80010027DFF829
:10499000A8B001EBC00601241BF8071001EB0800CA
:1049A000008874B100F002FE0446FF2E17D2019871
:1049B00030F81600761C00F0F9FDA0420FD102E09D
:1049C00030E050450BD17F1C0D2FE5D398F8000047
:1049D000400609D544B1019830F8160020B1FF20F7
:1049E00000F0FF091EE025E0A9F10100F8E72046EC
:1049F00001F0B8FA009988421BD0D5F81802C17AA4
:104A0000C9070BD10A2101E0491E06D314F8012B76
:104A100010F8013BD21AF7D000E052B14FF0FF0975
:104A2000A5F824A20021284600F008F806003FF46B
:104A300073AF3046BDE8FC9F586100082DE9F04196
:104A4000B0F806620446761C30040F46000C37D0DE
:104A5000D4F8100298B3310773D1401CC4F8100287
:104A6000D4F80C12D4F8000231B190F80222521E90
:104A700012EA161F05D064E0B0F80802B0421FD950
:104A80005FE000F07FFF054601281ED9681C3AD080
:104A9000D4F80002D0F81412A94249D87FB1D4F852
:104AA0000C12FFF7CFFD05000DD0012D0DD0681CB5
:104AB00029D0D4F8000201F0BDFA20BB07E0FFE7DF
:104AC0000420BDE8F0810720FBE70220F9E74FF45E
:104AD00000720021D4F8000201F057F92946D4F8F9
:104AE0000002FFF7A0FDD4F8001200274FF00108E4
:104AF000C1F82C0211E000BF80F80482D4F8000253
:104B000001F098FA08B10120DBE7D4F80002D0F8F0
:104B10002C12491C7F1CC0F82C12D4F8000290F80B
:104B20000212B942E8D8D0F82C12C91BC0F82C12D6
:104B3000C4F80C522946D4F80002FFF774FDC4F8FB
:104B40001002A4F80662D4F8000206F00F0100EB90
:104B50004110C4F814020020B3E700002DE9FF5F04
:104B6000D0F818720446D0F820620C223946684604
:104B700001F002F99DF80B00C0071AD00020F8726E
:104B80000125C4F820022B4632466946384600F01B
:104B9000B9FE2046FFF7B0FE10B96D1C642DF2D3AC
:104BA000642D0CD004280BD19DF80B00F872C4F8CA
:104BB00020629DF80B0080070FD5002004E007203D
:104BC00004B0BDE8F09F401C36F810100029FAD15F
:104BD0000D211930B0FBF1F600E00126002120463E
:104BE00000F0A4F8A0B90027D4F81012D4F80002FD
:104BF00001F0D2F860B9D4F814020078E5280AD0A0
:104C000048B1002701212046FFF718FF0028EBD00C
:104C1000042812D012E07F1C3046B742F2D1461E63
:104C20005FEA060A5FD0B4F806122046A1EB0A013B
:104C300000F07CF8050003D074E00720054671E021
:104C4000D4F8180201F08EF9CDF80C00D4F8101247
:104C5000D4F8000201F0A0F8050063D1D4F81412D2
:104C6000D4F82092039848730F20C872002008736C
:104C700088760AF0FF0BC876ABF1010000EB8002EA
:104C800002EBC00500234FF6FF7E274E4A1C01E0D1
:104C9000604503D039F81500F4466D1CF75CC85523
:104CA00016F80380070A08F8027000B960465B1C1A
:104CB0000D2BEDD3704502D039F8150008B94BF033
:104CC000400B81F800B0D4F80012012081F80402F2
:104CD00000212046FFF7B2FE050023D1AAF1010012
:104CE0005FEA000AB2D1D4F81012D4F8000201F041
:104CF00053F8050016D1D4F814022022002104F53F
:104D0000007401F042F8D4E905010B2201F034F8F7
:104D1000A0696169C07A00F0180008732168012059
:104D200081F8040228464BE75861000870B5A0F8E6
:104D30000612D0F808320D460446012B40D0D4F8B4
:104D40000002D0F8141299423AD933B990F80012FF
:104D5000032906D1D0F824321BB190F802020601D3
:104D600014E0B0F80812A9422AD9D0F8240214E0BD
:104D700000F008FE0346401C20D0022B20D3D4F8BC
:104D80000002D0F8140298421AD9AD1BD4F80002E0
:104D9000B5421946ECD2FFF746FCC4F80C3278B1A4
:104DA00000EB1510C4F81002D4F8000205F00F0152
:104DB00000EB4110C4F81402002070BD012070BD4A
:104DC000022070BD084910B50B5C002253B90122C6
:104DD0000A540A1801EB8000127A406801681046F4
:104DE00088470246104610BDBC14002030B4054C64
:104DF000231804EB80001B7A406804691846A44617
:104E000030BC6047BC14002030B4054D2C1805EBB5
:104E10008000247A406885682046AC4630BC6047F4
:104E2000BC140020044A111802EB8000097A406883
:104E30004268084610470000BC14002030B4054DFD
:104E40002C1805EB8000247A4068C5682046AC46E3
:104E500030BC6047BC1400202DE9FC5F0D460446C1
:104E600001F018F95FEA000973D194F807020028ED
:104E70006FD1D4F8240201274FF0020A002869D02C
:104E8000691C33D0D4F80C02A84200D20546C4F8FD
:104E90000852002D5CD02046691EFFF7AFFB01468B
:104EA000C4F81402D4F80002FFF7BDFB00287CD040
:104EB000D4F800126D1E91F80222521E02EA552209
:104EC0001518B4F80802C005E4D0D4F81822AA4294
:104ED000E0D094F80602400646D591F8010201237D
:104EE0002146FFF7ABFF002874D137E002C80091DC
:104EF000D4F810128346022509B30026AD1C019197
:104F00008846761CD4F8000200F03CFD01460128DA
:104F10004BD9481C5ED008F101008142F0D00098C6
:104F2000854206D8CBF800600BF10400019A04C05A
:104F30008346D4F80002D0F814028842DDD8D4F8B1
:104F4000240205600098854205D80021CBF80010A6
:104F5000C2E09DE016E04FF01109BDE094F80602B2
:104F600020F0400084F80602D4F8000201232A460B
:104F700090F801022146FFF747FF00282AD1C4F824
:104F80001852A9E0D4F80C02A84204D294F80612F0
:104F9000890700D405464FF00008D4F80802C4F889
:104FA00008824DB3D4F8002200E06EE092F80212BD
:104FB0004E0280B1691E401EB1FBF6F1B0FBF6F364
:104FC000994208D3711E8843C4F808022D1AD4F8F8
:104FD000141210E06EE0D4F8101251B900211046FE
:104FE000FFF730FB014601284FD0481C62D0C4F8BF
:104FF0001012C4F8141211BB31E000BF94F806027D
:105000008007D4F8000205D5FFF71CFB010004D18E
:10501000354616E000F0B6FC0146481C4AD001298E
:1050200033D9D4F80002D0F8140288422DD9C4F83C
:105030001412D4F80802AD1B3044C4F80802B5427B
:10504000DCD8D4F808022844C4F80802E80506D0E1
:10505000D4F80002FFF7E7FAB8B100EB5528B4F82E
:105060000802C0052CD0D4F81822424528D094F864
:105070000602400614D5D4F800020123214690F818
:105080000102FFF7DBFEA8B904E084F807A20220C2
:10509000BDE8FC9F94F8060220F0400084F8060268
:1050A000D4F800020123424690F801022146FFF79E
:1050B000ABFE18B184F807720120E9E7C4F8188242
:1050C000D4E98201884207D9C4F80C0294F8060298
:1050D00040F0200084F806024846D9E72DE9F74160
:1050E00081B0904602980090684600F0AEFC040043
:1050F00003D50B2004B0BDE8F0810E4E002756F812
:10510000245025B12846FFF767FA85F80072019808
:10511000002801D080F8007246F8240002D0B8F1CF
:10512000010F01D00020E5E7002202A901A800F04C
:105130004FFADFE7E00C00202DE9F747ADF2344DE0
:1051400006000FD04FF0000802F01F0727F0010201
:105150000DF5876180A8C6F8008200F039FA0400D6
:1051600005D0B8E009200DF5886DBDE8F0870DF594
:10517000856086908AA888906846DDF8381400F02B
:1051800053FB859D04000BD11DB1780803D001218C
:1051900002E0062404E000216846FFF7E7F9044630
:1051A00017F01C0F5FD04FF0010AD4B1042C13D1BB
:1051B00000204B4902E0401C022805D200EB4002CF
:1051C00051F82220002AF6D1022804D06846FFF7C1
:1051D000C5FC044600E01224859D47F0080754B141
:1051E00079E0E87A10F0110F01D0072473E0780716
:1051F00001D508246FE0380743D500F024FCA873DC
:10520000010AE973010C2974000E687485F80B809B
:1052100085F81C8085F81D8085F81E8085F81F8024
:105220002946809800F080FC81460021284600F045
:1052300091FE8099B9F1000F81F804A21FD08098E7
:105240004946D0F82CA200F03EFE040043D18099DC
:10525000A9F10100C1F80C025146809800F09CFDB4
:1052600004000AD037E0B4BBE87AC10601D50424B3
:1052700031E0B90701D5C007B7D1380701D547F0EC
:1052800020078098D0F82C02C6E98705780801D05D
:10529000012100E00021684600F0F6FBC6F8280274
:1052A000D8B186F8067286F807824746294606F581
:1052B0000076809800F038FC3061287FD5F81D100A
:1052C00040EA0120C6E90270B761776280983060D9
:1052D000B0F80602B080204645E70224FBE7000054
:1052E000A414002070B5044600F0D4FE002811D1AB
:1052F00094F806128A060DD5480612D5D4F8000295
:105300000123214690F80102D4F81822FFF796FDF8
:1053100008B1012070BD94F8060220F0400084F826
:105320000602D4F81C12D4F8000200F035FD002863
:10533000F0D1D4F82052E87A40F02000E87294F8D6
:105340000C022877B4F80C02000A6877D4F80C0233
:10535000000CA877D4F80C02000EE877D4F81012ED
:10536000284604F5007400F0F5FD00F06CFBA8750C
:10537000010AE975010C2976000E68760020A874F0
:10538000E874A07920F02000A0712168012081F844
:1053900004022068BDE8704000F0F1BD2DE9F84F2F
:1053A00088460021994615460446196000F072FEB1
:1053B000002808D194F80702002804D194F80602C6
:1053C000800702D40720BDE8F88FD4F8080201272F
:1053D00041194FF0020A81427BD3B9E0D4F8081298
:1053E000C80577D1D4F8002292F80202401E00EAE4
:1053F000512010F0FF061ED131B1D4F8240240B183
:105400002046FFF7FBF809E0D4F8100240B900216C
:1054100001E0D4F814121046FFF714F9002858D010
:1054200001283DD0411C6CD0C4F81402D4F81012ED
:1054300009B9C4F8100294F80602400610D5D4F851
:1054400000020123214690F80102D4F81822FFF748
:10545000F5FCE8BB94F8060220F0400084F8060250
:10546000D4F81412D4F80002FFF7DDF8C0B13044CC
:105470000090680A5FEA000B30D0D4F8000206EB17
:105480000B0290F802128A4201D9A1EB060B90F8A8
:1054900001025B464146009AFFF7D0FCC0B903E029
:1054A00084F807A202208EE7D4F818120098081A90
:1054B00058450CD208EB40214FF40072204600F012
:1054C0005BFC94F8060220F0400084F8060202E03B
:1054D00017E040E01CE04FEA4B262DE0D4F818120C
:1054E0000098814211D0D4E9820188420DD2D4F8CB
:1054F00000020123214690F80102009AFFF784FC84
:1055000018B184F8077201205DE70098C4F818020A
:10551000B4F80802C0F30800C0F50076AE4200D926
:105520002E4620443246414600F026FC94F80602FE
:1055300040F0400084F80602D4F80802B044304439
:10554000C4F80802D9F800008119AD1BC9F8001091
:10555000002D7FF443AFD4E98201884201D9C4F819
:105560000C0294F8060240F0200084F806020020A5
:1055700029E70000802804D30B4A51B1FF2801D944
:105580000020704702EB4000A0F58050B0F8000FFB
:10559000704732F81130834203D0491C89B2802908
:1055A000F7D38031C8B27047926100080021064BE2
:1055B00000E0491C33F81120002A04D08242F8D1BF
:1055C000024830F8110070479262000872640008C7
:1055D0002DE9FF474FF000090746C0F80090164636
:1055E000084600F032FA050003D50B2004B0BDE8F0
:1055F000F0878A4850F82540A4B13C6094F8000236
:1056000028B194F80102FFF70DFCC1070CD084F813
:105610000092E8B284F80102FFF7D4FBC10708D07A
:105620000320E3E70C20E1E70EB1400704D400209B
:10563000DCE71EB1400701D50A20D7E7002529463F
:105640002046FEF75BFF012823D100204FEA0D071B
:1056500004EB001191F8C22101F5DF712AB10A7A39
:10566000D1F8091042EA012100E0002147F820109A
:10567000401C0428ECD3002657F826502DB12946AB
:105680002046FEF73BFF08B909E00220761C042EF5
:10569000F2D3032801D0E0BB01E00120A6E7B4F873
:1056A0000B00B0F5007F60D1E28A2AB994F824009B
:1056B000D4F8251040EA0122C4F81822217C84F88D
:1056C0000312012901D002294FD1607B514384F894
:1056D0000202F0B1431E184247D1B4F81130A4F8C9
:1056E00008321E0741D1B4F813602EB994F8206037
:1056F000D4F8217046EA0726B4F80EC0BCF1000FBA
:1057000033D00CEB010707EB1317BE422DD3F61B6A
:1057100000E02AE0B6FBF0F038B3012640F6F67858
:10572000404500D302264FF6F678404500D30326C5
:10573000801C2F44C4F82872AC44C4F81402C4E995
:10574000875C032E13D083B16144C4F82412022E67
:1057500019D000F0010100EB400001EB500000BF48
:1057600000F2FF10B2EB502F0FD20D203EE7002BBE
:10577000FBD194F82C10D4F82D30800041EA03219D
:10578000C4F82412ECE74000EAE74FF0FF30C4F819
:105790001002C4F80C02802084F80502032E30D1D8
:1057A000208E01282DD12046691C00F0F5FA40BB5F
:1057B00084F80592B4F8FE01A0F52A41553920D1AC
:1057C0002078D4F8011040EA01201549884218D108
:1057D00094F8E401D4F8E51140EA01201149884227
:1057E0000FD194F8E801D4F8E91140EA0120C4F897
:1057F000100294F8EC01D4F8ED1140EA0120C4F84D
:105800000C02064984F80062091F0888401C0880C1
:10581000A4F806022046FEF7DFFE08E7E00C0020B1
:10582000525261417272416173B504460198017828
:105830002F2901D05C2901D1401C01900025C4F81A
:10584000085201980078202806D200212046FFF750
:105850006DFAC4F814527CBD01A92046FEF74AFF38
:105860000028F8D12046FFF747F8D4F81812C97A73
:1058700028B10428EFD14907EDD405207CBD4907A4
:10588000FCD4D4F81412C87AC006F6D5D4F80002B5
:1058900000F04AF9C4F80802DEE7000004490A688B
:1058A0005206FCD5024AC1B2121D116070470000B9
:1058B0000038014010B5002821D0114B0022001FF4
:1058C000196803E0814203D80A4649680029F9D1E2
:1058D00052B11368841A9C4204D1006818441060C5
:1058E000104602E0506000E0186039B102680B1AFF
:1058F000934203D10B681A4402604968416010BDAD
:10590000E40C00207CB516461C4605460B2200F030
:1059100033FA052C11D91A4A0CE00021B61C234693
:10592000044663F35F044008E30300D55440491C78
:105930001029F4D330880028EFD107214FEA0D0257
:1059400004F00F003030392800D9C01D5054491ED2
:105950002409F5D17E205054002000E0401C8842EC
:1059600002D22B5C202BF9D1082902D2535C491CAE
:1059700000E020232B54401C0828F5D37CBD0000F8
:10598000211001002DE9F0410D46044602290DD3F6
:10599000D4F81402A84209D994F800024FF0FF3657
:1059A000012807D002282AD0032836D00126304605
:1059B000BDE8F081D4F8200205EB550700EB572134
:1059C000204600F0E9F90028F1D1C7F308007F1C58
:1059D00014F80080D4F8200200EB5721204600F094
:1059E000DBF90028E3D1C7F30800215C48EA012075
:1059F000E90701D00609DAE7C0F30B06D7E7D4F8C8
:105A0000200200EB1521204600F0C6F90028CED177
:105A1000E8B204EB40000688C9E7D4F8200200EBA6
:105A2000D511204600F0B8F90028C0D140F2FF108F
:105A300000EA850020440178D0F8010041EA002006
:105A400020F07046B3E70020704710B504464FF0D1
:105A5000FF302268002A13D0114600E0491C0B7861
:105A6000202B0ED33A2BF9D112F8013B303B0A2BF5
:105A700006D28A4204D1002B02D1491C184621606B
:105A800010BD002010BD0000F0B50346254AD3F834
:105A90000042002000EB400552F82560A6420BD1E1
:105AA00002EB8505D3F808626F68B74204D12D89EF
:105AB000B3F80662B54202D0401C0228EAD302289D
:105AC0001AD1002002E0401C022805D200EB40055C
:105AD00052F82550002DF6D1022815D000EB4005D4
