:020000040800F2
:1000000078490020010100088F3100089D26000872
:100010008D31000833020008AF3E000800000000E8
:10002000000000000000000000000000F13800089F
:10003000190300080000000091310008F33800089F
:100040001B0100081B0100081B010008D932000831
:100050001B010008933100081B0100081B01000868
:100060001B0100081B0100081B0100081B01000800
:1000700035020008410200084D020008590200083C
:1000800065020008710200081B0100081B0100083E
:100090001B0100081B0100081B0100081B010008D0
:1000A0001B0100081B0100081B0100081B010008C0
:1000B0001B010008793900081B0100081B0100081A
:1000C0001B0100081B0100081B0100081B010008A0
:1000D0001B010008AD3D0008C13D0008D53D0008EA
:1000E0001B0100081B0100081B010008DFF80CD0F1
:1000F00000F062F800480047BD430008784900203E
:100100000648804706480047FEE7FEE7FEE7FEE7B1
:10011000FEE7FEE7FEE7FEE7FEE7FEE777390008C9
:10012000ED000008202A04DB203A21FA02F0002129
:10013000704721FA02F3D040C2F1200291400843F7
:100140001946704740EA01039B0703D009E008C93C
:10015000121F08C0042AFAD203E011F8013B00F88C
:10016000013B521EF9D27047D2B201E000F8012BD8
:10017000491EFBD270470022F6E710B513460A4627
:1001800004461946FFF7F0FF204610BD30B50B4678
:10019000014600202022012409E021FA02F59D42B7
:1001A00005D303FA02F5491B04FA02F52844151E8B
:1001B000A2F10102F1DC30BD064C074D06E0E0681B
:1001C00040F0010394E8070098471034AC42F6D39E
:1001D000FFF790FFEC4400080C45000870B58C1840
:1001E00010F8015B15F0070301D110F8013B2A114B
:1001F00006D110F8012B03E010F8016B01F8016B38
:100200005B1EF9D12B0705D40023521E0DD401F833
:10021000013BFAE710F8013BCB1A921C03E013F8FC
:10022000015B01F8015B521EF9D5A142D8D3002031
:1002300070BDFEE7014800F08FBA0000E01E00200C
:10024000014800F089BA00009C1E0020014800F01F
:1002500083BA0000D01D0020014800F07DBA0000E4
:100260008C1D0020014800F077BA0000141E002009
:10027000014800F071BA0000581E002030B590F817
:1002800040500124AC40C56B6C60046863604368F7
:10029000102B036803D099600068C26030BD9A607B
:1002A0000068C16030BD000070B50546022101F054
:1002B0002FF90C4C03212070284601F029F9E07039
:1002C0000421284601F024F960700521284601F038
:1002D0001FF9A07021462846BDE87040002201F0B9
:1002E0006FBA00000708002070B50C460A78054672
:1002F000022101F015F9E2780321284601F010F9F6
:1003000062780421284601F00BF9A2782846BDE85E
:100310007040052101F004B9704772B6FEE7002273
:10032000AFF3008030B50E4B054601205C7A012CFE
:1003300015D8587A00241C54587A03EB8000456085
:100340005D7A03F108002A54587A421C5A72303000
:1003500008703A2048702F208870CC70002030BD83
:10036000681F002006490020C8610648016941F065
:1003700004010161016941F0400101617047000021
:10038000481F002000200240064A0021D161064992
:100390000A6942F002020A614861086940F04000BF
:1003A00008617047481F002000200240044B0022D3
:1003B000DA61044A136943F0010313610180704755
:1003C000481F00200020024014480022C168CB06CC
:1003D000134904D5CA6942F00202CA611022C368F7
:1003E0005B0705D5CB6943F00103CB6142F0040202
:1003F000C369DB0707D0CB6943F00403CB61C16954
:1004000021F00101C161A2F58071013901D0C26002
:100410007047C16921F00101C161704700200240AD
:10042000481F002070B5054600F06CFC0646114CD4
:1004300009E0681C07D025B100F064FC801BA842CD
:1004400001D9032070BDE068C007F2D1E0688006E2
:1004500001D52020E060E068C00605D4E069C0074F
:1004600002D1E068400703D5FFF7AEFF012070BD61
:10047000002070BD0020024038B5274CD4F8CC0EC7
:10048000B8B301680A68D243D20642D40A6800258C
:100490004968009101F0E2FDD4F8CC0E806B006851
:1004A0004068C0F51670A4F8C20EB4F8C01E084427
:1004B00081B2A4F8C01ED4F8B42E04F25A2001442C
:1004C0001160D4F8B41E0831C4F8B41ED4F8BC2EA0
:1004D000914203D100F6BA31C4F8B41EB4F8C01E7C
:1004E000A1F6B83253424FF41672934205DB08442A
:1004F00005E0FFE74FF0FF3038BDA4F8C05ED4F848
:10050000B41E4860D4F8B40E4168D4F8CC0E02F0A2
:1005100053F8002038BD0000280D0020104982B09B
:10052000A1F6146000F6AC62C0F8B41E00F6B46028
:10053000C0E90112A1F6BA324A60002181818169C5
:1005400009680A684A680092CA6842F01002CA60E4
:10055000016880694FF41672496802B002F02CB845
:100560003C1B002030B4044604480A462146D0F81B
:10057000CC0E30BC4FF4FA6302F036B8280D0020E0
:1005800010B50D4CD4F8B41ED4F8B80E884212D071
:1005900001884068091A89B202F064FBD4F8B80EE9
:1005A0000830C4F8B80ED4F8BC1E884203D104F653
:1005B0001460C4F8B80E10BD280D00200B4810B50B
:1005C000002101600A4981600221C160094900F0EF
:1005D000E5F9002808D000F035FA07A003F0E8FCA0
:1005E000BDE81040FFF799BE10BD0000341F002089
:1005F00000F8000830080020204572726F722E2E1D
:100600002E310D0A0000000030B50022064B074CC9
:1006100006E020CB40F82250521C92B2A34201D2F5
:100620008A42F6D330BD000000F80008000001083F
:100630002DE9F0410E46804600240D4D00F04CFAA5
:10064000FFF7BCFF0B4F0CE058F82420002329468D
:10065000022000F001FA10B9641CA4B22D1DBD42A5
:1006600001D2B442F0D3BDE8F04100F0EBB9000094
:1006700000F800080000010810B590F821100022D1
:10068000022905D00421816380F82020012010BDBB
:1006900001680B6823F00E030B6001680B6823F000
:1006A00001030B6090F84030C46B012101FA03F3A1
:1006B000636080F8211080F82020104610BD0000F3
:1006C00010B590F821100024022903D00421816381
:1006D00001243DE001680A6822F00E020A60016808
:1006E0000A6822F001020A601A4A0168914201D1A7
:1006F000012121E0174A1432914201D110211BE05F
:10070000144A2832914201D1891515E0114A3C3230
:10071000914201D189140FE00E4A5032914202D128
:100720004FF4803108E00B4A6432914202D14FF419
:10073000801101E04FF08071064A083A51600121B2
:1007400080F82110002180F82010416B01B188470A
:10075000204610BD080002402DE9F05FC16B0C6817
:1007600001680B68D0F840C0042202FA0CF2494D2F
:10077000DFF824A1494E4A4FDFF828B1DFF828E11D
:1007800022422CD05A072AD50A68920603D40A6856
:1007900022F004020A600168A94201D1042219E092
:1007A000514501D1402215E0B14202D14FF480629F
:1007B00010E0B94202D14FF480420BE0594502D11A
:1007C0004FF4802206E0714502D14FF4800201E02F
:1007D0004FF080622F4908394A60C16A3BE04FF010
:1007E000020808FA0CF818EA040F4FF000094FF05D
:1007F000010235D05FEA837832D50B689B0605D4B9
:100800000B6823F00A030B6080F821200168A942DD
:1008100001D1022219E0514501D1202215E0B14257
:1008200002D14FF4007210E0B94202D14FF40052ED
:100830000BE0594502D14FF4003206E0714502D178
:100840004FF4001201E04FF00072124908394A607B
:1008500080F82090816A00291AD0BDE8F05F08472F
:10086000082505FA0CF5254212D01B0710D50B6898
:1008700023F00E030B6090F84010C36B02FA01F1F5
:100880005960826380F8212080F82090016BE2E7B4
:10089000BDE8F09F080002401C000240300002400A
:1008A00044000240580002406C00024030B528B3BA
:1008B00008C8134914221944B1FBF2F18900C1633D
:1008C00010498163022141771A6843F6F0718A4327
:1008D000D0E900142143D0E902452C4321430469A7
:1008E0002143446921438469214311431960002154
:1008F0004163012242770177084630BD012030BDB7
:10090000F8FFFDBF0000024070B5044690F82000DB
:10091000002501280CD0012084F8200094F82160E3
:100920000020012E06D084F820000225284670BD44
:10093000022070BD022684F82160A063206806684A
:1009400026F0010606602046FFF798FCE06A0028C2
:100950002068016802D041F00E0106E021F0040198
:1009600001602068016841F00A01016020680168A7
:1009700041F001010160D9E770B5044600F0C2F909
:100980000546601C02D004480078044400F0BAF91F
:10099000401BA042FAD370BDF81B00202DE9F047A0
:1009A000054626480F460126017E01290FD0012168
:1009B000814601762868DFF888804CF2503402289E
:1009C00008D0A2462046FFF72DFDA8B131E0022055
:1009D000BDE8F0872046FFF725FD08BB0120FFF7A3
:1009E000C1FC2046FFF71EFDD8F81010064621F086
:1009F0000401C8F810101CE04FF0FF303860AC68FC
:100A000011E02046FFF7C0FC5046FFF70BFDD8F879
:100A10001010060021F00201C8F8101001D03C604F
:100A200007E004F58064D5E9020100EB8120A042D3
:100A3000E7D8002189F818103046C9E7481F002080
:100A4000002002400348016941F08001016100205B
:100A500070470000002002402DE9F05F07461C4867
:100A600088460024017E15461E46012909D0012131
:100A7000814601764CF2503A5046FFF7D3FC18B14C
:100A800022E00220BDE8F09F012F02D0022F00D00B
:100A90000427D346DFF83CA0220128463146FFF761
:100AA00041FB81B208EB4400FFF780FC5846FFF79A
:100AB000B9FCDAF8102022F00102CAF8102018B9A7
:100AC000641CE4B2BC42E7D3002289F81820D9E7BD
:100AD000481F002000200240064900200A69120633
:100AE00007D5054A4A60054A4A600969090600D5E2
:100AF000012070470020024023016745AB89EFCDFC
:100B00002DE9F84FDFF8B891002409F1040A0AF141
:100B1000040B23460F270BF1040EC9E00125A54065
:100B20002A40AA427DD1674ED1F804C0ACEB06083A
:100B3000B44532D014DCBCF1030F3AD009DCBCF16F
:100B4000000F2AD0BCF1010F1CD0BCF1020F31D133
:100B50001DE0BCF1110F17D0BCF1120F2AD119E022
:100B6000B8F5881F19D006DCB8F5803F15D0B8F568
:100B7000801F1FD111E0B8F5001F0ED0B8F5041F7B
:100B800018D10AE0CB6815E0CB681B1D12E0CB68DA
:100B900008330FE0CB680C330CE08B682BB1012BD2
:100BA0004FF0080303D0456104E0042302E005612F
:100BB00000E00023FF2A01D8064601E000F1040608
:100BC0004FEA840501D9A5F12005D6F8008007FA7F
:100BD00005FC28EA0C0803FA05F548EA0508C6F8FA
:100BE00000804D68ED0062D5374DAE6946F00106D4
:100BF000AE61AD6924F0030605F001050095334DA3
:100C000006EB050CDCF80850A607360F07FA06F8C5
:100C100025EA0805DFF8B880404503D14FF0000809
:100C200017E044E0DFF8AC80404502D14FF0010806
:100C30000FE0DFF8A480404502D14FF0020808E041
:100C4000DFF89880404502D14FF0030801E04FF0F3
:100C5000040808FA06F848EA0508CCF808804D6848
:100C6000D9F80060ED034D4601D5164300E09643E8
:100C70002E604D68DAF80060AD03554601D5164385
:100C800000E096432E604D68DBF80060ED025D46A3
:100C900001D5164300E096432E604D68DEF80060F3
:100CA000AD02754601D5164300E096432E60641CE4
:100CB0000D682A46E5407FF431AFBDE8F88F0000AB
:100CC000000401400000111000100240000001402B
:100CD00000080140000C01400010014000140140D8
:100CE0008068084000D001207047C26821EA0203F2
:100CF0000A4043EA0241016170470AB1016170474D
:100D00000904FBE70148806870470000F81B0020D9
:100D1000024881680278114481607047F81B002006
:100D2000074810B5016841F010010160032000F090
:100D300081F8002000F006F800F024F8002010BD33
:100D40000020024070B50D4D04464FF47A712878AA
:100D5000B1FBF0F00A490968B1FBF0F000F087FF41
:100D600048B9102C07D200222146501E00F042F84C
:100D700000206C6070BD012070BD0000F81B0020D9
:100D800020000020124808B5816941F0010181610D
:100D9000816901F001010091C16941F08051C16197
:100DA000C06900F080500090052000F043F8002258
:100DB0001146052000F01EF8052000F00DF805484A
:100DC000416821F0E06141F00071416008BD000020
:100DD0000010024000000140002809DB00F01F0263
:100DE000012191404009800000F1E020C0F800118D
:100DF00070470000F0B40E4B1B680C46C3F302238F
:100E0000C3F10705042D00D90425191D072901D2B6
:100E1000002300E0DB1E012606FA05F1491E2140F1
:100E200099409E40761E16403143F0BC03F0D0B886
:100E30000CED00E0064900F0070208684FF6FF03DA
:100E4000184040EA0220034A10430860704700003F
:100E50000CED00E00000FA0501490120086270472E
:100E600000000E4210B529A401461DCC86B08DE8C5
:100E70001D002AA02A4C006804900020012923D0DC
:100E800002293AD010291DD161682268D20119D5F2
:100E9000C1F38342C9031DF8020009D5616804AAA1
:100EA000C1F34041515C1F4AB2FBF1F1484301E0FC
:100EB0001D4948436168490204D440005FF00301C2
:100EC000B0FBF1F006B010BD226AC2F30121012986
:100ED00003D1920701D5C803F4E7022905D1626A5C
:100EE000920702D549F64040ECE70329EAD1216890
:100EF0008903E7D54FF22440E4E700F033F9616855
:100F0000C1F38131491C4900DAE7000002030405FE
:100F1000060708090A0B0C0D0E0F10100102000045
:100F20000010024000127A0000093D002DE9F8434C
:100F300005460078354CC00754D0E0690026C00053
:100F400008D4E06940F08050E061E069012600F0DB
:100F5000805000902E480168C90512D4016880466F
:100F600041F480710160FFF7CDFE074605E000BF48
:100F7000FFF7C8FEC01B642823D8D8F80000C005BE
:100F8000F6D5206A10F4407021D0A98801F4407190
:100F900081421CD0206A1F49012220F440700A605F
:100FA00000220A602062C00711D0FFF7ABFE07469F
:100FB00041F2883808E000BFFFF7A4FEC11B41459D
:100FC00002D90320BDE8F883206A8007F4D5206A9F
:100FD000696820F44070084320621EB1E06920F087
:100FE0008050E0612878800705D56068A96820F402
:100FF0004040084360602878C00605D56068E9680D
:1010000020F48000084360600020DBE7001002400D
:1010100000700040400442422DE9F0470F460500B1
:1010200061D0434E306800F00700B84209D2306802
:1010300020F0070038433060306800F00700B84205
:1010400051D128683B4C810712D5400703D5606811
:1010500040F4E06060602878000703D5606840F4E1
:10106000605060606068A96820F0F000084360602C
:101070002878C00728D06868012810D02168022885
:1010800010D0890700292EDA616821F0030101439D
:101090006160FFF737FE804641F288390DE0216834
:1010A0008903EFE78901EDE7FFF72CFEA0EB0801CC
:1010B000494502D90320BDE8F0876068696800F0FF
:1010C0000C00B0EB810FEFD1306800F00700B842A0
:1010D0000BD9306820F0070038433060306800F0EA
:1010E0000700B84201D00120E5E72878400705D580
:1010F0006068E96820F4E0600843606028780007D1
:1011000006D56068296920F4605040EAC10060603B
:1011100000F038F86168084AC1F30311515CC84017
:101120000649086006480068FFF70CFE0020C2E789
:101130000020024000100240D4440008200000209B
:10114000FC1B00200448054900684968044AC1F3B3
:101150000221515CC840704720000020001002406E
:10116000E44400080448054900684968044AC1F39A
:10117000C221515CC840704720000020001002408E
:10118000E444000812A185B00FC98DE80F0014A037
:10119000144A006804905168134801F00C03042BB2
:1011A00010D0082B0ED1C1F38343C9031DF80300EF
:1011B0000AD5516804AAC1F34041515C0A4A504320
:1011C000B0FBF1F005B0704708494843FAE700006A
:1011D00002030405060708090A0B0C0D0E0F101078
:1011E000010200000010024000127A0000093D00D8
:1011F0002DE9F84F040070D02078C04DC00749D0C9
:101200006868C0F38100012807D06868C0F38100D6
:10121000022809D16868C00306D52868800339D53B
:1012200060680028E7D035E06068B0F5803F0BD0FB
:1012300010B1B0F5A02F11D0286820F480302860BC
:10124000286820F4802002E0286840F4803028607C
:10125000606890B1FFF756FD06460AE0286840F442
:1012600080202860F0E700BFFFF74CFD801B64285A
:1012700073D828688003F7D50CE0FFF743FD0646D6
:1012800005E000BFFFF73EFD801B6428F0D828680A
:101290008003F7D420789A4E80074FF001094FF071
:1012A000000839D5686810F00C0F07D06868C0F3E3
:1012B0008100022809D16868C00306D42868800725
:1012C00014D52069012808D110E02069B0B1C6F812
:1012D0000090FFF717FD074605E00AE1FFF712FD52
:1012E000C01B0228C4D828688007F7D52868616920
:1012F00020F0F80040EAC10028600DE0C6F8008048
:10130000FFF700FD074604E0FFF7FCFCC01B0228C6
:1013100023D828688007F7D4207800072CD579488F
:10132000A169D9B1C0F80090FFF7ECFC074604E0D2
:10133000FFF7E8FCC01B02280FD8686A8007F7D5C2
:1013400071484FF4FA510068B0FBF1F0009000BF13
:101350000098411E0091FAD20EE080E0C0F80080B3
:10136000FFF7D0FC074604E0FFF7CCFCC01B0228C7
:1013700075D8686A8007F7D42078400760D5E86997
:101380000027C00008D4E86940F08050E861E869AF
:10139000012700F0805000905C480168C90513D413
:1013A0000168834641F480710160FFF7ABFC82461F
:1013B00006E000BFFFF7A6FCA0EB0A0064284ED8A9
:1013C000DBF80000C005F5D5E06801280AD008B1B7
:1013D000052813D0286A20F001002862286A20F02E
:1013E000040002E0286A40F001002862E06841F24F
:1013F000883B98B1FFF786FC82460BE0286A40F0F4
:1014000004002862EEE700BFFFF77CFCA0EB0A01B6
:1014100059455AD8286A8007F6D50CE0FFF772FCC8
:10142000824605E0FFF76EFCA0EB0A0159454CD857
:10143000286A8007F6D41FB1E86920F08050E8617F
:10144000E06988B36968C1F38101022944D00228A8
:10145000C6F8608004D0FFF755FC044638E034E05D
:10146000FFF750FC074604E0FFF74CFCC01B0228C6
:101470002BD828688001F7D4206AB0F5803F05D1C9
:101480006868A16820F4003008436860D4E9080166
:101490000843696821F4741108436860C6F86090D5
:1014A000FFF730FC044606E025E000BFFFF72AFC0A
:1014B000001B022809D828688001F7D51BE000BF6F
:1014C000FFF720FC001B022802D90320BDE8F88F9B
:1014D00028688001F4D40EE00128F7D06868226AF9
:1014E00000F48031914204D1616A00F470108842A6
:1014F00001D00120EAE70020E8E7000000100240E8
:10150000000042428004424220000020007000405F
:10151000024850F8210080B270470000006C004083
:10152000024800EB810091B201607047006C0040FE
:1015300010B5044600220B4900F061F800220A4968
:10154000204600F035F80848084982780878824239
:1015500006D00A702046BDE810400349FEF7C4BE1D
:1015600010BD00000408002007080020190000201A
:10157000704710B5044600680168C90717D0416874
:10158000C90714D040684007204607D5FFF7F0FF91
:1015900021686FF004004860042002E0FFF7C8FFF4
:1015A000012060742068416821F00101416010BD94
:1015B000F8B505004FF0000016460C46009006D026
:1015C0002CB100226946284600F019F808B1012024
:1015D000F8BD287B2070E87BE070697B6170A97B97
:1015E000A17056B101F0DFFDE070607801F0DBFD25
:1015F0006070A07801F0D7FDA0700020F8BD2DE943
:10160000F04791460C465FEA00084AD084B3D8F808
:1016100000004068400744D4404601F06AFE4FF4A1
:1016200061620546B0FBF2F1B0FBF2F302FB13502E
:101630003C23B0FBF3F0B5FBF2F6607002FB1650F2
:10164000B0FBF3F203FB1200A070182931D318206D
:10165000B1FBF0F7B1FBF0F200FB12102070404636
:1016600001F040FE411C04D0A84202D9461B02E012
:1016700017E04FF0FF36A7EB071000EB4000C0EB80
:10168000001005EBC0152946404601F081FE40B927
:10169000701C01D0711900E03146404601F064FE33
:1016A00010B10120BDE8F0873946404601F086FDC3
:1016B00000E02170B9F1000F0BD0207801F073FD2C
:1016C0002070607801F06FFD6070A07801F06BFD14
:1016D000A0700020E6E7000070B5040003D0607C35
:1016E000002610B105E0012070BD2674204600F0F0
:1016F00043F802206074204600F01AF9042578BBF4
:10170000204601F0B2FD58BB2068416821F0070176
:101710004160A06820B11748016821F00101016013
:101720001448001F0168A26821F460711143016030
:101730006068411C04D10120FFF794FB80B1401E7A
:1017400021688A6822F00F0242EA10428A6021680A
:10175000CA6860F30F02CA60204601F0A1FD08B11B
:101760006574C0E7E67301206073A07360740020A5
:1017700070BD0000306C004008B500680D4988421B
:1017800017D1FFF769FB0C48C16941F00061C161E5
:10179000C0690A4900F0006000900120086001461D
:1017A00000220320FFF726FBBDE808400320FFF7D7
:1017B00013BB08BD00280040001002403C04424218
:1017C0002DE9F0410D4604003BD0C5B3207C012833
:1017D0003AD04FF0010884F8108002206074E87855
:1017E00072B301F0D7FCE073687801F0D3FC60734A
:1017F000A87801F0CFFCA073C2B2617BE07B01F05E
:1018000088FD20732870204601F073FD4FF461615C
:10181000B0FBF1F1002518292DD91822B1FBF2F106
:10182000A1EB011101EB4101C1EB011100EBC1166C
:101830003146204601F0ACFD0427C8B90BE000E0BA
:1018400004E00120BDE8F0810220FBE7E073687846
:101850006073A878CFE7204601F044FD411C0AD010
:10186000B04208D206490144204601F07DFD10B186
:1018700067742574E5E784F8118025740020E1E79A
:10188000805101002DE9F0410D46040024D01DB324
:10189000207C012823D04FF0010884F8108002201A
:1018A00060742878EAB101F075FC4FF4616100FBC7
:1018B00001F6687801F06EFCC0EB001006EB8006C4
:1018C000A87801F067FC35182946204601F060FD34
:1018D0000026042710BB0FE00120BDE8F0810220A4
:1018E000FBE74FF4616148436978C1EB011100EBFC
:1018F0008100A9784518E7E72068416821F00501D3
:101900004160204601F0EEFC411C0AD0A84208D2FA
:1019100006490144204601F027FD10B16774267482
:10192000DAE784F8118026740020D6E780510100A0
:1019300070B504000AD02068416821F008014160B8
:10194000FFF7E0F905464FF47A7608E0012070BD14
:10195000FFF7D8F9401BB04201D9032070BD2068C1
:1019600040680007F4D5002070BD70B5040009D0B0
:10197000606A002540B125616561A56294F8510057
:1019800040B10CE0012070BD6068B0F5827FF4D0FA
:10199000E561F2E784F85050204600F03FF802205D
:1019A00084F851002068016821F040010160A0889E
:1019B000218900F4827001F404410843A18901F4F3
:1019C00000610843217C01F002010843217D01F000
:1019D00001010843218B01F400710843217F01F0CC
:1019E0003801084394F8201001F080010843218D4C
:1019F00001F40051084321680860A069042101EA4C
:101A00001040216848602068C16921F40061C1610B
:101A10006565012084F85100002070BD30B585B0A7
:101A200000240094019402940394006814498842AD
:101A300023D11448816941F480518161816901F4A5
:101A400080510491816941F00401816180690E4DEA
:101A500000F004000490A0200090022001900320D8
:101A6000039069462846FFF74BF84020CDE9000473
:101A7000694628460294FFF743F805B030BD0000E0
:101A80000030014000100240000801402DE9F84FED
:101A9000044690F8500000270A9E1D4692468B4649
:101AA0004FF0010901280ED0012084F85000FFF703
:101AB00029F9804694F85100616801280CD0B1F5ED
:101AC000827F07D102E00220BDE8F88FA16809B942
:101AD000042801D00227C2E0BBF1000F27D0BAF1E1
:101AE000000F24D01DB394F85100042802D0052023
:101AF00084F8510000206065C4F838A0E587A58708
:101B0000C4F830B0E586A58620646064206801686A
:101B1000490603D4016841F040010160E068B0F576
:101B2000006F606805D0E8B3012D46D07FE0012743
:101B300095E008B1012D39D1206B21680088C8607B
:101B4000206B801C2063E08E401EE0862EE0206823
:101B5000816889070FD5E18E69B1B9F1010F0AD10A
:101B6000216B0988C160206B801C2063E08E401EC1
:101B7000E0864FF0000920688168C9070CD0E18F2A
:101B800051B1C068A16B0880A06B801CA063E08F7E
:101B9000401EE0874FF00109FFF7B4F8A0EB080002
:101BA000B04200E009E001D3701C50D1E08E002863
:101BB000CDD1E08F0028CAD13FE0206B21680078AA
:101BC0000873206B401C2063E08E401EE0862EE0F0
:101BD0002068816889070FD5E18E69B1B9F1010FDD
:101BE0000AD1216B09780173206B401C2063E08EC1
:101BF000401EE0864FF0000920688168C9070CD0BC
:101C0000E18F51B1C068A16B0870A06B401CA0634C
:101C1000E08F401EE0874FF00109FFF773F8A0EB5B
:101C20000800B04202D3701C01D010E07EB1E08EFB
:101C30000028CDD1E08F0028CAD142463146204647
:101C400001F0D0FD28B101272020606507E00327BF
:101C500005E0A06818B92068C1688068009001207C
:101C600084F85100002084F8500038462CE710B565
:101C7000401EB0F1807F01D3012010BD4FF0E02461
:101C800060610F21601702F0A3F90020A061072016
:101C90002061002010BD70477047000070B590F8BB
:101CA0003C20012A26D0012480F83C40022280F802
:101CB0003D2003685A689D6822F070060A68324326
:101CC0005A600D4B02689A4208D0B2F1804F05D09D
:101CD0000A4B9A4202D00A4B9A4204D1496825F035
:101CE00080031943916080F83D40002180F83C104A
:101CF000084670BD022070BD002C01400004004069
:101D00000008004010B5040003D094F83D0010B165
:101D100007E0012010BD002084F83C00204600F0C0
:101D20001FF8022084F83D00211D206801F02AFEE2
:101D3000012084F8460084F83E0084F83F0084F8CF
:101D4000400084F8410084F8420084F8430084F89D
:101D5000440084F8450084F83D00002010BD0000D8
:101D600008B500680B49884212D10B48C16941F09F
:101D70000201C161C069032200F00200009000214D
:101D80001D20FFF737F8BDE808401D20FFF724B8F5
:101D900008BD0000000400400010024090F83D1013
:101DA000012901D001207047022180F83D1001680F
:101DB000CA6842F00102CA6000680B49884208D034
:101DC000B0F1804F05D00949884202D008498842C5
:101DD00004D1816801F00701062903D0016841F0B0
:101DE0000101016000207047002C01400004004008
:101DF0000008004070B5044690F83C00012817D058
:101E0000012584F83C50022084F83D002068826857
:101E100022F0770222F47F4282600868502830D096
:101E20000DDC20284DD005DC98B310283BD148E0CC
:101E3000022070BD302844D0402834D139E06028D9
:101E400028D0702806D0B0F5805F2CD0B0F5005FA8
:101E500029D10AE0CB68D1E90121206801F0C8FD51
:101E60002068816841F0770109E0CB68D1E9012160
:101E7000206801F0BDFD2068816841F480418160E7
:101E800011E0CA684968206801F0C4FD502120684B
:101E900007E016E0CA684968206801F0CCFD6021BF
:101EA000206801F0AFFD84F83D50002084F83C002C
:101EB00070BDCA684968206801F0ACFD4021206807
:101EC000EFE7226801461046EBE7704770B504461D
:101ED000006801694FF00005C943890715D4C1683E
:101EE000C943890711D4E91E0161012020772068C8
:101EF00080698007204602D0FFF7E7FF04E000F08A
:101F000098F8204600F096F8257720680169C943C3
:101F1000490717D4C168C943490713D46FF00401B6
:101F20000161022020772068806910F4407F2046FC
:101F300002D0FFF7CAFF04E000F07BF8204600F073
:101F400079F8257720680169C943090716D4C16863
:101F5000C943090712D46FF00801016104202077FA
:101F60002068C0698007204602D0FFF7AEFF04E07A
:101F700000F05FF8204600F05DF8257720680169E1
:101F8000C943C90617D4C168C943C90613D46FF041
:101F900010010161082020772068C06910F4407F9B
:101FA000204602D0FFF791FF04E000F042F82046FF
:101FB00000F040F8257720680169C943C90708D1B6
:101FC000C168C943C90704D1891E0161204600F0D8
:101FD00033F820680169C943090609D4C168C943B7
:101FE000090605D46FF0800101612046FFF753FE1A
:101FF00020680169C943490609D4C168C943490633
:1020000005D46FF040010161204600F025F82068FA
:102010000169C94389060BD4C168C943890607D43D
:102020006FF0200101612046BDE87040FFF734BE2B
:1020300070BD70477047000010B5006805498842C0
:1020400006D1642000F062FBBDE8104000F09ABDAC
:1020500010BD0000000400407047704710B50446F2
:102060000068416994F83D20C1F3C011212A0BD1C9
:1020700051B1416921F080014161606B08B1FEF707
:10208000FBFA204601F068FD2068416994F83E2083
:10209000C1F38011222A0BD151B1416921F04001D5
:1020A0004161A06B08B1FEF7E7FA204601F03CFD64
:1020B000002010BD70470000F8B5026804461068A3
:1020C000D168536910F00F0F4FF0000553D003F0A3
:1020D000010601F4907737435FD0C20705D0CA05E7
:1020E00003D5226C42F001022264420705D5DA07CB
:1020F00003D0226C42F002022264820705D5DA077F
:1021000003D0226C42F004022264020707D501F0DA
:102110002002324303D0226C42F008022264226C77
:10212000002A34D0800604D5880602D5204601F066
:102130001CFD20684069216CC0F38010090700D4A1
:1021400030B3204601F0F0FC2068416949061BD5F8
:10215000416921F040014161A06BA8B15849416338
:10216000A06BFEF7ADFA002811D0A06B416B01B057
:10217000BDE8F040084783060FD58B060DD52046F5
:10218000BDE8F84001F0F1BC2046FFF793FFF8BD31
:102190002046FFF78FFF2564F8BD266B2023012E14
:1021A00052D1C60650D5CE064ED510685068009064
:1021B000506940062AD5A16B086840680004000CED
:1021C000EAD0A68D8642E7D9E0858869202818D014
:1021D000D06820F48070D0602068416921F001014E
:1021E00041612068416921F04001416184F83E303D
:1021F00025632068C16821F01001C160A06BFEF763
:102200003BFAA08DE18D401A81B219E0A08DE18DDD
:10221000401A81B2E08D0028BED00029BCD0D06821
:1022200020F49070D0602068426922F0010242617F
:1022300084F83E3025632068C26822F01002C26034
:102240002046FFF70AFFF8BD05062BD50D0629D558
:1022500094F83D002128F6D1A068B0F5805F01D147
:102260002069B0B1206A411C216221680078486071
:10227000E08C401E0004000CE084E4D12068C168BA
:1022800021F08001C1602068C16841F04001C16057
:10229000F8BD206A0088C0F308005060206A801CE6
:1022A0002062E5E74006F3D54806F1D5D16820461F
:1022B00021F04001D16084F83D3000F0EEF9F8BD26
:1022C0005B3A000870B5040004D094F83D00002586
:1022D00010B106E0012070BD84F83C50204600F0AB
:1022E00023F8242084F83D002068C16821F40051BF
:1022F000C160204601F094FC2068016921F49041FE
:1023000001612068416921F02A0141612068C168AA
:1023100041F40051C1602564202084F83D0084F818
:102320003E00002070BD00002DE9F04786B000257A
:1023300000950195029503950446D0F800C0964893
:10234000DFF8508202210322944B802786144FF439
:10235000806A4FF01009C4455BD1D0F818C04CF426
:10236000804CC0F818C0D0F818C00CF4804CCDF8E0
:1023700010C0D0F818C04CF0040CC0F818C0806928
:10238000039200F0040004900802CDE900016946C0
:1023900098461846FEF7B4FBCDF800A0AA46019572
:1023A000694640460295FEF7ABFBDFF8F8817C49B1
:1023B0004046C0E90015C0E90257C8F81050C8F8F7
:1023C0001450C8E90656FEF771FA08B1FDF7A5FFEB
:1023D000744D7348C4F8388044351438C8F8244024
:1023E000C5E90009C5E902A7C5F810A0C5F814A001
:1023F000C5E906A62846FEF759FA08B1FDF78DFF94
:1024000065630222002125206C62FEF7F3FC252083
:1024100061E0DFF89481C44562D1D0F81CC04CF46F
:10242000003CC0F81CC0D0F81CC00CF4003CCDF837
:1024300010C0D0F818C04CF0040CC0F818C0806967
:10244000039200F0040004900420CDE900016946E5
:1024500098461846FEF754FB0820CDE90005AA4629
:10246000694640460295FEF74BFBDFF838814C4940
:1024700008F1880840461431C0E90015C0E9025748
:10248000C8F81050C8F81450C8E90656FEF70EFAFE
:1024900008B1FDF742FF434D4148C4F83880CC35C0
:1024A0002830C8F82440C5E90009C5E902A7C5F8E5
:1024B00010A0C5F814A0C5E906A62846FEF7F6F94F
:1024C00008B1FDF72AFF65630122002126206C6216
:1024D000FEF790FC2620FEF77FFC06B0BDE8F087F3
:1024E000324B9C45F9D1C36943F48023C361C3696E
:1024F00003F480230493836943F0080383618069B4
:10250000CDE900A100F00800CDE90320DFF8A080AC
:1025100069464046FEF7F4FA4FF40060CDE9000545
:10252000694640460295FEF7EBFADFF888A01C49A1
:1025300050462839C0E90015C0E90257CAF81050C2
:10254000CAF81450CAE90656B846FEF7AFF908B102
:10255000FDF7E3FE174FC4F838A04437CAF824400B
:10256000C7E902580E483D613C387D61C7E9000962
:10257000C7E906563846FEF799F908B1FDF7CDFED2
:1025800067630122002127207C62FEF733FC2720AD
:10259000A1E700000038014000100240000801409F
:1025A000580002408C1D00200044004000480040BC
:1025B000000C01409C1E002090F83E30202B0ED1D4
:1025C00059B152B190F83C30012B08D0012380F86A
:1025D0003C300023036301F07FBB012070470220E1
:1025E00070477047704700002DE9F843044690F8A3
:1025F0003D001F4616460D4620284CD1C5B1BEB140
:1026000094F83C00012846D0012084F83C004FF0AB
:102610000008C4F84080212084F83D00FEF772FBDA
:10262000A6848146E684A068B0F5805F03D004E00C
:102630000120BDE8F883206928B12E465FF000052F
:1026400084F83C800EE00026FAE78021204601F065
:102650007BFBA0B9AEB116F8010B21684860E08C95
:10266000401EE084E08C4B464FF0000200970028AB
:10267000EBD14FF04001204601F066FB30B1032062
:10268000D7E735F8020BC0F30800E6E7202084F80E
:102690003D000020CDE70220CBE77047FEE70000B9
:1026A00070B5184E184C00253570E580A580658101
:1026B000301DA58101894068FEF712FB50B1002151
:1026C00021806288204691420DD029B101223270CA
:1026D000A18014E00121F3E703890BB1828100E0BE
:1026E000C28005810AE051B1028942B9C289521CF7
:1026F00092B2C281642A02D901814181E58141807F
:1027000070BD000020080020241F00202DE9F041AA
:10271000344CDFF8C8E000222188BEF800C00D4626
:10272000491C2F4F89B2BCF1000F0FD07646638849
:10273000367A9C4501D9082E11D0BEF804E0A3EBEF
:102740000C0CF4452ADA082E15D029E02180052D3D
:1027500037D9228002213846FEF7C7FA31E02180BE
:10276000B1EB900F01D2012203E0B1EB500F11D277
:10277000002202210AE02180B1EB900F01D2012258
:1027800003E0B1EB500F05D2002201213846FEF7DD
:10279000B4FA16E022805B1C638012E0082E01D0A0
:1027A000854201D322806280002202213846FEF752
:1027B000A4FA002201213846FEF79FFA2088401C27
:1027C000208009480178094829B10022BDE8F0417C
:1027D0000221FEF792BA0122F8E700004808002023
:1027E000000C0140340800200E08002000080140C1
:1027F00070B50D4D95F8C404012814D10B4CA01CE4
:10280000B4F8C41EFDF7AEFE002085F8C404A5F898
:10281000BE04A4F8C40E05F26520BDE870404FF474
:102820001671FDF7A8BC70BD48080020280D0020D7
:1028300010B5094C94F8D70701280BD1B4F8D42768
:102840004FF47A73A11CD4F8DC07FFF7CDFE00200B
:1028500084F8D70710BD00002400002010B50346FF
:102860000078012202E09C5C6040521C8A42FADB44
:1028700010BD00002DE9F041044600784E1E671897
:102880004D4D052879D16078002821D1A078822883
:102890005CD1B1B22046FFF7E1FF17F8011C884276
:1028A0004FD1E27900274FF00108A5F11000032A6B
:1028B00015D1217AAA2902D0EE290AD00FE0617A37
:1028C000AA290CD1A17AAA2909D180F800804770E1
:1028D00069E0617AEE2902D1A17AEE2908D0037865
:1028E000364E04F108012BB18046012B0FD05AE07F
:1028F000077004E0A6F8C42EB01CFDF723FC85F891
:10290000C484B5F8C204401CA5F8C2044BE02B48AF
:10291000B6F8C43E801C184406F6C466FDF712FCE7
:102920003088E1790844308098F801104046491C0D
:10293000C9B288F80110072935D9077088F80170E5
:1029400031E02078052818D1607860BBA078812814
:1029500029D1B1B22046FFF781FF17F8011C884248
:102960000BD117F8020C287320B10520E8710A205A
:1029700001E002E00920687215E02078012812D1F8
:10298000607880B9A07882280DD1B1B22046FFF7D7
:1029900065FF17F8011C884205D137F8050C40BACD
:1029A00028800320A871D5F8C804BDE8F0414FF491
:1029B00016720349FFF700BE48080020280D0020CA
:1029C000AD0A0020F8B51C4CD4F8C80478B30168EF
:1029D0000A68D243D20628D40A6849680091FFF7F2
:1029E0003DFBD4F8C804806B00684068134DC0F507
:1029F000167082B2A4F8BE2404F265214FF4FA7373
:102A00000E4604F2BE44D5F8DC07FFF7EDFD228840
:102A1000A5F8D4273146A81CFDF794FB012085F8C2
:102A2000D70721883046FFF725FF0020F8BDFFE7D4
:102A30004FF0FF30FAE70000480800202400002093
:102A40000E4908B5D1F8C8040068026842680092CF
:102A5000C26842F01002C260D1F8C8044FF4167286
:102A600001F26521FFF7A8FDC820FDF785FF00F002
:102A70004DF8BDE8084000F077B800004808002095
:102A80002DE9F047814601F10B071E4690460D46A1
:102A9000384601F0D9FC04460520207000226270FF
:102AA0000123A370A91DE1704FEA1820207184F85A
:102AB0000580A2710720E071237265722A4649469B
:102AC00004F10A00FDF73EFB05F10A0081B2204641
:102AD000FFF7C4FE61190C4D8872BAB24FF4FA6365
:102AE0002146D5F8C804FFF77FFD02E00120FDF77D
:102AF00043FF687A092802D0761EB6B2F6D2204685
:102B0000BDE8F04701F032BC480800202DE9F04153
:102B1000134C0A254FF4FA764FF4167804F2652721
:102B20003046FDF729FF334612220E49D4F8C80477
:102B3000FFF75AFD42463946D4F8C804FFF73CFD7A
:102B4000A079032802D06D1EADB2E9D22088608042
:102B500005B910B10020BDE8F0810420FBE70000BA
:102B600048080020140D002008B501216846FDF733
:102B70004BFDBDF80000024940BA888008BD000046
:102B8000480800202DE9F041FFF78AFD3249334E15
:102B90004889A6F1100440B12079421C2271022814
:102BA00001D901202071072030722079002560B101
:102BB0002B4F01280ED0022805D1888860B3E07819
:102BC000401CE0702581BDE8F081A570E57008200B
:102BD0003072F8E7888818B1A078401CA070F1E73F
:102BE000088908B1012202E0088810B10022022100
:102BF0001AE0012202213846FEF77FF82089411CA5
:102C00002181C828DFD9A07818B100F0B5F80220DA
:102C1000B07125712581E9E7088908B1012202E038
:102C2000088830B1002201213846BDE8F041FEF7A6
:102C300064B8012211463846FEF75FF82089411C2E
:102C40002181C828BFD9E07810B1B08000F0D6F853
:102C500025712581E6E70000241F00204808002098
:102C6000000C01402DE9F05F424C00250E468146E4
:102C70004FF00A0A4FF0050B4FF47A77A4F11008D1
:102C8000642963D93B48A2883B460321801FFFF794
:102C9000F7FE607A092805D0B8F80600421EA8F8A9
:102CA0000620EFD284F809A0A8F806B01AE000BF09
:102CB00009EB8007A28838464FF47A736421FFF746
:102CC000DFFE607A092805D0B8F80600421EA8F891
:102CD0000620EFD2643E84F809A06D1CA8F806B067
:102CE000B6B2EDB205EBC500642E00EB0510DFD2E5
:102CF00009EB80054FF47A77A28828463B46314697
:102D0000FFF7BEFE607A092805D0B8F80600421E1B
:102D1000A8F80620F0D284F809A055465E46A8F827
:102D200006B01448A2883B460321C01EFFF7A8FE48
:102D3000607A092805D0B8F80600411EA8F80610E8
:102D4000EFD26572A8F80660BDE8F09FA2883B4606
:102D500031464846FFF794FE607A092805D0B8F856
:102D60000600411EA8F80610F0D284F809A0A8F8C1
:102D700006B0E9E74808002000B585B0002101222F
:102D80008DF800208DF801108DF802200D228DF8AD
:102D90000320A5228DF804208DF805206C228DF8E3
:102DA000062080228DF8072012228DF808200722A5
:102DB0008DF8092017228DF80A208DF80C10020AD0
:102DC0008DF80D208DF80E0003208DF80B108DF876
:102DD0000F008DF8101011216846FFF73FFD8DF8A8
:102DE000110005484FF47A731222D0F8C8046946DE
:102DF000FFF7FAFB05B000BD4808002008B5010A3E
:102E00008DF800108DF8010001216846FDF710FCD7
:102E100008BD00001D4808B5416941F0010141614C
:102E20004069002200F00100009011460C20FDF7DF
:102E3000E1FF0C20FDF7D0FF002211460D20FDF729
:102E4000D9FF0D20FDF7C8FF002211460E20FDF727
:102E5000D1FF0E20FDF7C0FF002211460F20FDF725
:102E6000C9FF0F20FDF7B8FF002211461020FDF723
:102E7000C1FF1020FDF7B0FF002211461120FDF721
:102E8000B9FFBDE808401120FDF7A6BF00100240C1
:102E900010B504490448FDF742FA0249491E08707A
:102EA00010BD000015000020000000202DE9F041B9
:102EB00086B000262B4800960196029603968169FB
:102EC00041F020018161816901F020010491816953
:102ED00041F004018161816901F00401049181697B
:102EE00041F00801816180691F4F00F008000490E3
:102EF000002212213846FDF700FFDFF87080002223
:102F000003214046FDF7F9FE012208214046FDF766
:102F1000F4FE02250124CDE9005469463846CDE986
:102F20000245FDF7EDFD1020CDE900040320CDE9B9
:102F3000024069463846FDF7E3FD0B20CDE9000469
:102F400069464046CDE90245FDF7DAFD2002CDE9AC
:102F50000006694602944046FDF7D2FD06B0BDE882
:102F6000F08100000010024000080140000C014008
:102F70007CB50024019401212A480094FEF7C8FA88
:102F80002849621E284B8C6045F22005C1E90032B9
:102F9000A842084632D0FEF79FFB08B1FDF7BDF905
:102FA00018208DF8040006208DF805008DF80640E5
:102FB000012201A91B48FEF765FC08B1FDF7ADF938
:102FC00004208DF8000008208DF8010026208DF8DF
:102FD000020022208DF80300012269461148FEF705
:102FE000EFFB08B1FDF799F92A4601210D48FEF7DC
:102FF00097FA69460B48FDF777F907E0FEF76CFB97
:1030000008B1FDF78AF90748FDF74EF90022074994
:103010000448FEF7F4FA002205490248FEF7C8FA10
:103020007CBD00000C1C002000280040040800208B
:1030300007080020104810B50E4901604FF4827156
:10304000416000218160C1604FF400720161C0E9FC
:1030500005120822C0E90721416281620A21C1628A
:10306000FEF783FC002803D0BDE81040FDF755B9FA
:1030700010BD000000300140201C002010B586B0BB
:103080000024174800940194029403940494134973
:10309000059401604721C0E9011442F20F71C0E9B3
:1030A00003148461FEF72EFE08B1FDF736F94FF4E4
:1030B0008050009069460A48FEF79CFE08B1FDF773
:1030C0002CF9049404A906480594FEF7E7FD0028AE
:1030D00001D0FDF722F906B010BD00000004004049
:1030E000781C00200C4810B50A4901604FF41651B5
:1030F0004160002181600C22C160C0E9041281613D
:10310000C161FFF7DFF8002803D0BDE81040FDF7EC
:1031100004B910BD00380140C01C00200C4810B597
:103120000A4901604FF416514160002181600C2270
:10313000C160C0E904128161C161FFF7C3F80028D2
:1031400003D0BDE81040FDF7E8B810BD00440040D2
:10315000041D00200C4810B50A4901604FF41651B7
:103160004160002181600C22C160C0E904128161CC
:10317000C161FFF7A7F8002803D0BDE81040FDF7B4
:10318000CCB810BD00480040481D0020FEE7FEE717
:1031900070477047010901EB810100F00F0000EB5F
:1031A0004100C0B27047002102E00A38C0B2491C99
:1031B0000A28FAD2090740EA116070472DE9F04168
:1031C00004460025C07B627BA37B42E0012A16D027
:1031D000032A14D0052A12D0072A10D0082A0ED0AC
:1031E0000A2A0CD00C2A0AD0042A10D0062A0ED0A3
:1031F000092A0CD00B2A0AD0022A0DD028E01F2B56
:103200000CD30C2A05D101221346401C20E01E2BB2
:1032100004D30123521C1BE01C2B02D203F1010337
:1032200016E011D183B29E0710D16426B3FBF6F7E6
:1032300006FB173636B94FF4C876B3FBF6F706FB34
:1032400017331BB91D2303E01D2B01D103220123DA
:103250006D1C8D42BAD3D1B2E0736173DAB2A2733E
:1032600000F057F82073BDE8F08170B50446FDF713
:1032700049FD05464FF47A7606E0FDF743FD401B15
:10328000B04201D9032070BD206840688006F4D5A3
:103290002068416841F010014160002070BD0000CD
:1032A00070B504460068416821F010014160FDF7E7
:1032B00029FD05464FF47A7607E000BFFDF722FDB1
:1032C000401BB04201D9032070BD206840688006D1
:1032D000F4D5002070BD00000148FEF74AB9000097
:1032E0000C1C00200168086A496A89B241EA004062
:1032F0007047006881698AB2C1698BB2816989B2FD
:103300008A4203D0C06961F31F40704743EA02401C
:103310007047F0B56424C1EBC1030927A500072657
:1033200003EB01130329B3FBF7F100F5FA60114435
:1033300001440AD2401EB0FBF4F201EB9001B0FB55
:10334000F5F0891A0844001D08E0B0FBF4F201EB27
:103350009001B0FBF5F0891A0844801CB0FBF6F12F
:1033600006FB1100C0B2F0BD70B50D460646002444
:10337000FFF77BFF48B93168280C08623168A8B2B2
:1033800048623046FFF78CFF00B10124204670BD33
:1033900070B50D4606460024FFF767FF48B931684F
:1033A000280C88613168A8B2C8613046FFF778FF01
:1033B00000B10124204670BD044B20B10022102131
:1033C0001846FDF79ABC0122F9E700000008014009
:1033D00070B5054601220021092000F0BFF910F068
:1033E000FF0404D11021284600F078F8044600209C
:1033F000FFF7E2FF0CB1012070BD002070BD1FB5CA
:103400006846FFF7E5FF10B1002004B010BD9DF83D
:1034100000100120B0EB911F09D19DF808209DF804
:10342000091000EB0220084400048009EDE79DF834
:1034300005009DF80A1000F00F0000EBD1109DF878
:1034400009109DF8072001F0030100EB41019DF8F0
:103450000800800900EB82009DF8062002F00302BC
:1034600000EB8220401CC91F8840CEE72DE9F041C7
:103470000646194815464078062800D049024FF400
:103480000077012D4FF001021AD0122000F066F9EA
:103490003946304600F022F86D1E044606F50076E7
:1034A00015F0FF0501D0002CF2D0012200210C20E4
:1034B00000F054F90020FFF77FFF2046BDE8F081BF
:1034C000112000F04BF910F0FF04F3D139463046DB
:1034D00000F004F80446EDE70C08002070B505463E
:1034E0000C460120FFF768FFFF2000F0E3FF0646CF
:1034F0006420FDF741FAFE2EF6D103E000F0DAFF7A
:1035000005F8010B641EA4B24FF0FF00F6D200F0E4
:10351000D1FFFF2000F0CEFF002070BD70B50D463A
:103520000646FF24FF2000F0C5FFFF2802D0641EDE
:10353000E4B2F7D2DCB1284600F0BCFFFD2D18D074
:1035400000244FF40075305D00F0B4FF641CA4B299
:10355000AC42F8D3FF2000F0ADFFFF2000F0AAFF3F
:10356000FF2000F0A7FF00F01F00052801D0022077
:1035700070BD002070BD000070B506461F4815469E
:103580000C464078062800D04C02012D14D00128AA
:1035900009D001220021372000F0E0F8012229465D
:1035A000172000F0DBF801222146192000F0D6F8A0
:1035B00010F0FF040BD01BE001222146182000F080
:1035C000CDF810F0FF0413D1FE2130460DE0FC21B0
:1035D0003046FFF7A3FF6D1E06F5007615F0FF05D8
:1035E00001D00028F3D0FD210020FFF797FF04460B
:1035F0000020FFF7E1FE204670BD00000C0800200F
:103600002DE9FC410027009714263820019700F08F
:1036100055F90020FFF7D0FE4F4D0024287800F028
:1036200049FF641CA4B20A2CF8D300219522084655
:1036300000F094F8C0B2012802D0761EB6B2F4D2DF
:103640006F7087224FF4D571082000F087F8C0B260
:10365000012873D100246E46287800F02BFF3055E6
:10366000641CE4B2042CF7D39DF802004FF6FE74FC
:10367000012803D19DF80300AA281FD001220021B0
:10368000372000F06BF801220021292000F066F8B5
:10369000C0B201283DD802206870012200213720E5
:1036A00000F05CF801220021292000F057F810F00A
:1036B000FF0F3BD0641EA4B2EFD237E04FF080473B
:1036C00001220021372000F049F801223946292043
:1036D00000F044F810F0FF0F02D0641EA4B2EFD245
:1036E000B4B1012200213A2000F038F880B900245A
:1036F000FF2000F0DFFE3055641CE4B2042CF7D349
:103700009DF80000400601D5062000E00420687006
:1037100014E00120687001220021104600F01EF81C
:1037200010F0FF0F02D0641EA4B2F4D22CB101221B
:103730005102102000F012F800B16F700020FFF766
:103740003BFE082000F0BAF8687810B10020BDE810
:10375000FC810120FBE700000C0800202DE9F0416E
:10376000064690460D464FF6F0740020FFF724FE03
:103770001420FDF701F90120FFF71EFE184F3878DD
:1037800000F098FEFF2802D0641EA4B2F7D224B342
:10379000FF2446F0400000F08DFE280E00F08AFE67
:1037A000C5F3074000F086FEC5F3072000F082FE57
:1037B000E8B200F07FFE404600F07CFE0C2E02D105
:1037C000387800F077FEFF2000F074FE010602D585
:1037D000641EA4B2F7D2002C00D10220BDE8F08113
:1037E0000C08002038B50B460092044600228021C8
:1037F00000F008F8002804D0606D40F020006065FB
:10380000032038BD2DE9F8431E46914688460446FC
:10381000089DFDF777FA401B351AFDF773FA074646
:1038200025480068C0F3CB30684338E0701C37D0BF
:10383000FDF768FAC01BA84203D215B1009860B327
:103840002CE02068416821F0E00141606068B0F53B
:10385000827F0BD1A068B0F5004F02D0B0F5806F29
:1038600004D12068016821F040010160A06AB0F530
:10387000005F09D12068016821F4005101602068CF
:10388000016841F400510160012084F851000020DA
:1038900084F850000320BDE8F8830025401E009006
:1038A0002068816838EA010004D000214945BDD173
:1038B0000020F0E70121F9E72000002010B50A4CB4
:1038C00021680A6822F040020A6008492160E0612C
:1038D0002046FEF74AF808B1FCF71FFD2068016892
:1038E00041F04001016010BD201C0020003001406B
:1038F0007047FDF70DBA70B594B028216846FCF703
:103900003AFC14210AA8FCF736FC00250F95092083
:10391000012410950090119512954FF48030049475
:103920000694CDE901050226CDE907604FF4E010C9
:1039300009906846FDF75CFC08B172B6FEE70F20FF
:10394000CDE90A064FF48060CDE90C5002210AA8A7
:103950000E95FDF761FB08B172B6FEE74FF40070FB
:10396000CDE90F400FA8FDF7E1FA002801D072B6AB
:10397000FEE714B070BD70470148FEF7A7BA00001B
:10398000781C0020F0B50268164B174C174D4FF00D
:103990008047984205D0B84203D0A04201D0A84247
:1039A00003D122F070064A683243984205D0B842EB
:1039B00003D0A04201D0A84203D122F44074CA68C7
:1039C00022434C6922F08002224302608A68C2626C
:1039D0000A688262984201D109690163012141614B
:1039E000F0BD0000002C0140000400400008004031
:1039F00010B5846842EA032224F47F440A43224338
:103A0000826010BD826822F070020A4342F0070112
:103A10008160704710B5036A046A24F001040462EF
:103A2000846924F0F00444EA021423F00A020A43F1
:103A30008461026210BD10B5036A23F010030362B3
:103A40008369046A23F4704343EA023224F0A0033A
:103A500043EA01118261016210BD10B5406A002184
:103A6000C185C184FEF726FB10BD70B5446A20688D
:103A7000406994F83D10C0F3C0100025212904D1FD
:103A800018B1E584204600F067F82068406994F892
:103A90003E10C0F38010222904D118B1E5852046DC
:103AA00000F042F8206C40F0100020642046FEF741
:103AB00001FB70BD10B50146406A096809688906B6
:103AC0001BD40021C1850168CA6822F48072CA60D3
:103AD00001684A6922F001024A6101684A6922F0DC
:103AE00040024A61202180F83E10016B012904D177
:103AF0000168CA6822F01002CA60016B012902D075
:103B0000FEF76FFD10BD818DFEF7A7FA10BD10B551
:103B1000406A016B012902D0FEF764FD10BD818D62
:103B20004908FEF79AFA10BD0168CA6822F490723B
:103B3000CA6001684A6922F001024A61016B0129E9
:103B400004D10168CA6822F01002CA60202180F8FE
:103B50003E100021016370470168CA6822F0C0026C
:103B6000CA60202180F83D10704708B590F83E10DB
:103B7000222901D0022008BD82684FF480539A4266
:103B800001D1016921B1816A9A421BD04AB10AE090
:103B90000268816A5268C2F308020A80816A891C3D
:103BA00008E0026972B10268526802F07F020A708E
:103BB000816A491C8162C18D491E0904090CC185B5
:103BC00003D019E002685268F1E70168CA6822F080
:103BD0002002CA600168CA6822F48072CA60016863
:103BE0004A6922F001024A61202180F83E10016BEF
:103BF000012903D0FEF7F5FC002008BD0021016378
:103C00000168CA6822F01002CA6001680A68D20618
:103C100002D50A6849680091818DFEF71EFAEBE72C
:103C200070B5044600680169E26821F4405111430F
:103C300001612169A0680843616908432168CA6875
:103C400041F20C639A430243CA6020684169A26949
:103C500021F44071114341611E492068884202D11C
:103C6000FDF780FA01E0FDF76DFA00EBC00101EB12
:103C70000012606864218000B2FBF0F3B3FBF1F343
:103C80006FF018067343B2FBF0F5B2FBF0F605EBEC
:103C90008305322303EB0515B5FBF1F5B6FBF1F611
:103CA00005F0F00505EB0615B2FBF0F6B2FBF0F0FF
:103CB000B0FBF1F06FF01802504306EB800003EB0D
:103CC0000010B0FBF1F0216800F00F00284488607C
:103CD00070BD00000038014038B581628285002542
:103CE000134604460564222084F83E00A26B134864
:103CF0009062A26B1248D062A26B12481063A06B54
:103D00000A4645632168A06B091DFCF7FDFD20688C
:103D100001684168009184F83C50C16841F48071A9
:103D2000C1602068416941F0010141612068416939
:103D300041F040014161002038BD0000B53A000863
:103D40000F3B00086B3A00082DE9F04198461746F2
:103D50000E460446069D1DE0681C1BD02DB1FCF7E5
:103D6000D1FFA0EB0800A84214D92068C16821F453
:103D7000D071C1602068416921F0010141612020BA
:103D800084F83D0084F83E00002084F83C000320C5
:103D9000BDE8F0812068006836EA000004D0002009
:103DA000B842D9D00020F3E70120F9E710B500F0C0
:103DB000B1F8BDE810400148FEF77EB9C01C0020F4
:103DC00010B5FEF7FFFDBDE810400148FEF774B9DD
:103DD000041D002010B5FCF74FFBBDE81040014862
:103DE000FEF76AB9481D002010B5FFF709FC00284E
:103DF00009D03820FFF762FDFF2000F05BFB0820B0
:103E0000FFF75CFD012010BD10B5144641B101293A
:103E10001DD0022914D0032915D00424204610BD3A
:103E20000120FFF7C9FA1420FCF7A6FDFF2000F0DF
:103E300041FBFF28F7D100242046FFF7BDFAEDE74C
:103E40004FF4007000E0082010800024E6E7FFF740
:103E5000D6FA2060F9E770B514460D460BB148B9A3
:103E600001E0042070BDDAB221462846FFF7FEFAD1
:103E70000028F7D0012070BD002804D0012803D00D
:103E8000022801D0012070470020704770B5144609
:103E90000D460BB148B901E0042070BDDAB22146ED
:103EA0002846FFF769FB0028F7D0012070BDFEE728
:103EB00010B5FCF765FBFEF7BBFCFEF799FC084C60
:103EC000A079022808D1FEF721FE30B105A000BF7D
:103ED00000F06EF80020A07110BD08A0F8E7000007
:103EE000480800204C6F726120494420BBF1C8A1F2
:103EF000CAA7B0DCA3A1200D0A0000004C6F7261BC
:103F000020494420BBF1C8A1B3C9B9A6A3A1200D83
:103F10000A00000038B5184CD4F8DC0748B3016833
:103F20000A68D243D20622D40A6849680091FEF793
:103F300095F8D4F8DC07806B0068406804F2EA3139
:103F4000C0F57A7082B20D48A4F8D2274FF4FA7304
:103F5000D0F8C8040D4604F2D474FEF745FB0120E6
:103F6000A0704FF47A722946A068FEF725FB002066
:103F700038BD4FF0FF3038BD240000204808002035
:103F80000A4982B0D1F8DC070068026842680092F2
:103F9000C26842F01002C260D1F8DC074FF47A72B6
:103FA00001F2EA3102B0FEF707BB00002400002056
:103FB0000FB4054B10B503A9044A029800F028F885
:103FC00010BC5DF814FB0000554300081C000020E5
:103FD0000907090E002804DB00F1E02080F8001436
:103FE000704700F00F0000F1E02080F8141D7047CA
:103FF00002E008C8121F08C1002AFAD170477047B2
:10400000002001E001C1121F002AFBD1704700000F
:104010002DE9FF4F8BB088460546002606E025288F
:104020000BD0DDE90D1290476D1C761C2878002816
:10403000F5D10FB03046BDE8F08F0024A146A2466E
:104040000122AE4900E0044315F8013F203B02FA8B
:1040500003F00842F7D128782A2810D06FF02F02F9
:104060002878A0F13001092915D809EB890102EB64
:10407000410144F0020400EB01096D1CF0E758F81F
:10408000041B5FEA010903D544F40054C9F1000997
:1040900044F002046D1C28782E2817D115F8010F62
:1040A00044F004042A280ED06FF02F022878A0F1E3
:1040B000300109290AD80AEB8A0102EB410100EB21
:1040C000010A6D1CF2E758F804AB6D1C28786C28C7
:1040D0000FD006DC4C2817D068280DD06A2814D1E0
:1040E00004E0742810D07A280FD10DE044F40014B5
:1040F0000AE044F4801401E044F4401469788142F9
:1041000002D104F580146D1C6D1C2878692865D0D7
:1041100006DC00288DD0632827D0642806D15DE016
:104120006E2808D073282AD0752877D0DDE90D12C3
:104130009047761CE0E0C4F30250022809D003281F
:104140000DD0D8F8001004280DD00E6008F1040836
:10415000D2E0D8F80010F217C1E90062F6E7D8F80B
:1041600000100E80F2E70E70F0E718F8041B8DF8CF
:10417000001000208DF80100EB46012003E058F804
:1041800004BB4FF0FF3061074FF0000701D40AE095
:104190007F1C57450DDA8742FADB1BF80710002910
:1041A000F6D106E07F1C8742FCDB1BF807100029D4
:1041B000F8D1DDE90D23A9EB07008146214600F087
:1041C000B1F83044C61904E0DDE90D121BF8010B0B
:1041D00090477F1EF8D22146484688E058F8040BE5
:1041E000C4F302514FF00A0B032900D100B2042995
:1041F00000D140B2002802DA40422D2102E0210520
:1042000005D52B218DF82410012104E006E0E107FB
:1042100010D02021F6E708AF089113E058F8040BFE
:10422000C4F302514FF00A0B032900D180B20429D4
:1042300000D1C0B20021EEE75946FBF7A7FF3031AD
:1042400007F8011D0028F7D1ADEB070000F1200BA6
:10425000600702D524F4803401E04FF0010ADA450A
:1042600002DDAAEB0B0000E00020824600EB0B0110
:1042700008980144A9EB01000A90E00306D4DDE9A7
:104280000D2321460A9800F04DF806444FF000092E
:1042900008E009A911F80900DDE90D12904709F1BC
:1042A0000109761C08998945F3DBE0030CD5DDE9AB
:1042B0000D2321460A9800F035F8064404E0DDE9B4
:1042C0000D1230209047761CBAF10001AAF1010AC4
:1042D000F5DC05E0DDE90D1217F8010B9047761CBF
:1042E000BBF10001ABF1010BF4DC0A982146DDE9DA
:1042F0000D2300F005F806446D1C97E6092801001F
:104300002DE9F041044600251E461746880404D4D2
:1043100005E039462020B0476D1C641EF9D52846BB
:10432000BDE8F0812DE9F041044600251E46904687
:10433000C80301D5302700E02027880404D505E014
:1043400041463846B0476D1C641EF9D52846BDE885
:10435000F081000004490A685206FCD5024AC1B245
:10436000121D1160704700000038014010B5002890
:1043700021D0114B0022001F196803E0814203D8AD
:104380000A4649680029F9D152B11368841A9C423F
:1043900004D1006818441060104602E0506000E04C
:1043A000186039B102680B1A934203D10B681A44A2
:1043B00002604968416010BD041C0020FCF7B0FC9D
:1043C000FFF799FAFEF772FDFEF724FDFEF756FEA1
:1043D000FEF788FEFEF7A2FEFEF7BCFEFEF72AFE01
:1043E000FEF756FDFEF7C4FD13480068016841F072
:1043F000010101604FF4FA70FCF7BEFAFEF720FBF2
:10440000FFF7BEFDFCF78AF8002202210B48FCF7FB
:1044100074FC0B4C002201212046FCF76EFC0022AC
:1044200002212046FCF769FC0648FDF7B7FC00BFF7
:10443000FFF73EFDFCE700000C1C002000080140D7
:10444000000C0140781C0020F0B50B30154D20F019
:1044500007010024144A0FE003688B420BD38B4200
:1044600005D95E1A43184768C3E9006700E043684E
:10447000136002C004E0021D10680028ECD1204641
:10448000002802D1286808B10020F0BD064A07487C
:104490001060074A121A22F00702C0E90024012026
:1044A0002860D7E7081C0020041C00207C1F002087
:1044B0007827002001B582B064200090012301AA72
:1044C00002A90348FDF7E2FA9DF804000EBD0000C2
:1044D000201C002000000000000000000102030476
:1044E0000607080900000000010203040C4500084B
:1044F000000000200C1C0000DC0100089C450008A6
:104500000C1C00206C2D00000040000813E93D1435
:1045100008793E1B0857041A8D041A09045172FFCA
:1045200003FF24F401FF01FF01FF01FF01FF01FF71
:1045300001E413C01C822072FFB00B4C4F47303097
:10454000312E747874140C0140021001320547AA10
:10455000AAAAEEEEEE291F03FF080A01FF01FF01E0
:10456000FF01C213041D132001B5020DA5A5420EC3
:1045700002FF3001FF015902FF3001FF01FF01FF7F
:1045800001FF01FF01FF01FF01FF01FF01FF01FF2B
:0C459000017D13481D332001F2100000D3
:04000005080000ED02
:00000001FF
