:020000040800F2
:1000000088490020010100085B32000855270008DC
:1000100059320008330200087B3F0008000000004E
:10002000000000000000000000000000BD390008D2
:1000300019030008000000005D320008BF39000805
:100040001B0100081B0100081B010008A533000864
:100050001B0100085F3200081B0100081B0100089B
:100060001B0100081B0100081B0100081B01000800
:1000700035020008410200084D020008590200083C
:1000800065020008710200081B0100081B0100083E
:100090001B0100081B0100081B0100081B010008D0
:1000A0001B0100081B0100081B0100081B010008C0
:1000B0001B010008453A00081B0100081B0100084D
:1000C0001B0100081B0100081B0100081B010008A0
:1000D0001B010008793E00088D3E0008A13E000883
:1000E0001B0100081B0100081B010008DFF80CD0F1
:1000F00000F062F800480047AD440008884900203D
:100100000648804706480047FEE7FEE7FEE7FEE7B1
:10011000FEE7FEE7FEE7FEE7FEE7FEE7433A0008FC
:10012000ED000008202A04DB203A21FA02F0002129
:10013000704721FA02F3D040C2F1200291400843F7
:100140001946704740EA01039B0703D009E008C93C
:10015000121F08C0042AFAD203E011F8013B00F88C
:10016000013B521EF9D27047D2B201E000F8012BD8
:10017000491EFBD270470022F6E710B513460A4627
:1001800004461946FFF7F0FF204610BD30B50B4678
:10019000014600202022012409E021FA02F59D42B7
:1001A00005D303FA02F5491B04FA02F52844151E8B
:1001B000A2F10102F1DC30BD064C074D06E0E0681B
:1001C00040F0010394E8070098471034AC42F6D39E
:1001D000FFF790FF184600083846000870B58C18E5
:1001E00010F8015B15F0070301D110F8013B2A114B
:1001F00006D110F8012B03E010F8016B01F8016B38
:100200005B1EF9D12B0705D40023521E0DD401F833
:10021000013BFAE710F8013BCB1A921C03E013F8FC
:10022000015B01F8015B521EF9D5A142D8D3002031
:1002300070BDFEE7014800F09BBA0000F41E0020EC
:10024000014800F095BA0000B01E0020014800F0FF
:100250008FBA0000E41D0020014800F089BA0000B8
:10026000A01D0020014800F083BA0000281E0020D5
:10027000014800F07DBA00006C1E002030B590F8F7
:1002800040500124AC40C56B6C60046863604368F7
:10029000102B036803D099600068C26030BD9A607B
:1002A0000068C16030BD000070B50546022101F054
:1002B0006FF90C4C03212070284601F069F9E070B9
:1002C0000421284601F064F960700521284601F0F8
:1002D0005FF9A07021462846BDE87040002201F079
:1002E000AFBA00000708002070B50C460A78054632
:1002F000022101F055F9E2780321284601F050F976
:1003000062780421284601F04BF9A2782846BDE81E
:100310007040052101F044B9704772B6FEE7002233
:10032000AFF3008030B50E4B054601205C7A012CFE
:1003300015D8587A00241C54587A03EB8000456085
:100340005D7A03F108002A54587A421C5A72303000
:1003500008703A2048702F208870CC70002030BD83
:10036000781F002006490020C8610648016941F055
:1003700004010161016941F0400101617047000021
:10038000581F002000200240064A0021D161064982
:100390000A6942F002020A614861086940F04000BF
:1003A00008617047581F002000200240044B0022C3
:1003B000DA61044A136943F0010313610180704755
:1003C000581F00200020024014480022C168CB06BC
:1003D000134904D5CA6942F00202CA611022C368F7
:1003E0005B0705D5CB6943F00103CB6142F0040202
:1003F000C369DB0707D0CB6943F00403CB61C16954
:1004000021F00101C161A2F58071013901D0C26002
:100410007047C16921F00101C161704700200240AD
:10042000581F002070B5054600F078FC0646114CB8
:1004300009E0681C07D025B100F070FC801BA842C1
:1004400001D9032070BDE068C007F2D1E0688006E2
:1004500001D52020E060E068C00605D4E069C0074F
:1004600002D1E068400703D5FFF7AEFF012070BD61
:10047000002070BD0020024038B52D4CD4F8D00EBD
:10048000B8B301680A68D243D2064FD40A6800257F
:100490004968009101F03EFED4F8D00E806B0068F0
:1004A0004068C0F51670A4F8C20EB4F8C01E084427
:1004B00081B2A4F8C01ED4F8B42E04F25A2001442C
:1004C0001160D4F8B41E0831C4F8B41ED4F8BC2EA0
:1004D000914203D100F6BA31C4F8B41EB4F8C01E7C
:1004E000A1F6B83253424FF41672934205DB08442A
:1004F00005E0FFE74FF0FF3038BDA4F8C05ED4F848
:10050000B41E4860B4F8C60E4CF25031884201D98E
:10051000012000E0401CA4F8C60EC4F8C85ED4F860
:10052000B40E4168D4F8D00E02F0A2F8002038BD15
:100530002C0D0020104982B0A1F6146000F6AC62C8
:10054000C0F8B41E00F6B460C0E90112A1F6BA32D8
:100550004A6000218181C16909680A684A6800927D
:10056000CA6842F01002CA600168C0694FF416728E
:10057000496802B002F07CB8401B002030B4044649
:1005800004480A462146D0F8D00E30BC4FF4FA6336
:1005900002F086B82C0D002010B50D4CD4F8B41E16
:1005A000D4F8B80E884212D001884068091A89B27E
:1005B00002F0A8FBD4F8B80E0830C4F8B80ED4F88E
:1005C000BC1E884203D104F61460C4F8B80E10BDF6
:1005D0002C0D00200B4810B5002101600A498160F4
:1005E0000221C160094900F0E5F9002808D000F0B7
:1005F00035FA07A003F054FDBDE81040FFF78DBEAB
:1006000010BD0000481F002000F80008300800203E
:10061000204572726F722E2E2E310D0A00000000DE
:1006200030B50022064B074C06E020CB40F82250A4
:10063000521C92B2A34201D28A42F6D330BD0000CE
:1006400000F80008000001082DE9F0410E46804640
:1006500000240D4D00F04CFAFFF7BCFF0B4F0CE0EF
:1006600058F8242000232946022000F001FA10B98E
:10067000641CA4B22D1DBD4201D2B442F0D3BDE82A
:10068000F04100F0EBB9000000F80008000001089C
:1006900010B590F821100022022905D004218163B1
:1006A00080F82020012010BD01680B6823F00E03A4
:1006B0000B6001680B6823F001030B6090F8403079
:1006C000C46B012101FA03F3636080F8211080F804
:1006D0002020104610BD000010B590F82110002415
:1006E000022903D00421816301243DE001680A68E6
:1006F00022F00E020A6001680A6822F001020A6014
:100700001A4A0168914201D1012121E0174A1432AD
:10071000914201D110211BE0144A2832914201D1AB
:10072000891515E0114A3C32914201D189140FE03C
:100730000E4A5032914202D14FF4803108E00B4A08
:100740006432914202D14FF4801101E04FF0807188
:10075000064A083A5160012180F82110002180F8F2
:100760002010416B01B18847204610BD08000240AF
:100770002DE9F05FC16B0C6801680B68D0F840C0D0
:10078000042202FA0CF2494DDFF824A1494E4A4FE7
:10079000DFF828B1DFF828E122422CD05A072AD509
:1007A0000A68920603D40A6822F004020A6001680B
:1007B000A94201D1042219E0514501D1402215E09E
:1007C000B14202D14FF4806210E0B94202D14FF43D
:1007D00080420BE0594502D14FF4802206E071457A
:1007E00002D14FF4800201E04FF080622F490839B6
:1007F0004A60C16A3BE04FF0020808FA0CF818EAB8
:10080000040F4FF000094FF0010235D05FEA837802
:1008100032D50B689B0605D40B6823F00A030B60E6
:1008200080F821200168A94201D1022219E0514536
:1008300001D1202215E0B14202D14FF4007210E044
:10084000B94202D14FF400520BE0594502D14FF4A6
:10085000003206E0714502D14FF4001201E04FF082
:100860000072124908394A6080F82090816A002994
:100870001AD0BDE8F05F0847082505FA0CF52542B7
:1008800012D01B0710D50B6823F00E030B6090F8F5
:100890004010C36B02FA01F15960826380F8212095
:1008A00080F82090016BE2E7BDE8F09F080002406D
:1008B0001C00024030000240440002405800024048
:1008C0006C00024030B528B308C8134914221944FB
:1008D000B1FBF2F18900C1631049816302214177C4
:1008E0001A6843F6F0718A43D0E900142143D0E935
:1008F00002452C432143046921434469214384690F
:10090000214311431960002141630122427701779D
:10091000084630BD012030BDF8FFFDBF0000024099
:1009200070B5044690F82000002501280CD0012065
:1009300084F8200094F821600020012E06D084F86D
:1009400020000225284670BD022070BD022684F8D2
:100950002160A0632068066826F001060660204634
:10096000FFF78CFCE06A00282068016802D041F0A3
:100970000E0106E021F0040101602068016841F0E9
:100980000A0101602068016841F001010160D9E7B6
:1009900070B5044600F0C2F90546601C02D0044858
:1009A0000078044400F0BAF9401BA042FAD370BDAD
:1009B000001C00202DE9F047054626480F46012679
:1009C000017E01290FD00121814601762868DFF8D8
:1009D00088804CF25034022808D0A2462046FFF707
:1009E00021FDA8B131E00220BDE8F0872046FFF7E5
:1009F00019FD08BB0120FFF7B5FC2046FFF712FDEB
:100A0000D8F81010064621F00401C8F810101CE0B8
:100A10004FF0FF303860AC6811E02046FFF7B4FCBF
:100A20005046FFF7FFFCD8F81010060021F0020135
:100A3000C8F8101001D03C6007E004F58064D5E9E7
:100A4000020100EB8120A042E7D8002189F81810AC
:100A50003046C9E7581F00200020024003480169C2
:100A600041F0800101610020704700000020024039
:100A70002DE9F05F07461C4888460024017E154694
:100A80001E46012909D00121814601764CF2503AD7
:100A90005046FFF7C7FC18B122E00220BDE8F09FE6
:100AA000012F02D0022F00D00427D346DFF83CA04C
:100AB000220128463146FFF735FB81B208EB44009E
:100AC000FFF774FC5846FFF7ADFCDAF8102022F06F
:100AD0000102CAF8102018B9641CE4B2BC42E7D382
:100AE000002289F81820D9E7581F00200020024072
:100AF000064900200A69120607D5054A4A60054AD8
:100B00004A600969090600D50120704700200240AB
:100B100023016745AB89EFCD2DE9F84FDFF8B89198
:100B2000002409F1040A0AF1040B23460F270BF1F4
:100B3000040EC9E00125A5402A40AA427DD1674E96
:100B4000D1F804C0ACEB0608B44532D014DCBCF1DB
:100B5000030F3AD009DCBCF1000F2AD0BCF1010F21
:100B60001CD0BCF1020F31D11DE0BCF1110F17D028
:100B7000BCF1120F2AD119E0B8F5881F19D006DC94
:100B8000B8F5803F15D0B8F5801F1FD111E0B8F53A
:100B9000001F0ED0B8F5041F18D10AE0CB6815E08D
:100BA000CB681B1D12E0CB6808330FE0CB680C3319
:100BB0000CE08B682BB1012B4FF0080303D045618B
:100BC00004E0042302E0056100E00023FF2A01D8CD
:100BD000064601E000F104064FEA840501D9A5F1BB
:100BE0002005D6F8008007FA05FC28EA0C0803FA6D
:100BF00005F548EA0508C6F800804D68ED0062D5A5
:100C0000374DAE6946F00106AE61AD6924F00306CA
:100C100005F001050095334D06EB050CDCF8085096
:100C2000A607360F07FA06F825EA0805DFF8B880A8
:100C3000404503D14FF0000817E044E0DFF8AC80F6
:100C4000404502D14FF001080FE0DFF8A480404595
:100C500002D14FF0020808E0DFF89880404502D149
:100C60004FF0030801E04FF0040808FA06F848EADC
:100C70000508CCF808804D68D9F80060ED034D46B2
:100C800001D5164300E096432E604D68DAF8006007
:100C9000AD03554601D5164300E096432E604D68DE
:100CA000DBF80060ED025D4601D5164300E0964397
:100CB0002E604D68DEF80060AD02754601D5164322
:100CC00000E096432E60641C0D682A46E5407FF4E0
:100CD00031AFBDE8F88F00000004014000001110A2
:100CE000001002400000014000080140000C0140DB
:100CF00000100140001401408068084000D001202D
:100D00007047C26821EA02030A4043EA02410161D6
:100D100070470AB1016170470904FBE70148806828
:100D200070470000001C002070B5040011D021683D
:100D30004CF6CC400860216845F255500860D4E973
:100D4000000141602168A0688860FFF7E7FF054661
:100D50000DE0012070BD00BFFFF7E0FF401B27281A
:100D600005D92068C068800701D0032070BD2068C5
:100D7000C0688007F0D121684AF6AA2008600020E8
:100D800070BD00684AF6AA2101600020704700008B
:100D9000024881680278114481607047001C00207D
:100DA000074810B5016841F010010160032000F010
:100DB00081F8002000F006F800F024F8002010BDB3
:100DC0000020024070B50D4D04464FF47A7128782A
:100DD000B1FBF0F00A490968B1FBF0F000F087FFC1
:100DE00048B9102C07D200222146501E00F042F8CC
:100DF00000206C6070BD012070BD0000001C002050
:100E000020000020124808B5816941F0010181618C
:100E1000816901F001010091C16941F08051C16116
:100E2000C06900F080500090052000F043F80022D7
:100E30001146052000F01EF8052000F00DF80548C9
:100E4000416821F0E06141F00071416008BD00009F
:100E50000010024000000140002809DB00F01F02E2
:100E6000012191404009800000F1E020C0F800110C
:100E700070470000F0B40E4B1B680C46C3F302230E
:100E8000C3F10705042D00D90425191D072901D236
:100E9000002300E0DB1E012606FA05F1491E214071
:100EA00099409E40761E16403143F0BC03F008B9CD
:100EB0000CED00E0064900F0070208684FF6FF035A
:100EC000184040EA0220034A1043086070470000BF
:100ED0000CED00E00000FA050149012008627047AE
:100EE00000000E4210B529A401461DCC86B08DE845
:100EF0001D002AA02A4C006804900020012923D05C
:100F000002293AD010291DD161682268D20119D571
:100F1000C1F38342C9031DF8020009D5616804AA20
:100F2000C1F34041515C1F4AB2FBF1F1484301E07B
:100F30001D4948436168490204D440005FF0030141
:100F4000B0FBF1F006B010BD226AC2F30121012905
:100F500003D1920701D5C803F4E7022905D1626ADB
:100F6000920702D549F64040ECE70329EAD121680F
:100F70008903E7D54FF22440E4E700F033F96168D4
:100F8000C1F38131491C4900DAE70000020304057E
:100F9000060708090A0B0C0D0E0F101001020000C5
:100FA0000010024000127A0000093D002DE9F843CC
:100FB00005460078354CC00754D0E0690026C000D3
:100FC00008D4E06940F08050E061E069012600F05B
:100FD000805000902E480168C90512D401688046EF
:100FE00041F480710160FFF799FE074605E000BFFC
:100FF000FFF794FEC01B642823D8D8F80000C00572
:10100000F6D5206A10F4407021D0A98801F440710F
:1010100081421CD0206A1F49012220F440700A60DE
:1010200000220A602062C00711D0FFF777FE074652
:1010300041F2883808E000BFFFF770FEC11B414550
:1010400002D90320BDE8F883206A8007F4D5206A1E
:10105000696820F44070084320621EB1E06920F006
:101060008050E0612878800705D56068A96820F481
:101070004040084360602878C00605D56068E9688C
:1010800020F48000084360600020DBE7001002408D
:1010900000700040400442422DE9F0470F46050031
:1010A00061D0434E306800F00700B84209D2306882
:1010B00020F0070038433060306800F00700B84285
:1010C00051D128683B4C810712D5400703D5606891
:1010D00040F4E06060602878000703D5606840F461
:1010E000605060606068A96820F0F00008436060AC
:1010F0002878C00728D06868012810D02168022805
:1011000010D0890700292EDA616821F0030101431C
:101110006160FFF703FE804641F288390DE02168E7
:101120008903EFE78901EDE7FFF7F8FDA0EB080180
:10113000494502D90320BDE8F0876068696800F07E
:101140000C00B0EB810FEFD1306800F00700B8421F
:101150000BD9306820F0070038433060306800F069
:101160000700B84201D00120E5E72878400705D5FF
:101170006068E96820F4E060084360602878000750
:1011800006D56068296920F4605040EAC1006060BB
:1011900000F038F86168084AC1F30311515CC84097
:1011A0000649086006480068FFF70CFE0020C2E709
:1011B00000200240001002400046000820000020ED
:1011C000041C00200448054900684968044AC1F32A
:1011D0000221515CC84070472000002000100240EE
:1011E000104600080448054900684968044AC1F3EC
:1011F000C221515CC840704720000020001002400E
:101200001046000812A185B00FC98DE80F0014A088
:10121000144A006804905168134801F00C03042B31
:1012200010D0082B0ED1C1F38343C9031DF803006E
:101230000AD5516804AAC1F34041515C0A4A50439F
:10124000B0FBF1F005B0704708494843FAE70000E9
:1012500002030405060708090A0B0C0D0E0F1010F7
:10126000010200000010024000127A0000093D0057
:101270002DE9F84F040070D02078C04DC00749D048
:101280006868C0F38100012807D06868C0F3810056
:10129000022809D16868C00306D52868800339D5BB
:1012A00060680028E7D035E06068B0F5803F0BD07B
:1012B00010B1B0F5A02F11D0286820F4803028603C
:1012C000286820F4802002E0286840F480302860FC
:1012D000606890B1FFF722FD06460AE0286840F4F6
:1012E00080202860F0E700BFFFF718FD801B64280E
:1012F00073D828688003F7D50CE0FFF70FFD06468A
:1013000005E000BFFFF70AFD801B6428F0D82868BD
:101310008003F7D420789A4E80074FF001094FF0F0
:10132000000839D5686810F00C0F07D06868C0F362
:101330008100022809D16868C00306D428688007A4
:1013400014D52069012808D110E02069B0B1C6F891
:101350000090FFF7E3FC074605E00AE1FFF7DEFC3B
:10136000C01B0228C4D828688007F7D5286861699F
:1013700020F0F80040EAC10028600DE0C6F80080C7
:10138000FFF7CCFC074604E0FFF7C8FCC01B0228AF
:1013900023D828688007F7D4207800072CD579480F
:1013A000A169D9B1C0F80090FFF7B8FC074604E086
:1013B000FFF7B4FCC01B02280FD8686A8007F7D576
:1013C00071484FF4FA510068B0FBF1F0009000BF93
:1013D0000098411E0091FAD20EE080E0C0F8008033
:1013E000FFF79CFC074604E0FFF798FCC01B0228AF
:1013F00075D8686A8007F7D42078400760D5E86917
:101400000027C00008D4E86940F08050E861E8692E
:10141000012700F0805000905C480168C90513D492
:101420000168834641F480710160FFF777FC8246D2
:1014300006E000BFFFF772FCA0EB0A0064284ED85C
:10144000DBF80000C005F5D5E06801280AD008B136
:10145000052813D0286A20F001002862286A20F0AD
:10146000040002E0286A40F001002862E06841F2CE
:10147000883B98B1FFF752FC82460BE0286A40F0A7
:1014800004002862EEE700BFFFF748FCA0EB0A016A
:1014900059455AD8286A8007F6D50CE0FFF73EFC7C
:1014A000824605E0FFF73AFCA0EB0A0159454CD80B
:1014B000286A8007F6D41FB1E86920F08050E861FF
:1014C000E06988B36968C1F38101022944D0022828
:1014D000C6F8608004D0FFF721FC044638E034E011
:1014E000FFF71CFC074604E0FFF718FCC01B0228AE
:1014F0002BD828688001F7D4206AB0F5803F05D149
:101500006868A16820F4003008436860D4E90801E5
:101510000843696821F4741108436860C6F8609054
:10152000FFF7FCFB044606E025E000BFFFF7F6FBF3
:10153000001B022809D828688001F7D51BE000BFEE
:10154000FFF7ECFB001B022802D90320BDE8F88F4F
:1015500028688001F4D40EE00128F7D06868226A78
:1015600000F48031914204D1616A00F47010884225
:1015700001D00120EAE70020E8E700000010024067
:1015800000004242800442422000002000700040DF
:10159000024850F8210080B270470000006C004003
:1015A000024800EB810091B201607047006C00407E
:1015B00010B5044600220B4900F061F800220A49E8
:1015C000204600F035F808480849827808788242B9
:1015D00006D00A702046BDE810400349FEF784BEDD
:1015E00010BD00000408002007080020190000209A
:1015F000704710B5044600680168C90717D04168F4
:10160000C90714D040684007204607D5FFF7F0FF10
:1016100021686FF004004860042002E0FFF7C8FF73
:10162000012060742068416821F00101416010BD13
:10163000F8B505004FF0000016460C46009006D0A5
:101640002CB100226946284600F019F808B10120A3
:10165000F8BD287B2070E87BE070697B6170A97B16
:10166000A17056B101F005FEE070607801F001FE56
:101670006070A07801F0FDFDA0700020F8BD2DE99C
:10168000F04791460C465FEA00084AD084B3D8F888
:1016900000004068400744D4404601F090FE4FF4FB
:1016A00061620546B0FBF2F1B0FBF2F302FB1350AE
:1016B0003C23B0FBF3F0B5FBF2F6607002FB165072
:1016C000B0FBF3F203FB1200A070182931D31820ED
:1016D000B1FBF0F7B1FBF0F200FB121020704046B6
:1016E00001F066FE411C04D0A84202D9461B02E06C
:1016F00017E04FF0FF36A7EB071000EB4000C0EB00
:10170000001005EBC0152946404601F0A7FE40B980
:10171000701C01D0711900E03146404601F08AFE8C
:1017200010B10120BDE8F0873946404601F0ACFD1C
:1017300000E02170B9F1000F0BD0207801F099FD85
:101740002070607801F095FD6070A07801F091FD47
:10175000A0700020E6E7000070B5040003D0607CB4
:10176000002610B105E0012070BD2674204600F06F
:1017700043F802206074204600F01AF9042578BB73
:10178000204601F0D8FD58BB2068416821F00701D0
:101790004160A06820B11748016821F00101016093
:1017A0001448001F0168A26821F4607111430160B0
:1017B0006068411C04D10120FFF794FB80B1401EFA
:1017C00021688A6822F00F0242EA10428A6021688A
:1017D000CA6860F30F02CA60204601F0C7FD08B175
:1017E0006574C0E7E67301206073A0736074002025
:1017F00070BD0000306C004008B500680D4988429B
:1018000017D1FFF769FB0C48C16941F00061C16164
:10181000C0690A4900F0006000900120086001469C
:1018200000220320FFF726FBBDE808400320FFF756
:1018300013BB08BD00280040001002403C04424297
:101840002DE9F0410D4604003BD0C5B3207C0128B2
:101850003AD04FF0010884F8108002206074E878D4
:1018600072B301F0FDFCE073687801F0F9FC60737D
:10187000A87801F0F5FCA073C2B2617BE07B01F0B7
:10188000AEFD20732870204601F099FD4FF4616190
:10189000B0FBF1F1002518292DD91822B1FBF2F186
:1018A000A1EB011101EB4101C1EB011100EBC116EC
:1018B0003146204601F0D2FD0427C8B90BE000E014
:1018C00004E00120BDE8F0810220FBE7E0736878C6
:1018D0006073A878CFE7204601F06AFD411C0AD06A
:1018E000B04208D206490144204601F0A3FD10B1E0
:1018F00067742574E5E784F8118025740020E1E71A
:10190000805101002DE9F0410D46040024D01DB3A3
:10191000207C012823D04FF0010884F81080022099
:1019200060742878EAB101F09BFC4FF4616100FB20
:1019300001F6687801F094FCC0EB001006EB80061D
:10194000A87801F08DFC35182946204601F086FD67
:101950000026042710BB0FE00120BDE8F081022023
:10196000FBE74FF4616148436978C1EB011100EB7B
:101970008100A9784518E7E72068416821F0050152
:101980004160204601F014FD411C0AD0A84208D253
:1019900006490144204601F04DFD10B167742674DC
:1019A000DAE784F8118026740020D6E78051010020
:1019B00070B504000AD02068416821F00801416038
:1019C000FFF7ACF905464FF47A7608E0012070BDC8
:1019D000FFF7A4F9401BB04201D9032070BD206875
:1019E00040680007F4D5002070BD70B5040009D030
:1019F000606A002540B125616561A56294F85100D7
:101A000040B10CE0012070BD6068B0F5827FF4D079
:101A1000E561F2E784F85050204600F03FF80220DC
:101A200084F851002068016821F040010160A0881D
:101A3000218900F4827001F404410843A18901F472
:101A400000610843217C01F002010843217D01F07F
:101A500001010843218B01F400710843217F01F04B
:101A60003801084394F8201001F080010843218DCB
:101A700001F40051084321680860A069042101EACB
:101A80001040216848602068C16921F40061C1618B
:101A90006565012084F85100002070BD30B585B027
:101AA000002400940194029403940068144988422D
:101AB00023D11448816941F480518161816901F425
:101AC00080510491816941F00401816180690E4D6A
:101AD00000F004000490A020009002200190032058
:101AE000039069462846FFF717F84020CDE9000427
:101AF000694628460294FFF70FF805B030BD000094
:101B00000030014000100240000801402DE9F84F6C
:101B1000044690F8500000270A9E1D4692468B46C8
:101B20004FF0010901280ED0012084F85000FFF782
:101B3000F5F8804694F85100616801280CD0B1F5A1
:101B4000827F07D102E00220BDE8F88FA16809B9C1
:101B5000042801D00227C2E0BBF1000F27D0BAF160
:101B6000000F24D01DB394F85100042802D00520A2
:101B700084F8510000206065C4F838A0E587A58787
:101B8000C4F830B0E586A5862064606420680168EA
:101B9000490603D4016841F040010160E068B0F5F6
:101BA000006F606805D0E8B3012D46D07FE00127C3
:101BB00095E008B1012D39D1206B21680088C860FB
:101BC000206B801C2063E08E401EE0862EE02068A3
:101BD000816889070FD5E18E69B1B9F1010F0AD18A
:101BE000216B0988C160206B801C2063E08E401E41
:101BF000E0864FF0000920688168C9070CD0E18FAA
:101C000051B1C068A16B0880A06B801CA063E08FFD
:101C1000401EE0874FF00109FFF780F8A0EB0800B5
:101C2000B04200E009E001D3701C50D1E08E0028E2
:101C3000CDD1E08F0028CAD13FE0206B2168007829
:101C40000873206B401C2063E08E401EE0862EE06F
:101C50002068816889070FD5E18E69B1B9F1010F5C
:101C60000AD1216B09780173206B401C2063E08E40
:101C7000401EE0864FF0000920688168C9070CD03B
:101C8000E18F51B1C068A16B0870A06B401CA063CC
:101C9000E08F401EE0874FF00109FFF73FF8A0EB0F
:101CA0000800B04202D3701C01D010E07EB1E08E7B
:101CB0000028CDD1E08F0028CAD1424631462046C7
:101CC00001F0F6FD28B101272020606507E0032719
:101CD00005E0A06818B92068C168806800900120FC
:101CE00084F85100002084F8500038462CE710B5E5
:101CF000401EB0F1807F01D3012010BD4FF0E024E1
:101D000060610F21601702F0DBF90020A06107205D
:101D10002061002010BD70477047000070B590F83A
:101D20003C20012A26D0012480F83C40022280F881
:101D30003D2003685A689D6822F070060A683243A5
:101D40005A600D4B02689A4208D0B2F1804F05D01C
:101D50000A4B9A4202D00A4B9A4204D1496825F0B4
:101D600080031943916080F83D40002180F83C10C9
:101D7000084670BD022070BD002C014000040040E8
:101D80000008004010B5040003D094F83D0010B1E5
:101D900007E0012010BD002084F83C00204600F040
:101DA0001FF8022084F83D00211D206801F050FE3C
:101DB000012084F8460084F83E0084F83F0084F84F
:101DC000400084F8410084F8420084F8430084F81D
:101DD000440084F8450084F83D00002010BD000058
:101DE00008B500680B49884212D10B48C16941F01F
:101DF0000201C161C069032200F0020000900021CD
:101E00001D20FFF737F8BDE808401D20FFF724B874
:101E100008BD0000000400400010024090F83D1092
:101E2000012901D001207047022180F83D1001688E
:101E3000CA6842F00102CA6000680B49884208D0B3
:101E4000B0F1804F05D00949884202D00849884244
:101E500004D1816801F00701062903D0016841F02F
:101E60000101016000207047002C01400004004087
:101E70000008004070B5044690F83C00012817D0D7
:101E8000012584F83C50022084F83D0020688268D7
:101E900022F0770222F47F4282600868502830D016
:101EA0000DDC20284DD005DC98B310283BD148E04C
:101EB000022070BD302844D0402834D139E0602859
:101EC00028D0702806D0B0F5805F2CD0B0F5005F28
:101ED00029D10AE0CB68D1E90121206801F0EEFDAB
:101EE0002068816841F0770109E0CB68D1E90121E0
:101EF000206801F0E3FD2068816841F48041816041
:101F000011E0CA684968206801F0EAFD50212068A4
:101F100007E016E0CA684968206801F0F2FD602118
:101F2000206801F0D5FD84F83D50002084F83C0085
:101F300070BDCA684968206801F0D2FD4021206860
:101F4000EFE7226801461046EBE7704770B504469C
:101F5000006801694FF00005C943890715D4C168BD
:101F6000C943890711D4E91E016101202077206847
:101F700080698007204602D0FFF7E7FF04E000F009
:101F800098F8204600F096F8257720680169C94343
:101F9000490717D4C168C943490713D46FF0040136
:101FA0000161022020772068806910F4407F20467C
:101FB00002D0FFF7CAFF04E000F07BF8204600F0F3
:101FC00079F8257720680169C943090716D4C168E3
:101FD000C943090712D46FF008010161042020777A
:101FE0002068C0698007204602D0FFF7AEFF04E0FA
:101FF00000F05FF8204600F05DF825772068016961
:10200000C943C90617D4C168C943C90613D46FF0C0
:1020100010010161082020772068C06910F4407F1A
:10202000204602D0FFF791FF04E000F042F820467E
:1020300000F040F8257720680169C943C90708D135
:10204000C168C943C90704D1891E0161204600F057
:1020500033F820680169C943090609D4C168C94336
:10206000090605D46FF0800101612046FFF753FE99
:1020700020680169C943490609D4C168C9434906B2
:1020800005D46FF040010161204600F041F820685E
:102090000169C94389060BD4C168C943890607D4BD
:1020A0006FF0200101612046BDE87040FFF734BEAB
:1020B00070BD70477047000010B500681049884235
:1020C0001CD1642000F07EFB00F0ACFD0D49D1F87E
:1020D000C404421CC1F8C42447F230510A4A884261
:1020E00007D80A4BD3F8C80E441CC3F8C84E884220
:1020F00001D9002000E0012082F8D90710BD0000BE
:102100000004004048080020240000202C0D00207E
:102110007047704710B504460068416994F83D2047
:10212000C1F3C011212A0BD151B1416921F08001C5
:102130004161606B08B1FEF7ABFA204601F072FD19
:102140002068416994F83E20C1F38011222A0BD106
:1021500051B1416921F040014161A06B08B1FEF726
:1021600097FA204601F046FD002010BD70470000A0
:10217000F8B5026804461068D168536910F00F0F73
:102180004FF0000553D003F0010601F49077374378
:102190005FD0C20705D0CA0503D5226C42F0010208
:1021A0002264420705D5DA0703D0226C42F002020E
:1021B0002264820705D5DA0703D0226C42F00402BC
:1021C0002264020707D501F02002324303D0226CBB
:1021D00042F008022264226C002A34D0800604D522
:1021E000880602D5204601F026FD20684069216C52
:1021F000C0F38010090700D430B3204601F0FAFC88
:102200002068416949061BD5416921F040014161BF
:10221000A06BA8B158494163A06BFEF75DFA002896
:1022200011D0A06B416B01B0BDE8F04008478306B8
:102230000FD58B060DD52046BDE8F84001F0FBBC5C
:102240002046FFF793FFF8BD2046FFF78FFF256478
:10225000F8BD266B2023012E52D1C60650D5CE06DE
:102260004ED5106850680090506940062AD5A16B81
:10227000086840680004000CEAD0A68D8642E7D9C1
:10228000E0858869202818D0D06820F48070D0605C
:102290002068416921F0010141612068416921F014
:1022A0004001416184F83E3025632068C16821F017
:1022B0001001C160A06BFEF7EBF9A08DE18D401A13
:1022C00081B219E0A08DE18D401A81B2E08D002825
:1022D000BED00029BCD0D06820F49070D0602068B7
:1022E000426922F00102426184F83E302563206891
:1022F000C26822F01002C2602046FFF70AFFF8BD54
:1023000005062BD50D0629D594F83D002128F6D1D8
:10231000A068B0F5805F01D12069B0B1206A411C8E
:102320002162216800784860E08C401E0004000CA7
:10233000E084E4D12068C16821F08001C160206898
:10234000C16841F04001C160F8BD206A0088C0F357
:1023500008005060206A801C2062E5E74006F3D543
:102360004806F1D5D168204621F04001D16084F8BB
:102370003D3000F0EEF9F8BD273B000870B50400D1
:1023800004D094F83D00002510B106E0012070BD96
:1023900084F83C50204600F023F8242084F83D00C7
:1023A0002068C16821F40051C160204601F09EFC04
:1023B0002068016921F4904101612068416921F0A0
:1023C0002A0141612068C16841F40051C16025645F
:1023D000202084F83D0084F83E00002070BD0000FD
:1023E0002DE9F04786B000250095019502950395EB
:1023F0000446D0F800C09648DFF85082022103223C
:10240000944B802786144FF4806A4FF01009C4451E
:102410005BD1D0F818C04CF4804CC0F818C0D0F88C
:1024200018C00CF4804CCDF810C0D0F818C04CF097
:10243000040CC0F818C08069039200F004000490F6
:102440000802CDE90001694698461846FEF764FB8C
:10245000CDF800A0AA460195694640460295FEF7D0
:102460005BFBDFF8F8817C494046C0E90015C0E914
:102470000257C8F81050C8F81450C8E90656FEF7BD
:1024800021FA08B1FDF749FF744D7348C4F838804C
:1024900044351438C8F82440C5E90009C5E902A745
:1024A000C5F810A0C5F814A0C5E906A62846FEF791
:1024B00009FA08B1FDF731FF6563022200212520EA
:1024C0006C62FEF7D7FC252061E0DFF89481C445FB
:1024D00062D1D0F81CC04CF4003CC0F81CC0D0F84D
:1024E0001CC00CF4003CCDF810C0D0F818C04CF063
:1024F000040CC0F818C08069039200F00400049036
:102500000420CDE90001694698461846FEF704FB11
:102510000820CDE90005AA46694640460295FEF727
:10252000FBFADFF838814C4908F18808404614313D
:10253000C0E90015C0E90257C8F81050C8F8145097
:10254000C8E90656FEF7BEF908B1FDF7E6FE434DB1
:102550004148C4F83880CC352830C8F82440C5E953
:102560000009C5E902A7C5F810A0C5F814A0C5E97F
:1025700006A62846FEF7A6F908B1FDF7CEFE65636C
:102580000122002126206C62FEF774FC2620FEF753
:1025900063FC06B0BDE8F087324B9C45F9D1C369B6
:1025A00043F48023C361C36903F4802304938369E4
:1025B00043F0080383618069CDE900A100F00800C1
:1025C000CDE90320DFF8A08069464046FEF7A4FA73
:1025D0004FF40060CDE90005694640460295FEF7DC
:1025E0009BFADFF888A01C4950462839C0E900153D
:1025F000C0E90257CAF81050CAF81450CAE9065682
:10260000B846FEF75FF908B1FDF787FE174FC4F82B
:1026100038A04437CAF82440C7E902580E483D6143
:102620003C387D61C7E90009C7E906563846FEF720
:1026300049F908B1FDF771FE6763012200212720E7
:102640007C62FEF717FC2720A1E70000003801405C
:10265000001002400008014058000240A01D002068
:102660000044004000480040000C0140B01E002023
:1026700090F83E30202B0ED159B152B190F83C3039
:10268000012B08D0012380F83C300023036301F0C4
:1026900089BB0120704702207047704770470000D7
:1026A0002DE9F843044690F83D001F4616460D46B6
:1026B00020284CD1C5B1BEB194F83C00012846D0C9
:1026C000012084F83C004FF00008C4F8408021202D
:1026D00084F83D00FEF722FBA6848146E684A068CC
:1026E000B0F5805F03D004E00120BDE8F8832069E5
:1026F00028B12E465FF0000584F83C800EE00026ED
:10270000FAE78021204601F085FBA0B9AEB116F8AA
:10271000010B21684860E08C401EE084E08C4B4651
:102720004FF0000200970028EBD14FF04001204607
:1027300001F070FB30B10320D7E735F8020BC0F38E
:102740000800E6E7202084F83D000020CDE70220C5
:10275000CBE77047FEE7000070B5184E184C002517
:102760003570E580A5806581301DA58101894068AF
:10277000FEF7C2FA50B100212180628820469142C2
:102780000DD029B101223270A18014E00121F3E7BC
:1027900003890BB1828100E0C28005810AE051B15A
:1027A000028942B9C289521C92B2C281642A02D9FA
:1027B00001814181E581418070BD00002008002039
:1027C000381F00202DE9F041304CDFF8B8E000223E
:1027D0002188BEF800C00D46491C2B4F89B2BCF1C0
:1027E000000F0FD076466388367A9C4501D9082EB3
:1027F00012D0BEF804E0A3EB0C0CF4452DDA082E41
:102800001BD02CE02180052D15D922803846BDE84B
:10281000F0410221FEF775BA2180B1EB900F01D291
:10282000012203E0B1EB500F02D2002202210FE09F
:1028300022805B1C6380BDE8F0812180B1EB900FAA
:1028400001D2012203E0B1EB500FF1D200220121AD
:102850003846BDE8F041FEF75CBA082E01D085424B
:1028600001D322806280002202213846FEF751FA0D
:10287000002201213846FEF74CFA2088401C2080B7
:10288000D9E7000048080020000C0140340800206F
:1028900070B50D4D95F8C804012814D10B4CA01C3F
:1028A000B4F8C41EFDF76AFE002085F8C804A5F838
:1028B000BE04A4F8C40E05F26520BDE870404FF4D4
:1028C0001671FDF758BC70BD480800202C0D002083
:1028D00010B5094C94F8D70701280BD1B4F8D427C8
:1028E0004FF47A73A11CD4F8DC07FFF7D9FE00205F
:1028F00084F8D70710BD00002400002010B503465F
:102900000078012202E09C5C6040521C8A42FADBA3
:1029100010BD00002DE9F041044600784E1E6718F6
:102920004B4D052874D16078002821D1A0788228E9
:1029300057D1B1B22046FFF7E1FF17F8011C8842DA
:102940004AD1E27900274FF00108A5F11000032ACF
:1029500015D1217AAA2902D0EE290AD00FE0617A96
:10296000AA290CD1A17AAA2909D180F80080477040
:1029700064E0617AEE2902D1A17AEE2908D00378C9
:10298000344E04F108012BB18046012B0AD055E0EA
:10299000077004E0A6F8C42EB01CFDF7D3FB85F841
:1029A000C8844BE02B48B6F8C43E801C184406F699
:1029B000C466FDF7C7FB3088E1790844308098F899
:1029C00001104046491CC9B288F80110072935D9C1
:1029D000077088F8017031E02078052818D16078F8
:1029E00060BBA078812829D1B1B22046FFF786FFCD
:1029F00017F8011C88420BD117F8020C287320B17C
:102A00000520E8710A2001E002E00920687215E063
:102A10002078012812D1607880B9A07882280DD161
:102A2000B1B22046FFF76AFF17F8011C884205D1B2
:102A300037F8050C40BA28800320A871D5F8CC04DB
:102A4000BDE8F0414FF416720349FFF711BE0000D4
:102A5000480800202C0D0020AD0A0020F8B51E4CBF
:102A6000D4F8CC0440B301680A68D243D20630D40B
:102A70000A68002649680091FFF74CFBD4F8CC04A3
:102A8000806B00684068154DC0F5167082B2A4F8DE
:102A9000BE2404F26521A5F8D4270F46A81CFDF733
:102AA00051FB012085F8D707B4F8C2044CF250312D
:102AB000884204D9012003E04FF0FF30F8BD401CEC
:102AC000A4F8C204C4F8C464B4F8BE143846FFF7CE
:102AD00021FF0020F8BD000048080020240000204D
:102AE0000E4908B5D1F8CC0400680268426800922B
:102AF000C26842F01002C260D1F8CC044FF41672E2
:102B000001F26521FFF7B4FDC820FDF741FF00F099
:102B10004DF8BDE8084000F077B8000048080020F4
:102B20002DE9F047814601F10B071E4690460D4600
:102B3000384601F01FFD0446052020700022627017
:102B40000123A370A91DE1704FEA1820207184F8B9
:102B50000580A2710720E071237265722A464946FA
:102B600004F10A00FDF7EEFA05F10A0081B22046F1
:102B7000FFF7C4FE61190C4D8872BAB24FF4FA63C4
:102B80002146D5F8CC04FFF78BFD02E00120FDF7CC
:102B9000FFFE687A092802D0761EB6B2F6D2204629
:102BA000BDE8F04701F05ABC480800202DE9F0418B
:102BB000134C0A254FF4FA764FF4167804F2652781
:102BC0003046FDF7E5FE334612220E49D4F8CC0418
:102BD000FFF766FD42463946D4F8CC04FFF748FDBE
:102BE000A079032802D06D1EADB2E9D220886080A2
:102BF00005B910B10020BDE8F0810420FBE700001A
:102C000048080020180D002008B501216846FDF78E
:102C100007FDBDF80000024940BA888008BD0000E9
:102C2000480800202DE9F041FFF796FD3249334E68
:102C30004889A6F1100440B12079421C2271022873
:102C400001D901202071072030722079002560B160
:102C50002B4F01280ED0022805D1888860B3E07878
:102C6000401CE0702581BDE8F081A570E57008206A
:102C70003072F8E7888818B1A078401CA070F1E79E
:102C8000088908B1012202E0088810B1002202215F
:102C90001AE0012202213846FEF73BF82089411C48
:102CA0002181C828DFD9A07818B100F0B5F802203A
:102CB000B07125712581E9E7088908B1012202E098
:102CC000088830B1002201213846BDE8F041FEF706
:102CD00020B8012211463846FEF71BF82089411C16
:102CE0002181C828BFD9E07810B1B08000F0D6F8B3
:102CF00025712581E6E70000381F002048080020E4
:102D0000000C01402DE9F05F424C00250E46814643
:102D10004FF00A0A4FF0050B4FF47A77A4F1100830
:102D2000642963D93B48A2883B460321801FFFF7F3
:102D3000F7FE607A092805D0B8F80600421EA8F808
:102D40000620EFD284F809A0A8F806B01AE000BF68
:102D500009EB8007A28838464FF47A736421FFF7A5
:102D6000DFFE607A092805D0B8F80600421EA8F8F0
:102D70000620EFD2643E84F809A06D1CA8F806B0C6
:102D8000B6B2EDB205EBC500642E00EB0510DFD244
:102D900009EB80054FF47A77A28828463B463146F6
:102DA000FFF7BEFE607A092805D0B8F80600421E7B
:102DB000A8F80620F0D284F809A055465E46A8F887
:102DC00006B01448A2883B460321C01EFFF7A8FEA8
:102DD000607A092805D0B8F80600411EA8F8061048
:102DE000EFD26572A8F80660BDE8F09FA2883B4666
:102DF00031464846FFF794FE607A092805D0B8F8B6
:102E00000600411EA8F80610F0D284F809A0A8F820
:102E100006B0E9E74808002000B585B0002101228E
:102E20008DF800208DF801108DF802200D228DF80C
:102E30000320A5228DF804208DF805206C228DF842
:102E4000062080228DF8072012228DF80820072204
:102E50008DF8092017228DF80A208DF80C10020A2F
:102E60008DF80D208DF80E0003208DF80B108DF8D5
:102E70000F008DF8101011216846FFF73FFD8DF807
:102E8000110005484FF47A731222D0F8CC04694639
:102E9000FFF706FC05B000BD4808002008B5010A90
:102EA0008DF800108DF8010001216846FDF7CCFB7C
:102EB00008BD00001D4808B5416941F001014161AC
:102EC0004069002200F00100009011460C20FDF73F
:102ED000D1FF0C20FDF7C0FF002211460D20FDF7A9
:102EE000C9FF0D20FDF7B8FF002211460E20FDF7A7
:102EF000C1FF0E20FDF7B0FF002211460F20FDF7A5
:102F0000B9FF0F20FDF7A8FF002211461020FDF7A2
:102F1000B1FF1020FDF7A0FF002211461120FDF7A0
:102F2000A9FFBDE808401120FDF796BF0010024040
:102F300010B504490448FDF7F2F90249491E08702A
:102F400010BD000015000020000000202DE9F04118
:102F500086B000262B48009601960296039681695A
:102F600041F020018161816901F0200104918169B2
:102F700041F004018161816901F0040104918169DA
:102F800041F00801816180691F4F00F00800049042
:102F9000002212213846FDF7BCFEDFF870800022C7
:102FA00003214046FDF7B5FE012208214046FDF70A
:102FB000B0FE02250124CDE9005469463846CDE92A
:102FC0000245FDF7A9FD1020CDE900040320CDE95D
:102FD000024069463846FDF79FFD0B20CDE900040D
:102FE00069464046CDE90245FDF796FD2002CDE950
:102FF0000006694602944046FDF78EFD06B0BDE826
:10300000F08100000010024000080140000C014067
:10301000094810B507490160062141604FF4C861B5
:103020008160FDF781FE002803D0BDE81040FDF768
:1030300074B910BD00300040141C00207CB5002481
:10304000019401212A480094FEF7A2FA2849621E41
:10305000284B8C6045F22005C1E90032A8420846A1
:1030600032D0FEF779FB08B1FDF757F909208DF84A
:10307000040035208DF805008DF80640012201A9D5
:103080001B48FEF73FFC08B1FDF747F904208DF817
:10309000000008208DF8010026208DF80200222073
:1030A0008DF80300012269461148FEF7C9FB08B1FB
:1030B000FDF733F92A4601210D48FEF771FA6946FA
:1030C0000B48FDF711F907E0FEF746FB08B1FDF7E5
:1030D00024F90748FDF7E8F8002207490448FEF7FD
:1030E000CEFA002205490248FEF7A2FA7CBD000094
:1030F000201C0020002800400408002007080020B1
:10310000104810B50E4901604FF4827141600021F2
:103110008160C1604FF400720161C0E905120822AC
:10312000C0E90721416281620A21C162FEF75DFCAC
:10313000002803D0BDE81040FDF7EFB810BD000037
:1031400000300140341C002010B586B00024174820
:10315000009401940294039404941349059401602B
:103160004721C0E9011442F20F71C0E903148461E0
:10317000FEF708FE08B1FDF7D0F84FF4805000903C
:1031800069460A48FEF776FE08B1FDF7C6F80494D2
:1031900004A906480594FEF7C1FD002801D0FDF7FB
:1031A000BCF806B010BD0000000400408C1C0020DC
:1031B0000C4810B50A4901604FF4165141600021D6
:1031C00081600C22C160C0E904128161C161FFF716
:1031D000D5F8002803D0BDE81040FDF79EB810BD1B
:1031E00000380140D41C00200C4810B50A49016089
:1031F0004FF416514160002181600C22C160C0E98A
:1032000004128161C161FFF7B9F8002803D0BDE85D
:103210001040FDF782B810BD00440040181D00208A
:103220000C4810B50A4901604FF416514160002165
:1032300081600C22C160C0E904128161C161FFF7A5
:103240009DF8002803D0BDE81040FDF766B810BD1A
:10325000004800405C1D0020FEE7FEE77047704715
:10326000010901EB810100F00F0000EB4100C0B249
:103270007047002102E00A38C0B2491C0A28FAD27D
:10328000090740EA116070472DE9F0410446002526
:10329000C07B627BA37B42E0012A16D0032A14D0B4
:1032A000052A12D0072A10D0082A0ED00A2A0CD0DC
:1032B0000C2A0AD0042A10D0062A0ED0092A0CD0D3
:1032C0000B2A0AD0022A0DD028E01F2B0CD30C2A7F
:1032D00005D101221346401C20E01E2B04D30123FC
:1032E000521C1BE01C2B02D203F1010316E011D18A
:1032F00083B29E0710D16426B3FBF6F706FB1736A0
:1033000036B94FF4C876B3FBF6F706FB17331BB993
:103310001D2303E01D2B01D1032201236D1C8D42CF
:10332000BAD3D1B2E0736173DAB2A27300F057F886
:103330002073BDE8F08170B50446FDF7EFFC05464B
:103340004FF47A7606E0FDF7E9FC401BB04201D964
:10335000032070BD206840688006F4D5206841686D
:1033600041F010014160002070BD000070B50446BE
:103370000068416821F010014160FDF7CFFC05466F
:103380004FF47A7607E000BFFDF7C8FC401BB0425F
:1033900001D9032070BD206840688006F4D5002064
:1033A00070BD00000148FEF724B90000201C002079
:1033B0000168086A496A89B241EA004070470068BA
:1033C00081698AB2C1698BB2816989B28A4203D0AC
:1033D000C06961F31F40704743EA02407047F0B58F
:1033E0006424C1EBC1030927A500072603EB0113E1
:1033F0000329B3FBF7F100F5FA60114401440AD246
:10340000401EB0FBF4F201EB9001B0FBF5F0891A1D
:103410000844001D08E0B0FBF4F201EB9001B0FBA2
:10342000F5F0891A0844801CB0FBF6F106FB110088
:10343000C0B2F0BD70B50D4606460024FFF77BFF15
:1034400048B93168280C08623168A8B24862304631
:10345000FFF78CFF00B10124204670BD70B50D460A
:1034600006460024FFF767FF48B93168280C8861D9
:103470003168A8B2C8613046FFF778FF00B1012477
:10348000204670BD044B20B1002210211846FDF7E4
:1034900040BC0122F9E700000008014070B5054674
:1034A00001220021092000F0BFF910F0FF0404D12F
:1034B0001021284600F078F804460020FFF7E2FFCC
:1034C0000CB1012070BD002070BD1FB56846FFF72C
:1034D000E5FF10B1002004B010BD9DF800100120E0
:1034E000B0EB911F09D19DF808209DF8091000EB61
:1034F0000220084400048009EDE79DF805009DF8CE
:103500000A1000F00F0000EBD1109DF809109DF893
:10351000072001F0030100EB41019DF8080080093C
:1035200000EB82009DF8062002F0030200EB8220EF
:10353000401CC91F8840CEE72DE9F04106461948D6
:1035400015464078062800D049024FF40077012D37
:103550004FF001021AD0122000F066F939463046C9
:1035600000F022F86D1E044606F5007615F0FF0502
:1035700001D0002CF2D0012200210C2000F054F9DF
:103580000020FFF77FFF2046BDE8F081112000F00A
:103590004BF910F0FF04F3D13946304600F004F83F
:1035A0000446EDE70C08002070B505460C460120E6
:1035B000FFF768FFFF2001F013F806466420FDF7CF
:1035C000E7F9FE2EF6D103E001F00AF805F8010B49
:1035D000641EA4B24FF0FF00F6D201F001F8FF2004
:1035E00000F0FEFF002070BD70B50D460646FF24BA
:1035F000FF2000F0F5FFFF2802D0641EE4B2F7D2EE
:10360000DCB1284600F0ECFFFD2D18D000244FF46B
:103610000075305D00F0E4FF641CA4B2AC42F8D346
:10362000FF2000F0DDFFFF2000F0DAFFFF2000F0B8
:10363000D7FF00F01F00052801D0022070BD002038
:1036400070BD000070B506461F4815460C46407810
:10365000062800D04C02012D14D0012809D00122E7
:103660000021372000F0E0F801222946172000F061
:10367000DBF801222146192000F0D6F810F0FF04F3
:103680000BD01BE001222146182000F0CDF810F0ED
:10369000FF0413D1FE2130460DE0FC213046FFF738
:1036A000A3FF6D1E06F5007615F0FF0501D000287A
:1036B000F3D0FD210020FFF797FF04460020FFF71D
:1036C000E1FE204670BD00000C0800202DE9FC4101
:1036D0000027009714263820019700F055F90020A4
:1036E000FFF7D0FE4F4D0024287800F079FF641CCE
:1036F000A4B20A2CF8D300219522084600F094F8D1
:10370000C0B2012802D0761EB6B2F4D26F70872202
:103710004FF4D571082000F087F8C0B2012873D1AA
:1037200000246E46287800F05BFF3055641CE4B23C
:10373000042CF7D39DF802004FF6FE74012803D144
:103740009DF80300AA281FD001220021372000F095
:103750006BF801220021292000F066F8C0B2012890
:103760003DD80220687001220021372000F05CF86B
:1037700001220021292000F057F810F0FF0F3BD064
:10378000641EA4B2EFD237E04FF08047012200213F
:10379000372000F049F801223946292000F044F88A
:1037A00010F0FF0F02D0641EA4B2EFD2B4B1012218
:1037B00000213A2000F038F880B90024FF2000F002
:1037C0000FFF3055641CE4B2042CF7D39DF80000C1
:1037D000400601D5062000E00420687014E00120B6
:1037E000687001220021104600F01EF810F0FF0F53
:1037F00002D0641EA4B2F4D22CB1012251021020D6
:1038000000F012F800B16F700020FFF73BFE0820B7
:1038100000F0BAF8687810B10020BDE8FC81012002
:10382000FBE700000C0800202DE9F0410646904619
:103830000D464FF6F0740020FFF724FE1420FDF72C
:10384000A7F80120FFF71EFE184F387800F0C8FED9
:10385000FF2802D0641EA4B2F7D224B3FF2446F09E
:10386000400000F0BDFE280E00F0BAFEC5F3074090
:1038700000F0B6FEC5F3072000F0B2FEE8B200F09B
:10388000AFFE404600F0ACFE0C2E02D1387800F0BE
:10389000A7FEFF2000F0A4FE010602D5641EA4B21C
:1038A000F7D2002C00D10220BDE8F0810C080020E6
:1038B00038B50B46009204460022802100F008F83B
:1038C000002804D0606D40F020006065032038BD02
:1038D0002DE9F8431E46914688460446089DFDF7AB
:1038E0001DFA401B351AFDF719FA074625480068EE
:1038F000C0F3CB30684338E0701C37D0FDF70EFAC8
:10390000C01BA84203D215B1009860B32CE0206818
:10391000416821F0E00141606068B0F5827F0BD121
:10392000A068B0F5004F02D0B0F5806F04D12068D8
:10393000016821F040010160A06AB0F5005F09D183
:103940002068016821F4005101602068016841F499
:1039500000510160012084F85100002084F85000DB
:103960000320BDE8F8830025401E00902068816890
:1039700038EA010004D000214945BDD10020F0E71C
:103980000121F9E72000002010B50A4C21680A68DF
:1039900022F040020A6008492160E0612046FEF7FB
:1039A00024F808B1FCF7B9FC2068016841F0400137
:1039B000016010BD341C0020003001407047FDF74D
:1039C000E7B970B594B028216846FCF7D4FB142100
:1039D0000AA8FCF7D0FB00250F95092001241095BB
:1039E0000090119512954FF4803004940694CDE91F
:1039F00001050226CDE907604FF4E0100990684602
:103A0000FDF736FC08B172B6FEE70F20CDE90A06D5
:103A10004FF48060CDE90C5002210AA80E95FDF705
:103A20003BFB08B172B6FEE74FF40070CDE90F40E2
:103A30000FA8FDF7BBFA002801D072B6FEE714B05C
:103A400070BD70470148FEF781BA00008C1C002051
:103A5000F0B50268164B174C174D4FF0804798424F
:103A600005D0B84203D0A04201D0A84203D122F031
:103A700070064A683243984205D0B84203D0A0424B
:103A800001D0A84203D122F44074CA6822434C6991
:103A900022F08002224302608A68C2620A6882625F
:103AA000984201D10969016301214161F0BD000023
:103AB000002C0140000400400008004010B584685C
:103AC00042EA032224F47F440A432243826010BD69
:103AD000826822F070020A4342F007018160704759
:103AE00010B5036A046A24F001040462846924F0B6
:103AF000F00444EA021423F00A020A4384610262D9
:103B000010BD10B5036A23F0100303628369046AD1
:103B100023F4704343EA023224F0A00343EA011184
:103B20008261016210BD10B5406A0021C185C18467
:103B3000FEF71CFB10BD70B5446A2068406994F81C
:103B40003D10C0F3C0100025212904D118B1E5842F
:103B5000204600F067F82068406994F83E10C0F3F2
:103B60008010222904D118B1E585204600F042F8E2
:103B7000206C40F0100020642046FEF7F7FA70BD7C
:103B800010B50146406A0968096889061BD40021FE
:103B9000C1850168CA6822F48072CA6001684A69F6
:103BA00022F001024A6101684A6922F040024A613A
:103BB000202180F83E10016B012904D10168CA68F8
:103BC00022F01002CA60016B012902D0FEF765FDE8
:103BD00010BD818DFEF79DFA10BD10B5406A016BD6
:103BE000012902D0FEF75AFD10BD818D4908FEF76C
:103BF00090FA10BD0168CA6822F49072CA60016828
:103C00004A6922F001024A61016B012904D101686D
:103C1000CA6822F01002CA60202180F83E100021FC
:103C2000016370470168CA6822F0C002CA6020219F
:103C300080F83D10704708B590F83E10222901D059
:103C4000022008BD82684FF480539A4201D1016975
:103C500021B1816A9A421BD04AB10AE00268816AA6
:103C60005268C2F308020A80816A891C08E002696E
:103C700072B10268526802F07F020A70816A491CC0
:103C80008162C18D491E0904090CC18503D019E068
:103C900002685268F1E70168CA6822F02002CA602F
:103CA0000168CA6822F48072CA6001684A6922F019
:103CB00001024A61202180F83E10016B012903D0E6
:103CC000FEF7EBFC002008BD002101630168CA6813
:103CD00022F01002CA6001680A68D20602D50A689A
:103CE00049680091818DFEF714FAEBE770B5044640
:103CF00000680169E26821F44051114301612169C2
:103D0000A0680843616908432168CA6841F20C63EE
:103D10009A430243CA6020684169A26921F4407154
:103D2000114341611E492068884202D1FDF75AFAC9
:103D300001E0FDF747FA00EBC00101EB00126068FB
:103D400064218000B2FBF0F3B3FBF1F36FF01806CF
:103D50007343B2FBF0F5B2FBF0F605EB83053223BB
:103D600003EB0515B5FBF1F5B6FBF1F605F0F00533
:103D700005EB0615B2FBF0F6B2FBF0F0B0FBF1F08C
:103D80006FF01802504306EB800003EB0010B0FB0D
:103D9000F1F0216800F00F002844886070BD000039
:103DA0000038014038B581628285002513460446FB
:103DB0000564222084F83E00A26B13489062A26B37
:103DC0001248D062A26B12481063A06B0A4645638A
:103DD0002168A06B091DFCF7A3FD206801684168FC
:103DE000009184F83C50C16841F48071C160206842
:103DF000416941F0010141612068416941F04001A0
:103E00004161002038BD0000813B0008DB3B000819
:103E1000373B00082DE9F041984617460E46044608
:103E2000069D1DE0681C1BD02DB1FCF777FFA0EBB1
:103E30000800A84214D92068C16821F4D071C1607B
:103E40002068416921F001014161202084F83D0092
:103E500084F83E00002084F83C000320BDE8F08197
:103E60002068006836EA000004D00020B842D9D0AB
:103E70000020F3E70120F9E710B500F0C3F8BDE832
:103E800010400148FEF774B9D41C002010B5FEF7AD
:103E9000E5FDBDE810400148FEF76AB9181D002095
:103EA00010B5FCF7E9FABDE810400148FEF760B92B
:103EB0005C1D002010B5FFF709FC002809D0382050
:103EC000FFF762FDFF2000F08BFB0820FFF75CFD91
:103ED000012010BD10B5144641B101291DD00229A1
:103EE00014D0032915D00424204610BD0120FFF76B
:103EF000C9FA1420FCF74CFDFF2000F071FBFF28ED
:103F0000F7D100242046FFF7BDFAEDE74FF400702B
:103F100000E0082010800024E6E7FFF7D6FA2060D2
:103F2000F9E770B514460D460BB148B901E004201D
:103F300070BDDAB221462846FFF7FEFA0028F7D016
:103F4000012070BD002804D0012803D0022801D030
:103F5000012070470020704770B514460D460BB124
:103F600048B901E0042070BDDAB221462846FFF7C7
:103F700069FB0028F7D0012070BDFEE710B5FCF703
:103F80000BFBFEF7A5FCFEF783FC0F4CA079022883
:103F900008D1FEF70BFE98B10CA000BF00F080F82E
:103FA0000020A071B4F8C2140E4859B10E49B1F8FE
:103FB000C61E39B10022BDE810400221FCF7A9BE9F
:103FC0000AA0EBE70122F6E7480800204C6F726177
:103FD00020494420BBF1C8A1CAA7B0DCA3A1200D91
:103FE0000A000000000801402C0D00204C6F726197
:103FF00020494420BBF1C8A1B3C9B9A6A3A1200D93
:104000000A00000038B5184CD4F8DC0748B3016842
:104010000A68D243D20622D40A6849680091FEF7A2
:1040200079F8D4F8DC07806B0068406804F2EA3164
:10403000C0F57A7082B20D48A4F8D2274FF4FA7313
:10404000D0F8CC040D4604F2D474FEF729FB01200D
:10405000A0704FF47A722946A068FEF709FB002091
:1040600038BD4FF0FF3038BD240000204808002044
:104070000A4982B0D1F8DC07006802684268009201
:10408000C26842F01002C260D1F8DC074FF47A72C5
:1040900001F2EA3102B0FEF7EBBA00002400002082
:1040A0000FB4054B10B503A9044A029800F028F894
:1040B00010BC5DF814FB0000454400081C00002003
:1040C0000907090E002804DB00F1E02080F8001445
:1040D000704700F00F0000F1E02080F8141D7047D9
:1040E00002E008C8121F08C1002AFAD170477047C1
:1040F000002001E001C1121F002AFBD1704700001F
:104100002DE9FF4F8BB088460546002606E025289E
:104110000BD0DDE90D1290476D1C761C2878002825
:10412000F5D10FB03046BDE8F08F0024A146A2467D
:104130000122AE4900E0044315F8013F203B02FA9A
:1041400003F00842F7D128782A2810D06FF02F0208
:104150002878A0F13001092915D809EB890102EB73
:10416000410144F0020400EB01096D1CF0E758F82E
:10417000041B5FEA010903D544F40054C9F10009A6
:1041800044F002046D1C28782E2817D115F8010F71
:1041900044F004042A280ED06FF02F022878A0F1F2
:1041A000300109290AD80AEB8A0102EB410100EB30
:1041B000010A6D1CF2E758F804AB6D1C28786C28D6
:1041C0000FD006DC4C2817D068280DD06A2814D1EF
:1041D00004E0742810D07A280FD10DE044F40014C4
:1041E0000AE044F4801401E044F440146978814208
:1041F00002D104F580146D1C6D1C2878692865D0E7
:1042000006DC00288DD0632827D0642806D15DE025
:104210006E2808D073282AD0752877D0DDE90D12D2
:104220009047761CE0E0C4F30250022809D003282E
:104230000DD0D8F8001004280DD00E6008F1040845
:10424000D2E0D8F80010F217C1E90062F6E7D8F81A
:1042500000100E80F2E70E70F0E718F8041B8DF8DE
:10426000001000208DF80100EB46012003E058F813
:1042700004BB4FF0FF3061074FF0000701D40AE0A4
:104280007F1C57450DDA8742FADB1BF8071000291F
:10429000F6D106E07F1C8742FCDB1BF807100029E3
:1042A000F8D1DDE90D23A9EB07008146214600F096
:1042B000B1F83044C61904E0DDE90D121BF8010B1A
:1042C00090477F1EF8D22146484688E058F8040BF4
:1042D000C4F302514FF00A0B032900D100B20429A4
:1042E00000D140B2002802DA40422D2102E021052F
:1042F00005D52B218DF82410012104E006E0E1070B
:1043000010D02021F6E708AF089113E058F8040B0D
:10431000C4F302514FF00A0B032900D180B20429E3
:1043200000D1C0B20021EEE75946FBF72FFF303134
:1043300007F8011D0028F7D1ADEB070000F1200BB5
:10434000600702D524F4803401E04FF0010ADA4519
:1043500002DDAAEB0B0000E00020824600EB0B011F
:1043600008980144A9EB01000A90E00306D4DDE9B6
:104370000D2321460A9800F04DF806444FF000093D
:1043800008E009A911F80900DDE90D12904709F1CB
:104390000109761C08998945F3DBE0030CD5DDE9BA
:1043A0000D2321460A9800F035F8064404E0DDE9C3
:1043B0000D1230209047761CBAF10001AAF1010AD3
:1043C000F5DC05E0DDE90D1217F8010B9047761CCE
:1043D000BBF10001ABF1010BF4DC0A982146DDE9E9
:1043E0000D2300F005F806446D1C97E6092801002E
:1043F0002DE9F041044600251E461746880404D4E2
:1044000005E039462020B0476D1C641EF9D52846CA
:10441000BDE8F0812DE9F041044600251E46904696
:10442000C80301D5302700E02027880404D505E023
:1044300041463846B0476D1C641EF9D52846BDE894
:10444000F081000004490A685206FCD5024AC1B254
:10445000121D1160704700000038014010B500289F
:1044600021D0114B0022001F196803E0814203D8BC
:104470000A4649680029F9D152B11368841A9C424E
:1044800004D1006818441060104602E0506000E05B
:10449000186039B102680B1A934203D10B681A44B1
:1044A00002604968416010BD0C1C0020FCF778FCDC
:1044B000FFF787FAFEF74AFDFEF7FCFCFEF744FE25
:1044C000FEF776FEFEF790FEFEF7AAFEFEF7A0FDD1
:1044D000FEF716FEFEF72CFDFEF7B0FD1D48006846
:1044E000016841F001010160C820FCF751FAFEF7B4
:1044F000F7FAFFF7BDFDFCF71DF8C820FCF748FAF6
:10450000154900200246A1F8C2041449A1F8C60EBC
:1045100002211348FCF7FDFB124C0022012120462A
:10452000FCF7F7FB002202212046FCF7F2FB0E48C5
:10453000FDF774FC0D4C00BFFFF720FD94F8D90780
:104540000128F9D10520FCF723FA0948FCF719FCEA
:10455000F2E70000201C0020480800202C0D00205D
:1045600000080140000C01408C1C002024000020A9
:10457000141C0020F0B50B30154D20F0070100246D
:10458000144A0FE003688B420BD38B4205D95E1AA5
:1045900043184768C3E9006700E04368136002C03E
:1045A00004E0021D10680028ECD12046002802D14A
:1045B000286808B10020F0BD064A07481060074A85
:1045C000121A22F00702C0E9002401202860D7E770
:1045D000101C00200C1C00208C1F002088270020AD
:1045E00001B582B064200090012301AA02A903480A
:1045F000FDF78CFA9DF804000EBD0000341C00206D
:104600000000000000000000010203040607080982
:1046100000000000010203043846000800000020EA
:10462000141C0000DC010008C8460008141C00200F
:10463000742D0000F040000813B53E1408453F1BE0
:104640000823041A59041AD5105172FF03FF24F4E9
:1046500001FF01FF01FF01FF01FF01FF01E1220155
:1046600013D41C822072FFB00B4C4F473030312ED8
:104670007478742C0C014030E132055FAAAAAAEECE
:10468000EEEE4F1103FF080A01FF01FF01FF01C613
:1046900013181D132001B5020DA5A5420E02FF300F
:1046A00001FF015902FF3001FF01FF01FF01FF017E
:1046B000FF01FF01FF01FF01FF01FF01FF01811366
:0846C0005C1D332001F2100023
:04000005080000ED02
:00000001FF
